{
	"ICO/ico.sol": {
		"ICO": {
			"abi": [
				{
					"inputs": [
						{
							"internalType": "address",
							"name": "usdtAddress",
							"type": "address"
						},
						{
							"internalType": "address",
							"name": "tokenAddress",
							"type": "address"
						},
						{
							"internalType": "uint256",
							"name": "_start",
							"type": "uint256"
						},
						{
							"internalType": "uint256",
							"name": "_end",
							"type": "uint256"
						},
						{
							"internalType": "uint256",
							"name": "_coinprice",
							"type": "uint256"
						},
						{
							"internalType": "uint256",
							"name": "hardcap",
							"type": "uint256"
						},
						{
							"internalType": "uint256",
							"name": "_minPurchase",
							"type": "uint256"
						},
						{
							"internalType": "uint256",
							"name": "_maxPurchase",
							"type": "uint256"
						}
					],
					"stateMutability": "nonpayable",
					"type": "constructor"
				},
				{
					"inputs": [
						{
							"internalType": "uint256",
							"name": "rate",
							"type": "uint256"
						}
					],
					"name": "ChangerateVDOITtoUSDT",
					"outputs": [],
					"stateMutability": "nonpayable",
					"type": "function"
				},
				{
					"inputs": [],
					"name": "Hardcap",
					"outputs": [
						{
							"internalType": "uint256",
							"name": "",
							"type": "uint256"
						}
					],
					"stateMutability": "view",
					"type": "function"
				},
				{
					"inputs": [],
					"name": "admin",
					"outputs": [
						{
							"internalType": "address",
							"name": "",
							"type": "address"
						}
					],
					"stateMutability": "view",
					"type": "function"
				},
				{
					"inputs": [],
					"name": "availableTokens",
					"outputs": [
						{
							"internalType": "uint256",
							"name": "",
							"type": "uint256"
						}
					],
					"stateMutability": "view",
					"type": "function"
				},
				{
					"inputs": [
						{
							"internalType": "uint256",
							"name": "usdtAmount",
							"type": "uint256"
						}
					],
					"name": "buy",
					"outputs": [],
					"stateMutability": "nonpayable",
					"type": "function"
				},
				{
					"inputs": [],
					"name": "claimusdtPermonth",
					"outputs": [],
					"stateMutability": "nonpayable",
					"type": "function"
				},
				{
					"inputs": [],
					"name": "coin_price",
					"outputs": [
						{
							"internalType": "uint256",
							"name": "",
							"type": "uint256"
						}
					],
					"stateMutability": "view",
					"type": "function"
				},
				{
					"inputs": [],
					"name": "collectUsdt",
					"outputs": [],
					"stateMutability": "nonpayable",
					"type": "function"
				},
				{
					"inputs": [],
					"name": "end",
					"outputs": [
						{
							"internalType": "uint256",
							"name": "",
							"type": "uint256"
						}
					],
					"stateMutability": "view",
					"type": "function"
				},
				{
					"inputs": [],
					"name": "maxPurchase",
					"outputs": [
						{
							"internalType": "uint256",
							"name": "",
							"type": "uint256"
						}
					],
					"stateMutability": "view",
					"type": "function"
				},
				{
					"inputs": [],
					"name": "minPurchase",
					"outputs": [
						{
							"internalType": "uint256",
							"name": "",
							"type": "uint256"
						}
					],
					"stateMutability": "view",
					"type": "function"
				},
				{
					"inputs": [
						{
							"internalType": "address",
							"name": "",
							"type": "address"
						}
					],
					"name": "sales",
					"outputs": [
						{
							"internalType": "uint256",
							"name": "",
							"type": "uint256"
						}
					],
					"stateMutability": "view",
					"type": "function"
				},
				{
					"inputs": [],
					"name": "start",
					"outputs": [
						{
							"internalType": "uint256",
							"name": "",
							"type": "uint256"
						}
					],
					"stateMutability": "view",
					"type": "function"
				},
				{
					"inputs": [],
					"name": "token",
					"outputs": [
						{
							"internalType": "contract Token",
							"name": "",
							"type": "address"
						}
					],
					"stateMutability": "view",
					"type": "function"
				},
				{
					"inputs": [],
					"name": "usdt",
					"outputs": [
						{
							"internalType": "contract IERC20",
							"name": "",
							"type": "address"
						}
					],
					"stateMutability": "view",
					"type": "function"
				},
				{
					"inputs": [],
					"name": "usdtTotaltoken",
					"outputs": [
						{
							"internalType": "uint256",
							"name": "",
							"type": "uint256"
						}
					],
					"stateMutability": "view",
					"type": "function"
				}
			],
			"devdoc": {
				"kind": "dev",
				"methods": {},
				"version": 1
			},
			"evm": {
				"assembly": "    /* \"ICO/ico.sol\":174:3017  contract ICO {... */\n  mstore(0x40, 0x80)\n    /* \"ICO/ico.sol\":1065:1805  constructor(... */\n  callvalue\n  dup1\n  iszero\n  tag_1\n  jumpi\n  0x00\n  dup1\n  revert\ntag_1:\n  pop\n  mload(0x40)\n  sub(codesize, bytecodeSize)\n  dup1\n  bytecodeSize\n  dup4\n  codecopy\n  dup2\n  add\n  0x40\n  dup2\n  swap1\n  mstore\n  tag_2\n  swap2\n  tag_3\n  jump\t// in\ntag_2:\n    /* \"ICO/ico.sol\":1311:1316  token */\n  0x0b\n    /* \"ICO/ico.sol\":1311:1338  token = Token(tokenAddress) */\n  dup1\n  sload\n  sub(shl(0xa0, 0x01), 0x01)\n  dup1\n  dup11\n  and\n  not(sub(shl(0xa0, 0x01), 0x01))\n  swap3\n  dup4\n  and\n  or\n  swap1\n  swap3\n  sstore\n    /* \"ICO/ico.sol\":1348:1352  usdt */\n  0x0c\n    /* \"ICO/ico.sol\":1348:1374  usdt = IERC20(usdtAddress) */\n  dup1\n  sload\n  swap3\n  dup12\n  and\n  swap3\n  swap1\n  swap2\n  and\n  swap2\n  swap1\n  swap2\n  or\n  swap1\n  sstore\n    /* \"ICO/ico.sol\":1393:1409  _minPurchase > 0 */\n  dup2\n    /* \"ICO/ico.sol\":1385:1437  require(_minPurchase > 0, \"_minPurchase should > 0\") */\n  tag_6\n  jumpi\n  mload(0x40)\n  shl(0xe5, 0x461bcd)\n  dup2\n  mstore\n    /* \"#utility.yul\":1067:1069   */\n  0x20\n    /* \"ICO/ico.sol\":1385:1437  require(_minPurchase > 0, \"_minPurchase should > 0\") */\n  0x04\n  dup3\n  add\n    /* \"#utility.yul\":1049:1070   */\n  mstore\n    /* \"#utility.yul\":1106:1108   */\n  0x17\n    /* \"#utility.yul\":1086:1104   */\n  0x24\n  dup3\n  add\n    /* \"#utility.yul\":1079:1109   */\n  mstore\n    /* \"#utility.yul\":1145:1170   */\n  0x5f6d696e50757263686173652073686f756c64203e2030000000000000000000\n    /* \"#utility.yul\":1125:1143   */\n  0x44\n  dup3\n  add\n    /* \"#utility.yul\":1118:1171   */\n  mstore\n    /* \"#utility.yul\":1188:1206   */\n  0x64\n  add\n    /* \"ICO/ico.sol\":1385:1437  require(_minPurchase > 0, \"_minPurchase should > 0\") */\ntag_7:\n  mload(0x40)\n  dup1\n  swap2\n  sub\n  swap1\n  revert\ntag_6:\n    /* \"ICO/ico.sol\":1482:1483  0 */\n  0x00\n    /* \"ICO/ico.sol\":1468:1479  maxPurchase */\n  sload(0x06)\n    /* \"ICO/ico.sol\":1468:1483  maxPurchase > 0 */\n  gt\n    /* \"ICO/ico.sol\":1468:1517  maxPurchase > 0 && maxPurchase <= availableTokens */\n  dup1\n  iszero\n  tag_9\n  jumpi\n  pop\n    /* \"ICO/ico.sol\":1502:1517  availableTokens */\n  sload(0x09)\n    /* \"ICO/ico.sol\":1487:1498  maxPurchase */\n  sload(0x06)\n    /* \"ICO/ico.sol\":1487:1517  maxPurchase <= availableTokens */\n  gt\n  iszero\n    /* \"ICO/ico.sol\":1468:1517  maxPurchase > 0 && maxPurchase <= availableTokens */\ntag_9:\n    /* \"ICO/ico.sol\":1447:1593  require(... */\n  tag_10\n  jumpi\n  mload(0x40)\n  shl(0xe5, 0x461bcd)\n  dup2\n  mstore\n    /* \"#utility.yul\":1419:1421   */\n  0x20\n    /* \"ICO/ico.sol\":1447:1593  require(... */\n  0x04\n  dup3\n  add\n    /* \"#utility.yul\":1401:1422   */\n  mstore\n    /* \"#utility.yul\":1458:1460   */\n  0x32\n    /* \"#utility.yul\":1438:1456   */\n  0x24\n  dup3\n  add\n    /* \"#utility.yul\":1431:1461   */\n  mstore\n    /* \"#utility.yul\":1497:1531   */\n  0x5f6d617850757263686173652073686f756c64206265203e203020616e64203c\n    /* \"#utility.yul\":1477:1495   */\n  0x44\n  dup3\n  add\n    /* \"#utility.yul\":1470:1532   */\n  mstore\n  shl(0x70, 0x3d205f617661696c61626c65546f6b656e73)\n    /* \"#utility.yul\":1548:1566   */\n  0x64\n  dup3\n  add\n    /* \"#utility.yul\":1541:1589   */\n  mstore\n    /* \"#utility.yul\":1606:1625   */\n  0x84\n  add\n    /* \"ICO/ico.sol\":1447:1593  require(... */\n  tag_7\n    /* \"#utility.yul\":1217:1631   */\n  jump\n    /* \"ICO/ico.sol\":1447:1593  require(... */\ntag_10:\n    /* \"ICO/ico.sol\":1604:1609  admin */\n  0x01\n    /* \"ICO/ico.sol\":1604:1622  admin = msg.sender */\n  dup1\n  sload\n  not(sub(shl(0xa0, 0x01), 0x01))\n  and\n    /* \"ICO/ico.sol\":1612:1622  msg.sender */\n  caller\n    /* \"ICO/ico.sol\":1604:1622  admin = msg.sender */\n  or\n  swap1\n  sstore\n    /* \"ICO/ico.sol\":1632:1637  start */\n  0x03\n    /* \"ICO/ico.sol\":1632:1646  start = _start */\n  swap6\n  swap1\n  swap6\n  sstore\n    /* \"ICO/ico.sol\":1656:1659  end */\n  0x04\n    /* \"ICO/ico.sol\":1656:1666  end = _end */\n  swap4\n  swap1\n  swap4\n  sstore\n    /* \"ICO/ico.sol\":1676:1686  coin_price */\n  0x08\n    /* \"ICO/ico.sol\":1676:1699  coin_price = _coinprice */\n  swap2\n  swap1\n  swap2\n  sstore\n    /* \"ICO/ico.sol\":1709:1716  Hardcap */\n  0x07\n    /* \"ICO/ico.sol\":1709:1726  Hardcap = hardcap */\n  sstore\n    /* \"ICO/ico.sol\":1736:1747  minPurchase */\n  0x05\n    /* \"ICO/ico.sol\":1736:1762  minPurchase = _minPurchase */\n  sstore\n    /* \"ICO/ico.sol\":1772:1783  maxPurchase */\n  0x06\n    /* \"ICO/ico.sol\":1772:1798  maxPurchase = _maxPurchase */\n  sstore\n  pop\n    /* \"ICO/ico.sol\":174:3017  contract ICO {... */\n  tag_15\n  swap1\n  pop\n  jump\n    /* \"#utility.yul\":14:191   */\ntag_14:\n    /* \"#utility.yul\":93:106   */\n  dup1\n  mload\n  sub(shl(0xa0, 0x01), 0x01)\n    /* \"#utility.yul\":135:166   */\n  dup2\n  and\n    /* \"#utility.yul\":125:167   */\n  dup2\n  eq\n    /* \"#utility.yul\":115:185   */\n  tag_17\n  jumpi\n    /* \"#utility.yul\":181:182   */\n  0x00\n    /* \"#utility.yul\":178:179   */\n  dup1\n    /* \"#utility.yul\":171:183   */\n  revert\n    /* \"#utility.yul\":115:185   */\ntag_17:\n    /* \"#utility.yul\":14:191   */\n  swap2\n  swap1\n  pop\n  jump\t// out\n    /* \"#utility.yul\":196:860   */\ntag_3:\n    /* \"#utility.yul\":329:335   */\n  0x00\n    /* \"#utility.yul\":337:343   */\n  dup1\n    /* \"#utility.yul\":345:351   */\n  0x00\n    /* \"#utility.yul\":353:359   */\n  dup1\n    /* \"#utility.yul\":361:367   */\n  0x00\n    /* \"#utility.yul\":369:375   */\n  dup1\n    /* \"#utility.yul\":377:383   */\n  0x00\n    /* \"#utility.yul\":385:391   */\n  dup1\n    /* \"#utility.yul\":438:441   */\n  0x0100\n    /* \"#utility.yul\":426:435   */\n  dup10\n    /* \"#utility.yul\":417:424   */\n  dup12\n    /* \"#utility.yul\":413:436   */\n  sub\n    /* \"#utility.yul\":409:442   */\n  slt\n    /* \"#utility.yul\":406:459   */\n  iszero\n  tag_19\n  jumpi\n    /* \"#utility.yul\":455:456   */\n  0x00\n    /* \"#utility.yul\":452:453   */\n  dup1\n    /* \"#utility.yul\":445:457   */\n  revert\n    /* \"#utility.yul\":406:459   */\ntag_19:\n    /* \"#utility.yul\":478:518   */\n  tag_20\n    /* \"#utility.yul\":508:517   */\n  dup10\n    /* \"#utility.yul\":478:518   */\n  tag_14\n  jump\t// in\ntag_20:\n    /* \"#utility.yul\":468:518   */\n  swap8\n  pop\n    /* \"#utility.yul\":537:586   */\n  tag_21\n    /* \"#utility.yul\":582:584   */\n  0x20\n    /* \"#utility.yul\":571:580   */\n  dup11\n    /* \"#utility.yul\":567:585   */\n  add\n    /* \"#utility.yul\":537:586   */\n  tag_14\n  jump\t// in\ntag_21:\n    /* \"#utility.yul\":626:628   */\n  0x40\n    /* \"#utility.yul\":611:629   */\n  dup11\n  add\n    /* \"#utility.yul\":605:630   */\n  mload\n    /* \"#utility.yul\":670:672   */\n  0x60\n    /* \"#utility.yul\":655:673   */\n  dup12\n  add\n    /* \"#utility.yul\":649:674   */\n  mload\n    /* \"#utility.yul\":714:717   */\n  0x80\n    /* \"#utility.yul\":699:718   */\n  dup13\n  add\n    /* \"#utility.yul\":693:719   */\n  mload\n    /* \"#utility.yul\":759:762   */\n  0xa0\n    /* \"#utility.yul\":744:763   */\n  dup14\n  add\n    /* \"#utility.yul\":738:764   */\n  mload\n    /* \"#utility.yul\":804:807   */\n  0xc0\n    /* \"#utility.yul\":789:808   */\n  dup15\n  add\n    /* \"#utility.yul\":783:809   */\n  mload\n    /* \"#utility.yul\":849:852   */\n  0xe0\n    /* \"#utility.yul\":834:853   */\n  swap1\n  swap15\n  add\n    /* \"#utility.yul\":828:854   */\n  mload\n    /* \"#utility.yul\":196:860   */\n  swap13\n  swap16\n    /* \"#utility.yul\":527:586   */\n  swap5\n  swap15\n  pop\n    /* \"#utility.yul\":605:630   */\n  swap3\n  swap13\n    /* \"#utility.yul\":649:674   */\n  swap2\n  swap12\n    /* \"#utility.yul\":693:719   */\n  swap1\n  swap11\n  pop\n    /* \"#utility.yul\":738:764   */\n  swap2\n  swap9\n  pop\n    /* \"#utility.yul\":783:809   */\n  swap7\n  pop\n    /* \"#utility.yul\":828:854   */\n  swap5\n  pop\n    /* \"#utility.yul\":196:860   */\n  swap3\n  pop\n  pop\n  pop\n  jump\t// out\n    /* \"#utility.yul\":1217:1631   */\ntag_15:\n    /* \"ICO/ico.sol\":174:3017  contract ICO {... */\n  dataSize(sub_0)\n  dup1\n  dataOffset(sub_0)\n  0x00\n  codecopy\n  0x00\n  return\nstop\n\nsub_0: assembly {\n        /* \"ICO/ico.sol\":174:3017  contract ICO {... */\n      mstore(0x40, 0x80)\n      callvalue\n      dup1\n      iszero\n      tag_1\n      jumpi\n      0x00\n      dup1\n      revert\n    tag_1:\n      pop\n      jumpi(tag_2, lt(calldatasize, 0x04))\n      shr(0xe0, calldataload(0x00))\n      dup1\n      0xbe9a6555\n      gt\n      tag_19\n      jumpi\n      dup1\n      0xe0ab2603\n      gt\n      tag_20\n      jumpi\n      dup1\n      0xe0ab2603\n      eq\n      tag_15\n      jumpi\n      dup1\n      0xefbe1c1c\n      eq\n      tag_16\n      jumpi\n      dup1\n      0xf851a440\n      eq\n      tag_17\n      jumpi\n      dup1\n      0xfc0c546a\n      eq\n      tag_18\n      jumpi\n      0x00\n      dup1\n      revert\n    tag_20:\n      dup1\n      0xbe9a6555\n      eq\n      tag_11\n      jumpi\n      dup1\n      0xc6b9f06a\n      eq\n      tag_12\n      jumpi\n      dup1\n      0xcb058ced\n      eq\n      tag_13\n      jumpi\n      dup1\n      0xd96a094a\n      eq\n      tag_14\n      jumpi\n      0x00\n      dup1\n      revert\n    tag_19:\n      dup1\n      0x6df1b7b6\n      gt\n      tag_21\n      jumpi\n      dup1\n      0x6df1b7b6\n      eq\n      tag_7\n      jumpi\n      dup1\n      0x8b7c160b\n      eq\n      tag_8\n      jumpi\n      dup1\n      0x977b055b\n      eq\n      tag_9\n      jumpi\n      dup1\n      0xa657242b\n      eq\n      tag_10\n      jumpi\n      0x00\n      dup1\n      revert\n    tag_21:\n      dup1\n      0x2f48ab7d\n      eq\n      tag_3\n      jumpi\n      dup1\n      0x33b5b62e\n      eq\n      tag_4\n      jumpi\n      dup1\n      0x37c67c78\n      eq\n      tag_5\n      jumpi\n      dup1\n      0x69bb4dc2\n      eq\n      tag_6\n      jumpi\n    tag_2:\n      0x00\n      dup1\n      revert\n        /* \"ICO/ico.sol\":554:572  IERC20 public usdt */\n    tag_3:\n      sload(0x0c)\n      tag_22\n      swap1\n      sub(shl(0xa0, 0x01), 0x01)\n      and\n      dup2\n      jump\n    tag_22:\n      mload(0x40)\n      sub(shl(0xa0, 0x01), 0x01)\n        /* \"#utility.yul\":192:224   */\n      swap1\n      swap2\n      and\n        /* \"#utility.yul\":174:225   */\n      dup2\n      mstore\n        /* \"#utility.yul\":162:164   */\n      0x20\n        /* \"#utility.yul\":147:165   */\n      add\n        /* \"ICO/ico.sol\":554:572  IERC20 public usdt */\n    tag_24:\n      mload(0x40)\n      dup1\n      swap2\n      sub\n      swap1\n      return\n        /* \"ICO/ico.sol\":335:361  uint256 public minPurchase */\n    tag_4:\n      tag_26\n      sload(0x05)\n      dup2\n      jump\n    tag_26:\n      mload(0x40)\n        /* \"#utility.yul\":382:407   */\n      swap1\n      dup2\n      mstore\n        /* \"#utility.yul\":370:372   */\n      0x20\n        /* \"#utility.yul\":355:373   */\n      add\n        /* \"ICO/ico.sol\":335:361  uint256 public minPurchase */\n      tag_24\n        /* \"#utility.yul\":236:413   */\n      jump\n        /* \"ICO/ico.sol\":494:523  uint256 public usdtTotaltoken */\n    tag_5:\n      tag_26\n      sload(0x0a)\n      dup2\n      jump\n        /* \"ICO/ico.sol\":458:488  uint256 public availableTokens */\n    tag_6:\n      tag_26\n      sload(0x09)\n      dup2\n      jump\n        /* \"ICO/ico.sol\":2911:3015  function collectUsdt() external onlyAdmin icoEnded {... */\n    tag_7:\n      tag_36\n      tag_37\n      jump\t// in\n    tag_36:\n      stop\n        /* \"ICO/ico.sol\":427:452  uint256 public coin_price */\n    tag_8:\n      tag_26\n      sload(0x08)\n      dup2\n      jump\n        /* \"ICO/ico.sol\":367:393  uint256 public maxPurchase */\n    tag_9:\n      tag_26\n      sload(0x06)\n      dup2\n      jump\n        /* \"ICO/ico.sol\":399:421  uint256 public Hardcap */\n    tag_10:\n      tag_26\n      sload(0x07)\n      dup2\n      jump\n        /* \"ICO/ico.sol\":285:305  uint256 public start */\n    tag_11:\n      tag_26\n      sload(0x03)\n      dup2\n      jump\n        /* \"ICO/ico.sol\":193:233  mapping(address => uint256) public sales */\n    tag_12:\n      tag_26\n      tag_51\n      calldatasize\n      0x04\n      tag_52\n      jump\t// in\n    tag_51:\n      0x00\n      0x20\n      dup2\n      swap1\n      mstore\n      swap1\n      dup2\n      mstore\n      0x40\n      swap1\n      keccak256\n      sload\n      dup2\n      jump\n        /* \"ICO/ico.sol\":2574:2905  function claimusdtPermonth() external onlyAdmin {... */\n    tag_13:\n      tag_36\n      tag_56\n      jump\t// in\n        /* \"ICO/ico.sol\":1811:2464  function buy(uint256 usdtAmount) external icoActive {... */\n    tag_14:\n      tag_36\n      tag_58\n      calldatasize\n      0x04\n      tag_59\n      jump\t// in\n    tag_58:\n      tag_60\n      jump\t// in\n        /* \"ICO/ico.sol\":2470:2568  function ChangerateVDOITtoUSDT(uint256 rate) external onlyAdmin {... */\n    tag_15:\n      tag_36\n      tag_62\n      calldatasize\n      0x04\n      tag_59\n      jump\t// in\n    tag_62:\n      tag_63\n      jump\t// in\n        /* \"ICO/ico.sol\":311:329  uint256 public end */\n    tag_16:\n      tag_26\n      sload(0x04)\n      dup2\n      jump\n        /* \"ICO/ico.sol\":240:260  address public admin */\n    tag_17:\n      sload(0x01)\n      tag_22\n      swap1\n      sub(shl(0xa0, 0x01), 0x01)\n      and\n      dup2\n      jump\n        /* \"ICO/ico.sol\":530:548  Token public token */\n    tag_18:\n      sload(0x0b)\n      tag_22\n      swap1\n      sub(shl(0xa0, 0x01), 0x01)\n      and\n      dup2\n      jump\n        /* \"ICO/ico.sol\":2911:3015  function collectUsdt() external onlyAdmin icoEnded {... */\n    tag_37:\n        /* \"ICO/ico.sol\":632:637  admin */\n      and(sub(shl(0xa0, 0x01), 0x01), sload(0x01))\n        /* \"ICO/ico.sol\":618:628  msg.sender */\n      caller\n        /* \"ICO/ico.sol\":618:637  msg.sender == admin */\n      eq\n        /* \"ICO/ico.sol\":610:652  require(msg.sender == admin, \"only admin\") */\n      tag_76\n      jumpi\n      mload(0x40)\n      shl(0xe5, 0x461bcd)\n      dup2\n      mstore\n      0x04\n      add\n      tag_77\n      swap1\n      tag_78\n      jump\t// in\n    tag_77:\n      mload(0x40)\n      dup1\n      swap2\n      sub\n      swap1\n      revert\n    tag_76:\n        /* \"ICO/ico.sol\":969:972  end */\n      sload(0x04)\n        /* \"ICO/ico.sol\":950:965  block.timestamp */\n      timestamp\n        /* \"ICO/ico.sol\":950:972  block.timestamp >= end */\n      lt\n      iszero\n        /* \"ICO/ico.sol\":950:996  block.timestamp >= end || availableTokens == 0 */\n      dup1\n      tag_80\n      jumpi\n      pop\n        /* \"ICO/ico.sol\":976:991  availableTokens */\n      sload(0x09)\n        /* \"ICO/ico.sol\":976:996  availableTokens == 0 */\n      iszero\n        /* \"ICO/ico.sol\":950:996  block.timestamp >= end || availableTokens == 0 */\n    tag_80:\n        /* \"ICO/ico.sol\":929:1041  require(... */\n      tag_81\n      jumpi\n      mload(0x40)\n      shl(0xe5, 0x461bcd)\n      dup2\n      mstore\n        /* \"#utility.yul\":1864:1866   */\n      0x20\n        /* \"ICO/ico.sol\":929:1041  require(... */\n      0x04\n      dup3\n      add\n        /* \"#utility.yul\":1846:1867   */\n      mstore\n        /* \"#utility.yul\":1903:1905   */\n      0x13\n        /* \"#utility.yul\":1883:1901   */\n      0x24\n      dup3\n      add\n        /* \"#utility.yul\":1876:1906   */\n      mstore\n      shl(0x6a, 0x1250d3c81b5d5cdd081a185d9948195b991959)\n        /* \"#utility.yul\":1922:1940   */\n      0x44\n      dup3\n      add\n        /* \"#utility.yul\":1915:1964   */\n      mstore\n        /* \"#utility.yul\":1981:1999   */\n      0x64\n      add\n        /* \"ICO/ico.sol\":929:1041  require(... */\n      tag_77\n        /* \"#utility.yul\":1662:2005   */\n      jump\n        /* \"ICO/ico.sol\":929:1041  require(... */\n    tag_81:\n        /* \"ICO/ico.sol\":2972:2976  usdt */\n      sload(0x0c)\n      0x01\n        /* \"ICO/ico.sol\":2986:2991  admin */\n      sload\n        /* \"ICO/ico.sol\":2993:3007  usdtTotaltoken */\n      sload(0x0a)\n        /* \"ICO/ico.sol\":2972:3008  usdt.transfer(admin, usdtTotaltoken) */\n      mload(0x40)\n      shl(0xe0, 0xa9059cbb)\n      dup2\n      mstore\n      sub(shl(0xa0, 0x01), 0x01)\n        /* \"ICO/ico.sol\":2986:2991  admin */\n      swap3\n      dup4\n      and\n        /* \"ICO/ico.sol\":2972:3008  usdt.transfer(admin, usdtTotaltoken) */\n      0x04\n      dup3\n      add\n        /* \"#utility.yul\":2184:2235   */\n      mstore\n        /* \"#utility.yul\":2251:2269   */\n      0x24\n      dup2\n      add\n        /* \"#utility.yul\":2244:2278   */\n      swap2\n      swap1\n      swap2\n      mstore\n        /* \"ICO/ico.sol\":2972:2976  usdt */\n      swap2\n      and\n      swap1\n        /* \"ICO/ico.sol\":2972:2985  usdt.transfer */\n      0xa9059cbb\n      swap1\n        /* \"#utility.yul\":2157:2175   */\n      0x44\n      add\n        /* \"ICO/ico.sol\":2972:3008  usdt.transfer(admin, usdtTotaltoken) */\n      0x20\n      mload(0x40)\n      dup1\n      dup4\n      sub\n      dup2\n      0x00\n      dup8\n      gas\n      call\n      iszero\n      dup1\n      iszero\n      tag_88\n      jumpi\n      returndatasize\n      0x00\n      dup1\n      returndatacopy\n      revert(0x00, returndatasize)\n    tag_88:\n      pop\n      pop\n      pop\n      pop\n      mload(0x40)\n      returndatasize\n      not(0x1f)\n      0x1f\n      dup3\n      add\n      and\n      dup3\n      add\n      dup1\n      0x40\n      mstore\n      pop\n      dup2\n      add\n      swap1\n      tag_89\n      swap2\n      swap1\n      tag_90\n      jump\t// in\n    tag_89:\n      pop\n        /* \"ICO/ico.sol\":2911:3015  function collectUsdt() external onlyAdmin icoEnded {... */\n      jump\t// out\n        /* \"ICO/ico.sol\":2574:2905  function claimusdtPermonth() external onlyAdmin {... */\n    tag_56:\n        /* \"ICO/ico.sol\":632:637  admin */\n      and(sub(shl(0xa0, 0x01), 0x01), sload(0x01))\n        /* \"ICO/ico.sol\":618:628  msg.sender */\n      caller\n        /* \"ICO/ico.sol\":618:637  msg.sender == admin */\n      eq\n        /* \"ICO/ico.sol\":610:652  require(msg.sender == admin, \"only admin\") */\n      tag_92\n      jumpi\n      mload(0x40)\n      shl(0xe5, 0x461bcd)\n      dup2\n      mstore\n      0x04\n      add\n      tag_77\n      swap1\n      tag_78\n      jump\t// in\n    tag_92:\n        /* \"ICO/ico.sol\":2632:2637  month */\n      0x02\n        /* \"ICO/ico.sol\":2632:2639  month++ */\n      dup1\n      sload\n      swap1\n        /* \"ICO/ico.sol\":2632:2637  month */\n      0x00\n        /* \"ICO/ico.sol\":2632:2639  month++ */\n      tag_95\n      dup4\n      tag_96\n      jump\t// in\n    tag_95:\n      swap2\n      swap1\n      pop\n      sstore\n      pop\n        /* \"ICO/ico.sol\":2688:2693  start */\n      sload(0x03)\n        /* \"ICO/ico.sol\":2670:2685  block.timestamp */\n      timestamp\n        /* \"ICO/ico.sol\":2670:2693  block.timestamp > start */\n      gt\n        /* \"ICO/ico.sol\":2670:2730  block.timestamp > start && block.timestamp > ( 60 * 24 * 30) */\n      dup1\n      iszero\n      tag_97\n      jumpi\n      pop\n        /* \"ICO/ico.sol\":2717:2729  60 * 24 * 30 */\n      0xa8c0\n        /* \"ICO/ico.sol\":2697:2712  block.timestamp */\n      timestamp\n        /* \"ICO/ico.sol\":2697:2730  block.timestamp > ( 60 * 24 * 30) */\n      gt\n        /* \"ICO/ico.sol\":2670:2730  block.timestamp > start && block.timestamp > ( 60 * 24 * 30) */\n    tag_97:\n        /* \"ICO/ico.sol\":2649:2764  require(... */\n      tag_98\n      jumpi\n      mload(0x40)\n      shl(0xe5, 0x461bcd)\n      dup2\n      mstore\n        /* \"#utility.yul\":3045:3047   */\n      0x20\n        /* \"ICO/ico.sol\":2649:2764  require(... */\n      0x04\n      dup3\n      add\n        /* \"#utility.yul\":3027:3048   */\n      mstore\n        /* \"#utility.yul\":3084:3085   */\n      0x08\n        /* \"#utility.yul\":3064:3082   */\n      0x24\n      dup3\n      add\n        /* \"#utility.yul\":3057:3086   */\n      mstore\n      shl(0xc0, 0x656c696769626c65)\n        /* \"#utility.yul\":3102:3120   */\n      0x44\n      dup3\n      add\n        /* \"#utility.yul\":3095:3133   */\n      mstore\n        /* \"#utility.yul\":3150:3168   */\n      0x64\n      add\n        /* \"ICO/ico.sol\":2649:2764  require(... */\n      tag_77\n        /* \"#utility.yul\":2843:3174   */\n      jump\n        /* \"ICO/ico.sol\":2649:2764  require(... */\n    tag_98:\n        /* \"ICO/ico.sol\":2774:2788  uint256 amount */\n      0x00\n        /* \"ICO/ico.sol\":2808:2810  10 */\n      0x0a\n        /* \"ICO/ico.sol\":2791:2805  usdtTotaltoken */\n      dup1\n      sload\n        /* \"ICO/ico.sol\":2791:2810  usdtTotaltoken / 10 */\n      tag_101\n      swap2\n      swap1\n      tag_102\n      jump\t// in\n    tag_101:\n        /* \"ICO/ico.sol\":2820:2824  usdt */\n      sload(0x0c)\n      0x01\n        /* \"ICO/ico.sol\":2834:2839  admin */\n      sload\n        /* \"ICO/ico.sol\":2820:2848  usdt.transfer(admin, amount) */\n      mload(0x40)\n      shl(0xe0, 0xa9059cbb)\n      dup2\n      mstore\n      sub(shl(0xa0, 0x01), 0x01)\n        /* \"ICO/ico.sol\":2834:2839  admin */\n      swap2\n      dup3\n      and\n        /* \"ICO/ico.sol\":2820:2848  usdt.transfer(admin, amount) */\n      0x04\n      dup3\n      add\n        /* \"#utility.yul\":2184:2235   */\n      mstore\n        /* \"#utility.yul\":2251:2269   */\n      0x24\n      dup2\n      add\n        /* \"#utility.yul\":2244:2278   */\n      dup5\n      swap1\n      mstore\n        /* \"ICO/ico.sol\":2774:2810  uint256 amount = usdtTotaltoken / 10 */\n      swap3\n      swap4\n      pop\n        /* \"ICO/ico.sol\":2820:2824  usdt */\n      and\n      swap1\n        /* \"ICO/ico.sol\":2820:2833  usdt.transfer */\n      0xa9059cbb\n      swap1\n        /* \"#utility.yul\":2157:2175   */\n      0x44\n      add\n        /* \"ICO/ico.sol\":2820:2848  usdt.transfer(admin, amount) */\n      0x20\n      mload(0x40)\n      dup1\n      dup4\n      sub\n      dup2\n      0x00\n      dup8\n      gas\n      call\n      iszero\n      dup1\n      iszero\n      tag_105\n      jumpi\n      returndatasize\n      0x00\n      dup1\n      returndatacopy\n      revert(0x00, returndatasize)\n    tag_105:\n      pop\n      pop\n      pop\n      pop\n      mload(0x40)\n      returndatasize\n      not(0x1f)\n      0x1f\n      dup3\n      add\n      and\n      dup3\n      add\n      dup1\n      0x40\n      mstore\n      pop\n      dup2\n      add\n      swap1\n      tag_106\n      swap2\n      swap1\n      tag_90\n      jump\t// in\n    tag_106:\n      pop\n        /* \"ICO/ico.sol\":2892:2898  amount */\n      dup1\n        /* \"ICO/ico.sol\":2875:2889  usdtTotaltoken */\n      sload(0x0a)\n        /* \"ICO/ico.sol\":2875:2898  usdtTotaltoken - amount */\n      tag_107\n      swap2\n      swap1\n      tag_108\n      jump\t// in\n    tag_107:\n        /* \"ICO/ico.sol\":2858:2872  usdtTotaltoken */\n      0x0a\n        /* \"ICO/ico.sol\":2858:2898  usdtTotaltoken = usdtTotaltoken - amount */\n      sstore\n      pop\n        /* \"ICO/ico.sol\":2574:2905  function claimusdtPermonth() external onlyAdmin {... */\n      jump\t// out\n        /* \"ICO/ico.sol\":1811:2464  function buy(uint256 usdtAmount) external icoActive {... */\n    tag_60:\n        /* \"ICO/ico.sol\":746:751  start */\n      sload(0x03)\n        /* \"ICO/ico.sol\":728:743  block.timestamp */\n      timestamp\n        /* \"ICO/ico.sol\":728:751  block.timestamp > start */\n      gt\n        /* \"ICO/ico.sol\":728:792  block.timestamp > start &&... */\n      dup1\n      iszero\n      tag_110\n      jumpi\n      pop\n        /* \"ICO/ico.sol\":789:792  end */\n      sload(0x04)\n        /* \"ICO/ico.sol\":771:786  block.timestamp */\n      timestamp\n        /* \"ICO/ico.sol\":771:792  block.timestamp < end */\n      lt\n        /* \"ICO/ico.sol\":728:792  block.timestamp > start &&... */\n    tag_110:\n        /* \"ICO/ico.sol\":728:831  block.timestamp > start &&... */\n      dup1\n      iszero\n      tag_111\n      jumpi\n      pop\n        /* \"ICO/ico.sol\":830:831  0 */\n      0x00\n        /* \"ICO/ico.sol\":812:827  availableTokens */\n      sload(0x09)\n        /* \"ICO/ico.sol\":812:831  availableTokens > 0 */\n      gt\n        /* \"ICO/ico.sol\":728:831  block.timestamp > start &&... */\n    tag_111:\n        /* \"ICO/ico.sol\":707:875  require(... */\n      tag_112\n      jumpi\n      mload(0x40)\n      shl(0xe5, 0x461bcd)\n      dup2\n      mstore\n        /* \"#utility.yul\":3736:3738   */\n      0x20\n        /* \"ICO/ico.sol\":707:875  require(... */\n      0x04\n      dup3\n      add\n        /* \"#utility.yul\":3718:3739   */\n      mstore\n        /* \"#utility.yul\":3775:3777   */\n      0x12\n        /* \"#utility.yul\":3755:3773   */\n      0x24\n      dup3\n      add\n        /* \"#utility.yul\":3748:3778   */\n      mstore\n      shl(0x70, 0x49434f206d75737420626520616374697665)\n        /* \"#utility.yul\":3794:3812   */\n      0x44\n      dup3\n      add\n        /* \"#utility.yul\":3787:3835   */\n      mstore\n        /* \"#utility.yul\":3852:3870   */\n      0x64\n      add\n        /* \"ICO/ico.sol\":707:875  require(... */\n      tag_77\n        /* \"#utility.yul\":3534:3876   */\n      jump\n        /* \"ICO/ico.sol\":707:875  require(... */\n    tag_112:\n        /* \"ICO/ico.sol\":1908:1919  minPurchase */\n      sload(0x05)\n        /* \"ICO/ico.sol\":1894:1904  usdtAmount */\n      dup2\n        /* \"ICO/ico.sol\":1894:1919  usdtAmount >= minPurchase */\n      lt\n      iszero\n        /* \"ICO/ico.sol\":1894:1948  usdtAmount >= minPurchase && usdtAmount <= maxPurchase */\n      dup1\n      iszero\n      tag_116\n      jumpi\n      pop\n        /* \"ICO/ico.sol\":1937:1948  maxPurchase */\n      sload(0x06)\n        /* \"ICO/ico.sol\":1923:1933  usdtAmount */\n      dup2\n        /* \"ICO/ico.sol\":1923:1948  usdtAmount <= maxPurchase */\n      gt\n      iszero\n        /* \"ICO/ico.sol\":1894:1948  usdtAmount >= minPurchase && usdtAmount <= maxPurchase */\n    tag_116:\n        /* \"ICO/ico.sol\":1873:2021  require(... */\n      tag_117\n      jumpi\n      mload(0x40)\n      shl(0xe5, 0x461bcd)\n      dup2\n      mstore\n        /* \"#utility.yul\":4083:4085   */\n      0x20\n        /* \"ICO/ico.sol\":1873:2021  require(... */\n      0x04\n      dup3\n      add\n        /* \"#utility.yul\":4065:4086   */\n      mstore\n        /* \"#utility.yul\":4122:4124   */\n      0x2f\n        /* \"#utility.yul\":4102:4120   */\n      0x24\n      dup3\n      add\n        /* \"#utility.yul\":4095:4125   */\n      mstore\n        /* \"#utility.yul\":4161:4195   */\n      0x6861766520746f20627579206265747765656e206d696e507572636861736520\n        /* \"#utility.yul\":4141:4159   */\n      0x44\n      dup3\n      add\n        /* \"#utility.yul\":4134:4196   */\n      mstore\n      shl(0x88, 0x616e64206d61785075726368617365)\n        /* \"#utility.yul\":4212:4230   */\n      0x64\n      dup3\n      add\n        /* \"#utility.yul\":4205:4250   */\n      mstore\n        /* \"#utility.yul\":4267:4286   */\n      0x84\n      add\n        /* \"ICO/ico.sol\":1873:2021  require(... */\n      tag_77\n        /* \"#utility.yul\":3881:4292   */\n      jump\n        /* \"ICO/ico.sol\":1873:2021  require(... */\n    tag_117:\n        /* \"ICO/ico.sol\":2031:2050  uint256 tokenAmount */\n      0x00\n        /* \"ICO/ico.sol\":2066:2076  coin_price */\n      sload(0x08)\n        /* \"ICO/ico.sol\":2053:2063  usdtAmount */\n      dup3\n        /* \"ICO/ico.sol\":2053:2076  usdtAmount / coin_price */\n      tag_120\n      swap2\n      swap1\n      tag_102\n      jump\t// in\n    tag_120:\n        /* \"ICO/ico.sol\":2031:2076  uint256 tokenAmount = usdtAmount / coin_price */\n      swap1\n      pop\n        /* \"ICO/ico.sol\":2122:2137  availableTokens */\n      sload(0x09)\n        /* \"ICO/ico.sol\":2107:2118  tokenAmount */\n      dup2\n        /* \"ICO/ico.sol\":2107:2137  tokenAmount <= availableTokens */\n      gt\n      iszero\n        /* \"ICO/ico.sol\":2086:2194  require(... */\n      tag_121\n      jumpi\n      mload(0x40)\n      shl(0xe5, 0x461bcd)\n      dup2\n      mstore\n        /* \"#utility.yul\":4499:4501   */\n      0x20\n        /* \"ICO/ico.sol\":2086:2194  require(... */\n      0x04\n      dup3\n      add\n        /* \"#utility.yul\":4481:4502   */\n      mstore\n        /* \"#utility.yul\":4538:4540   */\n      0x1f\n        /* \"#utility.yul\":4518:4536   */\n      0x24\n      dup3\n      add\n        /* \"#utility.yul\":4511:4541   */\n      mstore\n        /* \"#utility.yul\":4577:4610   */\n      0x4e6f7420656e6f75676820746f6b656e73206c65667420666f722073616c6500\n        /* \"#utility.yul\":4557:4575   */\n      0x44\n      dup3\n      add\n        /* \"#utility.yul\":4550:4611   */\n      mstore\n        /* \"#utility.yul\":4628:4646   */\n      0x64\n      add\n        /* \"ICO/ico.sol\":2086:2194  require(... */\n      tag_77\n        /* \"#utility.yul\":4297:4652   */\n      jump\n        /* \"ICO/ico.sol\":2086:2194  require(... */\n    tag_121:\n        /* \"ICO/ico.sol\":2205:2209  usdt */\n      sload(0x0c)\n        /* \"ICO/ico.sol\":2205:2261  usdt.transferFrom(msg.sender, address(this), usdtAmount) */\n      mload(0x40)\n      shl(0xe0, 0x23b872dd)\n      dup2\n      mstore\n        /* \"ICO/ico.sol\":2223:2233  msg.sender */\n      caller\n        /* \"ICO/ico.sol\":2205:2261  usdt.transferFrom(msg.sender, address(this), usdtAmount) */\n      0x04\n      dup3\n      add\n        /* \"#utility.yul\":4897:4931   */\n      mstore\n        /* \"ICO/ico.sol\":2243:2247  this */\n      address\n        /* \"#utility.yul\":4947:4965   */\n      0x24\n      dup3\n      add\n        /* \"#utility.yul\":4940:4983   */\n      mstore\n        /* \"#utility.yul\":4999:5017   */\n      0x44\n      dup2\n      add\n        /* \"#utility.yul\":4992:5026   */\n      dup5\n      swap1\n      mstore\n      sub(shl(0xa0, 0x01), 0x01)\n        /* \"ICO/ico.sol\":2205:2209  usdt */\n      swap1\n      swap2\n      and\n      swap1\n        /* \"ICO/ico.sol\":2205:2222  usdt.transferFrom */\n      0x23b872dd\n      swap1\n        /* \"#utility.yul\":4832:4850   */\n      0x64\n      add\n        /* \"ICO/ico.sol\":2205:2261  usdt.transferFrom(msg.sender, address(this), usdtAmount) */\n      0x20\n      mload(0x40)\n      dup1\n      dup4\n      sub\n      dup2\n      0x00\n      dup8\n      gas\n      call\n      iszero\n      dup1\n      iszero\n      tag_127\n      jumpi\n      returndatasize\n      0x00\n      dup1\n      returndatacopy\n      revert(0x00, returndatasize)\n    tag_127:\n      pop\n      pop\n      pop\n      pop\n      mload(0x40)\n      returndatasize\n      not(0x1f)\n      0x1f\n      dup3\n      add\n      and\n      dup3\n      add\n      dup1\n      0x40\n      mstore\n      pop\n      dup2\n      add\n      swap1\n      tag_128\n      swap2\n      swap1\n      tag_90\n      jump\t// in\n    tag_128:\n      pop\n        /* \"ICO/ico.sol\":2305:2315  usdtAmount */\n      dup2\n        /* \"ICO/ico.sol\":2288:2302  usdtTotaltoken */\n      sload(0x0a)\n        /* \"ICO/ico.sol\":2288:2315  usdtTotaltoken + usdtAmount */\n      tag_129\n      swap2\n      swap1\n      tag_130\n      jump\t// in\n    tag_129:\n        /* \"ICO/ico.sol\":2271:2285  usdtTotaltoken */\n      0x0a\n        /* \"ICO/ico.sol\":2271:2315  usdtTotaltoken = usdtTotaltoken + usdtAmount */\n      sstore\n        /* \"ICO/ico.sol\":2383:2393  msg.sender */\n      caller\n        /* \"ICO/ico.sol\":2377:2382  sales */\n      0x00\n        /* \"ICO/ico.sol\":2377:2394  sales[msg.sender] */\n      swap1\n      dup2\n      mstore\n      0x20\n      dup2\n      swap1\n      mstore\n      0x40\n      swap1\n      keccak256\n        /* \"ICO/ico.sol\":2377:2408  sales[msg.sender] = tokenAmount */\n      dup2\n      swap1\n      sstore\n        /* \"ICO/ico.sol\":2436:2443  Hardcap */\n      sload(0x07)\n        /* \"ICO/ico.sol\":2436:2457  Hardcap - tokenAmount */\n      tag_131\n      swap1\n        /* \"ICO/ico.sol\":2397:2408  tokenAmount */\n      dup3\n      swap1\n        /* \"ICO/ico.sol\":2436:2457  Hardcap - tokenAmount */\n      tag_108\n      jump\t// in\n    tag_131:\n        /* \"ICO/ico.sol\":2418:2433  availableTokens */\n      0x09\n        /* \"ICO/ico.sol\":2418:2457  availableTokens = Hardcap - tokenAmount */\n      sstore\n      pop\n      pop\n        /* \"ICO/ico.sol\":1811:2464  function buy(uint256 usdtAmount) external icoActive {... */\n      jump\t// out\n        /* \"ICO/ico.sol\":2470:2568  function ChangerateVDOITtoUSDT(uint256 rate) external onlyAdmin {... */\n    tag_63:\n        /* \"ICO/ico.sol\":632:637  admin */\n      and(sub(shl(0xa0, 0x01), 0x01), sload(0x01))\n        /* \"ICO/ico.sol\":618:628  msg.sender */\n      caller\n        /* \"ICO/ico.sol\":618:637  msg.sender == admin */\n      eq\n        /* \"ICO/ico.sol\":610:652  require(msg.sender == admin, \"only admin\") */\n      tag_133\n      jumpi\n      mload(0x40)\n      shl(0xe5, 0x461bcd)\n      dup2\n      mstore\n      0x04\n      add\n      tag_77\n      swap1\n      tag_78\n      jump\t// in\n    tag_133:\n        /* \"ICO/ico.sol\":2544:2554  coin_price */\n      0x08\n        /* \"ICO/ico.sol\":2544:2561  coin_price = rate */\n      sstore\n        /* \"ICO/ico.sol\":2470:2568  function ChangerateVDOITtoUSDT(uint256 rate) external onlyAdmin {... */\n      jump\t// out\n        /* \"#utility.yul\":418:704   */\n    tag_52:\n        /* \"#utility.yul\":477:483   */\n      0x00\n        /* \"#utility.yul\":530:532   */\n      0x20\n        /* \"#utility.yul\":518:527   */\n      dup3\n        /* \"#utility.yul\":509:516   */\n      dup5\n        /* \"#utility.yul\":505:528   */\n      sub\n        /* \"#utility.yul\":501:533   */\n      slt\n        /* \"#utility.yul\":498:550   */\n      iszero\n      tag_141\n      jumpi\n        /* \"#utility.yul\":546:547   */\n      0x00\n        /* \"#utility.yul\":543:544   */\n      dup1\n        /* \"#utility.yul\":536:548   */\n      revert\n        /* \"#utility.yul\":498:550   */\n    tag_141:\n        /* \"#utility.yul\":572:595   */\n      dup2\n      calldataload\n      sub(shl(0xa0, 0x01), 0x01)\n        /* \"#utility.yul\":624:655   */\n      dup2\n      and\n        /* \"#utility.yul\":614:656   */\n      dup2\n      eq\n        /* \"#utility.yul\":604:674   */\n      tag_142\n      jumpi\n        /* \"#utility.yul\":670:671   */\n      0x00\n        /* \"#utility.yul\":667:668   */\n      dup1\n        /* \"#utility.yul\":660:672   */\n      revert\n        /* \"#utility.yul\":604:674   */\n    tag_142:\n        /* \"#utility.yul\":693:698   */\n      swap4\n        /* \"#utility.yul\":418:704   */\n      swap3\n      pop\n      pop\n      pop\n      jump\t// out\n        /* \"#utility.yul\":709:889   */\n    tag_59:\n        /* \"#utility.yul\":768:774   */\n      0x00\n        /* \"#utility.yul\":821:823   */\n      0x20\n        /* \"#utility.yul\":809:818   */\n      dup3\n        /* \"#utility.yul\":800:807   */\n      dup5\n        /* \"#utility.yul\":796:819   */\n      sub\n        /* \"#utility.yul\":792:824   */\n      slt\n        /* \"#utility.yul\":789:841   */\n      iszero\n      tag_144\n      jumpi\n        /* \"#utility.yul\":837:838   */\n      0x00\n        /* \"#utility.yul\":834:835   */\n      dup1\n        /* \"#utility.yul\":827:839   */\n      revert\n        /* \"#utility.yul\":789:841   */\n    tag_144:\n      pop\n        /* \"#utility.yul\":860:883   */\n      calldataload\n      swap2\n        /* \"#utility.yul\":709:889   */\n      swap1\n      pop\n      jump\t// out\n        /* \"#utility.yul\":1323:1657   */\n    tag_78:\n        /* \"#utility.yul\":1525:1527   */\n      0x20\n        /* \"#utility.yul\":1507:1528   */\n      dup1\n      dup3\n      mstore\n        /* \"#utility.yul\":1564:1566   */\n      0x0a\n        /* \"#utility.yul\":1544:1562   */\n      swap1\n      dup3\n      add\n        /* \"#utility.yul\":1537:1567   */\n      mstore\n      shl(0xb1, 0x37b7363c9030b236b4b7)\n        /* \"#utility.yul\":1598:1600   */\n      0x40\n        /* \"#utility.yul\":1583:1601   */\n      dup3\n      add\n        /* \"#utility.yul\":1576:1616   */\n      mstore\n        /* \"#utility.yul\":1648:1650   */\n      0x60\n        /* \"#utility.yul\":1633:1651   */\n      add\n      swap1\n        /* \"#utility.yul\":1323:1657   */\n      jump\t// out\n        /* \"#utility.yul\":2289:2566   */\n    tag_90:\n        /* \"#utility.yul\":2356:2362   */\n      0x00\n        /* \"#utility.yul\":2409:2411   */\n      0x20\n        /* \"#utility.yul\":2397:2406   */\n      dup3\n        /* \"#utility.yul\":2388:2395   */\n      dup5\n        /* \"#utility.yul\":2384:2407   */\n      sub\n        /* \"#utility.yul\":2380:2412   */\n      slt\n        /* \"#utility.yul\":2377:2429   */\n      iszero\n      tag_151\n      jumpi\n        /* \"#utility.yul\":2425:2426   */\n      0x00\n        /* \"#utility.yul\":2422:2423   */\n      dup1\n        /* \"#utility.yul\":2415:2427   */\n      revert\n        /* \"#utility.yul\":2377:2429   */\n    tag_151:\n        /* \"#utility.yul\":2457:2466   */\n      dup2\n        /* \"#utility.yul\":2451:2467   */\n      mload\n        /* \"#utility.yul\":2510:2515   */\n      dup1\n        /* \"#utility.yul\":2503:2516   */\n      iszero\n        /* \"#utility.yul\":2496:2517   */\n      iszero\n        /* \"#utility.yul\":2489:2494   */\n      dup2\n        /* \"#utility.yul\":2486:2518   */\n      eq\n        /* \"#utility.yul\":2476:2536   */\n      tag_142\n      jumpi\n        /* \"#utility.yul\":2532:2533   */\n      0x00\n        /* \"#utility.yul\":2529:2530   */\n      dup1\n        /* \"#utility.yul\":2522:2534   */\n      revert\n        /* \"#utility.yul\":2571:2698   */\n    tag_136:\n        /* \"#utility.yul\":2632:2642   */\n      0x4e487b71\n        /* \"#utility.yul\":2627:2630   */\n      0xe0\n        /* \"#utility.yul\":2623:2643   */\n      shl\n        /* \"#utility.yul\":2620:2621   */\n      0x00\n        /* \"#utility.yul\":2613:2644   */\n      mstore\n        /* \"#utility.yul\":2663:2667   */\n      0x11\n        /* \"#utility.yul\":2660:2661   */\n      0x04\n        /* \"#utility.yul\":2653:2668   */\n      mstore\n        /* \"#utility.yul\":2687:2691   */\n      0x24\n        /* \"#utility.yul\":2684:2685   */\n      0x00\n        /* \"#utility.yul\":2677:2692   */\n      revert\n        /* \"#utility.yul\":2703:2838   */\n    tag_96:\n        /* \"#utility.yul\":2742:2745   */\n      0x00\n        /* \"#utility.yul\":2763:2780   */\n      0x01\n      dup3\n      add\n        /* \"#utility.yul\":2760:2803   */\n      tag_156\n      jumpi\n        /* \"#utility.yul\":2783:2801   */\n      tag_156\n      tag_136\n      jump\t// in\n    tag_156:\n      pop\n        /* \"#utility.yul\":2830:2831   */\n      0x01\n        /* \"#utility.yul\":2819:2832   */\n      add\n      swap1\n        /* \"#utility.yul\":2703:2838   */\n      jump\t// out\n        /* \"#utility.yul\":3179:3396   */\n    tag_102:\n        /* \"#utility.yul\":3219:3220   */\n      0x00\n        /* \"#utility.yul\":3245:3246   */\n      dup3\n        /* \"#utility.yul\":3235:3367   */\n      tag_159\n      jumpi\n        /* \"#utility.yul\":3289:3299   */\n      0x4e487b71\n        /* \"#utility.yul\":3284:3287   */\n      0xe0\n        /* \"#utility.yul\":3280:3300   */\n      shl\n        /* \"#utility.yul\":3277:3278   */\n      0x00\n        /* \"#utility.yul\":3270:3301   */\n      mstore\n        /* \"#utility.yul\":3324:3328   */\n      0x12\n        /* \"#utility.yul\":3321:3322   */\n      0x04\n        /* \"#utility.yul\":3314:3329   */\n      mstore\n        /* \"#utility.yul\":3352:3356   */\n      0x24\n        /* \"#utility.yul\":3349:3350   */\n      0x00\n        /* \"#utility.yul\":3342:3357   */\n      revert\n        /* \"#utility.yul\":3235:3367   */\n    tag_159:\n      pop\n        /* \"#utility.yul\":3381:3390   */\n      div\n      swap1\n        /* \"#utility.yul\":3179:3396   */\n      jump\t// out\n        /* \"#utility.yul\":3401:3529   */\n    tag_108:\n        /* \"#utility.yul\":3468:3477   */\n      dup2\n      dup2\n      sub\n        /* \"#utility.yul\":3489:3500   */\n      dup2\n      dup2\n      gt\n        /* \"#utility.yul\":3486:3523   */\n      iszero\n      tag_162\n      jumpi\n        /* \"#utility.yul\":3503:3521   */\n      tag_162\n      tag_136\n      jump\t// in\n    tag_162:\n        /* \"#utility.yul\":3401:3529   */\n      swap3\n      swap2\n      pop\n      pop\n      jump\t// out\n        /* \"#utility.yul\":5037:5162   */\n    tag_130:\n        /* \"#utility.yul\":5102:5111   */\n      dup1\n      dup3\n      add\n        /* \"#utility.yul\":5123:5133   */\n      dup1\n      dup3\n      gt\n        /* \"#utility.yul\":5120:5156   */\n      iszero\n      tag_162\n      jumpi\n        /* \"#utility.yul\":5136:5154   */\n      tag_162\n      tag_136\n      jump\t// in\n\n    auxdata: 0xa2646970667358221220b11f303b77782dee2ee5dafa95d32d697f375c7bdc5ae85d1a0c955792060bfd64736f6c63430008140033\n}\n",
				"bytecode": {
					"linkReferences": {},
					"object": "608060405234801561001057600080fd5b5060405161099338038061099383398101604081905261002f9161017f565b600b80546001600160a01b03808a166001600160a01b031992831617909255600c8054928b1692909116919091179055816100b15760405162461bcd60e51b815260206004820152601760248201527f5f6d696e50757263686173652073686f756c64203e203000000000000000000060448201526064015b60405180910390fd5b60006006541180156100c7575060095460065411155b61012e5760405162461bcd60e51b815260206004820152603260248201527f5f6d617850757263686173652073686f756c64206265203e203020616e64203c6044820152713d205f617661696c61626c65546f6b656e7360701b60648201526084016100a8565b600180546001600160a01b03191633179055600395909555600493909355600891909155600755600555600655506101eb9050565b80516001600160a01b038116811461017a57600080fd5b919050565b600080600080600080600080610100898b03121561019c57600080fd5b6101a589610163565b97506101b360208a01610163565b60408a015160608b015160808c015160a08d015160c08e015160e0909e01519c9f949e50929c919b909a509198509650945092505050565b610799806101fa6000396000f3fe608060405234801561001057600080fd5b50600436106101005760003560e01c8063be9a655511610097578063e0ab260311610066578063e0ab2603146101c7578063efbe1c1c146101da578063f851a440146101e3578063fc0c546a146101f657600080fd5b8063be9a655514610183578063c6b9f06a1461018c578063cb058ced146101ac578063d96a094a146101b457600080fd5b80636df1b7b6116100d35780636df1b7b61461015e5780638b7c160b14610168578063977b055b14610171578063a657242b1461017a57600080fd5b80632f48ab7d1461010557806333b5b62e1461013557806337c67c781461014c57806369bb4dc214610155575b600080fd5b600c54610118906001600160a01b031681565b6040516001600160a01b0390911681526020015b60405180910390f35b61013e60055481565b60405190815260200161012c565b61013e600a5481565b61013e60095481565b610166610209565b005b61013e60085481565b61013e60065481565b61013e60075481565b61013e60035481565b61013e61019a366004610657565b60006020819052908152604090205481565b61016661030f565b6101666101c2366004610687565b610437565b6101666101d5366004610687565b610628565b61013e60045481565b600154610118906001600160a01b031681565b600b54610118906001600160a01b031681565b6001546001600160a01b0316331461023c5760405162461bcd60e51b8152600401610233906106a0565b60405180910390fd5b6004544210158061024d5750600954155b61028f5760405162461bcd60e51b81526020600482015260136024820152721250d3c81b5d5cdd081a185d9948195b991959606a1b6044820152606401610233565b600c54600154600a5460405163a9059cbb60e01b81526001600160a01b039283166004820152602481019190915291169063a9059cbb906044016020604051808303816000875af11580156102e8573d6000803e3d6000fd5b505050506040513d601f19601f8201168201806040525081019061030c91906106c4565b50565b6001546001600160a01b031633146103395760405162461bcd60e51b8152600401610233906106a0565b60028054906000610349836106fc565b919050555060035442118015610360575061a8c042115b6103975760405162461bcd60e51b8152602060048201526008602482015267656c696769626c6560c01b6044820152606401610233565b6000600a80546103a79190610715565b600c5460015460405163a9059cbb60e01b81526001600160a01b03918216600482015260248101849052929350169063a9059cbb906044016020604051808303816000875af11580156103fe573d6000803e3d6000fd5b505050506040513d601f19601f8201168201806040525081019061042291906106c4565b5080600a546104319190610737565b600a5550565b60035442118015610449575060045442105b801561045757506000600954115b6104985760405162461bcd60e51b815260206004820152601260248201527149434f206d7573742062652061637469766560701b6044820152606401610233565b60055481101580156104ac57506006548111155b6105105760405162461bcd60e51b815260206004820152602f60248201527f6861766520746f20627579206265747765656e206d696e50757263686173652060448201526e616e64206d6178507572636861736560881b6064820152608401610233565b6000600854826105209190610715565b90506009548111156105745760405162461bcd60e51b815260206004820152601f60248201527f4e6f7420656e6f75676820746f6b656e73206c65667420666f722073616c65006044820152606401610233565b600c546040516323b872dd60e01b8152336004820152306024820152604481018490526001600160a01b03909116906323b872dd906064016020604051808303816000875af11580156105cb573d6000803e3d6000fd5b505050506040513d601f19601f820116820180604052508101906105ef91906106c4565b5081600a546105fe9190610750565b600a55336000908152602081905260409020819055600754610621908290610737565b6009555050565b6001546001600160a01b031633146106525760405162461bcd60e51b8152600401610233906106a0565b600855565b60006020828403121561066957600080fd5b81356001600160a01b038116811461068057600080fd5b9392505050565b60006020828403121561069957600080fd5b5035919050565b6020808252600a908201526937b7363c9030b236b4b760b11b604082015260600190565b6000602082840312156106d657600080fd5b8151801515811461068057600080fd5b634e487b7160e01b600052601160045260246000fd5b60006001820161070e5761070e6106e6565b5060010190565b60008261073257634e487b7160e01b600052601260045260246000fd5b500490565b8181038181111561074a5761074a6106e6565b92915050565b8082018082111561074a5761074a6106e656fea2646970667358221220b11f303b77782dee2ee5dafa95d32d697f375c7bdc5ae85d1a0c955792060bfd64736f6c63430008140033",
					"opcodes": "PUSH1 0x80 PUSH1 0x40 MSTORE CALLVALUE DUP1 ISZERO PUSH2 0x10 JUMPI PUSH1 0x0 DUP1 REVERT JUMPDEST POP PUSH1 0x40 MLOAD PUSH2 0x993 CODESIZE SUB DUP1 PUSH2 0x993 DUP4 CODECOPY DUP2 ADD PUSH1 0x40 DUP2 SWAP1 MSTORE PUSH2 0x2F SWAP2 PUSH2 0x17F JUMP JUMPDEST PUSH1 0xB DUP1 SLOAD PUSH1 0x1 PUSH1 0x1 PUSH1 0xA0 SHL SUB DUP1 DUP11 AND PUSH1 0x1 PUSH1 0x1 PUSH1 0xA0 SHL SUB NOT SWAP3 DUP4 AND OR SWAP1 SWAP3 SSTORE PUSH1 0xC DUP1 SLOAD SWAP3 DUP12 AND SWAP3 SWAP1 SWAP2 AND SWAP2 SWAP1 SWAP2 OR SWAP1 SSTORE DUP2 PUSH2 0xB1 JUMPI PUSH1 0x40 MLOAD PUSH3 0x461BCD PUSH1 0xE5 SHL DUP2 MSTORE PUSH1 0x20 PUSH1 0x4 DUP3 ADD MSTORE PUSH1 0x17 PUSH1 0x24 DUP3 ADD MSTORE PUSH32 0x5F6D696E50757263686173652073686F756C64203E2030000000000000000000 PUSH1 0x44 DUP3 ADD MSTORE PUSH1 0x64 ADD JUMPDEST PUSH1 0x40 MLOAD DUP1 SWAP2 SUB SWAP1 REVERT JUMPDEST PUSH1 0x0 PUSH1 0x6 SLOAD GT DUP1 ISZERO PUSH2 0xC7 JUMPI POP PUSH1 0x9 SLOAD PUSH1 0x6 SLOAD GT ISZERO JUMPDEST PUSH2 0x12E JUMPI PUSH1 0x40 MLOAD PUSH3 0x461BCD PUSH1 0xE5 SHL DUP2 MSTORE PUSH1 0x20 PUSH1 0x4 DUP3 ADD MSTORE PUSH1 0x32 PUSH1 0x24 DUP3 ADD MSTORE PUSH32 0x5F6D617850757263686173652073686F756C64206265203E203020616E64203C PUSH1 0x44 DUP3 ADD MSTORE PUSH18 0x3D205F617661696C61626C65546F6B656E73 PUSH1 0x70 SHL PUSH1 0x64 DUP3 ADD MSTORE PUSH1 0x84 ADD PUSH2 0xA8 JUMP JUMPDEST PUSH1 0x1 DUP1 SLOAD PUSH1 0x1 PUSH1 0x1 PUSH1 0xA0 SHL SUB NOT AND CALLER OR SWAP1 SSTORE PUSH1 0x3 SWAP6 SWAP1 SWAP6 SSTORE PUSH1 0x4 SWAP4 SWAP1 SWAP4 SSTORE PUSH1 0x8 SWAP2 SWAP1 SWAP2 SSTORE PUSH1 0x7 SSTORE PUSH1 0x5 SSTORE PUSH1 0x6 SSTORE POP PUSH2 0x1EB SWAP1 POP JUMP JUMPDEST DUP1 MLOAD PUSH1 0x1 PUSH1 0x1 PUSH1 0xA0 SHL SUB DUP2 AND DUP2 EQ PUSH2 0x17A JUMPI PUSH1 0x0 DUP1 REVERT JUMPDEST SWAP2 SWAP1 POP JUMP JUMPDEST PUSH1 0x0 DUP1 PUSH1 0x0 DUP1 PUSH1 0x0 DUP1 PUSH1 0x0 DUP1 PUSH2 0x100 DUP10 DUP12 SUB SLT ISZERO PUSH2 0x19C JUMPI PUSH1 0x0 DUP1 REVERT JUMPDEST PUSH2 0x1A5 DUP10 PUSH2 0x163 JUMP JUMPDEST SWAP8 POP PUSH2 0x1B3 PUSH1 0x20 DUP11 ADD PUSH2 0x163 JUMP JUMPDEST PUSH1 0x40 DUP11 ADD MLOAD PUSH1 0x60 DUP12 ADD MLOAD PUSH1 0x80 DUP13 ADD MLOAD PUSH1 0xA0 DUP14 ADD MLOAD PUSH1 0xC0 DUP15 ADD MLOAD PUSH1 0xE0 SWAP1 SWAP15 ADD MLOAD SWAP13 SWAP16 SWAP5 SWAP15 POP SWAP3 SWAP13 SWAP2 SWAP12 SWAP1 SWAP11 POP SWAP2 SWAP9 POP SWAP7 POP SWAP5 POP SWAP3 POP POP POP JUMP JUMPDEST PUSH2 0x799 DUP1 PUSH2 0x1FA PUSH1 0x0 CODECOPY PUSH1 0x0 RETURN INVALID PUSH1 0x80 PUSH1 0x40 MSTORE CALLVALUE DUP1 ISZERO PUSH2 0x10 JUMPI PUSH1 0x0 DUP1 REVERT JUMPDEST POP PUSH1 0x4 CALLDATASIZE LT PUSH2 0x100 JUMPI PUSH1 0x0 CALLDATALOAD PUSH1 0xE0 SHR DUP1 PUSH4 0xBE9A6555 GT PUSH2 0x97 JUMPI DUP1 PUSH4 0xE0AB2603 GT PUSH2 0x66 JUMPI DUP1 PUSH4 0xE0AB2603 EQ PUSH2 0x1C7 JUMPI DUP1 PUSH4 0xEFBE1C1C EQ PUSH2 0x1DA JUMPI DUP1 PUSH4 0xF851A440 EQ PUSH2 0x1E3 JUMPI DUP1 PUSH4 0xFC0C546A EQ PUSH2 0x1F6 JUMPI PUSH1 0x0 DUP1 REVERT JUMPDEST DUP1 PUSH4 0xBE9A6555 EQ PUSH2 0x183 JUMPI DUP1 PUSH4 0xC6B9F06A EQ PUSH2 0x18C JUMPI DUP1 PUSH4 0xCB058CED EQ PUSH2 0x1AC JUMPI DUP1 PUSH4 0xD96A094A EQ PUSH2 0x1B4 JUMPI PUSH1 0x0 DUP1 REVERT JUMPDEST DUP1 PUSH4 0x6DF1B7B6 GT PUSH2 0xD3 JUMPI DUP1 PUSH4 0x6DF1B7B6 EQ PUSH2 0x15E JUMPI DUP1 PUSH4 0x8B7C160B EQ PUSH2 0x168 JUMPI DUP1 PUSH4 0x977B055B EQ PUSH2 0x171 JUMPI DUP1 PUSH4 0xA657242B EQ PUSH2 0x17A JUMPI PUSH1 0x0 DUP1 REVERT JUMPDEST DUP1 PUSH4 0x2F48AB7D EQ PUSH2 0x105 JUMPI DUP1 PUSH4 0x33B5B62E EQ PUSH2 0x135 JUMPI DUP1 PUSH4 0x37C67C78 EQ PUSH2 0x14C JUMPI DUP1 PUSH4 0x69BB4DC2 EQ PUSH2 0x155 JUMPI JUMPDEST PUSH1 0x0 DUP1 REVERT JUMPDEST PUSH1 0xC SLOAD PUSH2 0x118 SWAP1 PUSH1 0x1 PUSH1 0x1 PUSH1 0xA0 SHL SUB AND DUP2 JUMP JUMPDEST PUSH1 0x40 MLOAD PUSH1 0x1 PUSH1 0x1 PUSH1 0xA0 SHL SUB SWAP1 SWAP2 AND DUP2 MSTORE PUSH1 0x20 ADD JUMPDEST PUSH1 0x40 MLOAD DUP1 SWAP2 SUB SWAP1 RETURN JUMPDEST PUSH2 0x13E PUSH1 0x5 SLOAD DUP2 JUMP JUMPDEST PUSH1 0x40 MLOAD SWAP1 DUP2 MSTORE PUSH1 0x20 ADD PUSH2 0x12C JUMP JUMPDEST PUSH2 0x13E PUSH1 0xA SLOAD DUP2 JUMP JUMPDEST PUSH2 0x13E PUSH1 0x9 SLOAD DUP2 JUMP JUMPDEST PUSH2 0x166 PUSH2 0x209 JUMP JUMPDEST STOP JUMPDEST PUSH2 0x13E PUSH1 0x8 SLOAD DUP2 JUMP JUMPDEST PUSH2 0x13E PUSH1 0x6 SLOAD DUP2 JUMP JUMPDEST PUSH2 0x13E PUSH1 0x7 SLOAD DUP2 JUMP JUMPDEST PUSH2 0x13E PUSH1 0x3 SLOAD DUP2 JUMP JUMPDEST PUSH2 0x13E PUSH2 0x19A CALLDATASIZE PUSH1 0x4 PUSH2 0x657 JUMP JUMPDEST PUSH1 0x0 PUSH1 0x20 DUP2 SWAP1 MSTORE SWAP1 DUP2 MSTORE PUSH1 0x40 SWAP1 KECCAK256 SLOAD DUP2 JUMP JUMPDEST PUSH2 0x166 PUSH2 0x30F JUMP JUMPDEST PUSH2 0x166 PUSH2 0x1C2 CALLDATASIZE PUSH1 0x4 PUSH2 0x687 JUMP JUMPDEST PUSH2 0x437 JUMP JUMPDEST PUSH2 0x166 PUSH2 0x1D5 CALLDATASIZE PUSH1 0x4 PUSH2 0x687 JUMP JUMPDEST PUSH2 0x628 JUMP JUMPDEST PUSH2 0x13E PUSH1 0x4 SLOAD DUP2 JUMP JUMPDEST PUSH1 0x1 SLOAD PUSH2 0x118 SWAP1 PUSH1 0x1 PUSH1 0x1 PUSH1 0xA0 SHL SUB AND DUP2 JUMP JUMPDEST PUSH1 0xB SLOAD PUSH2 0x118 SWAP1 PUSH1 0x1 PUSH1 0x1 PUSH1 0xA0 SHL SUB AND DUP2 JUMP JUMPDEST PUSH1 0x1 SLOAD PUSH1 0x1 PUSH1 0x1 PUSH1 0xA0 SHL SUB AND CALLER EQ PUSH2 0x23C JUMPI PUSH1 0x40 MLOAD PUSH3 0x461BCD PUSH1 0xE5 SHL DUP2 MSTORE PUSH1 0x4 ADD PUSH2 0x233 SWAP1 PUSH2 0x6A0 JUMP JUMPDEST PUSH1 0x40 MLOAD DUP1 SWAP2 SUB SWAP1 REVERT JUMPDEST PUSH1 0x4 SLOAD TIMESTAMP LT ISZERO DUP1 PUSH2 0x24D JUMPI POP PUSH1 0x9 SLOAD ISZERO JUMPDEST PUSH2 0x28F JUMPI PUSH1 0x40 MLOAD PUSH3 0x461BCD PUSH1 0xE5 SHL DUP2 MSTORE PUSH1 0x20 PUSH1 0x4 DUP3 ADD MSTORE PUSH1 0x13 PUSH1 0x24 DUP3 ADD MSTORE PUSH19 0x1250D3C81B5D5CDD081A185D9948195B991959 PUSH1 0x6A SHL PUSH1 0x44 DUP3 ADD MSTORE PUSH1 0x64 ADD PUSH2 0x233 JUMP JUMPDEST PUSH1 0xC SLOAD PUSH1 0x1 SLOAD PUSH1 0xA SLOAD PUSH1 0x40 MLOAD PUSH4 0xA9059CBB PUSH1 0xE0 SHL DUP2 MSTORE PUSH1 0x1 PUSH1 0x1 PUSH1 0xA0 SHL SUB SWAP3 DUP4 AND PUSH1 0x4 DUP3 ADD MSTORE PUSH1 0x24 DUP2 ADD SWAP2 SWAP1 SWAP2 MSTORE SWAP2 AND SWAP1 PUSH4 0xA9059CBB SWAP1 PUSH1 0x44 ADD PUSH1 0x20 PUSH1 0x40 MLOAD DUP1 DUP4 SUB DUP2 PUSH1 0x0 DUP8 GAS CALL ISZERO DUP1 ISZERO PUSH2 0x2E8 JUMPI RETURNDATASIZE PUSH1 0x0 DUP1 RETURNDATACOPY RETURNDATASIZE PUSH1 0x0 REVERT JUMPDEST POP POP POP POP PUSH1 0x40 MLOAD RETURNDATASIZE PUSH1 0x1F NOT PUSH1 0x1F DUP3 ADD AND DUP3 ADD DUP1 PUSH1 0x40 MSTORE POP DUP2 ADD SWAP1 PUSH2 0x30C SWAP2 SWAP1 PUSH2 0x6C4 JUMP JUMPDEST POP JUMP JUMPDEST PUSH1 0x1 SLOAD PUSH1 0x1 PUSH1 0x1 PUSH1 0xA0 SHL SUB AND CALLER EQ PUSH2 0x339 JUMPI PUSH1 0x40 MLOAD PUSH3 0x461BCD PUSH1 0xE5 SHL DUP2 MSTORE PUSH1 0x4 ADD PUSH2 0x233 SWAP1 PUSH2 0x6A0 JUMP JUMPDEST PUSH1 0x2 DUP1 SLOAD SWAP1 PUSH1 0x0 PUSH2 0x349 DUP4 PUSH2 0x6FC JUMP JUMPDEST SWAP2 SWAP1 POP SSTORE POP PUSH1 0x3 SLOAD TIMESTAMP GT DUP1 ISZERO PUSH2 0x360 JUMPI POP PUSH2 0xA8C0 TIMESTAMP GT JUMPDEST PUSH2 0x397 JUMPI PUSH1 0x40 MLOAD PUSH3 0x461BCD PUSH1 0xE5 SHL DUP2 MSTORE PUSH1 0x20 PUSH1 0x4 DUP3 ADD MSTORE PUSH1 0x8 PUSH1 0x24 DUP3 ADD MSTORE PUSH8 0x656C696769626C65 PUSH1 0xC0 SHL PUSH1 0x44 DUP3 ADD MSTORE PUSH1 0x64 ADD PUSH2 0x233 JUMP JUMPDEST PUSH1 0x0 PUSH1 0xA DUP1 SLOAD PUSH2 0x3A7 SWAP2 SWAP1 PUSH2 0x715 JUMP JUMPDEST PUSH1 0xC SLOAD PUSH1 0x1 SLOAD PUSH1 0x40 MLOAD PUSH4 0xA9059CBB PUSH1 0xE0 SHL DUP2 MSTORE PUSH1 0x1 PUSH1 0x1 PUSH1 0xA0 SHL SUB SWAP2 DUP3 AND PUSH1 0x4 DUP3 ADD MSTORE PUSH1 0x24 DUP2 ADD DUP5 SWAP1 MSTORE SWAP3 SWAP4 POP AND SWAP1 PUSH4 0xA9059CBB SWAP1 PUSH1 0x44 ADD PUSH1 0x20 PUSH1 0x40 MLOAD DUP1 DUP4 SUB DUP2 PUSH1 0x0 DUP8 GAS CALL ISZERO DUP1 ISZERO PUSH2 0x3FE JUMPI RETURNDATASIZE PUSH1 0x0 DUP1 RETURNDATACOPY RETURNDATASIZE PUSH1 0x0 REVERT JUMPDEST POP POP POP POP PUSH1 0x40 MLOAD RETURNDATASIZE PUSH1 0x1F NOT PUSH1 0x1F DUP3 ADD AND DUP3 ADD DUP1 PUSH1 0x40 MSTORE POP DUP2 ADD SWAP1 PUSH2 0x422 SWAP2 SWAP1 PUSH2 0x6C4 JUMP JUMPDEST POP DUP1 PUSH1 0xA SLOAD PUSH2 0x431 SWAP2 SWAP1 PUSH2 0x737 JUMP JUMPDEST PUSH1 0xA SSTORE POP JUMP JUMPDEST PUSH1 0x3 SLOAD TIMESTAMP GT DUP1 ISZERO PUSH2 0x449 JUMPI POP PUSH1 0x4 SLOAD TIMESTAMP LT JUMPDEST DUP1 ISZERO PUSH2 0x457 JUMPI POP PUSH1 0x0 PUSH1 0x9 SLOAD GT JUMPDEST PUSH2 0x498 JUMPI PUSH1 0x40 MLOAD PUSH3 0x461BCD PUSH1 0xE5 SHL DUP2 MSTORE PUSH1 0x20 PUSH1 0x4 DUP3 ADD MSTORE PUSH1 0x12 PUSH1 0x24 DUP3 ADD MSTORE PUSH18 0x49434F206D75737420626520616374697665 PUSH1 0x70 SHL PUSH1 0x44 DUP3 ADD MSTORE PUSH1 0x64 ADD PUSH2 0x233 JUMP JUMPDEST PUSH1 0x5 SLOAD DUP2 LT ISZERO DUP1 ISZERO PUSH2 0x4AC JUMPI POP PUSH1 0x6 SLOAD DUP2 GT ISZERO JUMPDEST PUSH2 0x510 JUMPI PUSH1 0x40 MLOAD PUSH3 0x461BCD PUSH1 0xE5 SHL DUP2 MSTORE PUSH1 0x20 PUSH1 0x4 DUP3 ADD MSTORE PUSH1 0x2F PUSH1 0x24 DUP3 ADD MSTORE PUSH32 0x6861766520746F20627579206265747765656E206D696E507572636861736520 PUSH1 0x44 DUP3 ADD MSTORE PUSH15 0x616E64206D61785075726368617365 PUSH1 0x88 SHL PUSH1 0x64 DUP3 ADD MSTORE PUSH1 0x84 ADD PUSH2 0x233 JUMP JUMPDEST PUSH1 0x0 PUSH1 0x8 SLOAD DUP3 PUSH2 0x520 SWAP2 SWAP1 PUSH2 0x715 JUMP JUMPDEST SWAP1 POP PUSH1 0x9 SLOAD DUP2 GT ISZERO PUSH2 0x574 JUMPI PUSH1 0x40 MLOAD PUSH3 0x461BCD PUSH1 0xE5 SHL DUP2 MSTORE PUSH1 0x20 PUSH1 0x4 DUP3 ADD MSTORE PUSH1 0x1F PUSH1 0x24 DUP3 ADD MSTORE PUSH32 0x4E6F7420656E6F75676820746F6B656E73206C65667420666F722073616C6500 PUSH1 0x44 DUP3 ADD MSTORE PUSH1 0x64 ADD PUSH2 0x233 JUMP JUMPDEST PUSH1 0xC SLOAD PUSH1 0x40 MLOAD PUSH4 0x23B872DD PUSH1 0xE0 SHL DUP2 MSTORE CALLER PUSH1 0x4 DUP3 ADD MSTORE ADDRESS PUSH1 0x24 DUP3 ADD MSTORE PUSH1 0x44 DUP2 ADD DUP5 SWAP1 MSTORE PUSH1 0x1 PUSH1 0x1 PUSH1 0xA0 SHL SUB SWAP1 SWAP2 AND SWAP1 PUSH4 0x23B872DD SWAP1 PUSH1 0x64 ADD PUSH1 0x20 PUSH1 0x40 MLOAD DUP1 DUP4 SUB DUP2 PUSH1 0x0 DUP8 GAS CALL ISZERO DUP1 ISZERO PUSH2 0x5CB JUMPI RETURNDATASIZE PUSH1 0x0 DUP1 RETURNDATACOPY RETURNDATASIZE PUSH1 0x0 REVERT JUMPDEST POP POP POP POP PUSH1 0x40 MLOAD RETURNDATASIZE PUSH1 0x1F NOT PUSH1 0x1F DUP3 ADD AND DUP3 ADD DUP1 PUSH1 0x40 MSTORE POP DUP2 ADD SWAP1 PUSH2 0x5EF SWAP2 SWAP1 PUSH2 0x6C4 JUMP JUMPDEST POP DUP2 PUSH1 0xA SLOAD PUSH2 0x5FE SWAP2 SWAP1 PUSH2 0x750 JUMP JUMPDEST PUSH1 0xA SSTORE CALLER PUSH1 0x0 SWAP1 DUP2 MSTORE PUSH1 0x20 DUP2 SWAP1 MSTORE PUSH1 0x40 SWAP1 KECCAK256 DUP2 SWAP1 SSTORE PUSH1 0x7 SLOAD PUSH2 0x621 SWAP1 DUP3 SWAP1 PUSH2 0x737 JUMP JUMPDEST PUSH1 0x9 SSTORE POP POP JUMP JUMPDEST PUSH1 0x1 SLOAD PUSH1 0x1 PUSH1 0x1 PUSH1 0xA0 SHL SUB AND CALLER EQ PUSH2 0x652 JUMPI PUSH1 0x40 MLOAD PUSH3 0x461BCD PUSH1 0xE5 SHL DUP2 MSTORE PUSH1 0x4 ADD PUSH2 0x233 SWAP1 PUSH2 0x6A0 JUMP JUMPDEST PUSH1 0x8 SSTORE JUMP JUMPDEST PUSH1 0x0 PUSH1 0x20 DUP3 DUP5 SUB SLT ISZERO PUSH2 0x669 JUMPI PUSH1 0x0 DUP1 REVERT JUMPDEST DUP2 CALLDATALOAD PUSH1 0x1 PUSH1 0x1 PUSH1 0xA0 SHL SUB DUP2 AND DUP2 EQ PUSH2 0x680 JUMPI PUSH1 0x0 DUP1 REVERT JUMPDEST SWAP4 SWAP3 POP POP POP JUMP JUMPDEST PUSH1 0x0 PUSH1 0x20 DUP3 DUP5 SUB SLT ISZERO PUSH2 0x699 JUMPI PUSH1 0x0 DUP1 REVERT JUMPDEST POP CALLDATALOAD SWAP2 SWAP1 POP JUMP JUMPDEST PUSH1 0x20 DUP1 DUP3 MSTORE PUSH1 0xA SWAP1 DUP3 ADD MSTORE PUSH10 0x37B7363C9030B236B4B7 PUSH1 0xB1 SHL PUSH1 0x40 DUP3 ADD MSTORE PUSH1 0x60 ADD SWAP1 JUMP JUMPDEST PUSH1 0x0 PUSH1 0x20 DUP3 DUP5 SUB SLT ISZERO PUSH2 0x6D6 JUMPI PUSH1 0x0 DUP1 REVERT JUMPDEST DUP2 MLOAD DUP1 ISZERO ISZERO DUP2 EQ PUSH2 0x680 JUMPI PUSH1 0x0 DUP1 REVERT JUMPDEST PUSH4 0x4E487B71 PUSH1 0xE0 SHL PUSH1 0x0 MSTORE PUSH1 0x11 PUSH1 0x4 MSTORE PUSH1 0x24 PUSH1 0x0 REVERT JUMPDEST PUSH1 0x0 PUSH1 0x1 DUP3 ADD PUSH2 0x70E JUMPI PUSH2 0x70E PUSH2 0x6E6 JUMP JUMPDEST POP PUSH1 0x1 ADD SWAP1 JUMP JUMPDEST PUSH1 0x0 DUP3 PUSH2 0x732 JUMPI PUSH4 0x4E487B71 PUSH1 0xE0 SHL PUSH1 0x0 MSTORE PUSH1 0x12 PUSH1 0x4 MSTORE PUSH1 0x24 PUSH1 0x0 REVERT JUMPDEST POP DIV SWAP1 JUMP JUMPDEST DUP2 DUP2 SUB DUP2 DUP2 GT ISZERO PUSH2 0x74A JUMPI PUSH2 0x74A PUSH2 0x6E6 JUMP JUMPDEST SWAP3 SWAP2 POP POP JUMP JUMPDEST DUP1 DUP3 ADD DUP1 DUP3 GT ISZERO PUSH2 0x74A JUMPI PUSH2 0x74A PUSH2 0x6E6 JUMP INVALID LOG2 PUSH5 0x6970667358 0x22 SLT KECCAK256 0xB1 0x1F ADDRESS EXTCODESIZE PUSH24 0x782DEE2EE5DAFA95D32D697F375C7BDC5AE85D1A0C955792 MOD SIGNEXTEND REVERT PUSH5 0x736F6C6343 STOP ADDMOD EQ STOP CALLER "
				},
				"gasEstimates": {
					"creation": {
						"codeDepositCost": "389000",
						"executionCost": "infinite",
						"totalCost": "infinite"
					},
					"external": {
						"ChangerateVDOITtoUSDT(uint256)": "24486",
						"Hardcap()": "2384",
						"admin()": "2392",
						"availableTokens()": "2385",
						"buy(uint256)": "infinite",
						"claimusdtPermonth()": "infinite",
						"coin_price()": "2340",
						"collectUsdt()": "infinite",
						"end()": "2339",
						"maxPurchase()": "2362",
						"minPurchase()": "2341",
						"sales(address)": "2532",
						"start()": "2318",
						"token()": "2414",
						"usdt()": "2350",
						"usdtTotaltoken()": "2363"
					}
				},
				"methodIdentifiers": {
					"ChangerateVDOITtoUSDT(uint256)": "e0ab2603",
					"Hardcap()": "a657242b",
					"admin()": "f851a440",
					"availableTokens()": "69bb4dc2",
					"buy(uint256)": "d96a094a",
					"claimusdtPermonth()": "cb058ced",
					"coin_price()": "8b7c160b",
					"collectUsdt()": "6df1b7b6",
					"end()": "efbe1c1c",
					"maxPurchase()": "977b055b",
					"minPurchase()": "33b5b62e",
					"sales(address)": "c6b9f06a",
					"start()": "be9a6555",
					"token()": "fc0c546a",
					"usdt()": "2f48ab7d",
					"usdtTotaltoken()": "37c67c78"
				}
			},
			"storageLayout": {
				"storage": [
					{
						"astId": 859,
						"contract": "ICO/ico.sol:ICO",
						"label": "sales",
						"offset": 0,
						"slot": "0",
						"type": "t_mapping(t_address,t_uint256)"
					},
					{
						"astId": 861,
						"contract": "ICO/ico.sol:ICO",
						"label": "admin",
						"offset": 0,
						"slot": "1",
						"type": "t_address"
					},
					{
						"astId": 863,
						"contract": "ICO/ico.sol:ICO",
						"label": "month",
						"offset": 0,
						"slot": "2",
						"type": "t_uint256"
					},
					{
						"astId": 865,
						"contract": "ICO/ico.sol:ICO",
						"label": "start",
						"offset": 0,
						"slot": "3",
						"type": "t_uint256"
					},
					{
						"astId": 867,
						"contract": "ICO/ico.sol:ICO",
						"label": "end",
						"offset": 0,
						"slot": "4",
						"type": "t_uint256"
					},
					{
						"astId": 869,
						"contract": "ICO/ico.sol:ICO",
						"label": "minPurchase",
						"offset": 0,
						"slot": "5",
						"type": "t_uint256"
					},
					{
						"astId": 871,
						"contract": "ICO/ico.sol:ICO",
						"label": "maxPurchase",
						"offset": 0,
						"slot": "6",
						"type": "t_uint256"
					},
					{
						"astId": 873,
						"contract": "ICO/ico.sol:ICO",
						"label": "Hardcap",
						"offset": 0,
						"slot": "7",
						"type": "t_uint256"
					},
					{
						"astId": 875,
						"contract": "ICO/ico.sol:ICO",
						"label": "coin_price",
						"offset": 0,
						"slot": "8",
						"type": "t_uint256"
					},
					{
						"astId": 877,
						"contract": "ICO/ico.sol:ICO",
						"label": "availableTokens",
						"offset": 0,
						"slot": "9",
						"type": "t_uint256"
					},
					{
						"astId": 879,
						"contract": "ICO/ico.sol:ICO",
						"label": "usdtTotaltoken",
						"offset": 0,
						"slot": "10",
						"type": "t_uint256"
					},
					{
						"astId": 882,
						"contract": "ICO/ico.sol:ICO",
						"label": "token",
						"offset": 0,
						"slot": "11",
						"type": "t_contract(Token)851"
					},
					{
						"astId": 885,
						"contract": "ICO/ico.sol:ICO",
						"label": "usdt",
						"offset": 0,
						"slot": "12",
						"type": "t_contract(IERC20)729"
					}
				],
				"types": {
					"t_address": {
						"encoding": "inplace",
						"label": "address",
						"numberOfBytes": "20"
					},
					"t_contract(IERC20)729": {
						"encoding": "inplace",
						"label": "contract IERC20",
						"numberOfBytes": "20"
					},
					"t_contract(Token)851": {
						"encoding": "inplace",
						"label": "contract Token",
						"numberOfBytes": "20"
					},
					"t_mapping(t_address,t_uint256)": {
						"encoding": "mapping",
						"key": "t_address",
						"label": "mapping(address => uint256)",
						"numberOfBytes": "32",
						"value": "t_uint256"
					},
					"t_uint256": {
						"encoding": "inplace",
						"label": "uint256",
						"numberOfBytes": "32"
					}
				}
			},
			"userdoc": {
				"kind": "user",
				"methods": {},
				"version": 1
			}
		}
	}
}