{
	"data": {
		"bytecode": {
			"linkReferences": {},
			"object": "608060405234801561001057600080fd5b5060405161099338038061099383398101604081905261002f9161017f565b600b80546001600160a01b03808a166001600160a01b031992831617909255600c8054928b1692909116919091179055816100b15760405162461bcd60e51b815260206004820152601760248201527f5f6d696e50757263686173652073686f756c64203e203000000000000000000060448201526064015b60405180910390fd5b60006006541180156100c7575060095460065411155b61012e5760405162461bcd60e51b815260206004820152603260248201527f5f6d617850757263686173652073686f756c64206265203e203020616e64203c6044820152713d205f617661696c61626c65546f6b656e7360701b60648201526084016100a8565b600180546001600160a01b03191633179055600395909555600493909355600891909155600755600555600655506101eb9050565b80516001600160a01b038116811461017a57600080fd5b919050565b600080600080600080600080610100898b03121561019c57600080fd5b6101a589610163565b97506101b360208a01610163565b60408a015160608b015160808c015160a08d015160c08e015160e0909e01519c9f949e50929c919b909a509198509650945092505050565b610799806101fa6000396000f3fe608060405234801561001057600080fd5b50600436106101005760003560e01c8063be9a655511610097578063e0ab260311610066578063e0ab2603146101c7578063efbe1c1c146101da578063f851a440146101e3578063fc0c546a146101f657600080fd5b8063be9a655514610183578063c6b9f06a1461018c578063cb058ced146101ac578063d96a094a146101b457600080fd5b80636df1b7b6116100d35780636df1b7b61461015e5780638b7c160b14610168578063977b055b14610171578063a657242b1461017a57600080fd5b80632f48ab7d1461010557806333b5b62e1461013557806337c67c781461014c57806369bb4dc214610155575b600080fd5b600c54610118906001600160a01b031681565b6040516001600160a01b0390911681526020015b60405180910390f35b61013e60055481565b60405190815260200161012c565b61013e600a5481565b61013e60095481565b610166610209565b005b61013e60085481565b61013e60065481565b61013e60075481565b61013e60035481565b61013e61019a366004610657565b60006020819052908152604090205481565b61016661030f565b6101666101c2366004610687565b610437565b6101666101d5366004610687565b610628565b61013e60045481565b600154610118906001600160a01b031681565b600b54610118906001600160a01b031681565b6001546001600160a01b0316331461023c5760405162461bcd60e51b8152600401610233906106a0565b60405180910390fd5b6004544210158061024d5750600954155b61028f5760405162461bcd60e51b81526020600482015260136024820152721250d3c81b5d5cdd081a185d9948195b991959606a1b6044820152606401610233565b600c54600154600a5460405163a9059cbb60e01b81526001600160a01b039283166004820152602481019190915291169063a9059cbb906044016020604051808303816000875af11580156102e8573d6000803e3d6000fd5b505050506040513d601f19601f8201168201806040525081019061030c91906106c4565b50565b6001546001600160a01b031633146103395760405162461bcd60e51b8152600401610233906106a0565b60028054906000610349836106fc565b919050555060035442118015610360575061a8c042115b6103975760405162461bcd60e51b8152602060048201526008602482015267656c696769626c6560c01b6044820152606401610233565b6000600a80546103a79190610715565b600c5460015460405163a9059cbb60e01b81526001600160a01b03918216600482015260248101849052929350169063a9059cbb906044016020604051808303816000875af11580156103fe573d6000803e3d6000fd5b505050506040513d601f19601f8201168201806040525081019061042291906106c4565b5080600a546104319190610737565b600a5550565b60035442118015610449575060045442105b801561045757506000600954115b6104985760405162461bcd60e51b815260206004820152601260248201527149434f206d7573742062652061637469766560701b6044820152606401610233565b60055481101580156104ac57506006548111155b6105105760405162461bcd60e51b815260206004820152602f60248201527f6861766520746f20627579206265747765656e206d696e50757263686173652060448201526e616e64206d6178507572636861736560881b6064820152608401610233565b6000600854826105209190610715565b90506009548111156105745760405162461bcd60e51b815260206004820152601f60248201527f4e6f7420656e6f75676820746f6b656e73206c65667420666f722073616c65006044820152606401610233565b600c546040516323b872dd60e01b8152336004820152306024820152604481018490526001600160a01b03909116906323b872dd906064016020604051808303816000875af11580156105cb573d6000803e3d6000fd5b505050506040513d601f19601f820116820180604052508101906105ef91906106c4565b5081600a546105fe9190610750565b600a55336000908152602081905260409020819055600754610621908290610737565b6009555050565b6001546001600160a01b031633146106525760405162461bcd60e51b8152600401610233906106a0565b600855565b60006020828403121561066957600080fd5b81356001600160a01b038116811461068057600080fd5b9392505050565b60006020828403121561069957600080fd5b5035919050565b6020808252600a908201526937b7363c9030b236b4b760b11b604082015260600190565b6000602082840312156106d657600080fd5b8151801515811461068057600080fd5b634e487b7160e01b600052601160045260246000fd5b60006001820161070e5761070e6106e6565b5060010190565b60008261073257634e487b7160e01b600052601260045260246000fd5b500490565b8181038181111561074a5761074a6106e6565b92915050565b8082018082111561074a5761074a6106e656fea2646970667358221220b11f303b77782dee2ee5dafa95d32d697f375c7bdc5ae85d1a0c955792060bfd64736f6c63430008140033",
			"opcodes": "PUSH1 0x80 PUSH1 0x40 MSTORE CALLVALUE DUP1 ISZERO PUSH2 0x10 JUMPI PUSH1 0x0 DUP1 REVERT JUMPDEST POP PUSH1 0x40 MLOAD PUSH2 0x993 CODESIZE SUB DUP1 PUSH2 0x993 DUP4 CODECOPY DUP2 ADD PUSH1 0x40 DUP2 SWAP1 MSTORE PUSH2 0x2F SWAP2 PUSH2 0x17F JUMP JUMPDEST PUSH1 0xB DUP1 SLOAD PUSH1 0x1 PUSH1 0x1 PUSH1 0xA0 SHL SUB DUP1 DUP11 AND PUSH1 0x1 PUSH1 0x1 PUSH1 0xA0 SHL SUB NOT SWAP3 DUP4 AND OR SWAP1 SWAP3 SSTORE PUSH1 0xC DUP1 SLOAD SWAP3 DUP12 AND SWAP3 SWAP1 SWAP2 AND SWAP2 SWAP1 SWAP2 OR SWAP1 SSTORE DUP2 PUSH2 0xB1 JUMPI PUSH1 0x40 MLOAD PUSH3 0x461BCD PUSH1 0xE5 SHL DUP2 MSTORE PUSH1 0x20 PUSH1 0x4 DUP3 ADD MSTORE PUSH1 0x17 PUSH1 0x24 DUP3 ADD MSTORE PUSH32 0x5F6D696E50757263686173652073686F756C64203E2030000000000000000000 PUSH1 0x44 DUP3 ADD MSTORE PUSH1 0x64 ADD JUMPDEST PUSH1 0x40 MLOAD DUP1 SWAP2 SUB SWAP1 REVERT JUMPDEST PUSH1 0x0 PUSH1 0x6 SLOAD GT DUP1 ISZERO PUSH2 0xC7 JUMPI POP PUSH1 0x9 SLOAD PUSH1 0x6 SLOAD GT ISZERO JUMPDEST PUSH2 0x12E JUMPI PUSH1 0x40 MLOAD PUSH3 0x461BCD PUSH1 0xE5 SHL DUP2 MSTORE PUSH1 0x20 PUSH1 0x4 DUP3 ADD MSTORE PUSH1 0x32 PUSH1 0x24 DUP3 ADD MSTORE PUSH32 0x5F6D617850757263686173652073686F756C64206265203E203020616E64203C PUSH1 0x44 DUP3 ADD MSTORE PUSH18 0x3D205F617661696C61626C65546F6B656E73 PUSH1 0x70 SHL PUSH1 0x64 DUP3 ADD MSTORE PUSH1 0x84 ADD PUSH2 0xA8 JUMP JUMPDEST PUSH1 0x1 DUP1 SLOAD PUSH1 0x1 PUSH1 0x1 PUSH1 0xA0 SHL SUB NOT AND CALLER OR SWAP1 SSTORE PUSH1 0x3 SWAP6 SWAP1 SWAP6 SSTORE PUSH1 0x4 SWAP4 SWAP1 SWAP4 SSTORE PUSH1 0x8 SWAP2 SWAP1 SWAP2 SSTORE PUSH1 0x7 SSTORE PUSH1 0x5 SSTORE PUSH1 0x6 SSTORE POP PUSH2 0x1EB SWAP1 POP JUMP JUMPDEST DUP1 MLOAD PUSH1 0x1 PUSH1 0x1 PUSH1 0xA0 SHL SUB DUP2 AND DUP2 EQ PUSH2 0x17A JUMPI PUSH1 0x0 DUP1 REVERT JUMPDEST SWAP2 SWAP1 POP JUMP JUMPDEST PUSH1 0x0 DUP1 PUSH1 0x0 DUP1 PUSH1 0x0 DUP1 PUSH1 0x0 DUP1 PUSH2 0x100 DUP10 DUP12 SUB SLT ISZERO PUSH2 0x19C JUMPI PUSH1 0x0 DUP1 REVERT JUMPDEST PUSH2 0x1A5 DUP10 PUSH2 0x163 JUMP JUMPDEST SWAP8 POP PUSH2 0x1B3 PUSH1 0x20 DUP11 ADD PUSH2 0x163 JUMP JUMPDEST PUSH1 0x40 DUP11 ADD MLOAD PUSH1 0x60 DUP12 ADD MLOAD PUSH1 0x80 DUP13 ADD MLOAD PUSH1 0xA0 DUP14 ADD MLOAD PUSH1 0xC0 DUP15 ADD MLOAD PUSH1 0xE0 SWAP1 SWAP15 ADD MLOAD SWAP13 SWAP16 SWAP5 SWAP15 POP SWAP3 SWAP13 SWAP2 SWAP12 SWAP1 SWAP11 POP SWAP2 SWAP9 POP SWAP7 POP SWAP5 POP SWAP3 POP POP POP JUMP JUMPDEST PUSH2 0x799 DUP1 PUSH2 0x1FA PUSH1 0x0 CODECOPY PUSH1 0x0 RETURN INVALID PUSH1 0x80 PUSH1 0x40 MSTORE CALLVALUE DUP1 ISZERO PUSH2 0x10 JUMPI PUSH1 0x0 DUP1 REVERT JUMPDEST POP PUSH1 0x4 CALLDATASIZE LT PUSH2 0x100 JUMPI PUSH1 0x0 CALLDATALOAD PUSH1 0xE0 SHR DUP1 PUSH4 0xBE9A6555 GT PUSH2 0x97 JUMPI DUP1 PUSH4 0xE0AB2603 GT PUSH2 0x66 JUMPI DUP1 PUSH4 0xE0AB2603 EQ PUSH2 0x1C7 JUMPI DUP1 PUSH4 0xEFBE1C1C EQ PUSH2 0x1DA JUMPI DUP1 PUSH4 0xF851A440 EQ PUSH2 0x1E3 JUMPI DUP1 PUSH4 0xFC0C546A EQ PUSH2 0x1F6 JUMPI PUSH1 0x0 DUP1 REVERT JUMPDEST DUP1 PUSH4 0xBE9A6555 EQ PUSH2 0x183 JUMPI DUP1 PUSH4 0xC6B9F06A EQ PUSH2 0x18C JUMPI DUP1 PUSH4 0xCB058CED EQ PUSH2 0x1AC JUMPI DUP1 PUSH4 0xD96A094A EQ PUSH2 0x1B4 JUMPI PUSH1 0x0 DUP1 REVERT JUMPDEST DUP1 PUSH4 0x6DF1B7B6 GT PUSH2 0xD3 JUMPI DUP1 PUSH4 0x6DF1B7B6 EQ PUSH2 0x15E JUMPI DUP1 PUSH4 0x8B7C160B EQ PUSH2 0x168 JUMPI DUP1 PUSH4 0x977B055B EQ PUSH2 0x171 JUMPI DUP1 PUSH4 0xA657242B EQ PUSH2 0x17A JUMPI PUSH1 0x0 DUP1 REVERT JUMPDEST DUP1 PUSH4 0x2F48AB7D EQ PUSH2 0x105 JUMPI DUP1 PUSH4 0x33B5B62E EQ PUSH2 0x135 JUMPI DUP1 PUSH4 0x37C67C78 EQ PUSH2 0x14C JUMPI DUP1 PUSH4 0x69BB4DC2 EQ PUSH2 0x155 JUMPI JUMPDEST PUSH1 0x0 DUP1 REVERT JUMPDEST PUSH1 0xC SLOAD PUSH2 0x118 SWAP1 PUSH1 0x1 PUSH1 0x1 PUSH1 0xA0 SHL SUB AND DUP2 JUMP JUMPDEST PUSH1 0x40 MLOAD PUSH1 0x1 PUSH1 0x1 PUSH1 0xA0 SHL SUB SWAP1 SWAP2 AND DUP2 MSTORE PUSH1 0x20 ADD JUMPDEST PUSH1 0x40 MLOAD DUP1 SWAP2 SUB SWAP1 RETURN JUMPDEST PUSH2 0x13E PUSH1 0x5 SLOAD DUP2 JUMP JUMPDEST PUSH1 0x40 MLOAD SWAP1 DUP2 MSTORE PUSH1 0x20 ADD PUSH2 0x12C JUMP JUMPDEST PUSH2 0x13E PUSH1 0xA SLOAD DUP2 JUMP JUMPDEST PUSH2 0x13E PUSH1 0x9 SLOAD DUP2 JUMP JUMPDEST PUSH2 0x166 PUSH2 0x209 JUMP JUMPDEST STOP JUMPDEST PUSH2 0x13E PUSH1 0x8 SLOAD DUP2 JUMP JUMPDEST PUSH2 0x13E PUSH1 0x6 SLOAD DUP2 JUMP JUMPDEST PUSH2 0x13E PUSH1 0x7 SLOAD DUP2 JUMP JUMPDEST PUSH2 0x13E PUSH1 0x3 SLOAD DUP2 JUMP JUMPDEST PUSH2 0x13E PUSH2 0x19A CALLDATASIZE PUSH1 0x4 PUSH2 0x657 JUMP JUMPDEST PUSH1 0x0 PUSH1 0x20 DUP2 SWAP1 MSTORE SWAP1 DUP2 MSTORE PUSH1 0x40 SWAP1 KECCAK256 SLOAD DUP2 JUMP JUMPDEST PUSH2 0x166 PUSH2 0x30F JUMP JUMPDEST PUSH2 0x166 PUSH2 0x1C2 CALLDATASIZE PUSH1 0x4 PUSH2 0x687 JUMP JUMPDEST PUSH2 0x437 JUMP JUMPDEST PUSH2 0x166 PUSH2 0x1D5 CALLDATASIZE PUSH1 0x4 PUSH2 0x687 JUMP JUMPDEST PUSH2 0x628 JUMP JUMPDEST PUSH2 0x13E PUSH1 0x4 SLOAD DUP2 JUMP JUMPDEST PUSH1 0x1 SLOAD PUSH2 0x118 SWAP1 PUSH1 0x1 PUSH1 0x1 PUSH1 0xA0 SHL SUB AND DUP2 JUMP JUMPDEST PUSH1 0xB SLOAD PUSH2 0x118 SWAP1 PUSH1 0x1 PUSH1 0x1 PUSH1 0xA0 SHL SUB AND DUP2 JUMP JUMPDEST PUSH1 0x1 SLOAD PUSH1 0x1 PUSH1 0x1 PUSH1 0xA0 SHL SUB AND CALLER EQ PUSH2 0x23C JUMPI PUSH1 0x40 MLOAD PUSH3 0x461BCD PUSH1 0xE5 SHL DUP2 MSTORE PUSH1 0x4 ADD PUSH2 0x233 SWAP1 PUSH2 0x6A0 JUMP JUMPDEST PUSH1 0x40 MLOAD DUP1 SWAP2 SUB SWAP1 REVERT JUMPDEST PUSH1 0x4 SLOAD TIMESTAMP LT ISZERO DUP1 PUSH2 0x24D JUMPI POP PUSH1 0x9 SLOAD ISZERO JUMPDEST PUSH2 0x28F JUMPI PUSH1 0x40 MLOAD PUSH3 0x461BCD PUSH1 0xE5 SHL DUP2 MSTORE PUSH1 0x20 PUSH1 0x4 DUP3 ADD MSTORE PUSH1 0x13 PUSH1 0x24 DUP3 ADD MSTORE PUSH19 0x1250D3C81B5D5CDD081A185D9948195B991959 PUSH1 0x6A SHL PUSH1 0x44 DUP3 ADD MSTORE PUSH1 0x64 ADD PUSH2 0x233 JUMP JUMPDEST PUSH1 0xC SLOAD PUSH1 0x1 SLOAD PUSH1 0xA SLOAD PUSH1 0x40 MLOAD PUSH4 0xA9059CBB PUSH1 0xE0 SHL DUP2 MSTORE PUSH1 0x1 PUSH1 0x1 PUSH1 0xA0 SHL SUB SWAP3 DUP4 AND PUSH1 0x4 DUP3 ADD MSTORE PUSH1 0x24 DUP2 ADD SWAP2 SWAP1 SWAP2 MSTORE SWAP2 AND SWAP1 PUSH4 0xA9059CBB SWAP1 PUSH1 0x44 ADD PUSH1 0x20 PUSH1 0x40 MLOAD DUP1 DUP4 SUB DUP2 PUSH1 0x0 DUP8 GAS CALL ISZERO DUP1 ISZERO PUSH2 0x2E8 JUMPI RETURNDATASIZE PUSH1 0x0 DUP1 RETURNDATACOPY RETURNDATASIZE PUSH1 0x0 REVERT JUMPDEST POP POP POP POP PUSH1 0x40 MLOAD RETURNDATASIZE PUSH1 0x1F NOT PUSH1 0x1F DUP3 ADD AND DUP3 ADD DUP1 PUSH1 0x40 MSTORE POP DUP2 ADD SWAP1 PUSH2 0x30C SWAP2 SWAP1 PUSH2 0x6C4 JUMP JUMPDEST POP JUMP JUMPDEST PUSH1 0x1 SLOAD PUSH1 0x1 PUSH1 0x1 PUSH1 0xA0 SHL SUB AND CALLER EQ PUSH2 0x339 JUMPI PUSH1 0x40 MLOAD PUSH3 0x461BCD PUSH1 0xE5 SHL DUP2 MSTORE PUSH1 0x4 ADD PUSH2 0x233 SWAP1 PUSH2 0x6A0 JUMP JUMPDEST PUSH1 0x2 DUP1 SLOAD SWAP1 PUSH1 0x0 PUSH2 0x349 DUP4 PUSH2 0x6FC JUMP JUMPDEST SWAP2 SWAP1 POP SSTORE POP PUSH1 0x3 SLOAD TIMESTAMP GT DUP1 ISZERO PUSH2 0x360 JUMPI POP PUSH2 0xA8C0 TIMESTAMP GT JUMPDEST PUSH2 0x397 JUMPI PUSH1 0x40 MLOAD PUSH3 0x461BCD PUSH1 0xE5 SHL DUP2 MSTORE PUSH1 0x20 PUSH1 0x4 DUP3 ADD MSTORE PUSH1 0x8 PUSH1 0x24 DUP3 ADD MSTORE PUSH8 0x656C696769626C65 PUSH1 0xC0 SHL PUSH1 0x44 DUP3 ADD MSTORE PUSH1 0x64 ADD PUSH2 0x233 JUMP JUMPDEST PUSH1 0x0 PUSH1 0xA DUP1 SLOAD PUSH2 0x3A7 SWAP2 SWAP1 PUSH2 0x715 JUMP JUMPDEST PUSH1 0xC SLOAD PUSH1 0x1 SLOAD PUSH1 0x40 MLOAD PUSH4 0xA9059CBB PUSH1 0xE0 SHL DUP2 MSTORE PUSH1 0x1 PUSH1 0x1 PUSH1 0xA0 SHL SUB SWAP2 DUP3 AND PUSH1 0x4 DUP3 ADD MSTORE PUSH1 0x24 DUP2 ADD DUP5 SWAP1 MSTORE SWAP3 SWAP4 POP AND SWAP1 PUSH4 0xA9059CBB SWAP1 PUSH1 0x44 ADD PUSH1 0x20 PUSH1 0x40 MLOAD DUP1 DUP4 SUB DUP2 PUSH1 0x0 DUP8 GAS CALL ISZERO DUP1 ISZERO PUSH2 0x3FE JUMPI RETURNDATASIZE PUSH1 0x0 DUP1 RETURNDATACOPY RETURNDATASIZE PUSH1 0x0 REVERT JUMPDEST POP POP POP POP PUSH1 0x40 MLOAD RETURNDATASIZE PUSH1 0x1F NOT PUSH1 0x1F DUP3 ADD AND DUP3 ADD DUP1 PUSH1 0x40 MSTORE POP DUP2 ADD SWAP1 PUSH2 0x422 SWAP2 SWAP1 PUSH2 0x6C4 JUMP JUMPDEST POP DUP1 PUSH1 0xA SLOAD PUSH2 0x431 SWAP2 SWAP1 PUSH2 0x737 JUMP JUMPDEST PUSH1 0xA SSTORE POP JUMP JUMPDEST PUSH1 0x3 SLOAD TIMESTAMP GT DUP1 ISZERO PUSH2 0x449 JUMPI POP PUSH1 0x4 SLOAD TIMESTAMP LT JUMPDEST DUP1 ISZERO PUSH2 0x457 JUMPI POP PUSH1 0x0 PUSH1 0x9 SLOAD GT JUMPDEST PUSH2 0x498 JUMPI PUSH1 0x40 MLOAD PUSH3 0x461BCD PUSH1 0xE5 SHL DUP2 MSTORE PUSH1 0x20 PUSH1 0x4 DUP3 ADD MSTORE PUSH1 0x12 PUSH1 0x24 DUP3 ADD MSTORE PUSH18 0x49434F206D75737420626520616374697665 PUSH1 0x70 SHL PUSH1 0x44 DUP3 ADD MSTORE PUSH1 0x64 ADD PUSH2 0x233 JUMP JUMPDEST PUSH1 0x5 SLOAD DUP2 LT ISZERO DUP1 ISZERO PUSH2 0x4AC JUMPI POP PUSH1 0x6 SLOAD DUP2 GT ISZERO JUMPDEST PUSH2 0x510 JUMPI PUSH1 0x40 MLOAD PUSH3 0x461BCD PUSH1 0xE5 SHL DUP2 MSTORE PUSH1 0x20 PUSH1 0x4 DUP3 ADD MSTORE PUSH1 0x2F PUSH1 0x24 DUP3 ADD MSTORE PUSH32 0x6861766520746F20627579206265747765656E206D696E507572636861736520 PUSH1 0x44 DUP3 ADD MSTORE PUSH15 0x616E64206D61785075726368617365 PUSH1 0x88 SHL PUSH1 0x64 DUP3 ADD MSTORE PUSH1 0x84 ADD PUSH2 0x233 JUMP JUMPDEST PUSH1 0x0 PUSH1 0x8 SLOAD DUP3 PUSH2 0x520 SWAP2 SWAP1 PUSH2 0x715 JUMP JUMPDEST SWAP1 POP PUSH1 0x9 SLOAD DUP2 GT ISZERO PUSH2 0x574 JUMPI PUSH1 0x40 MLOAD PUSH3 0x461BCD PUSH1 0xE5 SHL DUP2 MSTORE PUSH1 0x20 PUSH1 0x4 DUP3 ADD MSTORE PUSH1 0x1F PUSH1 0x24 DUP3 ADD MSTORE PUSH32 0x4E6F7420656E6F75676820746F6B656E73206C65667420666F722073616C6500 PUSH1 0x44 DUP3 ADD MSTORE PUSH1 0x64 ADD PUSH2 0x233 JUMP JUMPDEST PUSH1 0xC SLOAD PUSH1 0x40 MLOAD PUSH4 0x23B872DD PUSH1 0xE0 SHL DUP2 MSTORE CALLER PUSH1 0x4 DUP3 ADD MSTORE ADDRESS PUSH1 0x24 DUP3 ADD MSTORE PUSH1 0x44 DUP2 ADD DUP5 SWAP1 MSTORE PUSH1 0x1 PUSH1 0x1 PUSH1 0xA0 SHL SUB SWAP1 SWAP2 AND SWAP1 PUSH4 0x23B872DD SWAP1 PUSH1 0x64 ADD PUSH1 0x20 PUSH1 0x40 MLOAD DUP1 DUP4 SUB DUP2 PUSH1 0x0 DUP8 GAS CALL ISZERO DUP1 ISZERO PUSH2 0x5CB JUMPI RETURNDATASIZE PUSH1 0x0 DUP1 RETURNDATACOPY RETURNDATASIZE PUSH1 0x0 REVERT JUMPDEST POP POP POP POP PUSH1 0x40 MLOAD RETURNDATASIZE PUSH1 0x1F NOT PUSH1 0x1F DUP3 ADD AND DUP3 ADD DUP1 PUSH1 0x40 MSTORE POP DUP2 ADD SWAP1 PUSH2 0x5EF SWAP2 SWAP1 PUSH2 0x6C4 JUMP JUMPDEST POP DUP2 PUSH1 0xA SLOAD PUSH2 0x5FE SWAP2 SWAP1 PUSH2 0x750 JUMP JUMPDEST PUSH1 0xA SSTORE CALLER PUSH1 0x0 SWAP1 DUP2 MSTORE PUSH1 0x20 DUP2 SWAP1 MSTORE PUSH1 0x40 SWAP1 KECCAK256 DUP2 SWAP1 SSTORE PUSH1 0x7 SLOAD PUSH2 0x621 SWAP1 DUP3 SWAP1 PUSH2 0x737 JUMP JUMPDEST PUSH1 0x9 SSTORE POP POP JUMP JUMPDEST PUSH1 0x1 SLOAD PUSH1 0x1 PUSH1 0x1 PUSH1 0xA0 SHL SUB AND CALLER EQ PUSH2 0x652 JUMPI PUSH1 0x40 MLOAD PUSH3 0x461BCD PUSH1 0xE5 SHL DUP2 MSTORE PUSH1 0x4 ADD PUSH2 0x233 SWAP1 PUSH2 0x6A0 JUMP JUMPDEST PUSH1 0x8 SSTORE JUMP JUMPDEST PUSH1 0x0 PUSH1 0x20 DUP3 DUP5 SUB SLT ISZERO PUSH2 0x669 JUMPI PUSH1 0x0 DUP1 REVERT JUMPDEST DUP2 CALLDATALOAD PUSH1 0x1 PUSH1 0x1 PUSH1 0xA0 SHL SUB DUP2 AND DUP2 EQ PUSH2 0x680 JUMPI PUSH1 0x0 DUP1 REVERT JUMPDEST SWAP4 SWAP3 POP POP POP JUMP JUMPDEST PUSH1 0x0 PUSH1 0x20 DUP3 DUP5 SUB SLT ISZERO PUSH2 0x699 JUMPI PUSH1 0x0 DUP1 REVERT JUMPDEST POP CALLDATALOAD SWAP2 SWAP1 POP JUMP JUMPDEST PUSH1 0x20 DUP1 DUP3 MSTORE PUSH1 0xA SWAP1 DUP3 ADD MSTORE PUSH10 0x37B7363C9030B236B4B7 PUSH1 0xB1 SHL PUSH1 0x40 DUP3 ADD MSTORE PUSH1 0x60 ADD SWAP1 JUMP JUMPDEST PUSH1 0x0 PUSH1 0x20 DUP3 DUP5 SUB SLT ISZERO PUSH2 0x6D6 JUMPI PUSH1 0x0 DUP1 REVERT JUMPDEST DUP2 MLOAD DUP1 ISZERO ISZERO DUP2 EQ PUSH2 0x680 JUMPI PUSH1 0x0 DUP1 REVERT JUMPDEST PUSH4 0x4E487B71 PUSH1 0xE0 SHL PUSH1 0x0 MSTORE PUSH1 0x11 PUSH1 0x4 MSTORE PUSH1 0x24 PUSH1 0x0 REVERT JUMPDEST PUSH1 0x0 PUSH1 0x1 DUP3 ADD PUSH2 0x70E JUMPI PUSH2 0x70E PUSH2 0x6E6 JUMP JUMPDEST POP PUSH1 0x1 ADD SWAP1 JUMP JUMPDEST PUSH1 0x0 DUP3 PUSH2 0x732 JUMPI PUSH4 0x4E487B71 PUSH1 0xE0 SHL PUSH1 0x0 MSTORE PUSH1 0x12 PUSH1 0x4 MSTORE PUSH1 0x24 PUSH1 0x0 REVERT JUMPDEST POP DIV SWAP1 JUMP JUMPDEST DUP2 DUP2 SUB DUP2 DUP2 GT ISZERO PUSH2 0x74A JUMPI PUSH2 0x74A PUSH2 0x6E6 JUMP JUMPDEST SWAP3 SWAP2 POP POP JUMP JUMPDEST DUP1 DUP3 ADD DUP1 DUP3 GT ISZERO PUSH2 0x74A JUMPI PUSH2 0x74A PUSH2 0x6E6 JUMP INVALID LOG2 PUSH5 0x6970667358 0x22 SLT KECCAK256 0xB1 0x1F ADDRESS EXTCODESIZE PUSH24 0x782DEE2EE5DAFA95D32D697F375C7BDC5AE85D1A0C955792 MOD SIGNEXTEND REVERT PUSH5 0x736F6C6343 STOP ADDMOD EQ STOP CALLER "
		},
		"gasEstimates": {
			"creation": {
				"codeDepositCost": "389000",
				"executionCost": "infinite",
				"totalCost": "infinite"
			},
			"external": {
				"ChangerateVDOITtoUSDT(uint256)": "24486",
				"Hardcap()": "2384",
				"admin()": "2392",
				"availableTokens()": "2385",
				"buy(uint256)": "infinite",
				"claimusdtPermonth()": "infinite",
				"coin_price()": "2340",
				"collectUsdt()": "infinite",
				"end()": "2339",
				"maxPurchase()": "2362",
				"minPurchase()": "2341",
				"sales(address)": "2532",
				"start()": "2318",
				"token()": "2414",
				"usdt()": "2350",
				"usdtTotaltoken()": "2363"
			}
		},
		"methodIdentifiers": {
			"ChangerateVDOITtoUSDT(uint256)": "e0ab2603",
			"Hardcap()": "a657242b",
			"admin()": "f851a440",
			"availableTokens()": "69bb4dc2",
			"buy(uint256)": "d96a094a",
			"claimusdtPermonth()": "cb058ced",
			"coin_price()": "8b7c160b",
			"collectUsdt()": "6df1b7b6",
			"end()": "efbe1c1c",
			"maxPurchase()": "977b055b",
			"minPurchase()": "33b5b62e",
			"sales(address)": "c6b9f06a",
			"start()": "be9a6555",
			"token()": "fc0c546a",
			"usdt()": "2f48ab7d",
			"usdtTotaltoken()": "37c67c78"
		}
	},
	"abi": [
		{
			"inputs": [
				{
					"internalType": "address",
					"name": "usdtAddress",
					"type": "address"
				},
				{
					"internalType": "address",
					"name": "tokenAddress",
					"type": "address"
				},
				{
					"internalType": "uint256",
					"name": "_start",
					"type": "uint256"
				},
				{
					"internalType": "uint256",
					"name": "_end",
					"type": "uint256"
				},
				{
					"internalType": "uint256",
					"name": "_coinprice",
					"type": "uint256"
				},
				{
					"internalType": "uint256",
					"name": "hardcap",
					"type": "uint256"
				},
				{
					"internalType": "uint256",
					"name": "_minPurchase",
					"type": "uint256"
				},
				{
					"internalType": "uint256",
					"name": "_maxPurchase",
					"type": "uint256"
				}
			],
			"stateMutability": "nonpayable",
			"type": "constructor"
		},
		{
			"inputs": [
				{
					"internalType": "uint256",
					"name": "rate",
					"type": "uint256"
				}
			],
			"name": "ChangerateVDOITtoUSDT",
			"outputs": [],
			"stateMutability": "nonpayable",
			"type": "function"
		},
		{
			"inputs": [],
			"name": "Hardcap",
			"outputs": [
				{
					"internalType": "uint256",
					"name": "",
					"type": "uint256"
				}
			],
			"stateMutability": "view",
			"type": "function"
		},
		{
			"inputs": [],
			"name": "admin",
			"outputs": [
				{
					"internalType": "address",
					"name": "",
					"type": "address"
				}
			],
			"stateMutability": "view",
			"type": "function"
		},
		{
			"inputs": [],
			"name": "availableTokens",
			"outputs": [
				{
					"internalType": "uint256",
					"name": "",
					"type": "uint256"
				}
			],
			"stateMutability": "view",
			"type": "function"
		},
		{
			"inputs": [
				{
					"internalType": "uint256",
					"name": "usdtAmount",
					"type": "uint256"
				}
			],
			"name": "buy",
			"outputs": [],
			"stateMutability": "nonpayable",
			"type": "function"
		},
		{
			"inputs": [],
			"name": "claimusdtPermonth",
			"outputs": [],
			"stateMutability": "nonpayable",
			"type": "function"
		},
		{
			"inputs": [],
			"name": "coin_price",
			"outputs": [
				{
					"internalType": "uint256",
					"name": "",
					"type": "uint256"
				}
			],
			"stateMutability": "view",
			"type": "function"
		},
		{
			"inputs": [],
			"name": "collectUsdt",
			"outputs": [],
			"stateMutability": "nonpayable",
			"type": "function"
		},
		{
			"inputs": [],
			"name": "end",
			"outputs": [
				{
					"internalType": "uint256",
					"name": "",
					"type": "uint256"
				}
			],
			"stateMutability": "view",
			"type": "function"
		},
		{
			"inputs": [],
			"name": "maxPurchase",
			"outputs": [
				{
					"internalType": "uint256",
					"name": "",
					"type": "uint256"
				}
			],
			"stateMutability": "view",
			"type": "function"
		},
		{
			"inputs": [],
			"name": "minPurchase",
			"outputs": [
				{
					"internalType": "uint256",
					"name": "",
					"type": "uint256"
				}
			],
			"stateMutability": "view",
			"type": "function"
		},
		{
			"inputs": [
				{
					"internalType": "address",
					"name": "",
					"type": "address"
				}
			],
			"name": "sales",
			"outputs": [
				{
					"internalType": "uint256",
					"name": "",
					"type": "uint256"
				}
			],
			"stateMutability": "view",
			"type": "function"
		},
		{
			"inputs": [],
			"name": "start",
			"outputs": [
				{
					"internalType": "uint256",
					"name": "",
					"type": "uint256"
				}
			],
			"stateMutability": "view",
			"type": "function"
		},
		{
			"inputs": [],
			"name": "token",
			"outputs": [
				{
					"internalType": "contract Token",
					"name": "",
					"type": "address"
				}
			],
			"stateMutability": "view",
			"type": "function"
		},
		{
			"inputs": [],
			"name": "usdt",
			"outputs": [
				{
					"internalType": "contract IERC20",
					"name": "",
					"type": "address"
				}
			],
			"stateMutability": "view",
			"type": "function"
		},
		{
			"inputs": [],
			"name": "usdtTotaltoken",
			"outputs": [
				{
					"internalType": "uint256",
					"name": "",
					"type": "uint256"
				}
			],
			"stateMutability": "view",
			"type": "function"
		}
	]
}