{
	"Ccip/TokenTransfer.sol": {
		"TokenTransferor": {
			"abi": [
				{
					"inputs": [
						{
							"internalType": "address",
							"name": "_router",
							"type": "address"
						},
						{
							"internalType": "address",
							"name": "_link",
							"type": "address"
						}
					],
					"stateMutability": "nonpayable",
					"type": "constructor"
				},
				{
					"inputs": [
						{
							"internalType": "uint64",
							"name": "destinationChainSelector",
							"type": "uint64"
						}
					],
					"name": "DestinationChainNotAllowlisted",
					"type": "error"
				},
				{
					"inputs": [
						{
							"internalType": "address",
							"name": "owner",
							"type": "address"
						},
						{
							"internalType": "address",
							"name": "target",
							"type": "address"
						},
						{
							"internalType": "uint256",
							"name": "value",
							"type": "uint256"
						}
					],
					"name": "FailedToWithdrawEth",
					"type": "error"
				},
				{
					"inputs": [
						{
							"internalType": "uint256",
							"name": "currentBalance",
							"type": "uint256"
						},
						{
							"internalType": "uint256",
							"name": "calculatedFees",
							"type": "uint256"
						}
					],
					"name": "NotEnoughBalance",
					"type": "error"
				},
				{
					"inputs": [],
					"name": "NothingToWithdraw",
					"type": "error"
				},
				{
					"anonymous": false,
					"inputs": [
						{
							"indexed": true,
							"internalType": "address",
							"name": "from",
							"type": "address"
						},
						{
							"indexed": true,
							"internalType": "address",
							"name": "to",
							"type": "address"
						}
					],
					"name": "OwnershipTransferRequested",
					"type": "event"
				},
				{
					"anonymous": false,
					"inputs": [
						{
							"indexed": true,
							"internalType": "address",
							"name": "from",
							"type": "address"
						},
						{
							"indexed": true,
							"internalType": "address",
							"name": "to",
							"type": "address"
						}
					],
					"name": "OwnershipTransferred",
					"type": "event"
				},
				{
					"anonymous": false,
					"inputs": [
						{
							"indexed": true,
							"internalType": "bytes32",
							"name": "messageId",
							"type": "bytes32"
						},
						{
							"indexed": true,
							"internalType": "uint64",
							"name": "destinationChainSelector",
							"type": "uint64"
						},
						{
							"indexed": false,
							"internalType": "address",
							"name": "receiver",
							"type": "address"
						},
						{
							"indexed": false,
							"internalType": "address",
							"name": "token",
							"type": "address"
						},
						{
							"indexed": false,
							"internalType": "uint256",
							"name": "tokenAmount",
							"type": "uint256"
						},
						{
							"indexed": false,
							"internalType": "address",
							"name": "feeToken",
							"type": "address"
						},
						{
							"indexed": false,
							"internalType": "uint256",
							"name": "fees",
							"type": "uint256"
						}
					],
					"name": "TokensTransferred",
					"type": "event"
				},
				{
					"inputs": [],
					"name": "acceptOwnership",
					"outputs": [],
					"stateMutability": "nonpayable",
					"type": "function"
				},
				{
					"inputs": [
						{
							"internalType": "uint64",
							"name": "_destinationChainSelector",
							"type": "uint64"
						},
						{
							"internalType": "bool",
							"name": "allowed",
							"type": "bool"
						}
					],
					"name": "allowlistDestinationChain",
					"outputs": [],
					"stateMutability": "nonpayable",
					"type": "function"
				},
				{
					"inputs": [
						{
							"internalType": "uint64",
							"name": "",
							"type": "uint64"
						}
					],
					"name": "allowlistedChains",
					"outputs": [
						{
							"internalType": "bool",
							"name": "",
							"type": "bool"
						}
					],
					"stateMutability": "view",
					"type": "function"
				},
				{
					"inputs": [],
					"name": "owner",
					"outputs": [
						{
							"internalType": "address",
							"name": "",
							"type": "address"
						}
					],
					"stateMutability": "view",
					"type": "function"
				},
				{
					"inputs": [
						{
							"internalType": "address",
							"name": "to",
							"type": "address"
						}
					],
					"name": "transferOwnership",
					"outputs": [],
					"stateMutability": "nonpayable",
					"type": "function"
				},
				{
					"inputs": [
						{
							"internalType": "uint64",
							"name": "_destinationChainSelector",
							"type": "uint64"
						},
						{
							"internalType": "address",
							"name": "_receiver",
							"type": "address"
						},
						{
							"internalType": "address",
							"name": "_token",
							"type": "address"
						},
						{
							"internalType": "uint256",
							"name": "_amount",
							"type": "uint256"
						}
					],
					"name": "transferTokensPayLINK",
					"outputs": [
						{
							"internalType": "bytes32",
							"name": "messageId",
							"type": "bytes32"
						}
					],
					"stateMutability": "nonpayable",
					"type": "function"
				},
				{
					"inputs": [
						{
							"internalType": "uint64",
							"name": "_destinationChainSelector",
							"type": "uint64"
						},
						{
							"internalType": "address",
							"name": "_receiver",
							"type": "address"
						},
						{
							"internalType": "address",
							"name": "_token",
							"type": "address"
						},
						{
							"internalType": "uint256",
							"name": "_amount",
							"type": "uint256"
						}
					],
					"name": "transferTokensPayNative",
					"outputs": [
						{
							"internalType": "bytes32",
							"name": "messageId",
							"type": "bytes32"
						}
					],
					"stateMutability": "nonpayable",
					"type": "function"
				},
				{
					"inputs": [
						{
							"internalType": "address",
							"name": "_beneficiary",
							"type": "address"
						}
					],
					"name": "withdraw",
					"outputs": [],
					"stateMutability": "nonpayable",
					"type": "function"
				},
				{
					"inputs": [
						{
							"internalType": "address",
							"name": "_beneficiary",
							"type": "address"
						},
						{
							"internalType": "address",
							"name": "_token",
							"type": "address"
						}
					],
					"name": "withdrawToken",
					"outputs": [],
					"stateMutability": "nonpayable",
					"type": "function"
				},
				{
					"stateMutability": "payable",
					"type": "receive"
				}
			],
			"devdoc": {
				"kind": "dev",
				"methods": {
					"allowlistDestinationChain(uint64,bool)": {
						"details": "Updates the allowlist status of a destination chain for transactions.",
						"params": {
							"_destinationChainSelector": "The selector of the destination chain to be updated.",
							"allowed": "The allowlist status to be set for the destination chain."
						}
					},
					"constructor": {
						"params": {
							"_link": "The address of the link contract.",
							"_router": "The address of the router contract."
						}
					},
					"transferTokensPayLINK(uint64,address,address,uint256)": {
						"details": "Assumes your contract has sufficient LINK tokens to pay for the fees.",
						"params": {
							"_amount": "token amount.",
							"_destinationChainSelector": "The identifier (aka selector) for the destination blockchain.",
							"_receiver": "The address of the recipient on the destination blockchain.",
							"_token": "token address."
						},
						"returns": {
							"messageId": "The ID of the message that was sent."
						}
					},
					"transferTokensPayNative(uint64,address,address,uint256)": {
						"details": "Assumes your contract has sufficient native gas like ETH on Ethereum or MATIC on Polygon.",
						"params": {
							"_amount": "token amount.",
							"_destinationChainSelector": "The identifier (aka selector) for the destination blockchain.",
							"_receiver": "The address of the recipient on the destination blockchain.",
							"_token": "token address."
						},
						"returns": {
							"messageId": "The ID of the message that was sent."
						}
					},
					"withdraw(address)": {
						"details": "This function reverts if there are no funds to withdraw or if the transfer fails. It should only be callable by the owner of the contract.",
						"params": {
							"_beneficiary": "The address to which the Ether should be transferred."
						}
					},
					"withdrawToken(address,address)": {
						"details": "This function reverts with a 'NothingToWithdraw' error if there are no tokens to withdraw.",
						"params": {
							"_beneficiary": "The address to which the tokens will be sent.",
							"_token": "The contract address of the ERC20 token to be withdrawn."
						}
					}
				},
				"title": "- A simple contract for transferring tokens across chains.",
				"version": 1
			},
			"evm": {
				"assembly": "    /* \"Ccip/TokenTransfer.sol\":718:12002  contract TokenTransferor is OwnerIsCreator {... */\n  mstore(0x40, 0x80)\n    /* \"Ccip/TokenTransfer.sol\":2379:2510  constructor(address _router, address _link) {... */\n  callvalue\n  dup1\n  iszero\n  tag_1\n  jumpi\n  0x00\n  dup1\n  revert\ntag_1:\n  pop\n  mload(0x40)\n  sub(codesize, bytecodeSize)\n  dup1\n  bytecodeSize\n  dup4\n  codecopy\n  dup2\n  add\n  0x40\n  dup2\n  swap1\n  mstore\n  tag_2\n  swap2\n  tag_3\n  jump\t// in\ntag_2:\n    /* \"@chainlink/contracts-ccip/src/v0.8/shared/access/OwnerIsCreator.sol\":291:301  msg.sender */\n  caller\n  dup1\n    /* \"@chainlink/contracts-ccip/src/v0.8/shared/access/ConfirmedOwner.sol\":345:346  0 */\n  0x00\n    /* \"@chainlink/contracts-ccip/src/v0.8/shared/access/OwnerIsCreator.sol\":291:301  msg.sender */\n  dup2\n    /* \"@chainlink/contracts-ccip/src/v0.8/shared/access/ConfirmedOwnerWithProposal.sol\":529:588  require(newOwner != address(0), \"Cannot set owner to zero\") */\n  tag_9\n  jumpi\n  mload(0x40)\n  shl(0xe5, 0x461bcd)\n  dup2\n  mstore\n    /* \"#utility.yul\":696:698   */\n  0x20\n    /* \"@chainlink/contracts-ccip/src/v0.8/shared/access/ConfirmedOwnerWithProposal.sol\":529:588  require(newOwner != address(0), \"Cannot set owner to zero\") */\n  0x04\n  dup3\n  add\n    /* \"#utility.yul\":678:699   */\n  mstore\n    /* \"#utility.yul\":735:737   */\n  0x18\n    /* \"#utility.yul\":715:733   */\n  0x24\n  dup3\n  add\n    /* \"#utility.yul\":708:738   */\n  mstore\n    /* \"#utility.yul\":774:800   */\n  0x43616e6e6f7420736574206f776e657220746f207a65726f0000000000000000\n    /* \"#utility.yul\":754:772   */\n  0x44\n  dup3\n  add\n    /* \"#utility.yul\":747:801   */\n  mstore\n    /* \"#utility.yul\":818:836   */\n  0x64\n  add\n    /* \"@chainlink/contracts-ccip/src/v0.8/shared/access/ConfirmedOwnerWithProposal.sol\":529:588  require(newOwner != address(0), \"Cannot set owner to zero\") */\ntag_10:\n  mload(0x40)\n  dup1\n  swap2\n  sub\n  swap1\n  revert\ntag_9:\n    /* \"@chainlink/contracts-ccip/src/v0.8/shared/access/ConfirmedOwnerWithProposal.sol\":595:602  s_owner */\n  0x00\n    /* \"@chainlink/contracts-ccip/src/v0.8/shared/access/ConfirmedOwnerWithProposal.sol\":595:613  s_owner = newOwner */\n  dup1\n  sload\n  not(sub(shl(0xa0, 0x01), 0x01))\n  and\n  sub(shl(0xa0, 0x01), 0x01)\n  dup5\n  dup2\n  and\n  swap2\n  swap1\n  swap2\n  or\n  swap1\n  swap2\n  sstore\n    /* \"@chainlink/contracts-ccip/src/v0.8/shared/access/ConfirmedOwnerWithProposal.sol\":623:649  pendingOwner != address(0) */\n  dup2\n  and\n  iszero\n    /* \"@chainlink/contracts-ccip/src/v0.8/shared/access/ConfirmedOwnerWithProposal.sol\":619:698  if (pendingOwner != address(0)) {... */\n  tag_13\n  jumpi\n    /* \"@chainlink/contracts-ccip/src/v0.8/shared/access/ConfirmedOwnerWithProposal.sol\":659:691  _transferOwnership(pendingOwner) */\n  tag_13\n    /* \"@chainlink/contracts-ccip/src/v0.8/shared/access/ConfirmedOwnerWithProposal.sol\":678:690  pendingOwner */\n  dup2\n    /* \"@chainlink/contracts-ccip/src/v0.8/shared/access/ConfirmedOwnerWithProposal.sol\":659:677  _transferOwnership */\n  tag_14\n    /* \"@chainlink/contracts-ccip/src/v0.8/shared/access/ConfirmedOwnerWithProposal.sol\":659:691  _transferOwnership(pendingOwner) */\n  jump\t// in\ntag_13:\n  pop\n  pop\n    /* \"Ccip/TokenTransfer.sol\":2433:2441  s_router */\n  0x03\n    /* \"Ccip/TokenTransfer.sol\":2433:2466  s_router = IRouterClient(_router) */\n  dup1\n  sload\n  sub(shl(0xa0, 0x01), 0x01)\n  swap5\n  dup6\n  and\n  not(sub(shl(0xa0, 0x01), 0x01))\n  swap2\n  dup3\n  and\n  or\n  swap1\n  swap2\n  sstore\n    /* \"Ccip/TokenTransfer.sol\":2476:2487  s_linkToken */\n  0x04\n    /* \"Ccip/TokenTransfer.sol\":2476:2503  s_linkToken = IERC20(_link) */\n  dup1\n  sload\n  swap4\n  swap1\n  swap5\n  and\n  swap3\n  and\n  swap2\n  swap1\n  swap2\n  or\n  swap1\n  swap2\n  sstore\n  pop\n    /* \"Ccip/TokenTransfer.sol\":718:12002  contract TokenTransferor is OwnerIsCreator {... */\n  jump(tag_24)\n    /* \"@chainlink/contracts-ccip/src/v0.8/shared/access/ConfirmedOwnerWithProposal.sol\":1482:1670  function _transferOwnership(address to) private {... */\ntag_14:\n    /* \"@chainlink/contracts-ccip/src/v0.8/shared/access/ConfirmedOwnerWithProposal.sol\":1550:1560  msg.sender */\n  caller\n  sub(shl(0xa0, 0x01), 0x01)\n    /* \"@chainlink/contracts-ccip/src/v0.8/shared/access/ConfirmedOwnerWithProposal.sol\":1544:1560  to != msg.sender */\n  dup3\n  and\n  sub\n    /* \"@chainlink/contracts-ccip/src/v0.8/shared/access/ConfirmedOwnerWithProposal.sol\":1536:1588  require(to != msg.sender, \"Cannot transfer to self\") */\n  tag_20\n  jumpi\n  mload(0x40)\n  shl(0xe5, 0x461bcd)\n  dup2\n  mstore\n    /* \"#utility.yul\":1049:1051   */\n  0x20\n    /* \"@chainlink/contracts-ccip/src/v0.8/shared/access/ConfirmedOwnerWithProposal.sol\":1536:1588  require(to != msg.sender, \"Cannot transfer to self\") */\n  0x04\n  dup3\n  add\n    /* \"#utility.yul\":1031:1052   */\n  mstore\n    /* \"#utility.yul\":1088:1090   */\n  0x17\n    /* \"#utility.yul\":1068:1086   */\n  0x24\n  dup3\n  add\n    /* \"#utility.yul\":1061:1091   */\n  mstore\n    /* \"#utility.yul\":1127:1152   */\n  0x43616e6e6f74207472616e7366657220746f2073656c66000000000000000000\n    /* \"#utility.yul\":1107:1125   */\n  0x44\n  dup3\n  add\n    /* \"#utility.yul\":1100:1153   */\n  mstore\n    /* \"#utility.yul\":1170:1188   */\n  0x64\n  add\n    /* \"@chainlink/contracts-ccip/src/v0.8/shared/access/ConfirmedOwnerWithProposal.sol\":1536:1588  require(to != msg.sender, \"Cannot transfer to self\") */\n  tag_10\n    /* \"#utility.yul\":847:1194   */\n  jump\n    /* \"@chainlink/contracts-ccip/src/v0.8/shared/access/ConfirmedOwnerWithProposal.sol\":1536:1588  require(to != msg.sender, \"Cannot transfer to self\") */\ntag_20:\n    /* \"@chainlink/contracts-ccip/src/v0.8/shared/access/ConfirmedOwnerWithProposal.sol\":1595:1609  s_pendingOwner */\n  0x01\n    /* \"@chainlink/contracts-ccip/src/v0.8/shared/access/ConfirmedOwnerWithProposal.sol\":1595:1614  s_pendingOwner = to */\n  dup1\n  sload\n  not(sub(shl(0xa0, 0x01), 0x01))\n  and\n  sub(shl(0xa0, 0x01), 0x01)\n  dup4\n  dup2\n  and\n  swap2\n  dup3\n  or\n  swap1\n  swap3\n  sstore\n  0x00\n    /* \"@chainlink/contracts-ccip/src/v0.8/shared/access/ConfirmedOwnerWithProposal.sol\":1653:1660  s_owner */\n  dup1\n  sload\n    /* \"@chainlink/contracts-ccip/src/v0.8/shared/access/ConfirmedOwnerWithProposal.sol\":1626:1665  OwnershipTransferRequested(s_owner, to) */\n  mload(0x40)\n    /* \"@chainlink/contracts-ccip/src/v0.8/shared/access/ConfirmedOwnerWithProposal.sol\":1595:1614  s_pendingOwner = to */\n  swap3\n  swap4\n    /* \"@chainlink/contracts-ccip/src/v0.8/shared/access/ConfirmedOwnerWithProposal.sol\":1653:1660  s_owner */\n  and\n  swap2\n    /* \"@chainlink/contracts-ccip/src/v0.8/shared/access/ConfirmedOwnerWithProposal.sol\":1626:1665  OwnershipTransferRequested(s_owner, to) */\n  0xed8889f560326eb138920d842192f0eb3dd22b4f139c87a2c57538e05bae1278\n  swap2\n  swap1\n  log3\n    /* \"@chainlink/contracts-ccip/src/v0.8/shared/access/ConfirmedOwnerWithProposal.sol\":1482:1670  function _transferOwnership(address to) private {... */\n  pop\n  jump\t// out\n    /* \"#utility.yul\":14:191   */\ntag_23:\n    /* \"#utility.yul\":93:106   */\n  dup1\n  mload\n  sub(shl(0xa0, 0x01), 0x01)\n    /* \"#utility.yul\":135:166   */\n  dup2\n  and\n    /* \"#utility.yul\":125:167   */\n  dup2\n  eq\n    /* \"#utility.yul\":115:185   */\n  tag_26\n  jumpi\n    /* \"#utility.yul\":181:182   */\n  0x00\n    /* \"#utility.yul\":178:179   */\n  dup1\n    /* \"#utility.yul\":171:183   */\n  revert\n    /* \"#utility.yul\":115:185   */\ntag_26:\n    /* \"#utility.yul\":14:191   */\n  swap2\n  swap1\n  pop\n  jump\t// out\n    /* \"#utility.yul\":196:489   */\ntag_3:\n    /* \"#utility.yul\":275:281   */\n  0x00\n    /* \"#utility.yul\":283:289   */\n  dup1\n    /* \"#utility.yul\":336:338   */\n  0x40\n    /* \"#utility.yul\":324:333   */\n  dup4\n    /* \"#utility.yul\":315:322   */\n  dup6\n    /* \"#utility.yul\":311:334   */\n  sub\n    /* \"#utility.yul\":307:339   */\n  slt\n    /* \"#utility.yul\":304:356   */\n  iszero\n  tag_28\n  jumpi\n    /* \"#utility.yul\":352:353   */\n  0x00\n    /* \"#utility.yul\":349:350   */\n  dup1\n    /* \"#utility.yul\":342:354   */\n  revert\n    /* \"#utility.yul\":304:356   */\ntag_28:\n    /* \"#utility.yul\":375:415   */\n  tag_29\n    /* \"#utility.yul\":405:414   */\n  dup4\n    /* \"#utility.yul\":375:415   */\n  tag_23\n  jump\t// in\ntag_29:\n    /* \"#utility.yul\":365:415   */\n  swap2\n  pop\n    /* \"#utility.yul\":434:483   */\n  tag_30\n    /* \"#utility.yul\":479:481   */\n  0x20\n    /* \"#utility.yul\":468:477   */\n  dup5\n    /* \"#utility.yul\":464:482   */\n  add\n    /* \"#utility.yul\":434:483   */\n  tag_23\n  jump\t// in\ntag_30:\n    /* \"#utility.yul\":424:483   */\n  swap1\n  pop\n    /* \"#utility.yul\":196:489   */\n  swap3\n  pop\n  swap3\n  swap1\n  pop\n  jump\t// out\n    /* \"#utility.yul\":847:1194   */\ntag_24:\n    /* \"Ccip/TokenTransfer.sol\":718:12002  contract TokenTransferor is OwnerIsCreator {... */\n  dataSize(sub_0)\n  dup1\n  dataOffset(sub_0)\n  0x00\n  codecopy\n  0x00\n  return\nstop\n\nsub_0: assembly {\n        /* \"Ccip/TokenTransfer.sol\":718:12002  contract TokenTransferor is OwnerIsCreator {... */\n      mstore(0x40, 0x80)\n      jumpi(tag_1, lt(calldatasize, 0x04))\n      shr(0xe0, calldataload(0x00))\n      dup1\n      0x79ba5097\n      gt\n      tag_12\n      jumpi\n      dup1\n      0x79ba5097\n      eq\n      tag_7\n      jumpi\n      dup1\n      0x8da5cb5b\n      eq\n      tag_8\n      jumpi\n      dup1\n      0x95e1402c\n      eq\n      tag_9\n      jumpi\n      dup1\n      0x96d3b83d\n      eq\n      tag_10\n      jumpi\n      dup1\n      0xf2fde38b\n      eq\n      tag_11\n      jumpi\n      0x00\n      dup1\n      revert\n    tag_12:\n      dup1\n      0x0bb106eb\n      eq\n      tag_3\n      jumpi\n      dup1\n      0x3aeac4e1\n      eq\n      tag_4\n      jumpi\n      dup1\n      0x51419b4b\n      eq\n      tag_5\n      jumpi\n      dup1\n      0x51cff8d9\n      eq\n      tag_6\n      jumpi\n      0x00\n      dup1\n      revert\n    tag_1:\n      jumpi(tag_2, calldatasize)\n      stop\n    tag_2:\n      0x00\n      dup1\n      revert\n        /* \"Ccip/TokenTransfer.sol\":2062:2110  mapping(uint64 => bool) public allowlistedChains */\n    tag_3:\n      callvalue\n      dup1\n      iszero\n      tag_15\n      jumpi\n      0x00\n      dup1\n      revert\n    tag_15:\n      pop\n      tag_16\n      tag_17\n      calldatasize\n      0x04\n      tag_18\n      jump\t// in\n    tag_17:\n      mstore(0x20, 0x02)\n      0x00\n      swap1\n      dup2\n      mstore\n      0x40\n      swap1\n      keccak256\n      sload\n      0xff\n      and\n      dup2\n      jump\n    tag_16:\n      mload(0x40)\n        /* \"#utility.yul\":544:558   */\n      swap1\n      iszero\n        /* \"#utility.yul\":537:559   */\n      iszero\n        /* \"#utility.yul\":519:560   */\n      dup2\n      mstore\n        /* \"#utility.yul\":507:509   */\n      0x20\n        /* \"#utility.yul\":492:510   */\n      add\n        /* \"Ccip/TokenTransfer.sol\":2062:2110  mapping(uint64 => bool) public allowlistedChains */\n    tag_20:\n      mload(0x40)\n      dup1\n      swap2\n      sub\n      swap1\n      return\n        /* \"Ccip/TokenTransfer.sol\":11618:12000  function withdrawToken(... */\n    tag_4:\n      callvalue\n      dup1\n      iszero\n      tag_22\n      jumpi\n      0x00\n      dup1\n      revert\n    tag_22:\n      pop\n      tag_23\n      tag_24\n      calldatasize\n      0x04\n      tag_25\n      jump\t// in\n    tag_24:\n      tag_26\n      jump\t// in\n    tag_23:\n      stop\n        /* \"Ccip/TokenTransfer.sol\":6611:8227  function transferTokensPayNative(... */\n    tag_5:\n      callvalue\n      dup1\n      iszero\n      tag_27\n      jumpi\n      0x00\n      dup1\n      revert\n    tag_27:\n      pop\n      tag_28\n      tag_29\n      calldatasize\n      0x04\n      tag_30\n      jump\t// in\n    tag_29:\n      tag_31\n      jump\t// in\n    tag_28:\n      mload(0x40)\n        /* \"#utility.yul\":1566:1591   */\n      swap1\n      dup2\n      mstore\n        /* \"#utility.yul\":1554:1556   */\n      0x20\n        /* \"#utility.yul\":1539:1557   */\n      add\n        /* \"Ccip/TokenTransfer.sol\":6611:8227  function transferTokensPayNative(... */\n      tag_20\n        /* \"#utility.yul\":1420:1597   */\n      jump\n        /* \"Ccip/TokenTransfer.sol\":10664:11256  function withdraw(address _beneficiary) public onlyOwner {... */\n    tag_6:\n      callvalue\n      dup1\n      iszero\n      tag_34\n      jumpi\n      0x00\n      dup1\n      revert\n    tag_34:\n      pop\n      tag_23\n      tag_36\n      calldatasize\n      0x04\n      tag_37\n      jump\t// in\n    tag_36:\n      tag_38\n      jump\t// in\n        /* \"@chainlink/contracts-ccip/src/v0.8/shared/access/ConfirmedOwnerWithProposal.sol\":1001:1266  function acceptOwnership() external override {... */\n    tag_7:\n      callvalue\n      dup1\n      iszero\n      tag_39\n      jumpi\n      0x00\n      dup1\n      revert\n    tag_39:\n      pop\n      tag_23\n      tag_41\n      jump\t// in\n        /* \"@chainlink/contracts-ccip/src/v0.8/shared/access/ConfirmedOwnerWithProposal.sol\":1317:1398  function owner() public view override returns (address) {... */\n    tag_8:\n      callvalue\n      dup1\n      iszero\n      tag_42\n      jumpi\n      0x00\n      dup1\n      revert\n    tag_42:\n      pop\n        /* \"@chainlink/contracts-ccip/src/v0.8/shared/access/ConfirmedOwnerWithProposal.sol\":1364:1371  address */\n      0x00\n        /* \"@chainlink/contracts-ccip/src/v0.8/shared/access/ConfirmedOwnerWithProposal.sol\":1386:1393  s_owner */\n      sload\n        /* \"@chainlink/contracts-ccip/src/v0.8/shared/access/ConfirmedOwnerWithProposal.sol\":1317:1398  function owner() public view override returns (address) {... */\n      mload(0x40)\n      sub(shl(0xa0, 0x01), 0x01)\n        /* \"@chainlink/contracts-ccip/src/v0.8/shared/access/ConfirmedOwnerWithProposal.sol\":1386:1393  s_owner */\n      swap1\n      swap2\n      and\n        /* \"#utility.yul\":2048:2099   */\n      dup2\n      mstore\n        /* \"#utility.yul\":2036:2038   */\n      0x20\n        /* \"#utility.yul\":2021:2039   */\n      add\n        /* \"@chainlink/contracts-ccip/src/v0.8/shared/access/ConfirmedOwnerWithProposal.sol\":1317:1398  function owner() public view override returns (address) {... */\n      tag_20\n        /* \"#utility.yul\":1902:2105   */\n      jump\n        /* \"Ccip/TokenTransfer.sol\":4083:5899  function transferTokensPayLINK(... */\n    tag_9:\n      callvalue\n      dup1\n      iszero\n      tag_47\n      jumpi\n      0x00\n      dup1\n      revert\n    tag_47:\n      pop\n      tag_28\n      tag_49\n      calldatasize\n      0x04\n      tag_30\n      jump\t// in\n    tag_49:\n      tag_50\n      jump\t// in\n        /* \"Ccip/TokenTransfer.sol\":3245:3440  function allowlistDestinationChain(... */\n    tag_10:\n      callvalue\n      dup1\n      iszero\n      tag_52\n      jumpi\n      0x00\n      dup1\n      revert\n    tag_52:\n      pop\n      tag_23\n      tag_54\n      calldatasize\n      0x04\n      tag_55\n      jump\t// in\n    tag_54:\n      tag_56\n      jump\t// in\n        /* \"@chainlink/contracts-ccip/src/v0.8/shared/access/ConfirmedOwnerWithProposal.sol\":811:909  function transferOwnership(address to) public override onlyOwner {... */\n    tag_11:\n      callvalue\n      dup1\n      iszero\n      tag_57\n      jumpi\n      0x00\n      dup1\n      revert\n    tag_57:\n      pop\n      tag_23\n      tag_59\n      calldatasize\n      0x04\n      tag_37\n      jump\t// in\n    tag_59:\n      tag_60\n      jump\t// in\n        /* \"Ccip/TokenTransfer.sol\":11618:12000  function withdrawToken(... */\n    tag_26:\n        /* \"@chainlink/contracts-ccip/src/v0.8/shared/access/ConfirmedOwnerWithProposal.sol\":1941:1961  _validateOwnership() */\n      tag_62\n        /* \"@chainlink/contracts-ccip/src/v0.8/shared/access/ConfirmedOwnerWithProposal.sol\":1941:1959  _validateOwnership */\n      tag_63\n        /* \"@chainlink/contracts-ccip/src/v0.8/shared/access/ConfirmedOwnerWithProposal.sol\":1941:1961  _validateOwnership() */\n      jump\t// in\n    tag_62:\n        /* \"Ccip/TokenTransfer.sol\":11794:11833  IERC20(_token).balanceOf(address(this)) */\n      mload(0x40)\n      shl(0xe0, 0x70a08231)\n      dup2\n      mstore\n        /* \"Ccip/TokenTransfer.sol\":11827:11831  this */\n      address\n        /* \"Ccip/TokenTransfer.sol\":11794:11833  IERC20(_token).balanceOf(address(this)) */\n      0x04\n      dup3\n      add\n        /* \"#utility.yul\":2048:2099   */\n      mstore\n        /* \"Ccip/TokenTransfer.sol\":11777:11791  uint256 amount */\n      0x00\n      swap1\n      sub(shl(0xa0, 0x01), 0x01)\n        /* \"Ccip/TokenTransfer.sol\":11794:11818  IERC20(_token).balanceOf */\n      dup4\n      and\n      swap1\n      0x70a08231\n      swap1\n        /* \"#utility.yul\":2021:2039   */\n      0x24\n      add\n        /* \"Ccip/TokenTransfer.sol\":11794:11833  IERC20(_token).balanceOf(address(this)) */\n      0x20\n      mload(0x40)\n      dup1\n      dup4\n      sub\n      dup2\n      dup7\n      gas\n      staticcall\n      iszero\n      dup1\n      iszero\n      tag_67\n      jumpi\n      returndatasize\n      0x00\n      dup1\n      returndatacopy\n      revert(0x00, returndatasize)\n    tag_67:\n      pop\n      pop\n      pop\n      pop\n      mload(0x40)\n      returndatasize\n      not(0x1f)\n      0x1f\n      dup3\n      add\n      and\n      dup3\n      add\n      dup1\n      0x40\n      mstore\n      pop\n      dup2\n      add\n      swap1\n      tag_68\n      swap2\n      swap1\n      tag_69\n      jump\t// in\n    tag_68:\n        /* \"Ccip/TokenTransfer.sol\":11777:11833  uint256 amount = IERC20(_token).balanceOf(address(this)) */\n      swap1\n      pop\n        /* \"Ccip/TokenTransfer.sol\":11898:11904  amount */\n      dup1\n        /* \"Ccip/TokenTransfer.sol\":11908:11909  0 */\n      0x00\n        /* \"Ccip/TokenTransfer.sol\":11898:11909  amount == 0 */\n      sub\n        /* \"Ccip/TokenTransfer.sol\":11894:11937  if (amount == 0) revert NothingToWithdraw() */\n      tag_70\n      jumpi\n        /* \"Ccip/TokenTransfer.sol\":11918:11937  NothingToWithdraw() */\n      mload(0x40)\n      shl(0xe5, 0x0686827b)\n      dup2\n      mstore\n      0x04\n      add\n      mload(0x40)\n      dup1\n      swap2\n      sub\n      swap1\n      revert\n        /* \"Ccip/TokenTransfer.sol\":11894:11937  if (amount == 0) revert NothingToWithdraw() */\n    tag_70:\n        /* \"Ccip/TokenTransfer.sol\":11948:11993  IERC20(_token).transfer(_beneficiary, amount) */\n      mload(0x40)\n      shl(0xe0, 0xa9059cbb)\n      dup2\n      mstore\n      sub(shl(0xa0, 0x01), 0x01)\n        /* \"#utility.yul\":2932:2964   */\n      dup5\n      dup2\n      and\n        /* \"Ccip/TokenTransfer.sol\":11948:11993  IERC20(_token).transfer(_beneficiary, amount) */\n      0x04\n      dup4\n      add\n        /* \"#utility.yul\":2914:2965   */\n      mstore\n        /* \"#utility.yul\":2981:2999   */\n      0x24\n      dup3\n      add\n        /* \"#utility.yul\":2974:3008   */\n      dup4\n      swap1\n      mstore\n        /* \"Ccip/TokenTransfer.sol\":11948:11971  IERC20(_token).transfer */\n      dup4\n      and\n      swap1\n      0xa9059cbb\n      swap1\n        /* \"#utility.yul\":2887:2905   */\n      0x44\n      add\n        /* \"Ccip/TokenTransfer.sol\":11948:11993  IERC20(_token).transfer(_beneficiary, amount) */\n      0x20\n      mload(0x40)\n      dup1\n      dup4\n      sub\n      dup2\n      0x00\n      dup8\n      gas\n      call\n      iszero\n      dup1\n      iszero\n      tag_74\n      jumpi\n      returndatasize\n      0x00\n      dup1\n      returndatacopy\n      revert(0x00, returndatasize)\n    tag_74:\n      pop\n      pop\n      pop\n      pop\n      mload(0x40)\n      returndatasize\n      not(0x1f)\n      0x1f\n      dup3\n      add\n      and\n      dup3\n      add\n      dup1\n      0x40\n      mstore\n      pop\n      dup2\n      add\n      swap1\n      tag_75\n      swap2\n      swap1\n      tag_76\n      jump\t// in\n    tag_75:\n      pop\n        /* \"Ccip/TokenTransfer.sol\":11718:12000  {... */\n      pop\n        /* \"Ccip/TokenTransfer.sol\":11618:12000  function withdrawToken(... */\n      pop\n      pop\n      jump\t// out\n        /* \"Ccip/TokenTransfer.sol\":6611:8227  function transferTokensPayNative(... */\n    tag_31:\n        /* \"Ccip/TokenTransfer.sol\":6876:6893  bytes32 messageId */\n      0x00\n        /* \"@chainlink/contracts-ccip/src/v0.8/shared/access/ConfirmedOwnerWithProposal.sol\":1941:1961  _validateOwnership() */\n      tag_78\n        /* \"@chainlink/contracts-ccip/src/v0.8/shared/access/ConfirmedOwnerWithProposal.sol\":1941:1959  _validateOwnership */\n      tag_63\n        /* \"@chainlink/contracts-ccip/src/v0.8/shared/access/ConfirmedOwnerWithProposal.sol\":1941:1961  _validateOwnership() */\n      jump\t// in\n    tag_78:\n        /* \"Ccip/TokenTransfer.sol\":2778:2822  allowlistedChains[_destinationChainSelector] */\n      0xffffffffffffffff\n      dup6\n      and\n      0x00\n      swap1\n      dup2\n      mstore\n        /* \"Ccip/TokenTransfer.sol\":2778:2795  allowlistedChains */\n      0x02\n        /* \"Ccip/TokenTransfer.sol\":2778:2822  allowlistedChains[_destinationChainSelector] */\n      0x20\n      mstore\n      0x40\n      swap1\n      keccak256\n      sload\n        /* \"Ccip/TokenTransfer.sol\":6832:6857  _destinationChainSelector */\n      dup6\n      swap1\n        /* \"Ccip/TokenTransfer.sol\":2778:2822  allowlistedChains[_destinationChainSelector] */\n      0xff\n      and\n        /* \"Ccip/TokenTransfer.sol\":2773:2900  if (!allowlistedChains[_destinationChainSelector])... */\n      tag_80\n      jumpi\n        /* \"Ccip/TokenTransfer.sol\":2843:2900  DestinationChainNotAllowlisted(_destinationChainSelector) */\n      mload(0x40)\n      shl(0xe0, 0x0a503cdb)\n      dup2\n      mstore\n        /* \"#utility.yul\":3443:3461   */\n      0xffffffffffffffff\n        /* \"#utility.yul\":3431:3462   */\n      dup3\n      and\n        /* \"Ccip/TokenTransfer.sol\":2843:2900  DestinationChainNotAllowlisted(_destinationChainSelector) */\n      0x04\n      dup3\n      add\n        /* \"#utility.yul\":3413:3463   */\n      mstore\n        /* \"#utility.yul\":3386:3404   */\n      0x24\n      add\n        /* \"Ccip/TokenTransfer.sol\":2843:2900  DestinationChainNotAllowlisted(_destinationChainSelector) */\n    tag_81:\n      mload(0x40)\n      dup1\n      swap2\n      sub\n      swap1\n      revert\n        /* \"Ccip/TokenTransfer.sol\":2773:2900  if (!allowlistedChains[_destinationChainSelector])... */\n    tag_80:\n        /* \"Ccip/TokenTransfer.sol\":7079:7122  Client.EVM2AnyMessage memory evm2AnyMessage */\n      0x00\n        /* \"Ccip/TokenTransfer.sol\":7125:7240  _buildCCIPMessage(... */\n      tag_84\n        /* \"Ccip/TokenTransfer.sol\":7156:7165  _receiver */\n      dup7\n        /* \"Ccip/TokenTransfer.sol\":7179:7185  _token */\n      dup7\n        /* \"Ccip/TokenTransfer.sol\":7199:7206  _amount */\n      dup7\n        /* \"Ccip/TokenTransfer.sol\":7228:7229  0 */\n      0x00\n        /* \"Ccip/TokenTransfer.sol\":7125:7142  _buildCCIPMessage */\n      tag_85\n        /* \"Ccip/TokenTransfer.sol\":7125:7240  _buildCCIPMessage(... */\n      jump\t// in\n    tag_84:\n        /* \"Ccip/TokenTransfer.sol\":7318:7326  s_router */\n      sload(0x03)\n        /* \"Ccip/TokenTransfer.sol\":7318:7410  s_router.getFee(... */\n      mload(0x40)\n      shl(0xe0, 0x20487ded)\n      dup2\n      mstore\n        /* \"Ccip/TokenTransfer.sol\":7079:7240  Client.EVM2AnyMessage memory evm2AnyMessage = _buildCCIPMessage(... */\n      swap2\n      swap3\n      pop\n        /* \"Ccip/TokenTransfer.sol\":7303:7315  uint256 fees */\n      0x00\n      swap2\n      sub(shl(0xa0, 0x01), 0x01)\n        /* \"Ccip/TokenTransfer.sol\":7318:7326  s_router */\n      swap1\n      swap2\n      and\n      swap1\n        /* \"Ccip/TokenTransfer.sol\":7318:7333  s_router.getFee */\n      0x20487ded\n      swap1\n        /* \"Ccip/TokenTransfer.sol\":7318:7410  s_router.getFee(... */\n      tag_86\n      swap1\n        /* \"Ccip/TokenTransfer.sol\":7347:7372  _destinationChainSelector */\n      dup12\n      swap1\n        /* \"Ccip/TokenTransfer.sol\":7079:7240  Client.EVM2AnyMessage memory evm2AnyMessage = _buildCCIPMessage(... */\n      dup7\n      swap1\n        /* \"Ccip/TokenTransfer.sol\":7318:7410  s_router.getFee(... */\n      0x04\n      add\n      tag_87\n      jump\t// in\n    tag_86:\n      0x20\n      mload(0x40)\n      dup1\n      dup4\n      sub\n      dup2\n      dup7\n      gas\n      staticcall\n      iszero\n      dup1\n      iszero\n      tag_89\n      jumpi\n      returndatasize\n      0x00\n      dup1\n      returndatacopy\n      revert(0x00, returndatasize)\n    tag_89:\n      pop\n      pop\n      pop\n      pop\n      mload(0x40)\n      returndatasize\n      not(0x1f)\n      0x1f\n      dup3\n      add\n      and\n      dup3\n      add\n      dup1\n      0x40\n      mstore\n      pop\n      dup2\n      add\n      swap1\n      tag_90\n      swap2\n      swap1\n      tag_69\n      jump\t// in\n    tag_90:\n        /* \"Ccip/TokenTransfer.sol\":7303:7410  uint256 fees = s_router.getFee(... */\n      swap1\n      pop\n        /* \"Ccip/TokenTransfer.sol\":7432:7453  address(this).balance */\n      selfbalance\n        /* \"Ccip/TokenTransfer.sol\":7425:7429  fees */\n      dup2\n        /* \"Ccip/TokenTransfer.sol\":7425:7453  fees > address(this).balance */\n      gt\n        /* \"Ccip/TokenTransfer.sol\":7421:7519  if (fees > address(this).balance)... */\n      iszero\n      tag_91\n      jumpi\n        /* \"Ccip/TokenTransfer.sol\":7474:7519  NotEnoughBalance(address(this).balance, fees) */\n      mload(0x40)\n      shl(0xe1, 0x4787a103)\n      dup2\n      mstore\n        /* \"Ccip/TokenTransfer.sol\":7491:7512  address(this).balance */\n      selfbalance\n        /* \"Ccip/TokenTransfer.sol\":7474:7519  NotEnoughBalance(address(this).balance, fees) */\n      0x04\n      dup3\n      add\n        /* \"#utility.yul\":5681:5706   */\n      mstore\n        /* \"#utility.yul\":5722:5740   */\n      0x24\n      dup2\n      add\n        /* \"#utility.yul\":5715:5749   */\n      dup3\n      swap1\n      mstore\n        /* \"#utility.yul\":5654:5672   */\n      0x44\n      add\n        /* \"Ccip/TokenTransfer.sol\":7474:7519  NotEnoughBalance(address(this).balance, fees) */\n      tag_81\n        /* \"#utility.yul\":5507:5755   */\n      jump\n        /* \"Ccip/TokenTransfer.sol\":7421:7519  if (fees > address(this).balance)... */\n    tag_91:\n        /* \"Ccip/TokenTransfer.sol\":7673:7681  s_router */\n      sload(0x03)\n        /* \"Ccip/TokenTransfer.sol\":7642:7692  IERC20(_token).approve(address(s_router), _amount) */\n      mload(0x40)\n      shl(0xe0, 0x095ea7b3)\n      dup2\n      mstore\n      sub(shl(0xa0, 0x01), 0x01)\n        /* \"Ccip/TokenTransfer.sol\":7673:7681  s_router */\n      swap2\n      dup3\n      and\n        /* \"Ccip/TokenTransfer.sol\":7642:7692  IERC20(_token).approve(address(s_router), _amount) */\n      0x04\n      dup3\n      add\n        /* \"#utility.yul\":2914:2965   */\n      mstore\n        /* \"#utility.yul\":2981:2999   */\n      0x24\n      dup2\n      add\n        /* \"#utility.yul\":2974:3008   */\n      dup8\n      swap1\n      mstore\n        /* \"Ccip/TokenTransfer.sol\":7642:7664  IERC20(_token).approve */\n      swap1\n      dup8\n      and\n      swap1\n      0x095ea7b3\n      swap1\n        /* \"#utility.yul\":2887:2905   */\n      0x44\n      add\n        /* \"Ccip/TokenTransfer.sol\":7642:7692  IERC20(_token).approve(address(s_router), _amount) */\n      0x20\n      mload(0x40)\n      dup1\n      dup4\n      sub\n      dup2\n      0x00\n      dup8\n      gas\n      call\n      iszero\n      dup1\n      iszero\n      tag_96\n      jumpi\n      returndatasize\n      0x00\n      dup1\n      returndatacopy\n      revert(0x00, returndatasize)\n    tag_96:\n      pop\n      pop\n      pop\n      pop\n      mload(0x40)\n      returndatasize\n      not(0x1f)\n      0x1f\n      dup3\n      add\n      and\n      dup3\n      add\n      dup1\n      0x40\n      mstore\n      pop\n      dup2\n      add\n      swap1\n      tag_97\n      swap2\n      swap1\n      tag_76\n      jump\t// in\n    tag_97:\n      pop\n        /* \"Ccip/TokenTransfer.sol\":7796:7804  s_router */\n      sload(0x03)\n        /* \"Ccip/TokenTransfer.sol\":7796:7903  s_router.ccipSend{value: fees}(... */\n      mload(0x40)\n      shl(0xe0, 0x96f4e9f9)\n      dup2\n      mstore\n      sub(shl(0xa0, 0x01), 0x01)\n        /* \"Ccip/TokenTransfer.sol\":7796:7804  s_router */\n      swap1\n      swap2\n      and\n      swap1\n        /* \"Ccip/TokenTransfer.sol\":7796:7813  s_router.ccipSend */\n      0x96f4e9f9\n      swap1\n        /* \"Ccip/TokenTransfer.sol\":7821:7825  fees */\n      dup4\n      swap1\n        /* \"Ccip/TokenTransfer.sol\":7796:7903  s_router.ccipSend{value: fees}(... */\n      tag_98\n      swap1\n        /* \"Ccip/TokenTransfer.sol\":7840:7865  _destinationChainSelector */\n      dup13\n      swap1\n        /* \"Ccip/TokenTransfer.sol\":7879:7893  evm2AnyMessage */\n      dup8\n      swap1\n        /* \"Ccip/TokenTransfer.sol\":7796:7903  s_router.ccipSend{value: fees}(... */\n      0x04\n      add\n      tag_87\n      jump\t// in\n    tag_98:\n      0x20\n      mload(0x40)\n      dup1\n      dup4\n      sub\n      dup2\n      dup6\n      dup9\n      gas\n      call\n      iszero\n      dup1\n      iszero\n      tag_100\n      jumpi\n      returndatasize\n      0x00\n      dup1\n      returndatacopy\n      revert(0x00, returndatasize)\n    tag_100:\n      pop\n      pop\n      pop\n      pop\n      pop\n      mload(0x40)\n      returndatasize\n      not(0x1f)\n      0x1f\n      dup3\n      add\n      and\n      dup3\n      add\n      dup1\n      0x40\n      mstore\n      pop\n      dup2\n      add\n      swap1\n      tag_101\n      swap2\n      swap1\n      tag_69\n      jump\t// in\n    tag_101:\n        /* \"Ccip/TokenTransfer.sol\":7965:8160  TokensTransferred(... */\n      0x40\n      dup1\n      mload\n      sub(shl(0xa0, 0x01), 0x01)\n        /* \"#utility.yul\":6264:6279   */\n      dup1\n      dup12\n      and\n        /* \"#utility.yul\":6246:6280   */\n      dup3\n      mstore\n        /* \"#utility.yul\":6316:6331   */\n      dup10\n      and\n        /* \"#utility.yul\":6311:6313   */\n      0x20\n        /* \"#utility.yul\":6296:6314   */\n      dup3\n      add\n        /* \"#utility.yul\":6289:6332   */\n      mstore\n        /* \"#utility.yul\":6348:6366   */\n      swap1\n      dup2\n      add\n        /* \"#utility.yul\":6341:6375   */\n      dup8\n      swap1\n      mstore\n        /* \"Ccip/TokenTransfer.sol\":8130:8131  0 */\n      0x00\n        /* \"#utility.yul\":6406:6408   */\n      0x60\n        /* \"#utility.yul\":6391:6409   */\n      dup3\n      add\n        /* \"#utility.yul\":6384:6427   */\n      mstore\n        /* \"#utility.yul\":6458:6461   */\n      0x80\n        /* \"#utility.yul\":6443:6462   */\n      dup2\n      add\n        /* \"#utility.yul\":6436:6471   */\n      dup4\n      swap1\n      mstore\n        /* \"Ccip/TokenTransfer.sol\":7784:7903  messageId = s_router.ccipSend{value: fees}(... */\n      swap1\n      swap5\n      pop\n        /* \"Ccip/TokenTransfer.sol\":7965:8160  TokensTransferred(... */\n      0xffffffffffffffff\n      dup10\n      and\n      swap1\n        /* \"Ccip/TokenTransfer.sol\":7784:7903  messageId = s_router.ccipSend{value: fees}(... */\n      dup6\n      swap1\n        /* \"Ccip/TokenTransfer.sol\":7965:8160  TokensTransferred(... */\n      0xc15fb748c32ba4eb29c1c311e78533f93b4425eab49ea87c6fe4279ecadca043\n      swap1\n        /* \"#utility.yul\":6195:6198   */\n      0xa0\n        /* \"#utility.yul\":6180:6199   */\n      add\n        /* \"Ccip/TokenTransfer.sol\":7965:8160  TokensTransferred(... */\n    tag_103:\n      mload(0x40)\n      dup1\n      swap2\n      sub\n      swap1\n      log3\n        /* \"Ccip/TokenTransfer.sol\":8204:8220  return messageId */\n      pop\n      pop\n        /* \"@chainlink/contracts-ccip/src/v0.8/shared/access/ConfirmedOwnerWithProposal.sol\":1967:1968  _ */\n      pop\n        /* \"Ccip/TokenTransfer.sol\":6611:8227  function transferTokensPayNative(... */\n      swap5\n      swap4\n      pop\n      pop\n      pop\n      pop\n      jump\t// out\n        /* \"Ccip/TokenTransfer.sol\":10664:11256  function withdraw(address _beneficiary) public onlyOwner {... */\n    tag_38:\n        /* \"@chainlink/contracts-ccip/src/v0.8/shared/access/ConfirmedOwnerWithProposal.sol\":1941:1961  _validateOwnership() */\n      tag_106\n        /* \"@chainlink/contracts-ccip/src/v0.8/shared/access/ConfirmedOwnerWithProposal.sol\":1941:1959  _validateOwnership */\n      tag_63\n        /* \"@chainlink/contracts-ccip/src/v0.8/shared/access/ConfirmedOwnerWithProposal.sol\":1941:1961  _validateOwnership() */\n      jump\t// in\n    tag_106:\n        /* \"Ccip/TokenTransfer.sol\":10797:10818  address(this).balance */\n      selfbalance\n        /* \"Ccip/TokenTransfer.sol\":10780:10794  uint256 amount */\n      0x00\n        /* \"Ccip/TokenTransfer.sol\":10883:10894  amount == 0 */\n      dup2\n      swap1\n      sub\n        /* \"Ccip/TokenTransfer.sol\":10879:10922  if (amount == 0) revert NothingToWithdraw() */\n      tag_108\n      jumpi\n        /* \"Ccip/TokenTransfer.sol\":10903:10922  NothingToWithdraw() */\n      mload(0x40)\n      shl(0xe5, 0x0686827b)\n      dup2\n      mstore\n      0x04\n      add\n      mload(0x40)\n      dup1\n      swap2\n      sub\n      swap1\n      revert\n        /* \"Ccip/TokenTransfer.sol\":10879:10922  if (amount == 0) revert NothingToWithdraw() */\n    tag_108:\n        /* \"Ccip/TokenTransfer.sol\":11032:11041  bool sent */\n      0x00\n        /* \"Ccip/TokenTransfer.sol\":11047:11059  _beneficiary */\n      dup3\n      sub(shl(0xa0, 0x01), 0x01)\n        /* \"Ccip/TokenTransfer.sol\":11047:11064  _beneficiary.call */\n      and\n        /* \"Ccip/TokenTransfer.sol\":11072:11078  amount */\n      dup3\n        /* \"Ccip/TokenTransfer.sol\":11047:11083  _beneficiary.call{value: amount}(\"\") */\n      mload(0x40)\n      0x00\n      mload(0x40)\n      dup1\n      dup4\n      sub\n      dup2\n      dup6\n      dup8\n      gas\n      call\n      swap3\n      pop\n      pop\n      pop\n      returndatasize\n      dup1\n      0x00\n      dup2\n      eq\n      tag_113\n      jumpi\n      mload(0x40)\n      swap2\n      pop\n      and(add(returndatasize, 0x3f), not(0x1f))\n      dup3\n      add\n      0x40\n      mstore\n      returndatasize\n      dup3\n      mstore\n      returndatasize\n      0x00\n      0x20\n      dup5\n      add\n      returndatacopy\n      jump(tag_112)\n    tag_113:\n      0x60\n      swap2\n      pop\n    tag_112:\n      pop\n        /* \"Ccip/TokenTransfer.sol\":11031:11083  (bool sent, ) = _beneficiary.call{value: amount}(\"\") */\n      pop\n      swap1\n      pop\n        /* \"Ccip/TokenTransfer.sol\":11183:11187  sent */\n      dup1\n        /* \"Ccip/TokenTransfer.sol\":11178:11249  if (!sent) revert FailedToWithdrawEth(msg.sender, _beneficiary, amount) */\n      tag_114\n      jumpi\n        /* \"Ccip/TokenTransfer.sol\":11196:11249  FailedToWithdrawEth(msg.sender, _beneficiary, amount) */\n      mload(0x40)\n      shl(0xe0, 0x9d11f563)\n      dup2\n      mstore\n        /* \"Ccip/TokenTransfer.sol\":11216:11226  msg.sender */\n      caller\n        /* \"Ccip/TokenTransfer.sol\":11196:11249  FailedToWithdrawEth(msg.sender, _beneficiary, amount) */\n      0x04\n      dup3\n      add\n        /* \"#utility.yul\":6932:6966   */\n      mstore\n      sub(shl(0xa0, 0x01), 0x01)\n        /* \"#utility.yul\":7002:7017   */\n      dup5\n      and\n        /* \"#utility.yul\":6982:7000   */\n      0x24\n      dup3\n      add\n        /* \"#utility.yul\":6975:7018   */\n      mstore\n        /* \"#utility.yul\":7034:7052   */\n      0x44\n      dup2\n      add\n        /* \"#utility.yul\":7027:7061   */\n      dup4\n      swap1\n      mstore\n        /* \"#utility.yul\":6867:6885   */\n      0x64\n      add\n        /* \"Ccip/TokenTransfer.sol\":11196:11249  FailedToWithdrawEth(msg.sender, _beneficiary, amount) */\n      tag_81\n        /* \"#utility.yul\":6692:7067   */\n      jump\n        /* \"Ccip/TokenTransfer.sol\":11178:11249  if (!sent) revert FailedToWithdrawEth(msg.sender, _beneficiary, amount) */\n    tag_114:\n        /* \"Ccip/TokenTransfer.sol\":10721:11256  {... */\n      pop\n      pop\n        /* \"Ccip/TokenTransfer.sol\":10664:11256  function withdraw(address _beneficiary) public onlyOwner {... */\n      pop\n      jump\t// out\n        /* \"@chainlink/contracts-ccip/src/v0.8/shared/access/ConfirmedOwnerWithProposal.sol\":1001:1266  function acceptOwnership() external override {... */\n    tag_41:\n        /* \"@chainlink/contracts-ccip/src/v0.8/shared/access/ConfirmedOwnerWithProposal.sol\":1074:1088  s_pendingOwner */\n      and(sub(shl(0xa0, 0x01), 0x01), sload(0x01))\n        /* \"@chainlink/contracts-ccip/src/v0.8/shared/access/ConfirmedOwnerWithProposal.sol\":1060:1070  msg.sender */\n      caller\n        /* \"@chainlink/contracts-ccip/src/v0.8/shared/access/ConfirmedOwnerWithProposal.sol\":1060:1088  msg.sender == s_pendingOwner */\n      eq\n        /* \"@chainlink/contracts-ccip/src/v0.8/shared/access/ConfirmedOwnerWithProposal.sol\":1052:1115  require(msg.sender == s_pendingOwner, \"Must be proposed owner\") */\n      tag_118\n      jumpi\n      mload(0x40)\n      shl(0xe5, 0x461bcd)\n      dup2\n      mstore\n        /* \"#utility.yul\":7274:7276   */\n      0x20\n        /* \"@chainlink/contracts-ccip/src/v0.8/shared/access/ConfirmedOwnerWithProposal.sol\":1052:1115  require(msg.sender == s_pendingOwner, \"Must be proposed owner\") */\n      0x04\n      dup3\n      add\n        /* \"#utility.yul\":7256:7277   */\n      mstore\n        /* \"#utility.yul\":7313:7315   */\n      0x16\n        /* \"#utility.yul\":7293:7311   */\n      0x24\n      dup3\n      add\n        /* \"#utility.yul\":7286:7316   */\n      mstore\n      shl(0x51, 0x26bab9ba10313290383937b837b9b2b21037bbb732b9)\n        /* \"#utility.yul\":7332:7350   */\n      0x44\n      dup3\n      add\n        /* \"#utility.yul\":7325:7377   */\n      mstore\n        /* \"#utility.yul\":7394:7412   */\n      0x64\n      add\n        /* \"@chainlink/contracts-ccip/src/v0.8/shared/access/ConfirmedOwnerWithProposal.sol\":1052:1115  require(msg.sender == s_pendingOwner, \"Must be proposed owner\") */\n      tag_81\n        /* \"#utility.yul\":7072:7418   */\n      jump\n        /* \"@chainlink/contracts-ccip/src/v0.8/shared/access/ConfirmedOwnerWithProposal.sol\":1052:1115  require(msg.sender == s_pendingOwner, \"Must be proposed owner\") */\n    tag_118:\n        /* \"@chainlink/contracts-ccip/src/v0.8/shared/access/ConfirmedOwnerWithProposal.sol\":1122:1138  address oldOwner */\n      0x00\n        /* \"@chainlink/contracts-ccip/src/v0.8/shared/access/ConfirmedOwnerWithProposal.sol\":1141:1148  s_owner */\n      dup1\n      sload\n        /* \"@chainlink/contracts-ccip/src/v0.8/shared/access/ConfirmedOwnerWithProposal.sol\":1164:1174  msg.sender */\n      caller\n      not(sub(shl(0xa0, 0x01), 0x01))\n        /* \"@chainlink/contracts-ccip/src/v0.8/shared/access/ConfirmedOwnerWithProposal.sol\":1154:1174  s_owner = msg.sender */\n      dup1\n      dup4\n      and\n      dup3\n      or\n      dup5\n      sstore\n      0x01\n        /* \"@chainlink/contracts-ccip/src/v0.8/shared/access/ConfirmedOwnerWithProposal.sol\":1180:1207  s_pendingOwner = address(0) */\n      dup1\n      sload\n      swap1\n      swap2\n      and\n      swap1\n      sstore\n        /* \"@chainlink/contracts-ccip/src/v0.8/shared/access/ConfirmedOwnerWithProposal.sol\":1219:1261  OwnershipTransferred(oldOwner, msg.sender) */\n      mload(0x40)\n      sub(shl(0xa0, 0x01), 0x01)\n        /* \"@chainlink/contracts-ccip/src/v0.8/shared/access/ConfirmedOwnerWithProposal.sol\":1141:1148  s_owner */\n      swap1\n      swap3\n      and\n      swap3\n        /* \"@chainlink/contracts-ccip/src/v0.8/shared/access/ConfirmedOwnerWithProposal.sol\":1164:1174  msg.sender */\n      swap1\n      swap2\n        /* \"@chainlink/contracts-ccip/src/v0.8/shared/access/ConfirmedOwnerWithProposal.sol\":1141:1148  s_owner */\n      dup4\n      swap2\n        /* \"@chainlink/contracts-ccip/src/v0.8/shared/access/ConfirmedOwnerWithProposal.sol\":1219:1261  OwnershipTransferred(oldOwner, msg.sender) */\n      0x8be0079c531659141344cd1fd0a4f28419497f9722a3daafe3b4186f6b6457e0\n      swap2\n      log3\n        /* \"@chainlink/contracts-ccip/src/v0.8/shared/access/ConfirmedOwnerWithProposal.sol\":1046:1266  {... */\n      pop\n        /* \"@chainlink/contracts-ccip/src/v0.8/shared/access/ConfirmedOwnerWithProposal.sol\":1001:1266  function acceptOwnership() external override {... */\n      jump\t// out\n        /* \"Ccip/TokenTransfer.sol\":4083:5899  function transferTokensPayLINK(... */\n    tag_50:\n        /* \"Ccip/TokenTransfer.sol\":4346:4363  bytes32 messageId */\n      0x00\n        /* \"@chainlink/contracts-ccip/src/v0.8/shared/access/ConfirmedOwnerWithProposal.sol\":1941:1961  _validateOwnership() */\n      tag_123\n        /* \"@chainlink/contracts-ccip/src/v0.8/shared/access/ConfirmedOwnerWithProposal.sol\":1941:1959  _validateOwnership */\n      tag_63\n        /* \"@chainlink/contracts-ccip/src/v0.8/shared/access/ConfirmedOwnerWithProposal.sol\":1941:1961  _validateOwnership() */\n      jump\t// in\n    tag_123:\n        /* \"Ccip/TokenTransfer.sol\":2778:2822  allowlistedChains[_destinationChainSelector] */\n      0xffffffffffffffff\n      dup6\n      and\n      0x00\n      swap1\n      dup2\n      mstore\n        /* \"Ccip/TokenTransfer.sol\":2778:2795  allowlistedChains */\n      0x02\n        /* \"Ccip/TokenTransfer.sol\":2778:2822  allowlistedChains[_destinationChainSelector] */\n      0x20\n      mstore\n      0x40\n      swap1\n      keccak256\n      sload\n        /* \"Ccip/TokenTransfer.sol\":4302:4327  _destinationChainSelector */\n      dup6\n      swap1\n        /* \"Ccip/TokenTransfer.sol\":2778:2822  allowlistedChains[_destinationChainSelector] */\n      0xff\n      and\n        /* \"Ccip/TokenTransfer.sol\":2773:2900  if (!allowlistedChains[_destinationChainSelector])... */\n      tag_125\n      jumpi\n        /* \"Ccip/TokenTransfer.sol\":2843:2900  DestinationChainNotAllowlisted(_destinationChainSelector) */\n      mload(0x40)\n      shl(0xe0, 0x0a503cdb)\n      dup2\n      mstore\n        /* \"#utility.yul\":3443:3461   */\n      0xffffffffffffffff\n        /* \"#utility.yul\":3431:3462   */\n      dup3\n      and\n        /* \"Ccip/TokenTransfer.sol\":2843:2900  DestinationChainNotAllowlisted(_destinationChainSelector) */\n      0x04\n      dup3\n      add\n        /* \"#utility.yul\":3413:3463   */\n      mstore\n        /* \"#utility.yul\":3386:3404   */\n      0x24\n      add\n        /* \"Ccip/TokenTransfer.sol\":2843:2900  DestinationChainNotAllowlisted(_destinationChainSelector) */\n      tag_81\n        /* \"#utility.yul\":3269:3469   */\n      jump\n        /* \"Ccip/TokenTransfer.sol\":2773:2900  if (!allowlistedChains[_destinationChainSelector])... */\n    tag_125:\n        /* \"Ccip/TokenTransfer.sol\":4701:4712  s_linkToken */\n      sload(0x04)\n        /* \"Ccip/TokenTransfer.sol\":4552:4595  Client.EVM2AnyMessage memory evm2AnyMessage */\n      0x00\n      swap1\n        /* \"Ccip/TokenTransfer.sol\":4598:4723  _buildCCIPMessage(... */\n      tag_128\n      swap1\n        /* \"Ccip/TokenTransfer.sol\":4629:4638  _receiver */\n      dup8\n      swap1\n        /* \"Ccip/TokenTransfer.sol\":4652:4658  _token */\n      dup8\n      swap1\n        /* \"Ccip/TokenTransfer.sol\":4672:4679  _amount */\n      dup8\n      swap1\n      sub(shl(0xa0, 0x01), 0x01)\n        /* \"Ccip/TokenTransfer.sol\":4701:4712  s_linkToken */\n      and\n        /* \"Ccip/TokenTransfer.sol\":4598:4615  _buildCCIPMessage */\n      tag_85\n        /* \"Ccip/TokenTransfer.sol\":4598:4723  _buildCCIPMessage(... */\n      jump\t// in\n    tag_128:\n        /* \"Ccip/TokenTransfer.sol\":4801:4809  s_router */\n      sload(0x03)\n        /* \"Ccip/TokenTransfer.sol\":4801:4893  s_router.getFee(... */\n      mload(0x40)\n      shl(0xe0, 0x20487ded)\n      dup2\n      mstore\n        /* \"Ccip/TokenTransfer.sol\":4552:4723  Client.EVM2AnyMessage memory evm2AnyMessage = _buildCCIPMessage(... */\n      swap2\n      swap3\n      pop\n        /* \"Ccip/TokenTransfer.sol\":4786:4798  uint256 fees */\n      0x00\n      swap2\n      sub(shl(0xa0, 0x01), 0x01)\n        /* \"Ccip/TokenTransfer.sol\":4801:4809  s_router */\n      swap1\n      swap2\n      and\n      swap1\n        /* \"Ccip/TokenTransfer.sol\":4801:4816  s_router.getFee */\n      0x20487ded\n      swap1\n        /* \"Ccip/TokenTransfer.sol\":4801:4893  s_router.getFee(... */\n      tag_129\n      swap1\n        /* \"Ccip/TokenTransfer.sol\":4830:4855  _destinationChainSelector */\n      dup12\n      swap1\n        /* \"Ccip/TokenTransfer.sol\":4552:4723  Client.EVM2AnyMessage memory evm2AnyMessage = _buildCCIPMessage(... */\n      dup7\n      swap1\n        /* \"Ccip/TokenTransfer.sol\":4801:4893  s_router.getFee(... */\n      0x04\n      add\n      tag_87\n      jump\t// in\n    tag_129:\n      0x20\n      mload(0x40)\n      dup1\n      dup4\n      sub\n      dup2\n      dup7\n      gas\n      staticcall\n      iszero\n      dup1\n      iszero\n      tag_131\n      jumpi\n      returndatasize\n      0x00\n      dup1\n      returndatacopy\n      revert(0x00, returndatasize)\n    tag_131:\n      pop\n      pop\n      pop\n      pop\n      mload(0x40)\n      returndatasize\n      not(0x1f)\n      0x1f\n      dup3\n      add\n      and\n      dup3\n      add\n      dup1\n      0x40\n      mstore\n      pop\n      dup2\n      add\n      swap1\n      tag_132\n      swap2\n      swap1\n      tag_69\n      jump\t// in\n    tag_132:\n        /* \"Ccip/TokenTransfer.sol\":4915:4926  s_linkToken */\n      0x04\n      dup1\n      sload\n        /* \"Ccip/TokenTransfer.sol\":4915:4951  s_linkToken.balanceOf(address(this)) */\n      mload(0x40)\n      shl(0xe0, 0x70a08231)\n      dup2\n      mstore\n        /* \"Ccip/TokenTransfer.sol\":4945:4949  this */\n      address\n        /* \"Ccip/TokenTransfer.sol\":4915:4951  s_linkToken.balanceOf(address(this)) */\n      swap3\n      dup2\n      add\n        /* \"#utility.yul\":2048:2099   */\n      swap3\n      swap1\n      swap3\n      mstore\n        /* \"Ccip/TokenTransfer.sol\":4786:4893  uint256 fees = s_router.getFee(... */\n      swap2\n      swap3\n      pop\n      sub(shl(0xa0, 0x01), 0x01)\n        /* \"Ccip/TokenTransfer.sol\":4915:4926  s_linkToken */\n      swap1\n      swap2\n      and\n      swap1\n        /* \"Ccip/TokenTransfer.sol\":4915:4936  s_linkToken.balanceOf */\n      0x70a08231\n      swap1\n        /* \"#utility.yul\":2021:2039   */\n      0x24\n      add\n        /* \"Ccip/TokenTransfer.sol\":4915:4951  s_linkToken.balanceOf(address(this)) */\n      0x20\n      mload(0x40)\n      dup1\n      dup4\n      sub\n      dup2\n      dup7\n      gas\n      staticcall\n      iszero\n      dup1\n      iszero\n      tag_135\n      jumpi\n      returndatasize\n      0x00\n      dup1\n      returndatacopy\n      revert(0x00, returndatasize)\n    tag_135:\n      pop\n      pop\n      pop\n      pop\n      mload(0x40)\n      returndatasize\n      not(0x1f)\n      0x1f\n      dup3\n      add\n      and\n      dup3\n      add\n      dup1\n      0x40\n      mstore\n      pop\n      dup2\n      add\n      swap1\n      tag_136\n      swap2\n      swap1\n      tag_69\n      jump\t// in\n    tag_136:\n        /* \"Ccip/TokenTransfer.sol\":4908:4912  fees */\n      dup2\n        /* \"Ccip/TokenTransfer.sol\":4908:4951  fees > s_linkToken.balanceOf(address(this)) */\n      gt\n        /* \"Ccip/TokenTransfer.sol\":4904:5032  if (fees > s_linkToken.balanceOf(address(this)))... */\n      iszero\n      tag_137\n      jumpi\n        /* \"Ccip/TokenTransfer.sol\":4989:5000  s_linkToken */\n      0x04\n      dup1\n      sload\n        /* \"Ccip/TokenTransfer.sol\":4989:5025  s_linkToken.balanceOf(address(this)) */\n      mload(0x40)\n      shl(0xe0, 0x70a08231)\n      dup2\n      mstore\n        /* \"Ccip/TokenTransfer.sol\":5019:5023  this */\n      address\n        /* \"Ccip/TokenTransfer.sol\":4989:5025  s_linkToken.balanceOf(address(this)) */\n      swap3\n      dup2\n      add\n        /* \"#utility.yul\":2048:2099   */\n      swap3\n      swap1\n      swap3\n      mstore\n      sub(shl(0xa0, 0x01), 0x01)\n        /* \"Ccip/TokenTransfer.sol\":4989:5000  s_linkToken */\n      and\n      swap1\n        /* \"Ccip/TokenTransfer.sol\":4989:5010  s_linkToken.balanceOf */\n      0x70a08231\n      swap1\n        /* \"#utility.yul\":2021:2039   */\n      0x24\n      add\n        /* \"Ccip/TokenTransfer.sol\":4989:5025  s_linkToken.balanceOf(address(this)) */\n      0x20\n      mload(0x40)\n      dup1\n      dup4\n      sub\n      dup2\n      dup7\n      gas\n      staticcall\n      iszero\n      dup1\n      iszero\n      tag_140\n      jumpi\n      returndatasize\n      0x00\n      dup1\n      returndatacopy\n      revert(0x00, returndatasize)\n    tag_140:\n      pop\n      pop\n      pop\n      pop\n      mload(0x40)\n      returndatasize\n      not(0x1f)\n      0x1f\n      dup3\n      add\n      and\n      dup3\n      add\n      dup1\n      0x40\n      mstore\n      pop\n      dup2\n      add\n      swap1\n      tag_141\n      swap2\n      swap1\n      tag_69\n      jump\t// in\n    tag_141:\n        /* \"Ccip/TokenTransfer.sol\":4972:5032  NotEnoughBalance(s_linkToken.balanceOf(address(this)), fees) */\n      mload(0x40)\n      shl(0xe1, 0x4787a103)\n      dup2\n      mstore\n      0x04\n      dup2\n      add\n        /* \"#utility.yul\":5681:5706   */\n      swap2\n      swap1\n      swap2\n      mstore\n        /* \"#utility.yul\":5722:5740   */\n      0x24\n      dup2\n      add\n        /* \"#utility.yul\":5715:5749   */\n      dup3\n      swap1\n      mstore\n        /* \"#utility.yul\":5654:5672   */\n      0x44\n      add\n        /* \"Ccip/TokenTransfer.sol\":4972:5032  NotEnoughBalance(s_linkToken.balanceOf(address(this)), fees) */\n      tag_81\n        /* \"#utility.yul\":5507:5755   */\n      jump\n        /* \"Ccip/TokenTransfer.sol\":4904:5032  if (fees > s_linkToken.balanceOf(address(this)))... */\n    tag_137:\n        /* \"Ccip/TokenTransfer.sol\":5150:5161  s_linkToken */\n      0x04\n      dup1\n      sload\n        /* \"Ccip/TokenTransfer.sol\":5178:5186  s_router */\n      sload(0x03)\n        /* \"Ccip/TokenTransfer.sol\":5150:5194  s_linkToken.approve(address(s_router), fees) */\n      mload(0x40)\n      shl(0xe0, 0x095ea7b3)\n      dup2\n      mstore\n      sub(shl(0xa0, 0x01), 0x01)\n        /* \"Ccip/TokenTransfer.sol\":5178:5186  s_router */\n      swap2\n      dup3\n      and\n        /* \"Ccip/TokenTransfer.sol\":5150:5194  s_linkToken.approve(address(s_router), fees) */\n      swap4\n      dup2\n      add\n        /* \"#utility.yul\":2914:2965   */\n      swap4\n      swap1\n      swap4\n      mstore\n        /* \"#utility.yul\":2981:2999   */\n      0x24\n      dup4\n      add\n        /* \"#utility.yul\":2974:3008   */\n      dup5\n      swap1\n      mstore\n        /* \"Ccip/TokenTransfer.sol\":5150:5161  s_linkToken */\n      and\n      swap1\n        /* \"Ccip/TokenTransfer.sol\":5150:5169  s_linkToken.approve */\n      0x095ea7b3\n      swap1\n        /* \"#utility.yul\":2887:2905   */\n      0x44\n      add\n        /* \"Ccip/TokenTransfer.sol\":5150:5194  s_linkToken.approve(address(s_router), fees) */\n      0x20\n      mload(0x40)\n      dup1\n      dup4\n      sub\n      dup2\n      0x00\n      dup8\n      gas\n      call\n      iszero\n      dup1\n      iszero\n      tag_145\n      jumpi\n      returndatasize\n      0x00\n      dup1\n      returndatacopy\n      revert(0x00, returndatasize)\n    tag_145:\n      pop\n      pop\n      pop\n      pop\n      mload(0x40)\n      returndatasize\n      not(0x1f)\n      0x1f\n      dup3\n      add\n      and\n      dup3\n      add\n      dup1\n      0x40\n      mstore\n      pop\n      dup2\n      add\n      swap1\n      tag_146\n      swap2\n      swap1\n      tag_76\n      jump\t// in\n    tag_146:\n      pop\n        /* \"Ccip/TokenTransfer.sol\":5348:5356  s_router */\n      sload(0x03)\n        /* \"Ccip/TokenTransfer.sol\":5317:5367  IERC20(_token).approve(address(s_router), _amount) */\n      mload(0x40)\n      shl(0xe0, 0x095ea7b3)\n      dup2\n      mstore\n      sub(shl(0xa0, 0x01), 0x01)\n        /* \"Ccip/TokenTransfer.sol\":5348:5356  s_router */\n      swap2\n      dup3\n      and\n        /* \"Ccip/TokenTransfer.sol\":5317:5367  IERC20(_token).approve(address(s_router), _amount) */\n      0x04\n      dup3\n      add\n        /* \"#utility.yul\":2914:2965   */\n      mstore\n        /* \"#utility.yul\":2981:2999   */\n      0x24\n      dup2\n      add\n        /* \"#utility.yul\":2974:3008   */\n      dup8\n      swap1\n      mstore\n        /* \"Ccip/TokenTransfer.sol\":5317:5339  IERC20(_token).approve */\n      swap1\n      dup8\n      and\n      swap1\n      0x095ea7b3\n      swap1\n        /* \"#utility.yul\":2887:2905   */\n      0x44\n      add\n        /* \"Ccip/TokenTransfer.sol\":5317:5367  IERC20(_token).approve(address(s_router), _amount) */\n      0x20\n      mload(0x40)\n      dup1\n      dup4\n      sub\n      dup2\n      0x00\n      dup8\n      gas\n      call\n      iszero\n      dup1\n      iszero\n      tag_149\n      jumpi\n      returndatasize\n      0x00\n      dup1\n      returndatacopy\n      revert(0x00, returndatasize)\n    tag_149:\n      pop\n      pop\n      pop\n      pop\n      mload(0x40)\n      returndatasize\n      not(0x1f)\n      0x1f\n      dup3\n      add\n      and\n      dup3\n      add\n      dup1\n      0x40\n      mstore\n      pop\n      dup2\n      add\n      swap1\n      tag_150\n      swap2\n      swap1\n      tag_76\n      jump\t// in\n    tag_150:\n      pop\n        /* \"Ccip/TokenTransfer.sol\":5471:5479  s_router */\n      sload(0x03)\n        /* \"Ccip/TokenTransfer.sol\":5471:5565  s_router.ccipSend(... */\n      mload(0x40)\n      shl(0xe0, 0x96f4e9f9)\n      dup2\n      mstore\n      sub(shl(0xa0, 0x01), 0x01)\n        /* \"Ccip/TokenTransfer.sol\":5471:5479  s_router */\n      swap1\n      swap2\n      and\n      swap1\n        /* \"Ccip/TokenTransfer.sol\":5471:5488  s_router.ccipSend */\n      0x96f4e9f9\n      swap1\n        /* \"Ccip/TokenTransfer.sol\":5471:5565  s_router.ccipSend(... */\n      tag_151\n      swap1\n        /* \"Ccip/TokenTransfer.sol\":5502:5527  _destinationChainSelector */\n      dup12\n      swap1\n        /* \"Ccip/TokenTransfer.sol\":5541:5555  evm2AnyMessage */\n      dup7\n      swap1\n        /* \"Ccip/TokenTransfer.sol\":5471:5565  s_router.ccipSend(... */\n      0x04\n      add\n      tag_87\n      jump\t// in\n    tag_151:\n      0x20\n      mload(0x40)\n      dup1\n      dup4\n      sub\n      dup2\n      0x00\n      dup8\n      gas\n      call\n      iszero\n      dup1\n      iszero\n      tag_153\n      jumpi\n      returndatasize\n      0x00\n      dup1\n      returndatacopy\n      revert(0x00, returndatasize)\n    tag_153:\n      pop\n      pop\n      pop\n      pop\n      mload(0x40)\n      returndatasize\n      not(0x1f)\n      0x1f\n      dup3\n      add\n      and\n      dup3\n      add\n      dup1\n      0x40\n      mstore\n      pop\n      dup2\n      add\n      swap1\n      tag_154\n      swap2\n      swap1\n      tag_69\n      jump\t// in\n    tag_154:\n        /* \"Ccip/TokenTransfer.sol\":5792:5803  s_linkToken */\n      sload(0x04)\n        /* \"Ccip/TokenTransfer.sol\":5627:5832  TokensTransferred(... */\n      0x40\n      dup1\n      mload\n      sub(shl(0xa0, 0x01), 0x01)\n        /* \"#utility.yul\":6264:6279   */\n      dup1\n      dup13\n      and\n        /* \"#utility.yul\":6246:6280   */\n      dup3\n      mstore\n        /* \"#utility.yul\":6316:6331   */\n      dup1\n      dup12\n      and\n        /* \"#utility.yul\":6311:6313   */\n      0x20\n        /* \"#utility.yul\":6296:6314   */\n      dup4\n      add\n        /* \"#utility.yul\":6289:6332   */\n      mstore\n        /* \"#utility.yul\":6348:6366   */\n      swap2\n      dup2\n      add\n        /* \"#utility.yul\":6341:6375   */\n      dup10\n      swap1\n      mstore\n        /* \"Ccip/TokenTransfer.sol\":5792:5803  s_linkToken */\n      swap2\n      and\n        /* \"#utility.yul\":6406:6408   */\n      0x60\n        /* \"#utility.yul\":6391:6409   */\n      dup3\n      add\n        /* \"#utility.yul\":6384:6427   */\n      mstore\n        /* \"#utility.yul\":6458:6461   */\n      0x80\n        /* \"#utility.yul\":6443:6462   */\n      dup2\n      add\n        /* \"#utility.yul\":6436:6471   */\n      dup4\n      swap1\n      mstore\n        /* \"Ccip/TokenTransfer.sol\":5459:5565  messageId = s_router.ccipSend(... */\n      swap1\n      swap5\n      pop\n        /* \"Ccip/TokenTransfer.sol\":5627:5832  TokensTransferred(... */\n      0xffffffffffffffff\n      dup10\n      and\n      swap1\n        /* \"Ccip/TokenTransfer.sol\":5459:5565  messageId = s_router.ccipSend(... */\n      dup6\n      swap1\n        /* \"Ccip/TokenTransfer.sol\":5627:5832  TokensTransferred(... */\n      0xc15fb748c32ba4eb29c1c311e78533f93b4425eab49ea87c6fe4279ecadca043\n      swap1\n        /* \"#utility.yul\":6195:6198   */\n      0xa0\n        /* \"#utility.yul\":6180:6199   */\n      add\n        /* \"Ccip/TokenTransfer.sol\":5627:5832  TokensTransferred(... */\n      tag_103\n        /* \"#utility.yul\":5949:6477   */\n      jump\n        /* \"Ccip/TokenTransfer.sol\":3245:3440  function allowlistDestinationChain(... */\n    tag_56:\n        /* \"@chainlink/contracts-ccip/src/v0.8/shared/access/ConfirmedOwnerWithProposal.sol\":1941:1961  _validateOwnership() */\n      tag_157\n        /* \"@chainlink/contracts-ccip/src/v0.8/shared/access/ConfirmedOwnerWithProposal.sol\":1941:1959  _validateOwnership */\n      tag_63\n        /* \"@chainlink/contracts-ccip/src/v0.8/shared/access/ConfirmedOwnerWithProposal.sol\":1941:1961  _validateOwnership() */\n      jump\t// in\n    tag_157:\n        /* \"Ccip/TokenTransfer.sol\":3379:3423  allowlistedChains[_destinationChainSelector] */\n      0xffffffffffffffff\n      swap2\n      swap1\n      swap2\n      and\n      0x00\n      swap1\n      dup2\n      mstore\n        /* \"Ccip/TokenTransfer.sol\":3379:3396  allowlistedChains */\n      0x02\n        /* \"Ccip/TokenTransfer.sol\":3379:3423  allowlistedChains[_destinationChainSelector] */\n      0x20\n      mstore\n      0x40\n      swap1\n      keccak256\n        /* \"Ccip/TokenTransfer.sol\":3379:3433  allowlistedChains[_destinationChainSelector] = allowed */\n      dup1\n      sload\n      not(0xff)\n      and\n      swap2\n      iszero\n      iszero\n      swap2\n      swap1\n      swap2\n      or\n      swap1\n      sstore\n        /* \"Ccip/TokenTransfer.sol\":3245:3440  function allowlistDestinationChain(... */\n      jump\t// out\n        /* \"@chainlink/contracts-ccip/src/v0.8/shared/access/ConfirmedOwnerWithProposal.sol\":811:909  function transferOwnership(address to) public override onlyOwner {... */\n    tag_60:\n        /* \"@chainlink/contracts-ccip/src/v0.8/shared/access/ConfirmedOwnerWithProposal.sol\":1941:1961  _validateOwnership() */\n      tag_160\n        /* \"@chainlink/contracts-ccip/src/v0.8/shared/access/ConfirmedOwnerWithProposal.sol\":1941:1959  _validateOwnership */\n      tag_63\n        /* \"@chainlink/contracts-ccip/src/v0.8/shared/access/ConfirmedOwnerWithProposal.sol\":1941:1961  _validateOwnership() */\n      jump\t// in\n    tag_160:\n        /* \"@chainlink/contracts-ccip/src/v0.8/shared/access/ConfirmedOwnerWithProposal.sol\":882:904  _transferOwnership(to) */\n      tag_162\n        /* \"@chainlink/contracts-ccip/src/v0.8/shared/access/ConfirmedOwnerWithProposal.sol\":901:903  to */\n      dup2\n        /* \"@chainlink/contracts-ccip/src/v0.8/shared/access/ConfirmedOwnerWithProposal.sol\":882:900  _transferOwnership */\n      tag_163\n        /* \"@chainlink/contracts-ccip/src/v0.8/shared/access/ConfirmedOwnerWithProposal.sol\":882:904  _transferOwnership(to) */\n      jump\t// in\n    tag_162:\n        /* \"@chainlink/contracts-ccip/src/v0.8/shared/access/ConfirmedOwnerWithProposal.sol\":811:909  function transferOwnership(address to) public override onlyOwner {... */\n      pop\n      jump\t// out\n        /* \"@chainlink/contracts-ccip/src/v0.8/shared/access/ConfirmedOwnerWithProposal.sol\":1715:1826  function _validateOwnership() internal view {... */\n    tag_63:\n        /* \"@chainlink/contracts-ccip/src/v0.8/shared/access/ConfirmedOwnerWithProposal.sol\":1787:1794  s_owner */\n      and(sub(shl(0xa0, 0x01), 0x01), sload(0x00))\n        /* \"@chainlink/contracts-ccip/src/v0.8/shared/access/ConfirmedOwnerWithProposal.sol\":1773:1783  msg.sender */\n      caller\n        /* \"@chainlink/contracts-ccip/src/v0.8/shared/access/ConfirmedOwnerWithProposal.sol\":1773:1794  msg.sender == s_owner */\n      eq\n        /* \"@chainlink/contracts-ccip/src/v0.8/shared/access/ConfirmedOwnerWithProposal.sol\":1765:1821  require(msg.sender == s_owner, \"Only callable by owner\") */\n      tag_165\n      jumpi\n      mload(0x40)\n      shl(0xe5, 0x461bcd)\n      dup2\n      mstore\n        /* \"#utility.yul\":7625:7627   */\n      0x20\n        /* \"@chainlink/contracts-ccip/src/v0.8/shared/access/ConfirmedOwnerWithProposal.sol\":1765:1821  require(msg.sender == s_owner, \"Only callable by owner\") */\n      0x04\n      dup3\n      add\n        /* \"#utility.yul\":7607:7628   */\n      mstore\n        /* \"#utility.yul\":7664:7666   */\n      0x16\n        /* \"#utility.yul\":7644:7662   */\n      0x24\n      dup3\n      add\n        /* \"#utility.yul\":7637:7667   */\n      mstore\n      shl(0x51, 0x27b7363c9031b0b63630b1363290313c9037bbb732b9)\n        /* \"#utility.yul\":7683:7701   */\n      0x44\n      dup3\n      add\n        /* \"#utility.yul\":7676:7728   */\n      mstore\n        /* \"#utility.yul\":7745:7763   */\n      0x64\n      add\n        /* \"@chainlink/contracts-ccip/src/v0.8/shared/access/ConfirmedOwnerWithProposal.sol\":1765:1821  require(msg.sender == s_owner, \"Only callable by owner\") */\n      tag_81\n        /* \"#utility.yul\":7423:7769   */\n      jump\n        /* \"@chainlink/contracts-ccip/src/v0.8/shared/access/ConfirmedOwnerWithProposal.sol\":1765:1821  require(msg.sender == s_owner, \"Only callable by owner\") */\n    tag_165:\n        /* \"@chainlink/contracts-ccip/src/v0.8/shared/access/ConfirmedOwnerWithProposal.sol\":1715:1826  function _validateOwnership() internal view {... */\n      jump\t// out\n        /* \"Ccip/TokenTransfer.sol\":8795:10012  function _buildCCIPMessage(... */\n    tag_85:\n        /* \"Ccip/TokenTransfer.sol\":8961:8989  Client.EVM2AnyMessage memory */\n      tag_168\n      mload(0x40)\n      dup1\n      0xa0\n      add\n      0x40\n      mstore\n      dup1\n      0x60\n      dup2\n      mstore\n      0x20\n      add\n      0x60\n      dup2\n      mstore\n      0x20\n      add\n      0x60\n      dup2\n      mstore\n      0x20\n      add\n      and(sub(shl(0xa0, 0x01), 0x01), 0x00)\n      dup2\n      mstore\n      0x20\n      add\n      0x60\n      dup2\n      mstore\n      pop\n      swap1\n      jump\n    tag_168:\n        /* \"Ccip/TokenTransfer.sol\":9092:9122  new Client.EVMTokenAmount[](1) */\n      0x40\n      dup1\n      mload\n        /* \"Ccip/TokenTransfer.sol\":9120:9121  1 */\n      0x01\n        /* \"Ccip/TokenTransfer.sol\":9092:9122  new Client.EVMTokenAmount[](1) */\n      dup1\n      dup3\n      mstore\n      dup2\n      dup4\n      add\n      swap1\n      swap3\n      mstore\n        /* \"Ccip/TokenTransfer.sol\":9034:9089  Client.EVMTokenAmount[]... */\n      0x00\n      swap2\n        /* \"Ccip/TokenTransfer.sol\":9092:9122  new Client.EVMTokenAmount[](1) */\n      dup2\n      0x20\n      add\n    tag_175:\n      0x40\n      dup1\n      mload\n      dup1\n      dup3\n      add\n      swap1\n      swap2\n      mstore\n      0x00\n      dup1\n      dup3\n      mstore\n      0x20\n      dup3\n      add\n      mstore\n      dup2\n      mstore\n      0x20\n      add\n      swap1\n      0x01\n      swap1\n      sub\n      swap1\n      dup2\n      tag_175\n      jumpi\n      swap1\n      pop\n      pop\n        /* \"Ccip/TokenTransfer.sol\":9034:9122  Client.EVMTokenAmount[]... */\n      swap1\n      pop\n        /* \"Ccip/TokenTransfer.sol\":9150:9239  Client.EVMTokenAmount({... */\n      mload(0x40)\n      dup1\n      0x40\n      add\n      0x40\n      mstore\n      dup1\n        /* \"Ccip/TokenTransfer.sol\":9193:9199  _token */\n      dup7\n      sub(shl(0xa0, 0x01), 0x01)\n        /* \"Ccip/TokenTransfer.sol\":9150:9239  Client.EVMTokenAmount({... */\n      and\n      dup2\n      mstore\n      0x20\n      add\n        /* \"Ccip/TokenTransfer.sol\":9221:9228  _amount */\n      dup6\n        /* \"Ccip/TokenTransfer.sol\":9150:9239  Client.EVMTokenAmount({... */\n      dup2\n      mstore\n      pop\n        /* \"Ccip/TokenTransfer.sol\":9132:9144  tokenAmounts */\n      dup2\n        /* \"Ccip/TokenTransfer.sol\":9145:9146  0 */\n      0x00\n        /* \"Ccip/TokenTransfer.sol\":9132:9147  tokenAmounts[0] */\n      dup2\n      mload\n      dup2\n      lt\n      tag_179\n      jumpi\n      tag_179\n      tag_180\n      jump\t// in\n    tag_179:\n      0x20\n      swap1\n      dup2\n      mul\n      swap2\n      swap1\n      swap2\n      add\n      add\n        /* \"Ccip/TokenTransfer.sol\":9132:9239  tokenAmounts[0] = Client.EVMTokenAmount({... */\n      mstore\n        /* \"Ccip/TokenTransfer.sol\":9383:10005  Client.EVM2AnyMessage({... */\n      0x40\n      dup1\n      mload\n      0xa0\n      dup2\n      add\n      swap1\n      swap2\n      mstore\n      sub(shl(0xa0, 0x01), 0x01)\n        /* \"#utility.yul\":2066:2098   */\n      dup8\n      and\n        /* \"Ccip/TokenTransfer.sol\":9433:9454  abi.encode(_receiver) */\n      0xc0\n      dup3\n      add\n        /* \"#utility.yul\":2048:2099   */\n      mstore\n        /* \"Ccip/TokenTransfer.sol\":9383:10005  Client.EVM2AnyMessage({... */\n      dup1\n        /* \"#utility.yul\":2021:2039   */\n      0xe0\n      dup2\n      add\n        /* \"Ccip/TokenTransfer.sol\":9433:9454  abi.encode(_receiver) */\n      mload(0x40)\n      0x20\n      dup2\n      dup4\n      sub\n      sub\n      dup2\n      mstore\n      swap1\n      0x40\n      mstore\n        /* \"Ccip/TokenTransfer.sol\":9383:10005  Client.EVM2AnyMessage({... */\n      dup2\n      mstore\n      0x20\n      add\n      mload(0x40)\n      dup1\n      0x20\n      add\n      0x40\n      mstore\n      dup1\n      0x00\n      dup2\n      mstore\n      pop\n      dup2\n      mstore\n      0x20\n      add\n        /* \"Ccip/TokenTransfer.sol\":9555:9567  tokenAmounts */\n      dup3\n        /* \"Ccip/TokenTransfer.sol\":9383:10005  Client.EVM2AnyMessage({... */\n      dup2\n      mstore\n      0x20\n      add\n        /* \"Ccip/TokenTransfer.sol\":9974:9990  _feeTokenAddress */\n      dup5\n      sub(shl(0xa0, 0x01), 0x01)\n        /* \"Ccip/TokenTransfer.sol\":9383:10005  Client.EVM2AnyMessage({... */\n      and\n      dup2\n      mstore\n      0x20\n      add\n        /* \"Ccip/TokenTransfer.sol\":9646:9840  Client._argsToBytes(... */\n      tag_182\n        /* \"Ccip/TokenTransfer.sol\":9786:9822  Client.EVMExtraArgsV1({gasLimit: 0}) */\n      mload(0x40)\n      dup1\n      0x20\n      add\n      0x40\n      mstore\n      dup1\n        /* \"Ccip/TokenTransfer.sol\":9819:9820  0 */\n      0x00\n        /* \"Ccip/TokenTransfer.sol\":9786:9822  Client.EVMExtraArgsV1({gasLimit: 0}) */\n      dup2\n      mstore\n      pop\n        /* \"@chainlink/contracts-ccip/src/v0.8/ccip/libraries/Client.sol\":1394:1450  abi.encodeWithSelector(EVM_EXTRA_ARGS_V1_TAG, extraArgs) */\n      0x40\n      dup1\n      mload\n        /* \"#utility.yul\":8614:8627   */\n      swap2\n      mload\n        /* \"@chainlink/contracts-ccip/src/v0.8/ccip/libraries/Client.sol\":1394:1450  abi.encodeWithSelector(EVM_EXTRA_ARGS_V1_TAG, extraArgs) */\n      0x24\n      dup1\n      dup5\n      add\n        /* \"#utility.yul\":8596:8628   */\n      swap2\n      swap1\n      swap2\n      mstore\n        /* \"@chainlink/contracts-ccip/src/v0.8/ccip/libraries/Client.sol\":1394:1450  abi.encodeWithSelector(EVM_EXTRA_ARGS_V1_TAG, extraArgs) */\n      dup2\n      mload\n      dup1\n      dup5\n      sub\n      swap1\n      swap2\n      add\n      dup2\n      mstore\n        /* \"#utility.yul\":8569:8587   */\n      0x44\n      swap1\n      swap3\n      add\n        /* \"@chainlink/contracts-ccip/src/v0.8/ccip/libraries/Client.sol\":1394:1450  abi.encodeWithSelector(EVM_EXTRA_ARGS_V1_TAG, extraArgs) */\n      swap1\n      mstore\n      0x20\n      dup2\n      add\n      dup1\n      mload\n      sub(shl(0xe0, 0x01), 0x01)\n      and\n      shl(0xe0, 0x97a657c9)\n      or\n      swap1\n      mstore\n      swap1\n        /* \"@chainlink/contracts-ccip/src/v0.8/ccip/libraries/Client.sol\":1285:1455  function _argsToBytes(EVMExtraArgsV1 memory extraArgs) internal pure returns (bytes memory bts) {... */\n      jump\n        /* \"Ccip/TokenTransfer.sol\":9646:9840  Client._argsToBytes(... */\n    tag_182:\n        /* \"Ccip/TokenTransfer.sol\":9383:10005  Client.EVM2AnyMessage({... */\n      swap1\n      mstore\n        /* \"Ccip/TokenTransfer.sol\":9364:10005  return... */\n      swap7\n        /* \"Ccip/TokenTransfer.sol\":8795:10012  function _buildCCIPMessage(... */\n      swap6\n      pop\n      pop\n      pop\n      pop\n      pop\n      pop\n      jump\t// out\n        /* \"@chainlink/contracts-ccip/src/v0.8/shared/access/ConfirmedOwnerWithProposal.sol\":1482:1670  function _transferOwnership(address to) private {... */\n    tag_163:\n        /* \"@chainlink/contracts-ccip/src/v0.8/shared/access/ConfirmedOwnerWithProposal.sol\":1550:1560  msg.sender */\n      caller\n      sub(shl(0xa0, 0x01), 0x01)\n        /* \"@chainlink/contracts-ccip/src/v0.8/shared/access/ConfirmedOwnerWithProposal.sol\":1544:1560  to != msg.sender */\n      dup3\n      and\n      sub\n        /* \"@chainlink/contracts-ccip/src/v0.8/shared/access/ConfirmedOwnerWithProposal.sol\":1536:1588  require(to != msg.sender, \"Cannot transfer to self\") */\n      tag_185\n      jumpi\n      mload(0x40)\n      shl(0xe5, 0x461bcd)\n      dup2\n      mstore\n        /* \"#utility.yul\":8240:8242   */\n      0x20\n        /* \"@chainlink/contracts-ccip/src/v0.8/shared/access/ConfirmedOwnerWithProposal.sol\":1536:1588  require(to != msg.sender, \"Cannot transfer to self\") */\n      0x04\n      dup3\n      add\n        /* \"#utility.yul\":8222:8243   */\n      mstore\n        /* \"#utility.yul\":8279:8281   */\n      0x17\n        /* \"#utility.yul\":8259:8277   */\n      0x24\n      dup3\n      add\n        /* \"#utility.yul\":8252:8282   */\n      mstore\n        /* \"#utility.yul\":8318:8343   */\n      0x43616e6e6f74207472616e7366657220746f2073656c66000000000000000000\n        /* \"#utility.yul\":8298:8316   */\n      0x44\n      dup3\n      add\n        /* \"#utility.yul\":8291:8344   */\n      mstore\n        /* \"#utility.yul\":8361:8379   */\n      0x64\n      add\n        /* \"@chainlink/contracts-ccip/src/v0.8/shared/access/ConfirmedOwnerWithProposal.sol\":1536:1588  require(to != msg.sender, \"Cannot transfer to self\") */\n      tag_81\n        /* \"#utility.yul\":8038:8385   */\n      jump\n        /* \"@chainlink/contracts-ccip/src/v0.8/shared/access/ConfirmedOwnerWithProposal.sol\":1536:1588  require(to != msg.sender, \"Cannot transfer to self\") */\n    tag_185:\n        /* \"@chainlink/contracts-ccip/src/v0.8/shared/access/ConfirmedOwnerWithProposal.sol\":1595:1609  s_pendingOwner */\n      0x01\n        /* \"@chainlink/contracts-ccip/src/v0.8/shared/access/ConfirmedOwnerWithProposal.sol\":1595:1614  s_pendingOwner = to */\n      dup1\n      sload\n      not(sub(shl(0xa0, 0x01), 0x01))\n      and\n      sub(shl(0xa0, 0x01), 0x01)\n      dup4\n      dup2\n      and\n      swap2\n      dup3\n      or\n      swap1\n      swap3\n      sstore\n      0x00\n        /* \"@chainlink/contracts-ccip/src/v0.8/shared/access/ConfirmedOwnerWithProposal.sol\":1653:1660  s_owner */\n      dup1\n      sload\n        /* \"@chainlink/contracts-ccip/src/v0.8/shared/access/ConfirmedOwnerWithProposal.sol\":1626:1665  OwnershipTransferRequested(s_owner, to) */\n      mload(0x40)\n        /* \"@chainlink/contracts-ccip/src/v0.8/shared/access/ConfirmedOwnerWithProposal.sol\":1595:1614  s_pendingOwner = to */\n      swap3\n      swap4\n        /* \"@chainlink/contracts-ccip/src/v0.8/shared/access/ConfirmedOwnerWithProposal.sol\":1653:1660  s_owner */\n      and\n      swap2\n        /* \"@chainlink/contracts-ccip/src/v0.8/shared/access/ConfirmedOwnerWithProposal.sol\":1626:1665  OwnershipTransferRequested(s_owner, to) */\n      0xed8889f560326eb138920d842192f0eb3dd22b4f139c87a2c57538e05bae1278\n      swap2\n      swap1\n      log3\n        /* \"@chainlink/contracts-ccip/src/v0.8/shared/access/ConfirmedOwnerWithProposal.sol\":1482:1670  function _transferOwnership(address to) private {... */\n      pop\n      jump\t// out\n        /* \"#utility.yul\":14:185   */\n    tag_191:\n        /* \"#utility.yul\":81:101   */\n      dup1\n      calldataload\n        /* \"#utility.yul\":141:159   */\n      0xffffffffffffffff\n        /* \"#utility.yul\":130:160   */\n      dup2\n      and\n        /* \"#utility.yul\":120:161   */\n      dup2\n      eq\n        /* \"#utility.yul\":110:179   */\n      tag_198\n      jumpi\n        /* \"#utility.yul\":175:176   */\n      0x00\n        /* \"#utility.yul\":172:173   */\n      dup1\n        /* \"#utility.yul\":165:177   */\n      revert\n        /* \"#utility.yul\":110:179   */\n    tag_198:\n        /* \"#utility.yul\":14:185   */\n      swap2\n      swap1\n      pop\n      jump\t// out\n        /* \"#utility.yul\":190:374   */\n    tag_18:\n        /* \"#utility.yul\":248:254   */\n      0x00\n        /* \"#utility.yul\":301:303   */\n      0x20\n        /* \"#utility.yul\":289:298   */\n      dup3\n        /* \"#utility.yul\":280:287   */\n      dup5\n        /* \"#utility.yul\":276:299   */\n      sub\n        /* \"#utility.yul\":272:304   */\n      slt\n        /* \"#utility.yul\":269:321   */\n      iszero\n      tag_200\n      jumpi\n        /* \"#utility.yul\":317:318   */\n      0x00\n        /* \"#utility.yul\":314:315   */\n      dup1\n        /* \"#utility.yul\":307:319   */\n      revert\n        /* \"#utility.yul\":269:321   */\n    tag_200:\n        /* \"#utility.yul\":340:368   */\n      tag_201\n        /* \"#utility.yul\":358:367   */\n      dup3\n        /* \"#utility.yul\":340:368   */\n      tag_191\n      jump\t// in\n    tag_201:\n        /* \"#utility.yul\":330:368   */\n      swap4\n        /* \"#utility.yul\":190:374   */\n      swap3\n      pop\n      pop\n      pop\n      jump\t// out\n        /* \"#utility.yul\":571:744   */\n    tag_192:\n        /* \"#utility.yul\":639:659   */\n      dup1\n      calldataload\n      sub(shl(0xa0, 0x01), 0x01)\n        /* \"#utility.yul\":688:719   */\n      dup2\n      and\n        /* \"#utility.yul\":678:720   */\n      dup2\n      eq\n        /* \"#utility.yul\":668:738   */\n      tag_198\n      jumpi\n        /* \"#utility.yul\":734:735   */\n      0x00\n        /* \"#utility.yul\":731:732   */\n      dup1\n        /* \"#utility.yul\":724:736   */\n      revert\n        /* \"#utility.yul\":749:1009   */\n    tag_25:\n        /* \"#utility.yul\":817:823   */\n      0x00\n        /* \"#utility.yul\":825:831   */\n      dup1\n        /* \"#utility.yul\":878:880   */\n      0x40\n        /* \"#utility.yul\":866:875   */\n      dup4\n        /* \"#utility.yul\":857:864   */\n      dup6\n        /* \"#utility.yul\":853:876   */\n      sub\n        /* \"#utility.yul\":849:881   */\n      slt\n        /* \"#utility.yul\":846:898   */\n      iszero\n      tag_206\n      jumpi\n        /* \"#utility.yul\":894:895   */\n      0x00\n        /* \"#utility.yul\":891:892   */\n      dup1\n        /* \"#utility.yul\":884:896   */\n      revert\n        /* \"#utility.yul\":846:898   */\n    tag_206:\n        /* \"#utility.yul\":917:946   */\n      tag_207\n        /* \"#utility.yul\":936:945   */\n      dup4\n        /* \"#utility.yul\":917:946   */\n      tag_192\n      jump\t// in\n    tag_207:\n        /* \"#utility.yul\":907:946   */\n      swap2\n      pop\n        /* \"#utility.yul\":965:1003   */\n      tag_208\n        /* \"#utility.yul\":999:1001   */\n      0x20\n        /* \"#utility.yul\":988:997   */\n      dup5\n        /* \"#utility.yul\":984:1002   */\n      add\n        /* \"#utility.yul\":965:1003   */\n      tag_192\n      jump\t// in\n    tag_208:\n        /* \"#utility.yul\":955:1003   */\n      swap1\n      pop\n        /* \"#utility.yul\":749:1009   */\n      swap3\n      pop\n      swap3\n      swap1\n      pop\n      jump\t// out\n        /* \"#utility.yul\":1014:1415   */\n    tag_30:\n        /* \"#utility.yul\":1099:1105   */\n      0x00\n        /* \"#utility.yul\":1107:1113   */\n      dup1\n        /* \"#utility.yul\":1115:1121   */\n      0x00\n        /* \"#utility.yul\":1123:1129   */\n      dup1\n        /* \"#utility.yul\":1176:1179   */\n      0x80\n        /* \"#utility.yul\":1164:1173   */\n      dup6\n        /* \"#utility.yul\":1155:1162   */\n      dup8\n        /* \"#utility.yul\":1151:1174   */\n      sub\n        /* \"#utility.yul\":1147:1180   */\n      slt\n        /* \"#utility.yul\":1144:1197   */\n      iszero\n      tag_210\n      jumpi\n        /* \"#utility.yul\":1193:1194   */\n      0x00\n        /* \"#utility.yul\":1190:1191   */\n      dup1\n        /* \"#utility.yul\":1183:1195   */\n      revert\n        /* \"#utility.yul\":1144:1197   */\n    tag_210:\n        /* \"#utility.yul\":1216:1244   */\n      tag_211\n        /* \"#utility.yul\":1234:1243   */\n      dup6\n        /* \"#utility.yul\":1216:1244   */\n      tag_191\n      jump\t// in\n    tag_211:\n        /* \"#utility.yul\":1206:1244   */\n      swap4\n      pop\n        /* \"#utility.yul\":1263:1301   */\n      tag_212\n        /* \"#utility.yul\":1297:1299   */\n      0x20\n        /* \"#utility.yul\":1286:1295   */\n      dup7\n        /* \"#utility.yul\":1282:1300   */\n      add\n        /* \"#utility.yul\":1263:1301   */\n      tag_192\n      jump\t// in\n    tag_212:\n        /* \"#utility.yul\":1253:1301   */\n      swap3\n      pop\n        /* \"#utility.yul\":1320:1358   */\n      tag_213\n        /* \"#utility.yul\":1354:1356   */\n      0x40\n        /* \"#utility.yul\":1343:1352   */\n      dup7\n        /* \"#utility.yul\":1339:1357   */\n      add\n        /* \"#utility.yul\":1320:1358   */\n      tag_192\n      jump\t// in\n    tag_213:\n        /* \"#utility.yul\":1014:1415   */\n      swap4\n      swap7\n      swap3\n      swap6\n      pop\n        /* \"#utility.yul\":1310:1358   */\n      swap3\n      swap4\n        /* \"#utility.yul\":1405:1407   */\n      0x60\n        /* \"#utility.yul\":1390:1408   */\n      add\n        /* \"#utility.yul\":1377:1409   */\n      calldataload\n      swap3\n      pop\n      pop\n        /* \"#utility.yul\":1014:1415   */\n      jump\t// out\n        /* \"#utility.yul\":1602:1788   */\n    tag_37:\n        /* \"#utility.yul\":1661:1667   */\n      0x00\n        /* \"#utility.yul\":1714:1716   */\n      0x20\n        /* \"#utility.yul\":1702:1711   */\n      dup3\n        /* \"#utility.yul\":1693:1700   */\n      dup5\n        /* \"#utility.yul\":1689:1712   */\n      sub\n        /* \"#utility.yul\":1685:1717   */\n      slt\n        /* \"#utility.yul\":1682:1734   */\n      iszero\n      tag_216\n      jumpi\n        /* \"#utility.yul\":1730:1731   */\n      0x00\n        /* \"#utility.yul\":1727:1728   */\n      dup1\n        /* \"#utility.yul\":1720:1732   */\n      revert\n        /* \"#utility.yul\":1682:1734   */\n    tag_216:\n        /* \"#utility.yul\":1753:1782   */\n      tag_201\n        /* \"#utility.yul\":1772:1781   */\n      dup3\n        /* \"#utility.yul\":1753:1782   */\n      tag_192\n      jump\t// in\n        /* \"#utility.yul\":2110:2228   */\n    tag_194:\n        /* \"#utility.yul\":2196:2201   */\n      dup1\n        /* \"#utility.yul\":2189:2202   */\n      iszero\n        /* \"#utility.yul\":2182:2203   */\n      iszero\n        /* \"#utility.yul\":2175:2180   */\n      dup2\n        /* \"#utility.yul\":2172:2204   */\n      eq\n        /* \"#utility.yul\":2162:2222   */\n      tag_162\n      jumpi\n        /* \"#utility.yul\":2218:2219   */\n      0x00\n        /* \"#utility.yul\":2215:2216   */\n      dup1\n        /* \"#utility.yul\":2208:2220   */\n      revert\n        /* \"#utility.yul\":2233:2546   */\n    tag_55:\n        /* \"#utility.yul\":2297:2303   */\n      0x00\n        /* \"#utility.yul\":2305:2311   */\n      dup1\n        /* \"#utility.yul\":2358:2360   */\n      0x40\n        /* \"#utility.yul\":2346:2355   */\n      dup4\n        /* \"#utility.yul\":2337:2344   */\n      dup6\n        /* \"#utility.yul\":2333:2356   */\n      sub\n        /* \"#utility.yul\":2329:2361   */\n      slt\n        /* \"#utility.yul\":2326:2378   */\n      iszero\n      tag_223\n      jumpi\n        /* \"#utility.yul\":2374:2375   */\n      0x00\n        /* \"#utility.yul\":2371:2372   */\n      dup1\n        /* \"#utility.yul\":2364:2376   */\n      revert\n        /* \"#utility.yul\":2326:2378   */\n    tag_223:\n        /* \"#utility.yul\":2397:2425   */\n      tag_224\n        /* \"#utility.yul\":2415:2424   */\n      dup4\n        /* \"#utility.yul\":2397:2425   */\n      tag_191\n      jump\t// in\n    tag_224:\n        /* \"#utility.yul\":2387:2425   */\n      swap2\n      pop\n        /* \"#utility.yul\":2475:2477   */\n      0x20\n        /* \"#utility.yul\":2464:2473   */\n      dup4\n        /* \"#utility.yul\":2460:2478   */\n      add\n        /* \"#utility.yul\":2447:2479   */\n      calldataload\n        /* \"#utility.yul\":2488:2516   */\n      tag_225\n        /* \"#utility.yul\":2510:2515   */\n      dup2\n        /* \"#utility.yul\":2488:2516   */\n      tag_194\n      jump\t// in\n    tag_225:\n        /* \"#utility.yul\":2535:2540   */\n      dup1\n        /* \"#utility.yul\":2525:2540   */\n      swap2\n      pop\n      pop\n        /* \"#utility.yul\":2233:2546   */\n      swap3\n      pop\n      swap3\n      swap1\n      pop\n      jump\t// out\n        /* \"#utility.yul\":2551:2735   */\n    tag_69:\n        /* \"#utility.yul\":2621:2627   */\n      0x00\n        /* \"#utility.yul\":2674:2676   */\n      0x20\n        /* \"#utility.yul\":2662:2671   */\n      dup3\n        /* \"#utility.yul\":2653:2660   */\n      dup5\n        /* \"#utility.yul\":2649:2672   */\n      sub\n        /* \"#utility.yul\":2645:2677   */\n      slt\n        /* \"#utility.yul\":2642:2694   */\n      iszero\n      tag_227\n      jumpi\n        /* \"#utility.yul\":2690:2691   */\n      0x00\n        /* \"#utility.yul\":2687:2688   */\n      dup1\n        /* \"#utility.yul\":2680:2692   */\n      revert\n        /* \"#utility.yul\":2642:2694   */\n    tag_227:\n      pop\n        /* \"#utility.yul\":2713:2729   */\n      mload\n      swap2\n        /* \"#utility.yul\":2551:2735   */\n      swap1\n      pop\n      jump\t// out\n        /* \"#utility.yul\":3019:3264   */\n    tag_76:\n        /* \"#utility.yul\":3086:3092   */\n      0x00\n        /* \"#utility.yul\":3139:3141   */\n      0x20\n        /* \"#utility.yul\":3127:3136   */\n      dup3\n        /* \"#utility.yul\":3118:3125   */\n      dup5\n        /* \"#utility.yul\":3114:3137   */\n      sub\n        /* \"#utility.yul\":3110:3142   */\n      slt\n        /* \"#utility.yul\":3107:3159   */\n      iszero\n      tag_230\n      jumpi\n        /* \"#utility.yul\":3155:3156   */\n      0x00\n        /* \"#utility.yul\":3152:3153   */\n      dup1\n        /* \"#utility.yul\":3145:3157   */\n      revert\n        /* \"#utility.yul\":3107:3159   */\n    tag_230:\n        /* \"#utility.yul\":3187:3196   */\n      dup2\n        /* \"#utility.yul\":3181:3197   */\n      mload\n        /* \"#utility.yul\":3206:3234   */\n      tag_201\n        /* \"#utility.yul\":3228:3233   */\n      dup2\n        /* \"#utility.yul\":3206:3234   */\n      tag_194\n      jump\t// in\n        /* \"#utility.yul\":3474:3896   */\n    tag_195:\n        /* \"#utility.yul\":3515:3518   */\n      0x00\n        /* \"#utility.yul\":3553:3558   */\n      dup2\n        /* \"#utility.yul\":3547:3559   */\n      mload\n        /* \"#utility.yul\":3580:3586   */\n      dup1\n        /* \"#utility.yul\":3575:3578   */\n      dup5\n        /* \"#utility.yul\":3568:3587   */\n      mstore\n        /* \"#utility.yul\":3605:3606   */\n      0x00\n        /* \"#utility.yul\":3615:3777   */\n    tag_234:\n        /* \"#utility.yul\":3629:3635   */\n      dup2\n        /* \"#utility.yul\":3626:3627   */\n      dup2\n        /* \"#utility.yul\":3623:3636   */\n      lt\n        /* \"#utility.yul\":3615:3777   */\n      iszero\n      tag_236\n      jumpi\n        /* \"#utility.yul\":3691:3695   */\n      0x20\n        /* \"#utility.yul\":3747:3760   */\n      dup2\n      dup6\n      add\n        /* \"#utility.yul\":3743:3765   */\n      dup2\n      add\n        /* \"#utility.yul\":3737:3766   */\n      mload\n        /* \"#utility.yul\":3719:3730   */\n      dup7\n      dup4\n      add\n        /* \"#utility.yul\":3715:3735   */\n      dup3\n      add\n        /* \"#utility.yul\":3708:3767   */\n      mstore\n        /* \"#utility.yul\":3644:3656   */\n      add\n        /* \"#utility.yul\":3615:3777   */\n      jump(tag_234)\n    tag_236:\n        /* \"#utility.yul\":3619:3622   */\n      pop\n        /* \"#utility.yul\":3822:3823   */\n      0x00\n        /* \"#utility.yul\":3815:3819   */\n      0x20\n        /* \"#utility.yul\":3806:3812   */\n      dup3\n        /* \"#utility.yul\":3801:3804   */\n      dup7\n        /* \"#utility.yul\":3797:3813   */\n      add\n        /* \"#utility.yul\":3793:3820   */\n      add\n        /* \"#utility.yul\":3786:3824   */\n      mstore\n        /* \"#utility.yul\":3885:3889   */\n      0x20\n        /* \"#utility.yul\":3878:3880   */\n      0x1f\n        /* \"#utility.yul\":3874:3881   */\n      not\n        /* \"#utility.yul\":3869:3871   */\n      0x1f\n        /* \"#utility.yul\":3861:3867   */\n      dup4\n        /* \"#utility.yul\":3857:3872   */\n      add\n        /* \"#utility.yul\":3853:3882   */\n      and\n        /* \"#utility.yul\":3848:3851   */\n      dup6\n        /* \"#utility.yul\":3844:3883   */\n      add\n        /* \"#utility.yul\":3840:3890   */\n      add\n        /* \"#utility.yul\":3833:3890   */\n      swap2\n      pop\n      pop\n        /* \"#utility.yul\":3474:3896   */\n      swap3\n      swap2\n      pop\n      pop\n      jump\t// out\n        /* \"#utility.yul\":3901:5502   */\n    tag_87:\n        /* \"#utility.yul\":4079:4083   */\n      0x00\n        /* \"#utility.yul\":4108:4110   */\n      0x40\n        /* \"#utility.yul\":4149:4167   */\n      0xffffffffffffffff\n        /* \"#utility.yul\":4141:4147   */\n      dup6\n        /* \"#utility.yul\":4137:4168   */\n      and\n        /* \"#utility.yul\":4126:4135   */\n      dup4\n        /* \"#utility.yul\":4119:4169   */\n      mstore\n        /* \"#utility.yul\":4188:4190   */\n      0x20\n        /* \"#utility.yul\":4226:4228   */\n      dup2\n        /* \"#utility.yul\":4221:4223   */\n      dup2\n        /* \"#utility.yul\":4210:4219   */\n      dup6\n        /* \"#utility.yul\":4206:4224   */\n      add\n        /* \"#utility.yul\":4199:4229   */\n      mstore\n        /* \"#utility.yul\":4264:4270   */\n      dup5\n        /* \"#utility.yul\":4258:4271   */\n      mload\n        /* \"#utility.yul\":4307:4311   */\n      0xa0\n        /* \"#utility.yul\":4302:4304   */\n      dup4\n        /* \"#utility.yul\":4291:4300   */\n      dup7\n        /* \"#utility.yul\":4287:4305   */\n      add\n        /* \"#utility.yul\":4280:4312   */\n      mstore\n        /* \"#utility.yul\":4335:4386   */\n      tag_238\n        /* \"#utility.yul\":4381:4384   */\n      0xe0\n        /* \"#utility.yul\":4370:4379   */\n      dup7\n        /* \"#utility.yul\":4366:4385   */\n      add\n        /* \"#utility.yul\":4352:4364   */\n      dup3\n        /* \"#utility.yul\":4335:4386   */\n      tag_195\n      jump\t// in\n    tag_238:\n        /* \"#utility.yul\":4321:4386   */\n      swap1\n      pop\n        /* \"#utility.yul\":4435:4437   */\n      dup2\n        /* \"#utility.yul\":4427:4433   */\n      dup7\n        /* \"#utility.yul\":4423:4438   */\n      add\n        /* \"#utility.yul\":4417:4439   */\n      mload\n        /* \"#utility.yul\":4462:4464   */\n      0x3f\n        /* \"#utility.yul\":4458:4465   */\n      not\n        /* \"#utility.yul\":4529:4531   */\n      dup1\n        /* \"#utility.yul\":4517:4526   */\n      dup8\n        /* \"#utility.yul\":4509:4515   */\n      dup5\n        /* \"#utility.yul\":4505:4527   */\n      sub\n        /* \"#utility.yul\":4501:4532   */\n      add\n        /* \"#utility.yul\":4496:4498   */\n      0x60\n        /* \"#utility.yul\":4485:4494   */\n      dup9\n        /* \"#utility.yul\":4481:4499   */\n      add\n        /* \"#utility.yul\":4474:4533   */\n      mstore\n        /* \"#utility.yul\":4556:4596   */\n      tag_239\n        /* \"#utility.yul\":4589:4595   */\n      dup4\n        /* \"#utility.yul\":4573:4587   */\n      dup4\n        /* \"#utility.yul\":4556:4596   */\n      tag_195\n      jump\t// in\n    tag_239:\n        /* \"#utility.yul\":4633:4648   */\n      dup9\n      dup7\n      add\n        /* \"#utility.yul\":4627:4649   */\n      mload\n        /* \"#utility.yul\":4690:4712   */\n      dup9\n      dup3\n      sub\n        /* \"#utility.yul\":4686:4717   */\n      dup4\n      add\n        /* \"#utility.yul\":4680:4683   */\n      0x80\n        /* \"#utility.yul\":4665:4684   */\n      dup11\n      add\n        /* \"#utility.yul\":4658:4718   */\n      mstore\n        /* \"#utility.yul\":4767:4788   */\n      dup1\n      mload\n        /* \"#utility.yul\":4797:4819   */\n      dup1\n      dup4\n      mstore\n        /* \"#utility.yul\":4873:4896   */\n      swap1\n      dup7\n      add\n      swap5\n      pop\n        /* \"#utility.yul\":4914:4915   */\n      0x00\n      swap4\n      pop\n        /* \"#utility.yul\":4835:4850   */\n      swap1\n      dup6\n      add\n      swap1\n        /* \"#utility.yul\":4924:5204   */\n    tag_240:\n        /* \"#utility.yul\":4938:4944   */\n      dup1\n        /* \"#utility.yul\":4935:4936   */\n      dup5\n        /* \"#utility.yul\":4932:4945   */\n      lt\n        /* \"#utility.yul\":4924:5204   */\n      iszero\n      tag_242\n      jumpi\n        /* \"#utility.yul\":4997:5010   */\n      dup5\n      mload\n        /* \"#utility.yul\":5039:5048   */\n      dup1\n      mload\n      sub(shl(0xa0, 0x01), 0x01)\n        /* \"#utility.yul\":5035:5070   */\n      and\n        /* \"#utility.yul\":5023:5071   */\n      dup4\n      mstore\n        /* \"#utility.yul\":5111:5122   */\n      dup7\n      add\n        /* \"#utility.yul\":5105:5123   */\n      mload\n        /* \"#utility.yul\":5091:5103   */\n      dup7\n      dup4\n      add\n        /* \"#utility.yul\":5084:5124   */\n      mstore\n        /* \"#utility.yul\":5179:5194   */\n      swap4\n      dup6\n      add\n      swap4\n        /* \"#utility.yul\":5067:5068   */\n      0x01\n        /* \"#utility.yul\":4953:4962   */\n      swap4\n      swap1\n      swap4\n      add\n      swap3\n        /* \"#utility.yul\":5144:5156   */\n      swap1\n      dup7\n      add\n      swap1\n        /* \"#utility.yul\":4924:5204   */\n      jump(tag_240)\n    tag_242:\n      pop\n        /* \"#utility.yul\":5253:5255   */\n      0x60\n        /* \"#utility.yul\":5241:5256   */\n      dup10\n      add\n        /* \"#utility.yul\":5235:5257   */\n      mload\n      sub(shl(0xa0, 0x01), 0x01)\n        /* \"#utility.yul\":1859:1890   */\n      and\n        /* \"#utility.yul\":5316:5320   */\n      0xa0\n        /* \"#utility.yul\":5301:5321   */\n      dup10\n      add\n        /* \"#utility.yul\":1847:1891   */\n      mstore\n        /* \"#utility.yul\":5371:5374   */\n      0x80\n        /* \"#utility.yul\":5359:5375   */\n      dup10\n      add\n        /* \"#utility.yul\":5353:5376   */\n      mload\n        /* \"#utility.yul\":5417:5436   */\n      dup9\n      dup3\n      sub\n        /* \"#utility.yul\":5413:5441   */\n      dup4\n      add\n        /* \"#utility.yul\":5407:5410   */\n      0xc0\n        /* \"#utility.yul\":5392:5411   */\n      dup11\n      add\n        /* \"#utility.yul\":5385:5442   */\n      mstore\n        /* \"#utility.yul\":5353:5376   */\n      swap6\n      pop\n        /* \"#utility.yul\":5459:5496   */\n      tag_244\n        /* \"#utility.yul\":5421:5424   */\n      dup2\n        /* \"#utility.yul\":5353:5376   */\n      dup8\n        /* \"#utility.yul\":5459:5496   */\n      tag_195\n      jump\t// in\n    tag_244:\n        /* \"#utility.yul\":5451:5496   */\n      swap11\n        /* \"#utility.yul\":3901:5502   */\n      swap10\n      pop\n      pop\n      pop\n      pop\n      pop\n      pop\n      pop\n      pop\n      pop\n      pop\n      jump\t// out\n        /* \"#utility.yul\":7906:8033   */\n    tag_180:\n        /* \"#utility.yul\":7967:7977   */\n      0x4e487b71\n        /* \"#utility.yul\":7962:7965   */\n      0xe0\n        /* \"#utility.yul\":7958:7978   */\n      shl\n        /* \"#utility.yul\":7955:7956   */\n      0x00\n        /* \"#utility.yul\":7948:7979   */\n      mstore\n        /* \"#utility.yul\":7998:8002   */\n      0x32\n        /* \"#utility.yul\":7995:7996   */\n      0x04\n        /* \"#utility.yul\":7988:8003   */\n      mstore\n        /* \"#utility.yul\":8022:8026   */\n      0x24\n        /* \"#utility.yul\":8019:8020   */\n      0x00\n        /* \"#utility.yul\":8012:8027   */\n      revert\n\n    auxdata: 0xa26469706673582212201e710518c525d87cc4912f2f6e0118054662980c4574c981df03fa57ef7f775964736f6c63430008130033\n}\n",
				"bytecode": {
					"linkReferences": {},
					"object": "60806040523480156200001157600080fd5b5060405162001227380380620012278339810160408190526200003491620001bf565b33806000816200008b5760405162461bcd60e51b815260206004820152601860248201527f43616e6e6f7420736574206f776e657220746f207a65726f000000000000000060448201526064015b60405180910390fd5b600080546001600160a01b0319166001600160a01b0384811691909117909155811615620000be57620000be81620000f7565b5050600380546001600160a01b039485166001600160a01b031991821617909155600480549390941692169190911790915550620001f7565b336001600160a01b03821603620001515760405162461bcd60e51b815260206004820152601760248201527f43616e6e6f74207472616e7366657220746f2073656c66000000000000000000604482015260640162000082565b600180546001600160a01b0319166001600160a01b0383811691821790925560008054604051929316917fed8889f560326eb138920d842192f0eb3dd22b4f139c87a2c57538e05bae12789190a350565b80516001600160a01b0381168114620001ba57600080fd5b919050565b60008060408385031215620001d357600080fd5b620001de83620001a2565b9150620001ee60208401620001a2565b90509250929050565b61102080620002076000396000f3fe60806040526004361061008a5760003560e01c806379ba50971161005957806379ba50971461014b5780638da5cb5b1461016057806395e1402c1461018857806396d3b83d146101a8578063f2fde38b146101c857600080fd5b80630bb106eb146100965780633aeac4e1146100db57806351419b4b146100fd57806351cff8d91461012b57600080fd5b3661009157005b600080fd5b3480156100a257600080fd5b506100c66100b1366004610d67565b60026020526000908152604090205460ff1681565b60405190151581526020015b60405180910390f35b3480156100e757600080fd5b506100fb6100f6366004610da0565b6101e8565b005b34801561010957600080fd5b5061011d610118366004610dd3565b6102f7565b6040519081526020016100d2565b34801561013757600080fd5b506100fb610146366004610e1e565b610567565b34801561015757600080fd5b506100fb610623565b34801561016c57600080fd5b506000546040516001600160a01b0390911681526020016100d2565b34801561019457600080fd5b5061011d6101a3366004610dd3565b6106cd565b3480156101b457600080fd5b506100fb6101c3366004610e47565b610a94565b3480156101d457600080fd5b506100fb6101e3366004610e1e565b610ac8565b6101f0610adc565b6040516370a0823160e01b81523060048201526000906001600160a01b038316906370a0823190602401602060405180830381865afa158015610237573d6000803e3d6000fd5b505050506040513d601f19601f8201168201806040525081019061025b9190610e7e565b90508060000361027e57604051630686827b60e51b815260040160405180910390fd5b60405163a9059cbb60e01b81526001600160a01b0384811660048301526024820183905283169063a9059cbb906044016020604051808303816000875af11580156102cd573d6000803e3d6000fd5b505050506040513d601f19601f820116820180604052508101906102f19190610e97565b50505050565b6000610301610adc565b67ffffffffffffffff8516600090815260026020526040902054859060ff1661034e57604051630a503cdb60e01b815267ffffffffffffffff821660048201526024015b60405180910390fd5b600061035d8686866000610b31565b6003546040516320487ded60e01b81529192506000916001600160a01b03909116906320487ded90610395908b908690600401610efa565b602060405180830381865afa1580156103b2573d6000803e3d6000fd5b505050506040513d601f19601f820116820180604052508101906103d69190610e7e565b90504781111561040257604051634787a10360e11b815247600482015260248101829052604401610345565b60035460405163095ea7b360e01b81526001600160a01b039182166004820152602481018790529087169063095ea7b3906044016020604051808303816000875af1158015610455573d6000803e3d6000fd5b505050506040513d601f19601f820116820180604052508101906104799190610e97565b506003546040516396f4e9f960e01b81526001600160a01b03909116906396f4e9f99083906104ae908c908790600401610efa565b60206040518083038185885af11580156104cc573d6000803e3d6000fd5b50505050506040513d601f19601f820116820180604052508101906104f19190610e7e565b604080516001600160a01b03808b16825289166020820152908101879052600060608201526080810183905290945067ffffffffffffffff89169085907fc15fb748c32ba4eb29c1c311e78533f93b4425eab49ea87c6fe4279ecadca0439060a0015b60405180910390a3505050949350505050565b61056f610adc565b47600081900361059257604051630686827b60e51b815260040160405180910390fd5b6000826001600160a01b03168260405160006040518083038185875af1925050503d80600081146105df576040519150601f19603f3d011682016040523d82523d6000602084013e6105e4565b606091505b505090508061061e57604051639d11f56360e01b81523360048201526001600160a01b038416602482015260448101839052606401610345565b505050565b6001546001600160a01b031633146106765760405162461bcd60e51b815260206004820152601660248201527526bab9ba10313290383937b837b9b2b21037bbb732b960511b6044820152606401610345565b60008054336001600160a01b0319808316821784556001805490911690556040516001600160a01b0390921692909183917f8be0079c531659141344cd1fd0a4f28419497f9722a3daafe3b4186f6b6457e091a350565b60006106d7610adc565b67ffffffffffffffff8516600090815260026020526040902054859060ff1661071f57604051630a503cdb60e01b815267ffffffffffffffff82166004820152602401610345565b60045460009061073d908790879087906001600160a01b0316610b31565b6003546040516320487ded60e01b81529192506000916001600160a01b03909116906320487ded90610775908b908690600401610efa565b602060405180830381865afa158015610792573d6000803e3d6000fd5b505050506040513d601f19601f820116820180604052508101906107b69190610e7e565b600480546040516370a0823160e01b815230928101929092529192506001600160a01b03909116906370a0823190602401602060405180830381865afa158015610804573d6000803e3d6000fd5b505050506040513d601f19601f820116820180604052508101906108289190610e7e565b8111156108c057600480546040516370a0823160e01b815230928101929092526001600160a01b0316906370a0823190602401602060405180830381865afa158015610878573d6000803e3d6000fd5b505050506040513d601f19601f8201168201806040525081019061089c9190610e7e565b604051634787a10360e11b8152600481019190915260248101829052604401610345565b6004805460035460405163095ea7b360e01b81526001600160a01b039182169381019390935260248301849052169063095ea7b3906044016020604051808303816000875af1158015610917573d6000803e3d6000fd5b505050506040513d601f19601f8201168201806040525081019061093b9190610e97565b5060035460405163095ea7b360e01b81526001600160a01b039182166004820152602481018790529087169063095ea7b3906044016020604051808303816000875af115801561098f573d6000803e3d6000fd5b505050506040513d601f19601f820116820180604052508101906109b39190610e97565b506003546040516396f4e9f960e01b81526001600160a01b03909116906396f4e9f9906109e6908b908690600401610efa565b6020604051808303816000875af1158015610a05573d6000803e3d6000fd5b505050506040513d601f19601f82011682018060405250810190610a299190610e7e565b600454604080516001600160a01b03808c168252808b166020830152918101899052911660608201526080810183905290945067ffffffffffffffff89169085907fc15fb748c32ba4eb29c1c311e78533f93b4425eab49ea87c6fe4279ecadca0439060a001610554565b610a9c610adc565b67ffffffffffffffff919091166000908152600260205260409020805460ff1916911515919091179055565b610ad0610adc565b610ad981610ca1565b50565b6000546001600160a01b03163314610b2f5760405162461bcd60e51b815260206004820152601660248201527527b7363c9031b0b63630b1363290313c9037bbb732b960511b6044820152606401610345565b565b610b6c6040518060a0016040528060608152602001606081526020016060815260200160006001600160a01b03168152602001606081525090565b604080516001808252818301909252600091816020015b6040805180820190915260008082526020820152815260200190600190039081610b835790505090506040518060400160405280866001600160a01b031681526020018581525081600081518110610bdd57610bdd610fd4565b60209081029190910101526040805160a081019091526001600160a01b03871660c08201528060e081016040516020818303038152906040528152602001604051806020016040528060008152508152602001828152602001846001600160a01b03168152602001610c956040518060200160405280600081525060408051915160248084019190915281518084039091018152604490920190526020810180516001600160e01b03166397a657c960e01b17905290565b90529695505050505050565b336001600160a01b03821603610cf95760405162461bcd60e51b815260206004820152601760248201527f43616e6e6f74207472616e7366657220746f2073656c660000000000000000006044820152606401610345565b600180546001600160a01b0319166001600160a01b0383811691821790925560008054604051929316917fed8889f560326eb138920d842192f0eb3dd22b4f139c87a2c57538e05bae12789190a350565b803567ffffffffffffffff81168114610d6257600080fd5b919050565b600060208284031215610d7957600080fd5b610d8282610d4a565b9392505050565b80356001600160a01b0381168114610d6257600080fd5b60008060408385031215610db357600080fd5b610dbc83610d89565b9150610dca60208401610d89565b90509250929050565b60008060008060808587031215610de957600080fd5b610df285610d4a565b9350610e0060208601610d89565b9250610e0e60408601610d89565b9396929550929360600135925050565b600060208284031215610e3057600080fd5b610d8282610d89565b8015158114610ad957600080fd5b60008060408385031215610e5a57600080fd5b610e6383610d4a565b91506020830135610e7381610e39565b809150509250929050565b600060208284031215610e9057600080fd5b5051919050565b600060208284031215610ea957600080fd5b8151610d8281610e39565b6000815180845260005b81811015610eda57602081850181015186830182015201610ebe565b506000602082860101526020601f19601f83011685010191505092915050565b6000604067ffffffffffffffff8516835260208181850152845160a083860152610f2760e0860182610eb4565b905081860151603f1980878403016060880152610f448383610eb4565b88860151888203830160808a01528051808352908601945060009350908501905b80841015610f9757845180516001600160a01b0316835286015186830152938501936001939093019290860190610f65565b5060608901516001600160a01b031660a08901526080890151888203830160c08a01529550610fc68187610eb4565b9a9950505050505050505050565b634e487b7160e01b600052603260045260246000fdfea26469706673582212201e710518c525d87cc4912f2f6e0118054662980c4574c981df03fa57ef7f775964736f6c63430008130033",
					"opcodes": "PUSH1 0x80 PUSH1 0x40 MSTORE CALLVALUE DUP1 ISZERO PUSH3 0x11 JUMPI PUSH1 0x0 DUP1 REVERT JUMPDEST POP PUSH1 0x40 MLOAD PUSH3 0x1227 CODESIZE SUB DUP1 PUSH3 0x1227 DUP4 CODECOPY DUP2 ADD PUSH1 0x40 DUP2 SWAP1 MSTORE PUSH3 0x34 SWAP2 PUSH3 0x1BF JUMP JUMPDEST CALLER DUP1 PUSH1 0x0 DUP2 PUSH3 0x8B JUMPI PUSH1 0x40 MLOAD PUSH3 0x461BCD PUSH1 0xE5 SHL DUP2 MSTORE PUSH1 0x20 PUSH1 0x4 DUP3 ADD MSTORE PUSH1 0x18 PUSH1 0x24 DUP3 ADD MSTORE PUSH32 0x43616E6E6F7420736574206F776E657220746F207A65726F0000000000000000 PUSH1 0x44 DUP3 ADD MSTORE PUSH1 0x64 ADD JUMPDEST PUSH1 0x40 MLOAD DUP1 SWAP2 SUB SWAP1 REVERT JUMPDEST PUSH1 0x0 DUP1 SLOAD PUSH1 0x1 PUSH1 0x1 PUSH1 0xA0 SHL SUB NOT AND PUSH1 0x1 PUSH1 0x1 PUSH1 0xA0 SHL SUB DUP5 DUP2 AND SWAP2 SWAP1 SWAP2 OR SWAP1 SWAP2 SSTORE DUP2 AND ISZERO PUSH3 0xBE JUMPI PUSH3 0xBE DUP2 PUSH3 0xF7 JUMP JUMPDEST POP POP PUSH1 0x3 DUP1 SLOAD PUSH1 0x1 PUSH1 0x1 PUSH1 0xA0 SHL SUB SWAP5 DUP6 AND PUSH1 0x1 PUSH1 0x1 PUSH1 0xA0 SHL SUB NOT SWAP2 DUP3 AND OR SWAP1 SWAP2 SSTORE PUSH1 0x4 DUP1 SLOAD SWAP4 SWAP1 SWAP5 AND SWAP3 AND SWAP2 SWAP1 SWAP2 OR SWAP1 SWAP2 SSTORE POP PUSH3 0x1F7 JUMP JUMPDEST CALLER PUSH1 0x1 PUSH1 0x1 PUSH1 0xA0 SHL SUB DUP3 AND SUB PUSH3 0x151 JUMPI PUSH1 0x40 MLOAD PUSH3 0x461BCD PUSH1 0xE5 SHL DUP2 MSTORE PUSH1 0x20 PUSH1 0x4 DUP3 ADD MSTORE PUSH1 0x17 PUSH1 0x24 DUP3 ADD MSTORE PUSH32 0x43616E6E6F74207472616E7366657220746F2073656C66000000000000000000 PUSH1 0x44 DUP3 ADD MSTORE PUSH1 0x64 ADD PUSH3 0x82 JUMP JUMPDEST PUSH1 0x1 DUP1 SLOAD PUSH1 0x1 PUSH1 0x1 PUSH1 0xA0 SHL SUB NOT AND PUSH1 0x1 PUSH1 0x1 PUSH1 0xA0 SHL SUB DUP4 DUP2 AND SWAP2 DUP3 OR SWAP1 SWAP3 SSTORE PUSH1 0x0 DUP1 SLOAD PUSH1 0x40 MLOAD SWAP3 SWAP4 AND SWAP2 PUSH32 0xED8889F560326EB138920D842192F0EB3DD22B4F139C87A2C57538E05BAE1278 SWAP2 SWAP1 LOG3 POP JUMP JUMPDEST DUP1 MLOAD PUSH1 0x1 PUSH1 0x1 PUSH1 0xA0 SHL SUB DUP2 AND DUP2 EQ PUSH3 0x1BA JUMPI PUSH1 0x0 DUP1 REVERT JUMPDEST SWAP2 SWAP1 POP JUMP JUMPDEST PUSH1 0x0 DUP1 PUSH1 0x40 DUP4 DUP6 SUB SLT ISZERO PUSH3 0x1D3 JUMPI PUSH1 0x0 DUP1 REVERT JUMPDEST PUSH3 0x1DE DUP4 PUSH3 0x1A2 JUMP JUMPDEST SWAP2 POP PUSH3 0x1EE PUSH1 0x20 DUP5 ADD PUSH3 0x1A2 JUMP JUMPDEST SWAP1 POP SWAP3 POP SWAP3 SWAP1 POP JUMP JUMPDEST PUSH2 0x1020 DUP1 PUSH3 0x207 PUSH1 0x0 CODECOPY PUSH1 0x0 RETURN INVALID PUSH1 0x80 PUSH1 0x40 MSTORE PUSH1 0x4 CALLDATASIZE LT PUSH2 0x8A JUMPI PUSH1 0x0 CALLDATALOAD PUSH1 0xE0 SHR DUP1 PUSH4 0x79BA5097 GT PUSH2 0x59 JUMPI DUP1 PUSH4 0x79BA5097 EQ PUSH2 0x14B JUMPI DUP1 PUSH4 0x8DA5CB5B EQ PUSH2 0x160 JUMPI DUP1 PUSH4 0x95E1402C EQ PUSH2 0x188 JUMPI DUP1 PUSH4 0x96D3B83D EQ PUSH2 0x1A8 JUMPI DUP1 PUSH4 0xF2FDE38B EQ PUSH2 0x1C8 JUMPI PUSH1 0x0 DUP1 REVERT JUMPDEST DUP1 PUSH4 0xBB106EB EQ PUSH2 0x96 JUMPI DUP1 PUSH4 0x3AEAC4E1 EQ PUSH2 0xDB JUMPI DUP1 PUSH4 0x51419B4B EQ PUSH2 0xFD JUMPI DUP1 PUSH4 0x51CFF8D9 EQ PUSH2 0x12B JUMPI PUSH1 0x0 DUP1 REVERT JUMPDEST CALLDATASIZE PUSH2 0x91 JUMPI STOP JUMPDEST PUSH1 0x0 DUP1 REVERT JUMPDEST CALLVALUE DUP1 ISZERO PUSH2 0xA2 JUMPI PUSH1 0x0 DUP1 REVERT JUMPDEST POP PUSH2 0xC6 PUSH2 0xB1 CALLDATASIZE PUSH1 0x4 PUSH2 0xD67 JUMP JUMPDEST PUSH1 0x2 PUSH1 0x20 MSTORE PUSH1 0x0 SWAP1 DUP2 MSTORE PUSH1 0x40 SWAP1 KECCAK256 SLOAD PUSH1 0xFF AND DUP2 JUMP JUMPDEST PUSH1 0x40 MLOAD SWAP1 ISZERO ISZERO DUP2 MSTORE PUSH1 0x20 ADD JUMPDEST PUSH1 0x40 MLOAD DUP1 SWAP2 SUB SWAP1 RETURN JUMPDEST CALLVALUE DUP1 ISZERO PUSH2 0xE7 JUMPI PUSH1 0x0 DUP1 REVERT JUMPDEST POP PUSH2 0xFB PUSH2 0xF6 CALLDATASIZE PUSH1 0x4 PUSH2 0xDA0 JUMP JUMPDEST PUSH2 0x1E8 JUMP JUMPDEST STOP JUMPDEST CALLVALUE DUP1 ISZERO PUSH2 0x109 JUMPI PUSH1 0x0 DUP1 REVERT JUMPDEST POP PUSH2 0x11D PUSH2 0x118 CALLDATASIZE PUSH1 0x4 PUSH2 0xDD3 JUMP JUMPDEST PUSH2 0x2F7 JUMP JUMPDEST PUSH1 0x40 MLOAD SWAP1 DUP2 MSTORE PUSH1 0x20 ADD PUSH2 0xD2 JUMP JUMPDEST CALLVALUE DUP1 ISZERO PUSH2 0x137 JUMPI PUSH1 0x0 DUP1 REVERT JUMPDEST POP PUSH2 0xFB PUSH2 0x146 CALLDATASIZE PUSH1 0x4 PUSH2 0xE1E JUMP JUMPDEST PUSH2 0x567 JUMP JUMPDEST CALLVALUE DUP1 ISZERO PUSH2 0x157 JUMPI PUSH1 0x0 DUP1 REVERT JUMPDEST POP PUSH2 0xFB PUSH2 0x623 JUMP JUMPDEST CALLVALUE DUP1 ISZERO PUSH2 0x16C JUMPI PUSH1 0x0 DUP1 REVERT JUMPDEST POP PUSH1 0x0 SLOAD PUSH1 0x40 MLOAD PUSH1 0x1 PUSH1 0x1 PUSH1 0xA0 SHL SUB SWAP1 SWAP2 AND DUP2 MSTORE PUSH1 0x20 ADD PUSH2 0xD2 JUMP JUMPDEST CALLVALUE DUP1 ISZERO PUSH2 0x194 JUMPI PUSH1 0x0 DUP1 REVERT JUMPDEST POP PUSH2 0x11D PUSH2 0x1A3 CALLDATASIZE PUSH1 0x4 PUSH2 0xDD3 JUMP JUMPDEST PUSH2 0x6CD JUMP JUMPDEST CALLVALUE DUP1 ISZERO PUSH2 0x1B4 JUMPI PUSH1 0x0 DUP1 REVERT JUMPDEST POP PUSH2 0xFB PUSH2 0x1C3 CALLDATASIZE PUSH1 0x4 PUSH2 0xE47 JUMP JUMPDEST PUSH2 0xA94 JUMP JUMPDEST CALLVALUE DUP1 ISZERO PUSH2 0x1D4 JUMPI PUSH1 0x0 DUP1 REVERT JUMPDEST POP PUSH2 0xFB PUSH2 0x1E3 CALLDATASIZE PUSH1 0x4 PUSH2 0xE1E JUMP JUMPDEST PUSH2 0xAC8 JUMP JUMPDEST PUSH2 0x1F0 PUSH2 0xADC JUMP JUMPDEST PUSH1 0x40 MLOAD PUSH4 0x70A08231 PUSH1 0xE0 SHL DUP2 MSTORE ADDRESS PUSH1 0x4 DUP3 ADD MSTORE PUSH1 0x0 SWAP1 PUSH1 0x1 PUSH1 0x1 PUSH1 0xA0 SHL SUB DUP4 AND SWAP1 PUSH4 0x70A08231 SWAP1 PUSH1 0x24 ADD PUSH1 0x20 PUSH1 0x40 MLOAD DUP1 DUP4 SUB DUP2 DUP7 GAS STATICCALL ISZERO DUP1 ISZERO PUSH2 0x237 JUMPI RETURNDATASIZE PUSH1 0x0 DUP1 RETURNDATACOPY RETURNDATASIZE PUSH1 0x0 REVERT JUMPDEST POP POP POP POP PUSH1 0x40 MLOAD RETURNDATASIZE PUSH1 0x1F NOT PUSH1 0x1F DUP3 ADD AND DUP3 ADD DUP1 PUSH1 0x40 MSTORE POP DUP2 ADD SWAP1 PUSH2 0x25B SWAP2 SWAP1 PUSH2 0xE7E JUMP JUMPDEST SWAP1 POP DUP1 PUSH1 0x0 SUB PUSH2 0x27E JUMPI PUSH1 0x40 MLOAD PUSH4 0x686827B PUSH1 0xE5 SHL DUP2 MSTORE PUSH1 0x4 ADD PUSH1 0x40 MLOAD DUP1 SWAP2 SUB SWAP1 REVERT JUMPDEST PUSH1 0x40 MLOAD PUSH4 0xA9059CBB PUSH1 0xE0 SHL DUP2 MSTORE PUSH1 0x1 PUSH1 0x1 PUSH1 0xA0 SHL SUB DUP5 DUP2 AND PUSH1 0x4 DUP4 ADD MSTORE PUSH1 0x24 DUP3 ADD DUP4 SWAP1 MSTORE DUP4 AND SWAP1 PUSH4 0xA9059CBB SWAP1 PUSH1 0x44 ADD PUSH1 0x20 PUSH1 0x40 MLOAD DUP1 DUP4 SUB DUP2 PUSH1 0x0 DUP8 GAS CALL ISZERO DUP1 ISZERO PUSH2 0x2CD JUMPI RETURNDATASIZE PUSH1 0x0 DUP1 RETURNDATACOPY RETURNDATASIZE PUSH1 0x0 REVERT JUMPDEST POP POP POP POP PUSH1 0x40 MLOAD RETURNDATASIZE PUSH1 0x1F NOT PUSH1 0x1F DUP3 ADD AND DUP3 ADD DUP1 PUSH1 0x40 MSTORE POP DUP2 ADD SWAP1 PUSH2 0x2F1 SWAP2 SWAP1 PUSH2 0xE97 JUMP JUMPDEST POP POP POP POP JUMP JUMPDEST PUSH1 0x0 PUSH2 0x301 PUSH2 0xADC JUMP JUMPDEST PUSH8 0xFFFFFFFFFFFFFFFF DUP6 AND PUSH1 0x0 SWAP1 DUP2 MSTORE PUSH1 0x2 PUSH1 0x20 MSTORE PUSH1 0x40 SWAP1 KECCAK256 SLOAD DUP6 SWAP1 PUSH1 0xFF AND PUSH2 0x34E JUMPI PUSH1 0x40 MLOAD PUSH4 0xA503CDB PUSH1 0xE0 SHL DUP2 MSTORE PUSH8 0xFFFFFFFFFFFFFFFF DUP3 AND PUSH1 0x4 DUP3 ADD MSTORE PUSH1 0x24 ADD JUMPDEST PUSH1 0x40 MLOAD DUP1 SWAP2 SUB SWAP1 REVERT JUMPDEST PUSH1 0x0 PUSH2 0x35D DUP7 DUP7 DUP7 PUSH1 0x0 PUSH2 0xB31 JUMP JUMPDEST PUSH1 0x3 SLOAD PUSH1 0x40 MLOAD PUSH4 0x20487DED PUSH1 0xE0 SHL DUP2 MSTORE SWAP2 SWAP3 POP PUSH1 0x0 SWAP2 PUSH1 0x1 PUSH1 0x1 PUSH1 0xA0 SHL SUB SWAP1 SWAP2 AND SWAP1 PUSH4 0x20487DED SWAP1 PUSH2 0x395 SWAP1 DUP12 SWAP1 DUP7 SWAP1 PUSH1 0x4 ADD PUSH2 0xEFA JUMP JUMPDEST PUSH1 0x20 PUSH1 0x40 MLOAD DUP1 DUP4 SUB DUP2 DUP7 GAS STATICCALL ISZERO DUP1 ISZERO PUSH2 0x3B2 JUMPI RETURNDATASIZE PUSH1 0x0 DUP1 RETURNDATACOPY RETURNDATASIZE PUSH1 0x0 REVERT JUMPDEST POP POP POP POP PUSH1 0x40 MLOAD RETURNDATASIZE PUSH1 0x1F NOT PUSH1 0x1F DUP3 ADD AND DUP3 ADD DUP1 PUSH1 0x40 MSTORE POP DUP2 ADD SWAP1 PUSH2 0x3D6 SWAP2 SWAP1 PUSH2 0xE7E JUMP JUMPDEST SWAP1 POP SELFBALANCE DUP2 GT ISZERO PUSH2 0x402 JUMPI PUSH1 0x40 MLOAD PUSH4 0x4787A103 PUSH1 0xE1 SHL DUP2 MSTORE SELFBALANCE PUSH1 0x4 DUP3 ADD MSTORE PUSH1 0x24 DUP2 ADD DUP3 SWAP1 MSTORE PUSH1 0x44 ADD PUSH2 0x345 JUMP JUMPDEST PUSH1 0x3 SLOAD PUSH1 0x40 MLOAD PUSH4 0x95EA7B3 PUSH1 0xE0 SHL DUP2 MSTORE PUSH1 0x1 PUSH1 0x1 PUSH1 0xA0 SHL SUB SWAP2 DUP3 AND PUSH1 0x4 DUP3 ADD MSTORE PUSH1 0x24 DUP2 ADD DUP8 SWAP1 MSTORE SWAP1 DUP8 AND SWAP1 PUSH4 0x95EA7B3 SWAP1 PUSH1 0x44 ADD PUSH1 0x20 PUSH1 0x40 MLOAD DUP1 DUP4 SUB DUP2 PUSH1 0x0 DUP8 GAS CALL ISZERO DUP1 ISZERO PUSH2 0x455 JUMPI RETURNDATASIZE PUSH1 0x0 DUP1 RETURNDATACOPY RETURNDATASIZE PUSH1 0x0 REVERT JUMPDEST POP POP POP POP PUSH1 0x40 MLOAD RETURNDATASIZE PUSH1 0x1F NOT PUSH1 0x1F DUP3 ADD AND DUP3 ADD DUP1 PUSH1 0x40 MSTORE POP DUP2 ADD SWAP1 PUSH2 0x479 SWAP2 SWAP1 PUSH2 0xE97 JUMP JUMPDEST POP PUSH1 0x3 SLOAD PUSH1 0x40 MLOAD PUSH4 0x96F4E9F9 PUSH1 0xE0 SHL DUP2 MSTORE PUSH1 0x1 PUSH1 0x1 PUSH1 0xA0 SHL SUB SWAP1 SWAP2 AND SWAP1 PUSH4 0x96F4E9F9 SWAP1 DUP4 SWAP1 PUSH2 0x4AE SWAP1 DUP13 SWAP1 DUP8 SWAP1 PUSH1 0x4 ADD PUSH2 0xEFA JUMP JUMPDEST PUSH1 0x20 PUSH1 0x40 MLOAD DUP1 DUP4 SUB DUP2 DUP6 DUP9 GAS CALL ISZERO DUP1 ISZERO PUSH2 0x4CC JUMPI RETURNDATASIZE PUSH1 0x0 DUP1 RETURNDATACOPY RETURNDATASIZE PUSH1 0x0 REVERT JUMPDEST POP POP POP POP POP PUSH1 0x40 MLOAD RETURNDATASIZE PUSH1 0x1F NOT PUSH1 0x1F DUP3 ADD AND DUP3 ADD DUP1 PUSH1 0x40 MSTORE POP DUP2 ADD SWAP1 PUSH2 0x4F1 SWAP2 SWAP1 PUSH2 0xE7E JUMP JUMPDEST PUSH1 0x40 DUP1 MLOAD PUSH1 0x1 PUSH1 0x1 PUSH1 0xA0 SHL SUB DUP1 DUP12 AND DUP3 MSTORE DUP10 AND PUSH1 0x20 DUP3 ADD MSTORE SWAP1 DUP2 ADD DUP8 SWAP1 MSTORE PUSH1 0x0 PUSH1 0x60 DUP3 ADD MSTORE PUSH1 0x80 DUP2 ADD DUP4 SWAP1 MSTORE SWAP1 SWAP5 POP PUSH8 0xFFFFFFFFFFFFFFFF DUP10 AND SWAP1 DUP6 SWAP1 PUSH32 0xC15FB748C32BA4EB29C1C311E78533F93B4425EAB49EA87C6FE4279ECADCA043 SWAP1 PUSH1 0xA0 ADD JUMPDEST PUSH1 0x40 MLOAD DUP1 SWAP2 SUB SWAP1 LOG3 POP POP POP SWAP5 SWAP4 POP POP POP POP JUMP JUMPDEST PUSH2 0x56F PUSH2 0xADC JUMP JUMPDEST SELFBALANCE PUSH1 0x0 DUP2 SWAP1 SUB PUSH2 0x592 JUMPI PUSH1 0x40 MLOAD PUSH4 0x686827B PUSH1 0xE5 SHL DUP2 MSTORE PUSH1 0x4 ADD PUSH1 0x40 MLOAD DUP1 SWAP2 SUB SWAP1 REVERT JUMPDEST PUSH1 0x0 DUP3 PUSH1 0x1 PUSH1 0x1 PUSH1 0xA0 SHL SUB AND DUP3 PUSH1 0x40 MLOAD PUSH1 0x0 PUSH1 0x40 MLOAD DUP1 DUP4 SUB DUP2 DUP6 DUP8 GAS CALL SWAP3 POP POP POP RETURNDATASIZE DUP1 PUSH1 0x0 DUP2 EQ PUSH2 0x5DF JUMPI PUSH1 0x40 MLOAD SWAP2 POP PUSH1 0x1F NOT PUSH1 0x3F RETURNDATASIZE ADD AND DUP3 ADD PUSH1 0x40 MSTORE RETURNDATASIZE DUP3 MSTORE RETURNDATASIZE PUSH1 0x0 PUSH1 0x20 DUP5 ADD RETURNDATACOPY PUSH2 0x5E4 JUMP JUMPDEST PUSH1 0x60 SWAP2 POP JUMPDEST POP POP SWAP1 POP DUP1 PUSH2 0x61E JUMPI PUSH1 0x40 MLOAD PUSH4 0x9D11F563 PUSH1 0xE0 SHL DUP2 MSTORE CALLER PUSH1 0x4 DUP3 ADD MSTORE PUSH1 0x1 PUSH1 0x1 PUSH1 0xA0 SHL SUB DUP5 AND PUSH1 0x24 DUP3 ADD MSTORE PUSH1 0x44 DUP2 ADD DUP4 SWAP1 MSTORE PUSH1 0x64 ADD PUSH2 0x345 JUMP JUMPDEST POP POP POP JUMP JUMPDEST PUSH1 0x1 SLOAD PUSH1 0x1 PUSH1 0x1 PUSH1 0xA0 SHL SUB AND CALLER EQ PUSH2 0x676 JUMPI PUSH1 0x40 MLOAD PUSH3 0x461BCD PUSH1 0xE5 SHL DUP2 MSTORE PUSH1 0x20 PUSH1 0x4 DUP3 ADD MSTORE PUSH1 0x16 PUSH1 0x24 DUP3 ADD MSTORE PUSH22 0x26BAB9BA10313290383937B837B9B2B21037BBB732B9 PUSH1 0x51 SHL PUSH1 0x44 DUP3 ADD MSTORE PUSH1 0x64 ADD PUSH2 0x345 JUMP JUMPDEST PUSH1 0x0 DUP1 SLOAD CALLER PUSH1 0x1 PUSH1 0x1 PUSH1 0xA0 SHL SUB NOT DUP1 DUP4 AND DUP3 OR DUP5 SSTORE PUSH1 0x1 DUP1 SLOAD SWAP1 SWAP2 AND SWAP1 SSTORE PUSH1 0x40 MLOAD PUSH1 0x1 PUSH1 0x1 PUSH1 0xA0 SHL SUB SWAP1 SWAP3 AND SWAP3 SWAP1 SWAP2 DUP4 SWAP2 PUSH32 0x8BE0079C531659141344CD1FD0A4F28419497F9722A3DAAFE3B4186F6B6457E0 SWAP2 LOG3 POP JUMP JUMPDEST PUSH1 0x0 PUSH2 0x6D7 PUSH2 0xADC JUMP JUMPDEST PUSH8 0xFFFFFFFFFFFFFFFF DUP6 AND PUSH1 0x0 SWAP1 DUP2 MSTORE PUSH1 0x2 PUSH1 0x20 MSTORE PUSH1 0x40 SWAP1 KECCAK256 SLOAD DUP6 SWAP1 PUSH1 0xFF AND PUSH2 0x71F JUMPI PUSH1 0x40 MLOAD PUSH4 0xA503CDB PUSH1 0xE0 SHL DUP2 MSTORE PUSH8 0xFFFFFFFFFFFFFFFF DUP3 AND PUSH1 0x4 DUP3 ADD MSTORE PUSH1 0x24 ADD PUSH2 0x345 JUMP JUMPDEST PUSH1 0x4 SLOAD PUSH1 0x0 SWAP1 PUSH2 0x73D SWAP1 DUP8 SWAP1 DUP8 SWAP1 DUP8 SWAP1 PUSH1 0x1 PUSH1 0x1 PUSH1 0xA0 SHL SUB AND PUSH2 0xB31 JUMP JUMPDEST PUSH1 0x3 SLOAD PUSH1 0x40 MLOAD PUSH4 0x20487DED PUSH1 0xE0 SHL DUP2 MSTORE SWAP2 SWAP3 POP PUSH1 0x0 SWAP2 PUSH1 0x1 PUSH1 0x1 PUSH1 0xA0 SHL SUB SWAP1 SWAP2 AND SWAP1 PUSH4 0x20487DED SWAP1 PUSH2 0x775 SWAP1 DUP12 SWAP1 DUP7 SWAP1 PUSH1 0x4 ADD PUSH2 0xEFA JUMP JUMPDEST PUSH1 0x20 PUSH1 0x40 MLOAD DUP1 DUP4 SUB DUP2 DUP7 GAS STATICCALL ISZERO DUP1 ISZERO PUSH2 0x792 JUMPI RETURNDATASIZE PUSH1 0x0 DUP1 RETURNDATACOPY RETURNDATASIZE PUSH1 0x0 REVERT JUMPDEST POP POP POP POP PUSH1 0x40 MLOAD RETURNDATASIZE PUSH1 0x1F NOT PUSH1 0x1F DUP3 ADD AND DUP3 ADD DUP1 PUSH1 0x40 MSTORE POP DUP2 ADD SWAP1 PUSH2 0x7B6 SWAP2 SWAP1 PUSH2 0xE7E JUMP JUMPDEST PUSH1 0x4 DUP1 SLOAD PUSH1 0x40 MLOAD PUSH4 0x70A08231 PUSH1 0xE0 SHL DUP2 MSTORE ADDRESS SWAP3 DUP2 ADD SWAP3 SWAP1 SWAP3 MSTORE SWAP2 SWAP3 POP PUSH1 0x1 PUSH1 0x1 PUSH1 0xA0 SHL SUB SWAP1 SWAP2 AND SWAP1 PUSH4 0x70A08231 SWAP1 PUSH1 0x24 ADD PUSH1 0x20 PUSH1 0x40 MLOAD DUP1 DUP4 SUB DUP2 DUP7 GAS STATICCALL ISZERO DUP1 ISZERO PUSH2 0x804 JUMPI RETURNDATASIZE PUSH1 0x0 DUP1 RETURNDATACOPY RETURNDATASIZE PUSH1 0x0 REVERT JUMPDEST POP POP POP POP PUSH1 0x40 MLOAD RETURNDATASIZE PUSH1 0x1F NOT PUSH1 0x1F DUP3 ADD AND DUP3 ADD DUP1 PUSH1 0x40 MSTORE POP DUP2 ADD SWAP1 PUSH2 0x828 SWAP2 SWAP1 PUSH2 0xE7E JUMP JUMPDEST DUP2 GT ISZERO PUSH2 0x8C0 JUMPI PUSH1 0x4 DUP1 SLOAD PUSH1 0x40 MLOAD PUSH4 0x70A08231 PUSH1 0xE0 SHL DUP2 MSTORE ADDRESS SWAP3 DUP2 ADD SWAP3 SWAP1 SWAP3 MSTORE PUSH1 0x1 PUSH1 0x1 PUSH1 0xA0 SHL SUB AND SWAP1 PUSH4 0x70A08231 SWAP1 PUSH1 0x24 ADD PUSH1 0x20 PUSH1 0x40 MLOAD DUP1 DUP4 SUB DUP2 DUP7 GAS STATICCALL ISZERO DUP1 ISZERO PUSH2 0x878 JUMPI RETURNDATASIZE PUSH1 0x0 DUP1 RETURNDATACOPY RETURNDATASIZE PUSH1 0x0 REVERT JUMPDEST POP POP POP POP PUSH1 0x40 MLOAD RETURNDATASIZE PUSH1 0x1F NOT PUSH1 0x1F DUP3 ADD AND DUP3 ADD DUP1 PUSH1 0x40 MSTORE POP DUP2 ADD SWAP1 PUSH2 0x89C SWAP2 SWAP1 PUSH2 0xE7E JUMP JUMPDEST PUSH1 0x40 MLOAD PUSH4 0x4787A103 PUSH1 0xE1 SHL DUP2 MSTORE PUSH1 0x4 DUP2 ADD SWAP2 SWAP1 SWAP2 MSTORE PUSH1 0x24 DUP2 ADD DUP3 SWAP1 MSTORE PUSH1 0x44 ADD PUSH2 0x345 JUMP JUMPDEST PUSH1 0x4 DUP1 SLOAD PUSH1 0x3 SLOAD PUSH1 0x40 MLOAD PUSH4 0x95EA7B3 PUSH1 0xE0 SHL DUP2 MSTORE PUSH1 0x1 PUSH1 0x1 PUSH1 0xA0 SHL SUB SWAP2 DUP3 AND SWAP4 DUP2 ADD SWAP4 SWAP1 SWAP4 MSTORE PUSH1 0x24 DUP4 ADD DUP5 SWAP1 MSTORE AND SWAP1 PUSH4 0x95EA7B3 SWAP1 PUSH1 0x44 ADD PUSH1 0x20 PUSH1 0x40 MLOAD DUP1 DUP4 SUB DUP2 PUSH1 0x0 DUP8 GAS CALL ISZERO DUP1 ISZERO PUSH2 0x917 JUMPI RETURNDATASIZE PUSH1 0x0 DUP1 RETURNDATACOPY RETURNDATASIZE PUSH1 0x0 REVERT JUMPDEST POP POP POP POP PUSH1 0x40 MLOAD RETURNDATASIZE PUSH1 0x1F NOT PUSH1 0x1F DUP3 ADD AND DUP3 ADD DUP1 PUSH1 0x40 MSTORE POP DUP2 ADD SWAP1 PUSH2 0x93B SWAP2 SWAP1 PUSH2 0xE97 JUMP JUMPDEST POP PUSH1 0x3 SLOAD PUSH1 0x40 MLOAD PUSH4 0x95EA7B3 PUSH1 0xE0 SHL DUP2 MSTORE PUSH1 0x1 PUSH1 0x1 PUSH1 0xA0 SHL SUB SWAP2 DUP3 AND PUSH1 0x4 DUP3 ADD MSTORE PUSH1 0x24 DUP2 ADD DUP8 SWAP1 MSTORE SWAP1 DUP8 AND SWAP1 PUSH4 0x95EA7B3 SWAP1 PUSH1 0x44 ADD PUSH1 0x20 PUSH1 0x40 MLOAD DUP1 DUP4 SUB DUP2 PUSH1 0x0 DUP8 GAS CALL ISZERO DUP1 ISZERO PUSH2 0x98F JUMPI RETURNDATASIZE PUSH1 0x0 DUP1 RETURNDATACOPY RETURNDATASIZE PUSH1 0x0 REVERT JUMPDEST POP POP POP POP PUSH1 0x40 MLOAD RETURNDATASIZE PUSH1 0x1F NOT PUSH1 0x1F DUP3 ADD AND DUP3 ADD DUP1 PUSH1 0x40 MSTORE POP DUP2 ADD SWAP1 PUSH2 0x9B3 SWAP2 SWAP1 PUSH2 0xE97 JUMP JUMPDEST POP PUSH1 0x3 SLOAD PUSH1 0x40 MLOAD PUSH4 0x96F4E9F9 PUSH1 0xE0 SHL DUP2 MSTORE PUSH1 0x1 PUSH1 0x1 PUSH1 0xA0 SHL SUB SWAP1 SWAP2 AND SWAP1 PUSH4 0x96F4E9F9 SWAP1 PUSH2 0x9E6 SWAP1 DUP12 SWAP1 DUP7 SWAP1 PUSH1 0x4 ADD PUSH2 0xEFA JUMP JUMPDEST PUSH1 0x20 PUSH1 0x40 MLOAD DUP1 DUP4 SUB DUP2 PUSH1 0x0 DUP8 GAS CALL ISZERO DUP1 ISZERO PUSH2 0xA05 JUMPI RETURNDATASIZE PUSH1 0x0 DUP1 RETURNDATACOPY RETURNDATASIZE PUSH1 0x0 REVERT JUMPDEST POP POP POP POP PUSH1 0x40 MLOAD RETURNDATASIZE PUSH1 0x1F NOT PUSH1 0x1F DUP3 ADD AND DUP3 ADD DUP1 PUSH1 0x40 MSTORE POP DUP2 ADD SWAP1 PUSH2 0xA29 SWAP2 SWAP1 PUSH2 0xE7E JUMP JUMPDEST PUSH1 0x4 SLOAD PUSH1 0x40 DUP1 MLOAD PUSH1 0x1 PUSH1 0x1 PUSH1 0xA0 SHL SUB DUP1 DUP13 AND DUP3 MSTORE DUP1 DUP12 AND PUSH1 0x20 DUP4 ADD MSTORE SWAP2 DUP2 ADD DUP10 SWAP1 MSTORE SWAP2 AND PUSH1 0x60 DUP3 ADD MSTORE PUSH1 0x80 DUP2 ADD DUP4 SWAP1 MSTORE SWAP1 SWAP5 POP PUSH8 0xFFFFFFFFFFFFFFFF DUP10 AND SWAP1 DUP6 SWAP1 PUSH32 0xC15FB748C32BA4EB29C1C311E78533F93B4425EAB49EA87C6FE4279ECADCA043 SWAP1 PUSH1 0xA0 ADD PUSH2 0x554 JUMP JUMPDEST PUSH2 0xA9C PUSH2 0xADC JUMP JUMPDEST PUSH8 0xFFFFFFFFFFFFFFFF SWAP2 SWAP1 SWAP2 AND PUSH1 0x0 SWAP1 DUP2 MSTORE PUSH1 0x2 PUSH1 0x20 MSTORE PUSH1 0x40 SWAP1 KECCAK256 DUP1 SLOAD PUSH1 0xFF NOT AND SWAP2 ISZERO ISZERO SWAP2 SWAP1 SWAP2 OR SWAP1 SSTORE JUMP JUMPDEST PUSH2 0xAD0 PUSH2 0xADC JUMP JUMPDEST PUSH2 0xAD9 DUP2 PUSH2 0xCA1 JUMP JUMPDEST POP JUMP JUMPDEST PUSH1 0x0 SLOAD PUSH1 0x1 PUSH1 0x1 PUSH1 0xA0 SHL SUB AND CALLER EQ PUSH2 0xB2F JUMPI PUSH1 0x40 MLOAD PUSH3 0x461BCD PUSH1 0xE5 SHL DUP2 MSTORE PUSH1 0x20 PUSH1 0x4 DUP3 ADD MSTORE PUSH1 0x16 PUSH1 0x24 DUP3 ADD MSTORE PUSH22 0x27B7363C9031B0B63630B1363290313C9037BBB732B9 PUSH1 0x51 SHL PUSH1 0x44 DUP3 ADD MSTORE PUSH1 0x64 ADD PUSH2 0x345 JUMP JUMPDEST JUMP JUMPDEST PUSH2 0xB6C PUSH1 0x40 MLOAD DUP1 PUSH1 0xA0 ADD PUSH1 0x40 MSTORE DUP1 PUSH1 0x60 DUP2 MSTORE PUSH1 0x20 ADD PUSH1 0x60 DUP2 MSTORE PUSH1 0x20 ADD PUSH1 0x60 DUP2 MSTORE PUSH1 0x20 ADD PUSH1 0x0 PUSH1 0x1 PUSH1 0x1 PUSH1 0xA0 SHL SUB AND DUP2 MSTORE PUSH1 0x20 ADD PUSH1 0x60 DUP2 MSTORE POP SWAP1 JUMP JUMPDEST PUSH1 0x40 DUP1 MLOAD PUSH1 0x1 DUP1 DUP3 MSTORE DUP2 DUP4 ADD SWAP1 SWAP3 MSTORE PUSH1 0x0 SWAP2 DUP2 PUSH1 0x20 ADD JUMPDEST PUSH1 0x40 DUP1 MLOAD DUP1 DUP3 ADD SWAP1 SWAP2 MSTORE PUSH1 0x0 DUP1 DUP3 MSTORE PUSH1 0x20 DUP3 ADD MSTORE DUP2 MSTORE PUSH1 0x20 ADD SWAP1 PUSH1 0x1 SWAP1 SUB SWAP1 DUP2 PUSH2 0xB83 JUMPI SWAP1 POP POP SWAP1 POP PUSH1 0x40 MLOAD DUP1 PUSH1 0x40 ADD PUSH1 0x40 MSTORE DUP1 DUP7 PUSH1 0x1 PUSH1 0x1 PUSH1 0xA0 SHL SUB AND DUP2 MSTORE PUSH1 0x20 ADD DUP6 DUP2 MSTORE POP DUP2 PUSH1 0x0 DUP2 MLOAD DUP2 LT PUSH2 0xBDD JUMPI PUSH2 0xBDD PUSH2 0xFD4 JUMP JUMPDEST PUSH1 0x20 SWAP1 DUP2 MUL SWAP2 SWAP1 SWAP2 ADD ADD MSTORE PUSH1 0x40 DUP1 MLOAD PUSH1 0xA0 DUP2 ADD SWAP1 SWAP2 MSTORE PUSH1 0x1 PUSH1 0x1 PUSH1 0xA0 SHL SUB DUP8 AND PUSH1 0xC0 DUP3 ADD MSTORE DUP1 PUSH1 0xE0 DUP2 ADD PUSH1 0x40 MLOAD PUSH1 0x20 DUP2 DUP4 SUB SUB DUP2 MSTORE SWAP1 PUSH1 0x40 MSTORE DUP2 MSTORE PUSH1 0x20 ADD PUSH1 0x40 MLOAD DUP1 PUSH1 0x20 ADD PUSH1 0x40 MSTORE DUP1 PUSH1 0x0 DUP2 MSTORE POP DUP2 MSTORE PUSH1 0x20 ADD DUP3 DUP2 MSTORE PUSH1 0x20 ADD DUP5 PUSH1 0x1 PUSH1 0x1 PUSH1 0xA0 SHL SUB AND DUP2 MSTORE PUSH1 0x20 ADD PUSH2 0xC95 PUSH1 0x40 MLOAD DUP1 PUSH1 0x20 ADD PUSH1 0x40 MSTORE DUP1 PUSH1 0x0 DUP2 MSTORE POP PUSH1 0x40 DUP1 MLOAD SWAP2 MLOAD PUSH1 0x24 DUP1 DUP5 ADD SWAP2 SWAP1 SWAP2 MSTORE DUP2 MLOAD DUP1 DUP5 SUB SWAP1 SWAP2 ADD DUP2 MSTORE PUSH1 0x44 SWAP1 SWAP3 ADD SWAP1 MSTORE PUSH1 0x20 DUP2 ADD DUP1 MLOAD PUSH1 0x1 PUSH1 0x1 PUSH1 0xE0 SHL SUB AND PUSH4 0x97A657C9 PUSH1 0xE0 SHL OR SWAP1 MSTORE SWAP1 JUMP JUMPDEST SWAP1 MSTORE SWAP7 SWAP6 POP POP POP POP POP POP JUMP JUMPDEST CALLER PUSH1 0x1 PUSH1 0x1 PUSH1 0xA0 SHL SUB DUP3 AND SUB PUSH2 0xCF9 JUMPI PUSH1 0x40 MLOAD PUSH3 0x461BCD PUSH1 0xE5 SHL DUP2 MSTORE PUSH1 0x20 PUSH1 0x4 DUP3 ADD MSTORE PUSH1 0x17 PUSH1 0x24 DUP3 ADD MSTORE PUSH32 0x43616E6E6F74207472616E7366657220746F2073656C66000000000000000000 PUSH1 0x44 DUP3 ADD MSTORE PUSH1 0x64 ADD PUSH2 0x345 JUMP JUMPDEST PUSH1 0x1 DUP1 SLOAD PUSH1 0x1 PUSH1 0x1 PUSH1 0xA0 SHL SUB NOT AND PUSH1 0x1 PUSH1 0x1 PUSH1 0xA0 SHL SUB DUP4 DUP2 AND SWAP2 DUP3 OR SWAP1 SWAP3 SSTORE PUSH1 0x0 DUP1 SLOAD PUSH1 0x40 MLOAD SWAP3 SWAP4 AND SWAP2 PUSH32 0xED8889F560326EB138920D842192F0EB3DD22B4F139C87A2C57538E05BAE1278 SWAP2 SWAP1 LOG3 POP JUMP JUMPDEST DUP1 CALLDATALOAD PUSH8 0xFFFFFFFFFFFFFFFF DUP2 AND DUP2 EQ PUSH2 0xD62 JUMPI PUSH1 0x0 DUP1 REVERT JUMPDEST SWAP2 SWAP1 POP JUMP JUMPDEST PUSH1 0x0 PUSH1 0x20 DUP3 DUP5 SUB SLT ISZERO PUSH2 0xD79 JUMPI PUSH1 0x0 DUP1 REVERT JUMPDEST PUSH2 0xD82 DUP3 PUSH2 0xD4A JUMP JUMPDEST SWAP4 SWAP3 POP POP POP JUMP JUMPDEST DUP1 CALLDATALOAD PUSH1 0x1 PUSH1 0x1 PUSH1 0xA0 SHL SUB DUP2 AND DUP2 EQ PUSH2 0xD62 JUMPI PUSH1 0x0 DUP1 REVERT JUMPDEST PUSH1 0x0 DUP1 PUSH1 0x40 DUP4 DUP6 SUB SLT ISZERO PUSH2 0xDB3 JUMPI PUSH1 0x0 DUP1 REVERT JUMPDEST PUSH2 0xDBC DUP4 PUSH2 0xD89 JUMP JUMPDEST SWAP2 POP PUSH2 0xDCA PUSH1 0x20 DUP5 ADD PUSH2 0xD89 JUMP JUMPDEST SWAP1 POP SWAP3 POP SWAP3 SWAP1 POP JUMP JUMPDEST PUSH1 0x0 DUP1 PUSH1 0x0 DUP1 PUSH1 0x80 DUP6 DUP8 SUB SLT ISZERO PUSH2 0xDE9 JUMPI PUSH1 0x0 DUP1 REVERT JUMPDEST PUSH2 0xDF2 DUP6 PUSH2 0xD4A JUMP JUMPDEST SWAP4 POP PUSH2 0xE00 PUSH1 0x20 DUP7 ADD PUSH2 0xD89 JUMP JUMPDEST SWAP3 POP PUSH2 0xE0E PUSH1 0x40 DUP7 ADD PUSH2 0xD89 JUMP JUMPDEST SWAP4 SWAP7 SWAP3 SWAP6 POP SWAP3 SWAP4 PUSH1 0x60 ADD CALLDATALOAD SWAP3 POP POP JUMP JUMPDEST PUSH1 0x0 PUSH1 0x20 DUP3 DUP5 SUB SLT ISZERO PUSH2 0xE30 JUMPI PUSH1 0x0 DUP1 REVERT JUMPDEST PUSH2 0xD82 DUP3 PUSH2 0xD89 JUMP JUMPDEST DUP1 ISZERO ISZERO DUP2 EQ PUSH2 0xAD9 JUMPI PUSH1 0x0 DUP1 REVERT JUMPDEST PUSH1 0x0 DUP1 PUSH1 0x40 DUP4 DUP6 SUB SLT ISZERO PUSH2 0xE5A JUMPI PUSH1 0x0 DUP1 REVERT JUMPDEST PUSH2 0xE63 DUP4 PUSH2 0xD4A JUMP JUMPDEST SWAP2 POP PUSH1 0x20 DUP4 ADD CALLDATALOAD PUSH2 0xE73 DUP2 PUSH2 0xE39 JUMP JUMPDEST DUP1 SWAP2 POP POP SWAP3 POP SWAP3 SWAP1 POP JUMP JUMPDEST PUSH1 0x0 PUSH1 0x20 DUP3 DUP5 SUB SLT ISZERO PUSH2 0xE90 JUMPI PUSH1 0x0 DUP1 REVERT JUMPDEST POP MLOAD SWAP2 SWAP1 POP JUMP JUMPDEST PUSH1 0x0 PUSH1 0x20 DUP3 DUP5 SUB SLT ISZERO PUSH2 0xEA9 JUMPI PUSH1 0x0 DUP1 REVERT JUMPDEST DUP2 MLOAD PUSH2 0xD82 DUP2 PUSH2 0xE39 JUMP JUMPDEST PUSH1 0x0 DUP2 MLOAD DUP1 DUP5 MSTORE PUSH1 0x0 JUMPDEST DUP2 DUP2 LT ISZERO PUSH2 0xEDA JUMPI PUSH1 0x20 DUP2 DUP6 ADD DUP2 ADD MLOAD DUP7 DUP4 ADD DUP3 ADD MSTORE ADD PUSH2 0xEBE JUMP JUMPDEST POP PUSH1 0x0 PUSH1 0x20 DUP3 DUP7 ADD ADD MSTORE PUSH1 0x20 PUSH1 0x1F NOT PUSH1 0x1F DUP4 ADD AND DUP6 ADD ADD SWAP2 POP POP SWAP3 SWAP2 POP POP JUMP JUMPDEST PUSH1 0x0 PUSH1 0x40 PUSH8 0xFFFFFFFFFFFFFFFF DUP6 AND DUP4 MSTORE PUSH1 0x20 DUP2 DUP2 DUP6 ADD MSTORE DUP5 MLOAD PUSH1 0xA0 DUP4 DUP7 ADD MSTORE PUSH2 0xF27 PUSH1 0xE0 DUP7 ADD DUP3 PUSH2 0xEB4 JUMP JUMPDEST SWAP1 POP DUP2 DUP7 ADD MLOAD PUSH1 0x3F NOT DUP1 DUP8 DUP5 SUB ADD PUSH1 0x60 DUP9 ADD MSTORE PUSH2 0xF44 DUP4 DUP4 PUSH2 0xEB4 JUMP JUMPDEST DUP9 DUP7 ADD MLOAD DUP9 DUP3 SUB DUP4 ADD PUSH1 0x80 DUP11 ADD MSTORE DUP1 MLOAD DUP1 DUP4 MSTORE SWAP1 DUP7 ADD SWAP5 POP PUSH1 0x0 SWAP4 POP SWAP1 DUP6 ADD SWAP1 JUMPDEST DUP1 DUP5 LT ISZERO PUSH2 0xF97 JUMPI DUP5 MLOAD DUP1 MLOAD PUSH1 0x1 PUSH1 0x1 PUSH1 0xA0 SHL SUB AND DUP4 MSTORE DUP7 ADD MLOAD DUP7 DUP4 ADD MSTORE SWAP4 DUP6 ADD SWAP4 PUSH1 0x1 SWAP4 SWAP1 SWAP4 ADD SWAP3 SWAP1 DUP7 ADD SWAP1 PUSH2 0xF65 JUMP JUMPDEST POP PUSH1 0x60 DUP10 ADD MLOAD PUSH1 0x1 PUSH1 0x1 PUSH1 0xA0 SHL SUB AND PUSH1 0xA0 DUP10 ADD MSTORE PUSH1 0x80 DUP10 ADD MLOAD DUP9 DUP3 SUB DUP4 ADD PUSH1 0xC0 DUP11 ADD MSTORE SWAP6 POP PUSH2 0xFC6 DUP2 DUP8 PUSH2 0xEB4 JUMP JUMPDEST SWAP11 SWAP10 POP POP POP POP POP POP POP POP POP POP JUMP JUMPDEST PUSH4 0x4E487B71 PUSH1 0xE0 SHL PUSH1 0x0 MSTORE PUSH1 0x32 PUSH1 0x4 MSTORE PUSH1 0x24 PUSH1 0x0 REVERT INVALID LOG2 PUSH5 0x6970667358 0x22 SLT KECCAK256 0x1E PUSH18 0x518C525D87CC4912F2F6E0118054662980C GASLIMIT PUSH21 0xC981DF03FA57EF7F775964736F6C63430008130033 "
				},
				"gasEstimates": {
					"creation": {
						"codeDepositCost": "825600",
						"executionCost": "infinite",
						"totalCost": "infinite"
					},
					"external": {
						"acceptOwnership()": "52299",
						"allowlistDestinationChain(uint64,bool)": "26929",
						"allowlistedChains(uint64)": "2509",
						"owner()": "2323",
						"transferOwnership(address)": "30524",
						"transferTokensPayLINK(uint64,address,address,uint256)": "infinite",
						"transferTokensPayNative(uint64,address,address,uint256)": "infinite",
						"withdraw(address)": "infinite",
						"withdrawToken(address,address)": "infinite"
					},
					"internal": {
						"_buildCCIPMessage(address,address,uint256,address)": "infinite"
					}
				},
				"methodIdentifiers": {
					"acceptOwnership()": "79ba5097",
					"allowlistDestinationChain(uint64,bool)": "96d3b83d",
					"allowlistedChains(uint64)": "0bb106eb",
					"owner()": "8da5cb5b",
					"transferOwnership(address)": "f2fde38b",
					"transferTokensPayLINK(uint64,address,address,uint256)": "95e1402c",
					"transferTokensPayNative(uint64,address,address,uint256)": "51419b4b",
					"withdraw(address)": "51cff8d9",
					"withdrawToken(address,address)": "3aeac4e1"
				}
			},
			"storageLayout": {
				"storage": [
					{
						"astId": 134,
						"contract": "Ccip/TokenTransfer.sol:TokenTransferor",
						"label": "s_owner",
						"offset": 0,
						"slot": "0",
						"type": "t_address"
					},
					{
						"astId": 136,
						"contract": "Ccip/TokenTransfer.sol:TokenTransferor",
						"label": "s_pendingOwner",
						"offset": 0,
						"slot": "1",
						"type": "t_address"
					},
					{
						"astId": 451,
						"contract": "Ccip/TokenTransfer.sol:TokenTransferor",
						"label": "allowlistedChains",
						"offset": 0,
						"slot": "2",
						"type": "t_mapping(t_uint64,t_bool)"
					},
					{
						"astId": 454,
						"contract": "Ccip/TokenTransfer.sol:TokenTransferor",
						"label": "s_router",
						"offset": 0,
						"slot": "3",
						"type": "t_contract(IRouterClient)51"
					},
					{
						"astId": 457,
						"contract": "Ccip/TokenTransfer.sol:TokenTransferor",
						"label": "s_linkToken",
						"offset": 0,
						"slot": "4",
						"type": "t_contract(IERC20)398"
					}
				],
				"types": {
					"t_address": {
						"encoding": "inplace",
						"label": "address",
						"numberOfBytes": "20"
					},
					"t_bool": {
						"encoding": "inplace",
						"label": "bool",
						"numberOfBytes": "1"
					},
					"t_contract(IERC20)398": {
						"encoding": "inplace",
						"label": "contract IERC20",
						"numberOfBytes": "20"
					},
					"t_contract(IRouterClient)51": {
						"encoding": "inplace",
						"label": "contract IRouterClient",
						"numberOfBytes": "20"
					},
					"t_mapping(t_uint64,t_bool)": {
						"encoding": "mapping",
						"key": "t_uint64",
						"label": "mapping(uint64 => bool)",
						"numberOfBytes": "32",
						"value": "t_bool"
					},
					"t_uint64": {
						"encoding": "inplace",
						"label": "uint64",
						"numberOfBytes": "8"
					}
				}
			},
			"userdoc": {
				"kind": "user",
				"methods": {
					"acceptOwnership()": {
						"notice": "Allows an ownership transfer to be completed by the recipient."
					},
					"allowlistDestinationChain(uint64,bool)": {
						"notice": "This function can only be called by the owner."
					},
					"constructor": {
						"notice": "Constructor initializes the contract with the router address."
					},
					"owner()": {
						"notice": "Get the current owner"
					},
					"transferOwnership(address)": {
						"notice": "Allows an owner to begin transferring ownership to a new address, pending."
					},
					"transferTokensPayLINK(uint64,address,address,uint256)": {
						"notice": "Transfer tokens to receiver on the destination chain.pay in LINK.the token must be in the list of supported tokens.This function can only be called by the owner."
					},
					"transferTokensPayNative(uint64,address,address,uint256)": {
						"notice": "Transfer tokens to receiver on the destination chain.Pay in native gas such as ETH on Ethereum or MATIC on Polgon.the token must be in the list of supported tokens.This function can only be called by the owner."
					},
					"withdraw(address)": {
						"notice": "Allows the contract owner to withdraw the entire balance of Ether from the contract."
					},
					"withdrawToken(address,address)": {
						"notice": "Allows the owner of the contract to withdraw all tokens of a specific ERC20 token."
					}
				},
				"version": 1
			}
		}
	}
}