{
	"@chainlink/contracts-ccip/src/v0.8/shared/access/ConfirmedOwner.sol": {
		"ConfirmedOwner": {
			"abi": [
				{
					"inputs": [
						{
							"internalType": "address",
							"name": "newOwner",
							"type": "address"
						}
					],
					"stateMutability": "nonpayable",
					"type": "constructor"
				},
				{
					"anonymous": false,
					"inputs": [
						{
							"indexed": true,
							"internalType": "address",
							"name": "from",
							"type": "address"
						},
						{
							"indexed": true,
							"internalType": "address",
							"name": "to",
							"type": "address"
						}
					],
					"name": "OwnershipTransferRequested",
					"type": "event"
				},
				{
					"anonymous": false,
					"inputs": [
						{
							"indexed": true,
							"internalType": "address",
							"name": "from",
							"type": "address"
						},
						{
							"indexed": true,
							"internalType": "address",
							"name": "to",
							"type": "address"
						}
					],
					"name": "OwnershipTransferred",
					"type": "event"
				},
				{
					"inputs": [],
					"name": "acceptOwnership",
					"outputs": [],
					"stateMutability": "nonpayable",
					"type": "function"
				},
				{
					"inputs": [],
					"name": "owner",
					"outputs": [
						{
							"internalType": "address",
							"name": "",
							"type": "address"
						}
					],
					"stateMutability": "view",
					"type": "function"
				},
				{
					"inputs": [
						{
							"internalType": "address",
							"name": "to",
							"type": "address"
						}
					],
					"name": "transferOwnership",
					"outputs": [],
					"stateMutability": "nonpayable",
					"type": "function"
				}
			],
			"devdoc": {
				"kind": "dev",
				"methods": {},
				"title": "The ConfirmedOwner contract",
				"version": 1
			},
			"evm": {
				"assembly": "    /* \"@chainlink/contracts-ccip/src/v0.8/shared/access/ConfirmedOwner.sol\":212:353  contract ConfirmedOwner is ConfirmedOwnerWithProposal {... */\n  mstore(0x40, 0x80)\n    /* \"@chainlink/contracts-ccip/src/v0.8/shared/access/ConfirmedOwner.sol\":270:351  constructor(address newOwner) ConfirmedOwnerWithProposal(newOwner, address(0)) {} */\n  callvalue\n  dup1\n  iszero\n  tag_1\n  jumpi\n  0x00\n  dup1\n  revert\ntag_1:\n  pop\n  mload(0x40)\n  sub(codesize, bytecodeSize)\n  dup1\n  bytecodeSize\n  dup4\n  codecopy\n  dup2\n  add\n  0x40\n  dup2\n  swap1\n  mstore\n  tag_2\n  swap2\n  tag_3\n  jump\t// in\ntag_2:\n    /* \"@chainlink/contracts-ccip/src/v0.8/shared/access/ConfirmedOwner.sol\":327:335  newOwner */\n  dup1\n    /* \"@chainlink/contracts-ccip/src/v0.8/shared/access/ConfirmedOwner.sol\":345:346  0 */\n  0x00\n  sub(shl(0xa0, 0x01), 0x01)\n    /* \"@chainlink/contracts-ccip/src/v0.8/shared/access/ConfirmedOwnerWithProposal.sol\":537:559  newOwner != address(0) */\n  dup3\n  and\n    /* \"@chainlink/contracts-ccip/src/v0.8/shared/access/ConfirmedOwnerWithProposal.sol\":529:588  require(newOwner != address(0), \"Cannot set owner to zero\") */\n  tag_7\n  jumpi\n  mload(0x40)\n  shl(0xe5, 0x461bcd)\n  dup2\n  mstore\n    /* \"#utility.yul\":511:513   */\n  0x20\n    /* \"@chainlink/contracts-ccip/src/v0.8/shared/access/ConfirmedOwnerWithProposal.sol\":529:588  require(newOwner != address(0), \"Cannot set owner to zero\") */\n  0x04\n  dup3\n  add\n    /* \"#utility.yul\":493:514   */\n  mstore\n    /* \"#utility.yul\":550:552   */\n  0x18\n    /* \"#utility.yul\":530:548   */\n  0x24\n  dup3\n  add\n    /* \"#utility.yul\":523:553   */\n  mstore\n    /* \"#utility.yul\":589:615   */\n  0x43616e6e6f7420736574206f776e657220746f207a65726f0000000000000000\n    /* \"#utility.yul\":569:587   */\n  0x44\n  dup3\n  add\n    /* \"#utility.yul\":562:616   */\n  mstore\n    /* \"#utility.yul\":633:651   */\n  0x64\n  add\n    /* \"@chainlink/contracts-ccip/src/v0.8/shared/access/ConfirmedOwnerWithProposal.sol\":529:588  require(newOwner != address(0), \"Cannot set owner to zero\") */\ntag_8:\n  mload(0x40)\n  dup1\n  swap2\n  sub\n  swap1\n  revert\ntag_7:\n    /* \"@chainlink/contracts-ccip/src/v0.8/shared/access/ConfirmedOwnerWithProposal.sol\":595:602  s_owner */\n  0x00\n    /* \"@chainlink/contracts-ccip/src/v0.8/shared/access/ConfirmedOwnerWithProposal.sol\":595:613  s_owner = newOwner */\n  dup1\n  sload\n  not(sub(shl(0xa0, 0x01), 0x01))\n  and\n  sub(shl(0xa0, 0x01), 0x01)\n  dup5\n  dup2\n  and\n  swap2\n  swap1\n  swap2\n  or\n  swap1\n  swap2\n  sstore\n    /* \"@chainlink/contracts-ccip/src/v0.8/shared/access/ConfirmedOwnerWithProposal.sol\":623:649  pendingOwner != address(0) */\n  dup2\n  and\n  iszero\n    /* \"@chainlink/contracts-ccip/src/v0.8/shared/access/ConfirmedOwnerWithProposal.sol\":619:698  if (pendingOwner != address(0)) {... */\n  tag_11\n  jumpi\n    /* \"@chainlink/contracts-ccip/src/v0.8/shared/access/ConfirmedOwnerWithProposal.sol\":659:691  _transferOwnership(pendingOwner) */\n  tag_11\n    /* \"@chainlink/contracts-ccip/src/v0.8/shared/access/ConfirmedOwnerWithProposal.sol\":678:690  pendingOwner */\n  dup2\n    /* \"@chainlink/contracts-ccip/src/v0.8/shared/access/ConfirmedOwnerWithProposal.sol\":659:677  _transferOwnership */\n  tag_12\n    /* \"@chainlink/contracts-ccip/src/v0.8/shared/access/ConfirmedOwnerWithProposal.sol\":659:691  _transferOwnership(pendingOwner) */\n  jump\t// in\ntag_11:\n    /* \"@chainlink/contracts-ccip/src/v0.8/shared/access/ConfirmedOwnerWithProposal.sol\":471:702  constructor(address newOwner, address pendingOwner) {... */\n  pop\n  pop\n    /* \"@chainlink/contracts-ccip/src/v0.8/shared/access/ConfirmedOwner.sol\":270:351  constructor(address newOwner) ConfirmedOwnerWithProposal(newOwner, address(0)) {} */\n  pop\n    /* \"@chainlink/contracts-ccip/src/v0.8/shared/access/ConfirmedOwner.sol\":212:353  contract ConfirmedOwner is ConfirmedOwnerWithProposal {... */\n  jump(tag_19)\n    /* \"@chainlink/contracts-ccip/src/v0.8/shared/access/ConfirmedOwnerWithProposal.sol\":1482:1670  function _transferOwnership(address to) private {... */\ntag_12:\n    /* \"@chainlink/contracts-ccip/src/v0.8/shared/access/ConfirmedOwnerWithProposal.sol\":1550:1560  msg.sender */\n  caller\n  sub(shl(0xa0, 0x01), 0x01)\n    /* \"@chainlink/contracts-ccip/src/v0.8/shared/access/ConfirmedOwnerWithProposal.sol\":1544:1560  to != msg.sender */\n  dup3\n  and\n  sub\n    /* \"@chainlink/contracts-ccip/src/v0.8/shared/access/ConfirmedOwnerWithProposal.sol\":1536:1588  require(to != msg.sender, \"Cannot transfer to self\") */\n  tag_16\n  jumpi\n  mload(0x40)\n  shl(0xe5, 0x461bcd)\n  dup2\n  mstore\n    /* \"#utility.yul\":864:866   */\n  0x20\n    /* \"@chainlink/contracts-ccip/src/v0.8/shared/access/ConfirmedOwnerWithProposal.sol\":1536:1588  require(to != msg.sender, \"Cannot transfer to self\") */\n  0x04\n  dup3\n  add\n    /* \"#utility.yul\":846:867   */\n  mstore\n    /* \"#utility.yul\":903:905   */\n  0x17\n    /* \"#utility.yul\":883:901   */\n  0x24\n  dup3\n  add\n    /* \"#utility.yul\":876:906   */\n  mstore\n    /* \"#utility.yul\":942:967   */\n  0x43616e6e6f74207472616e7366657220746f2073656c66000000000000000000\n    /* \"#utility.yul\":922:940   */\n  0x44\n  dup3\n  add\n    /* \"#utility.yul\":915:968   */\n  mstore\n    /* \"#utility.yul\":985:1003   */\n  0x64\n  add\n    /* \"@chainlink/contracts-ccip/src/v0.8/shared/access/ConfirmedOwnerWithProposal.sol\":1536:1588  require(to != msg.sender, \"Cannot transfer to self\") */\n  tag_8\n    /* \"#utility.yul\":662:1009   */\n  jump\n    /* \"@chainlink/contracts-ccip/src/v0.8/shared/access/ConfirmedOwnerWithProposal.sol\":1536:1588  require(to != msg.sender, \"Cannot transfer to self\") */\ntag_16:\n    /* \"@chainlink/contracts-ccip/src/v0.8/shared/access/ConfirmedOwnerWithProposal.sol\":1595:1609  s_pendingOwner */\n  0x01\n    /* \"@chainlink/contracts-ccip/src/v0.8/shared/access/ConfirmedOwnerWithProposal.sol\":1595:1614  s_pendingOwner = to */\n  dup1\n  sload\n  not(sub(shl(0xa0, 0x01), 0x01))\n  and\n  sub(shl(0xa0, 0x01), 0x01)\n  dup4\n  dup2\n  and\n  swap2\n  dup3\n  or\n  swap1\n  swap3\n  sstore\n  0x00\n    /* \"@chainlink/contracts-ccip/src/v0.8/shared/access/ConfirmedOwnerWithProposal.sol\":1653:1660  s_owner */\n  dup1\n  sload\n    /* \"@chainlink/contracts-ccip/src/v0.8/shared/access/ConfirmedOwnerWithProposal.sol\":1626:1665  OwnershipTransferRequested(s_owner, to) */\n  mload(0x40)\n    /* \"@chainlink/contracts-ccip/src/v0.8/shared/access/ConfirmedOwnerWithProposal.sol\":1595:1614  s_pendingOwner = to */\n  swap3\n  swap4\n    /* \"@chainlink/contracts-ccip/src/v0.8/shared/access/ConfirmedOwnerWithProposal.sol\":1653:1660  s_owner */\n  and\n  swap2\n    /* \"@chainlink/contracts-ccip/src/v0.8/shared/access/ConfirmedOwnerWithProposal.sol\":1626:1665  OwnershipTransferRequested(s_owner, to) */\n  0xed8889f560326eb138920d842192f0eb3dd22b4f139c87a2c57538e05bae1278\n  swap2\n  swap1\n  log3\n    /* \"@chainlink/contracts-ccip/src/v0.8/shared/access/ConfirmedOwnerWithProposal.sol\":1482:1670  function _transferOwnership(address to) private {... */\n  pop\n  jump\t// out\n    /* \"#utility.yul\":14:304   */\ntag_3:\n    /* \"#utility.yul\":84:90   */\n  0x00\n    /* \"#utility.yul\":137:139   */\n  0x20\n    /* \"#utility.yul\":125:134   */\n  dup3\n    /* \"#utility.yul\":116:123   */\n  dup5\n    /* \"#utility.yul\":112:135   */\n  sub\n    /* \"#utility.yul\":108:140   */\n  slt\n    /* \"#utility.yul\":105:157   */\n  iszero\n  tag_21\n  jumpi\n    /* \"#utility.yul\":153:154   */\n  0x00\n    /* \"#utility.yul\":150:151   */\n  dup1\n    /* \"#utility.yul\":143:155   */\n  revert\n    /* \"#utility.yul\":105:157   */\ntag_21:\n    /* \"#utility.yul\":179:195   */\n  dup2\n  mload\n  sub(shl(0xa0, 0x01), 0x01)\n    /* \"#utility.yul\":224:255   */\n  dup2\n  and\n    /* \"#utility.yul\":214:256   */\n  dup2\n  eq\n    /* \"#utility.yul\":204:274   */\n  tag_22\n  jumpi\n    /* \"#utility.yul\":270:271   */\n  0x00\n    /* \"#utility.yul\":267:268   */\n  dup1\n    /* \"#utility.yul\":260:272   */\n  revert\n    /* \"#utility.yul\":204:274   */\ntag_22:\n    /* \"#utility.yul\":293:298   */\n  swap4\n    /* \"#utility.yul\":14:304   */\n  swap3\n  pop\n  pop\n  pop\n  jump\t// out\n    /* \"#utility.yul\":662:1009   */\ntag_19:\n    /* \"@chainlink/contracts-ccip/src/v0.8/shared/access/ConfirmedOwner.sol\":212:353  contract ConfirmedOwner is ConfirmedOwnerWithProposal {... */\n  dataSize(sub_0)\n  dup1\n  dataOffset(sub_0)\n  0x00\n  codecopy\n  0x00\n  return\nstop\n\nsub_0: assembly {\n        /* \"@chainlink/contracts-ccip/src/v0.8/shared/access/ConfirmedOwner.sol\":212:353  contract ConfirmedOwner is ConfirmedOwnerWithProposal {... */\n      mstore(0x40, 0x80)\n      callvalue\n      dup1\n      iszero\n      tag_1\n      jumpi\n      0x00\n      dup1\n      revert\n    tag_1:\n      pop\n      jumpi(tag_2, lt(calldatasize, 0x04))\n      shr(0xe0, calldataload(0x00))\n      dup1\n      0x79ba5097\n      eq\n      tag_3\n      jumpi\n      dup1\n      0x8da5cb5b\n      eq\n      tag_4\n      jumpi\n      dup1\n      0xf2fde38b\n      eq\n      tag_5\n      jumpi\n    tag_2:\n      0x00\n      dup1\n      revert\n        /* \"@chainlink/contracts-ccip/src/v0.8/shared/access/ConfirmedOwnerWithProposal.sol\":1001:1266  function acceptOwnership() external override {... */\n    tag_3:\n      tag_6\n      tag_7\n      jump\t// in\n    tag_6:\n      stop\n        /* \"@chainlink/contracts-ccip/src/v0.8/shared/access/ConfirmedOwnerWithProposal.sol\":1317:1398  function owner() public view override returns (address) {... */\n    tag_4:\n        /* \"@chainlink/contracts-ccip/src/v0.8/shared/access/ConfirmedOwnerWithProposal.sol\":1364:1371  address */\n      0x00\n        /* \"@chainlink/contracts-ccip/src/v0.8/shared/access/ConfirmedOwnerWithProposal.sol\":1386:1393  s_owner */\n      sload\n        /* \"@chainlink/contracts-ccip/src/v0.8/shared/access/ConfirmedOwnerWithProposal.sol\":1317:1398  function owner() public view override returns (address) {... */\n      0x40\n      dup1\n      mload\n      sub(shl(0xa0, 0x01), 0x01)\n        /* \"@chainlink/contracts-ccip/src/v0.8/shared/access/ConfirmedOwnerWithProposal.sol\":1386:1393  s_owner */\n      swap1\n      swap3\n      and\n        /* \"#utility.yul\":160:211   */\n      dup3\n      mstore\n        /* \"@chainlink/contracts-ccip/src/v0.8/shared/access/ConfirmedOwnerWithProposal.sol\":1317:1398  function owner() public view override returns (address) {... */\n      mload\n      swap1\n      dup2\n      swap1\n      sub\n        /* \"#utility.yul\":148:150   */\n      0x20\n        /* \"@chainlink/contracts-ccip/src/v0.8/shared/access/ConfirmedOwnerWithProposal.sol\":1317:1398  function owner() public view override returns (address) {... */\n      add\n      swap1\n      return\n        /* \"@chainlink/contracts-ccip/src/v0.8/shared/access/ConfirmedOwnerWithProposal.sol\":811:909  function transferOwnership(address to) public override onlyOwner {... */\n    tag_5:\n      tag_6\n      tag_13\n      calldatasize\n      0x04\n      tag_14\n      jump\t// in\n    tag_13:\n      tag_15\n      jump\t// in\n        /* \"@chainlink/contracts-ccip/src/v0.8/shared/access/ConfirmedOwnerWithProposal.sol\":1001:1266  function acceptOwnership() external override {... */\n    tag_7:\n        /* \"@chainlink/contracts-ccip/src/v0.8/shared/access/ConfirmedOwnerWithProposal.sol\":1074:1088  s_pendingOwner */\n      and(sub(shl(0xa0, 0x01), 0x01), sload(0x01))\n        /* \"@chainlink/contracts-ccip/src/v0.8/shared/access/ConfirmedOwnerWithProposal.sol\":1060:1070  msg.sender */\n      caller\n        /* \"@chainlink/contracts-ccip/src/v0.8/shared/access/ConfirmedOwnerWithProposal.sol\":1060:1088  msg.sender == s_pendingOwner */\n      eq\n        /* \"@chainlink/contracts-ccip/src/v0.8/shared/access/ConfirmedOwnerWithProposal.sol\":1052:1115  require(msg.sender == s_pendingOwner, \"Must be proposed owner\") */\n      tag_17\n      jumpi\n      mload(0x40)\n      shl(0xe5, 0x461bcd)\n      dup2\n      mstore\n        /* \"#utility.yul\":715:717   */\n      0x20\n        /* \"@chainlink/contracts-ccip/src/v0.8/shared/access/ConfirmedOwnerWithProposal.sol\":1052:1115  require(msg.sender == s_pendingOwner, \"Must be proposed owner\") */\n      0x04\n      dup3\n      add\n        /* \"#utility.yul\":697:718   */\n      mstore\n        /* \"#utility.yul\":754:756   */\n      0x16\n        /* \"#utility.yul\":734:752   */\n      0x24\n      dup3\n      add\n        /* \"#utility.yul\":727:757   */\n      mstore\n      shl(0x51, 0x26bab9ba10313290383937b837b9b2b21037bbb732b9)\n        /* \"#utility.yul\":773:791   */\n      0x44\n      dup3\n      add\n        /* \"#utility.yul\":766:818   */\n      mstore\n        /* \"#utility.yul\":835:853   */\n      0x64\n      add\n        /* \"@chainlink/contracts-ccip/src/v0.8/shared/access/ConfirmedOwnerWithProposal.sol\":1052:1115  require(msg.sender == s_pendingOwner, \"Must be proposed owner\") */\n    tag_18:\n      mload(0x40)\n      dup1\n      swap2\n      sub\n      swap1\n      revert\n    tag_17:\n        /* \"@chainlink/contracts-ccip/src/v0.8/shared/access/ConfirmedOwnerWithProposal.sol\":1122:1138  address oldOwner */\n      0x00\n        /* \"@chainlink/contracts-ccip/src/v0.8/shared/access/ConfirmedOwnerWithProposal.sol\":1141:1148  s_owner */\n      dup1\n      sload\n        /* \"@chainlink/contracts-ccip/src/v0.8/shared/access/ConfirmedOwnerWithProposal.sol\":1164:1174  msg.sender */\n      caller\n      not(sub(shl(0xa0, 0x01), 0x01))\n        /* \"@chainlink/contracts-ccip/src/v0.8/shared/access/ConfirmedOwnerWithProposal.sol\":1154:1174  s_owner = msg.sender */\n      dup1\n      dup4\n      and\n      dup3\n      or\n      dup5\n      sstore\n      0x01\n        /* \"@chainlink/contracts-ccip/src/v0.8/shared/access/ConfirmedOwnerWithProposal.sol\":1180:1207  s_pendingOwner = address(0) */\n      dup1\n      sload\n      swap1\n      swap2\n      and\n      swap1\n      sstore\n        /* \"@chainlink/contracts-ccip/src/v0.8/shared/access/ConfirmedOwnerWithProposal.sol\":1219:1261  OwnershipTransferred(oldOwner, msg.sender) */\n      mload(0x40)\n      sub(shl(0xa0, 0x01), 0x01)\n        /* \"@chainlink/contracts-ccip/src/v0.8/shared/access/ConfirmedOwnerWithProposal.sol\":1141:1148  s_owner */\n      swap1\n      swap3\n      and\n      swap3\n        /* \"@chainlink/contracts-ccip/src/v0.8/shared/access/ConfirmedOwnerWithProposal.sol\":1164:1174  msg.sender */\n      swap1\n      swap2\n        /* \"@chainlink/contracts-ccip/src/v0.8/shared/access/ConfirmedOwnerWithProposal.sol\":1141:1148  s_owner */\n      dup4\n      swap2\n        /* \"@chainlink/contracts-ccip/src/v0.8/shared/access/ConfirmedOwnerWithProposal.sol\":1219:1261  OwnershipTransferred(oldOwner, msg.sender) */\n      0x8be0079c531659141344cd1fd0a4f28419497f9722a3daafe3b4186f6b6457e0\n      swap2\n      log3\n        /* \"@chainlink/contracts-ccip/src/v0.8/shared/access/ConfirmedOwnerWithProposal.sol\":1046:1266  {... */\n      pop\n        /* \"@chainlink/contracts-ccip/src/v0.8/shared/access/ConfirmedOwnerWithProposal.sol\":1001:1266  function acceptOwnership() external override {... */\n      jump\t// out\n        /* \"@chainlink/contracts-ccip/src/v0.8/shared/access/ConfirmedOwnerWithProposal.sol\":811:909  function transferOwnership(address to) public override onlyOwner {... */\n    tag_15:\n        /* \"@chainlink/contracts-ccip/src/v0.8/shared/access/ConfirmedOwnerWithProposal.sol\":1941:1961  _validateOwnership() */\n      tag_22\n        /* \"@chainlink/contracts-ccip/src/v0.8/shared/access/ConfirmedOwnerWithProposal.sol\":1941:1959  _validateOwnership */\n      tag_23\n        /* \"@chainlink/contracts-ccip/src/v0.8/shared/access/ConfirmedOwnerWithProposal.sol\":1941:1961  _validateOwnership() */\n      jump\t// in\n    tag_22:\n        /* \"@chainlink/contracts-ccip/src/v0.8/shared/access/ConfirmedOwnerWithProposal.sol\":882:904  _transferOwnership(to) */\n      tag_25\n        /* \"@chainlink/contracts-ccip/src/v0.8/shared/access/ConfirmedOwnerWithProposal.sol\":901:903  to */\n      dup2\n        /* \"@chainlink/contracts-ccip/src/v0.8/shared/access/ConfirmedOwnerWithProposal.sol\":882:900  _transferOwnership */\n      tag_26\n        /* \"@chainlink/contracts-ccip/src/v0.8/shared/access/ConfirmedOwnerWithProposal.sol\":882:904  _transferOwnership(to) */\n      jump\t// in\n    tag_25:\n        /* \"@chainlink/contracts-ccip/src/v0.8/shared/access/ConfirmedOwnerWithProposal.sol\":811:909  function transferOwnership(address to) public override onlyOwner {... */\n      pop\n      jump\t// out\n        /* \"@chainlink/contracts-ccip/src/v0.8/shared/access/ConfirmedOwnerWithProposal.sol\":1715:1826  function _validateOwnership() internal view {... */\n    tag_23:\n        /* \"@chainlink/contracts-ccip/src/v0.8/shared/access/ConfirmedOwnerWithProposal.sol\":1787:1794  s_owner */\n      and(sub(shl(0xa0, 0x01), 0x01), sload(0x00))\n        /* \"@chainlink/contracts-ccip/src/v0.8/shared/access/ConfirmedOwnerWithProposal.sol\":1773:1783  msg.sender */\n      caller\n        /* \"@chainlink/contracts-ccip/src/v0.8/shared/access/ConfirmedOwnerWithProposal.sol\":1773:1794  msg.sender == s_owner */\n      eq\n        /* \"@chainlink/contracts-ccip/src/v0.8/shared/access/ConfirmedOwnerWithProposal.sol\":1765:1821  require(msg.sender == s_owner, \"Only callable by owner\") */\n      tag_28\n      jumpi\n      mload(0x40)\n      shl(0xe5, 0x461bcd)\n      dup2\n      mstore\n        /* \"#utility.yul\":1066:1068   */\n      0x20\n        /* \"@chainlink/contracts-ccip/src/v0.8/shared/access/ConfirmedOwnerWithProposal.sol\":1765:1821  require(msg.sender == s_owner, \"Only callable by owner\") */\n      0x04\n      dup3\n      add\n        /* \"#utility.yul\":1048:1069   */\n      mstore\n        /* \"#utility.yul\":1105:1107   */\n      0x16\n        /* \"#utility.yul\":1085:1103   */\n      0x24\n      dup3\n      add\n        /* \"#utility.yul\":1078:1108   */\n      mstore\n      shl(0x51, 0x27b7363c9031b0b63630b1363290313c9037bbb732b9)\n        /* \"#utility.yul\":1124:1142   */\n      0x44\n      dup3\n      add\n        /* \"#utility.yul\":1117:1169   */\n      mstore\n        /* \"#utility.yul\":1186:1204   */\n      0x64\n      add\n        /* \"@chainlink/contracts-ccip/src/v0.8/shared/access/ConfirmedOwnerWithProposal.sol\":1765:1821  require(msg.sender == s_owner, \"Only callable by owner\") */\n      tag_18\n        /* \"#utility.yul\":864:1210   */\n      jump\n        /* \"@chainlink/contracts-ccip/src/v0.8/shared/access/ConfirmedOwnerWithProposal.sol\":1765:1821  require(msg.sender == s_owner, \"Only callable by owner\") */\n    tag_28:\n        /* \"@chainlink/contracts-ccip/src/v0.8/shared/access/ConfirmedOwnerWithProposal.sol\":1715:1826  function _validateOwnership() internal view {... */\n      jump\t// out\n        /* \"@chainlink/contracts-ccip/src/v0.8/shared/access/ConfirmedOwnerWithProposal.sol\":1482:1670  function _transferOwnership(address to) private {... */\n    tag_26:\n        /* \"@chainlink/contracts-ccip/src/v0.8/shared/access/ConfirmedOwnerWithProposal.sol\":1550:1560  msg.sender */\n      caller\n      sub(shl(0xa0, 0x01), 0x01)\n        /* \"@chainlink/contracts-ccip/src/v0.8/shared/access/ConfirmedOwnerWithProposal.sol\":1544:1560  to != msg.sender */\n      dup3\n      and\n      sub\n        /* \"@chainlink/contracts-ccip/src/v0.8/shared/access/ConfirmedOwnerWithProposal.sol\":1536:1588  require(to != msg.sender, \"Cannot transfer to self\") */\n      tag_32\n      jumpi\n      mload(0x40)\n      shl(0xe5, 0x461bcd)\n      dup2\n      mstore\n        /* \"#utility.yul\":1417:1419   */\n      0x20\n        /* \"@chainlink/contracts-ccip/src/v0.8/shared/access/ConfirmedOwnerWithProposal.sol\":1536:1588  require(to != msg.sender, \"Cannot transfer to self\") */\n      0x04\n      dup3\n      add\n        /* \"#utility.yul\":1399:1420   */\n      mstore\n        /* \"#utility.yul\":1456:1458   */\n      0x17\n        /* \"#utility.yul\":1436:1454   */\n      0x24\n      dup3\n      add\n        /* \"#utility.yul\":1429:1459   */\n      mstore\n        /* \"#utility.yul\":1495:1520   */\n      0x43616e6e6f74207472616e7366657220746f2073656c66000000000000000000\n        /* \"#utility.yul\":1475:1493   */\n      0x44\n      dup3\n      add\n        /* \"#utility.yul\":1468:1521   */\n      mstore\n        /* \"#utility.yul\":1538:1556   */\n      0x64\n      add\n        /* \"@chainlink/contracts-ccip/src/v0.8/shared/access/ConfirmedOwnerWithProposal.sol\":1536:1588  require(to != msg.sender, \"Cannot transfer to self\") */\n      tag_18\n        /* \"#utility.yul\":1215:1562   */\n      jump\n        /* \"@chainlink/contracts-ccip/src/v0.8/shared/access/ConfirmedOwnerWithProposal.sol\":1536:1588  require(to != msg.sender, \"Cannot transfer to self\") */\n    tag_32:\n        /* \"@chainlink/contracts-ccip/src/v0.8/shared/access/ConfirmedOwnerWithProposal.sol\":1595:1609  s_pendingOwner */\n      0x01\n        /* \"@chainlink/contracts-ccip/src/v0.8/shared/access/ConfirmedOwnerWithProposal.sol\":1595:1614  s_pendingOwner = to */\n      dup1\n      sload\n      not(sub(shl(0xa0, 0x01), 0x01))\n      and\n      sub(shl(0xa0, 0x01), 0x01)\n      dup4\n      dup2\n      and\n      swap2\n      dup3\n      or\n      swap1\n      swap3\n      sstore\n      0x00\n        /* \"@chainlink/contracts-ccip/src/v0.8/shared/access/ConfirmedOwnerWithProposal.sol\":1653:1660  s_owner */\n      dup1\n      sload\n        /* \"@chainlink/contracts-ccip/src/v0.8/shared/access/ConfirmedOwnerWithProposal.sol\":1626:1665  OwnershipTransferRequested(s_owner, to) */\n      mload(0x40)\n        /* \"@chainlink/contracts-ccip/src/v0.8/shared/access/ConfirmedOwnerWithProposal.sol\":1595:1614  s_pendingOwner = to */\n      swap3\n      swap4\n        /* \"@chainlink/contracts-ccip/src/v0.8/shared/access/ConfirmedOwnerWithProposal.sol\":1653:1660  s_owner */\n      and\n      swap2\n        /* \"@chainlink/contracts-ccip/src/v0.8/shared/access/ConfirmedOwnerWithProposal.sol\":1626:1665  OwnershipTransferRequested(s_owner, to) */\n      0xed8889f560326eb138920d842192f0eb3dd22b4f139c87a2c57538e05bae1278\n      swap2\n      swap1\n      log3\n        /* \"@chainlink/contracts-ccip/src/v0.8/shared/access/ConfirmedOwnerWithProposal.sol\":1482:1670  function _transferOwnership(address to) private {... */\n      pop\n      jump\t// out\n        /* \"#utility.yul\":222:508   */\n    tag_14:\n        /* \"#utility.yul\":281:287   */\n      0x00\n        /* \"#utility.yul\":334:336   */\n      0x20\n        /* \"#utility.yul\":322:331   */\n      dup3\n        /* \"#utility.yul\":313:320   */\n      dup5\n        /* \"#utility.yul\":309:332   */\n      sub\n        /* \"#utility.yul\":305:337   */\n      slt\n        /* \"#utility.yul\":302:354   */\n      iszero\n      tag_38\n      jumpi\n        /* \"#utility.yul\":350:351   */\n      0x00\n        /* \"#utility.yul\":347:348   */\n      dup1\n        /* \"#utility.yul\":340:352   */\n      revert\n        /* \"#utility.yul\":302:354   */\n    tag_38:\n        /* \"#utility.yul\":376:399   */\n      dup2\n      calldataload\n      sub(shl(0xa0, 0x01), 0x01)\n        /* \"#utility.yul\":428:459   */\n      dup2\n      and\n        /* \"#utility.yul\":418:460   */\n      dup2\n      eq\n        /* \"#utility.yul\":408:478   */\n      tag_39\n      jumpi\n        /* \"#utility.yul\":474:475   */\n      0x00\n        /* \"#utility.yul\":471:472   */\n      dup1\n        /* \"#utility.yul\":464:476   */\n      revert\n        /* \"#utility.yul\":408:478   */\n    tag_39:\n        /* \"#utility.yul\":497:502   */\n      swap4\n        /* \"#utility.yul\":222:508   */\n      swap3\n      pop\n      pop\n      pop\n      jump\t// out\n\n    auxdata: 0xa26469706673582212208052d6cfdef6505ba46b5e2797518612fbc0ee953123274611960ef0198f3a6564736f6c63430008130033\n}\n",
				"bytecode": {
					"linkReferences": {},
					"object": "608060405234801561001057600080fd5b5060405161045638038061045683398101604081905261002f9161016e565b8060006001600160a01b03821661008d5760405162461bcd60e51b815260206004820152601860248201527f43616e6e6f7420736574206f776e657220746f207a65726f000000000000000060448201526064015b60405180910390fd5b600080546001600160a01b0319166001600160a01b03848116919091179091558116156100bd576100bd816100c5565b50505061019e565b336001600160a01b0382160361011d5760405162461bcd60e51b815260206004820152601760248201527f43616e6e6f74207472616e7366657220746f2073656c660000000000000000006044820152606401610084565b600180546001600160a01b0319166001600160a01b0383811691821790925560008054604051929316917fed8889f560326eb138920d842192f0eb3dd22b4f139c87a2c57538e05bae12789190a350565b60006020828403121561018057600080fd5b81516001600160a01b038116811461019757600080fd5b9392505050565b6102a9806101ad6000396000f3fe608060405234801561001057600080fd5b50600436106100415760003560e01c806379ba5097146100465780638da5cb5b14610050578063f2fde38b1461006f575b600080fd5b61004e610082565b005b600054604080516001600160a01b039092168252519081900360200190f35b61004e61007d366004610243565b610131565b6001546001600160a01b031633146100da5760405162461bcd60e51b815260206004820152601660248201527526bab9ba10313290383937b837b9b2b21037bbb732b960511b60448201526064015b60405180910390fd5b60008054336001600160a01b0319808316821784556001805490911690556040516001600160a01b0390921692909183917f8be0079c531659141344cd1fd0a4f28419497f9722a3daafe3b4186f6b6457e091a350565b610139610145565b6101428161019a565b50565b6000546001600160a01b031633146101985760405162461bcd60e51b815260206004820152601660248201527527b7363c9031b0b63630b1363290313c9037bbb732b960511b60448201526064016100d1565b565b336001600160a01b038216036101f25760405162461bcd60e51b815260206004820152601760248201527f43616e6e6f74207472616e7366657220746f2073656c6600000000000000000060448201526064016100d1565b600180546001600160a01b0319166001600160a01b0383811691821790925560008054604051929316917fed8889f560326eb138920d842192f0eb3dd22b4f139c87a2c57538e05bae12789190a350565b60006020828403121561025557600080fd5b81356001600160a01b038116811461026c57600080fd5b939250505056fea26469706673582212208052d6cfdef6505ba46b5e2797518612fbc0ee953123274611960ef0198f3a6564736f6c63430008130033",
					"opcodes": "PUSH1 0x80 PUSH1 0x40 MSTORE CALLVALUE DUP1 ISZERO PUSH2 0x10 JUMPI PUSH1 0x0 DUP1 REVERT JUMPDEST POP PUSH1 0x40 MLOAD PUSH2 0x456 CODESIZE SUB DUP1 PUSH2 0x456 DUP4 CODECOPY DUP2 ADD PUSH1 0x40 DUP2 SWAP1 MSTORE PUSH2 0x2F SWAP2 PUSH2 0x16E JUMP JUMPDEST DUP1 PUSH1 0x0 PUSH1 0x1 PUSH1 0x1 PUSH1 0xA0 SHL SUB DUP3 AND PUSH2 0x8D JUMPI PUSH1 0x40 MLOAD PUSH3 0x461BCD PUSH1 0xE5 SHL DUP2 MSTORE PUSH1 0x20 PUSH1 0x4 DUP3 ADD MSTORE PUSH1 0x18 PUSH1 0x24 DUP3 ADD MSTORE PUSH32 0x43616E6E6F7420736574206F776E657220746F207A65726F0000000000000000 PUSH1 0x44 DUP3 ADD MSTORE PUSH1 0x64 ADD JUMPDEST PUSH1 0x40 MLOAD DUP1 SWAP2 SUB SWAP1 REVERT JUMPDEST PUSH1 0x0 DUP1 SLOAD PUSH1 0x1 PUSH1 0x1 PUSH1 0xA0 SHL SUB NOT AND PUSH1 0x1 PUSH1 0x1 PUSH1 0xA0 SHL SUB DUP5 DUP2 AND SWAP2 SWAP1 SWAP2 OR SWAP1 SWAP2 SSTORE DUP2 AND ISZERO PUSH2 0xBD JUMPI PUSH2 0xBD DUP2 PUSH2 0xC5 JUMP JUMPDEST POP POP POP PUSH2 0x19E JUMP JUMPDEST CALLER PUSH1 0x1 PUSH1 0x1 PUSH1 0xA0 SHL SUB DUP3 AND SUB PUSH2 0x11D JUMPI PUSH1 0x40 MLOAD PUSH3 0x461BCD PUSH1 0xE5 SHL DUP2 MSTORE PUSH1 0x20 PUSH1 0x4 DUP3 ADD MSTORE PUSH1 0x17 PUSH1 0x24 DUP3 ADD MSTORE PUSH32 0x43616E6E6F74207472616E7366657220746F2073656C66000000000000000000 PUSH1 0x44 DUP3 ADD MSTORE PUSH1 0x64 ADD PUSH2 0x84 JUMP JUMPDEST PUSH1 0x1 DUP1 SLOAD PUSH1 0x1 PUSH1 0x1 PUSH1 0xA0 SHL SUB NOT AND PUSH1 0x1 PUSH1 0x1 PUSH1 0xA0 SHL SUB DUP4 DUP2 AND SWAP2 DUP3 OR SWAP1 SWAP3 SSTORE PUSH1 0x0 DUP1 SLOAD PUSH1 0x40 MLOAD SWAP3 SWAP4 AND SWAP2 PUSH32 0xED8889F560326EB138920D842192F0EB3DD22B4F139C87A2C57538E05BAE1278 SWAP2 SWAP1 LOG3 POP JUMP JUMPDEST PUSH1 0x0 PUSH1 0x20 DUP3 DUP5 SUB SLT ISZERO PUSH2 0x180 JUMPI PUSH1 0x0 DUP1 REVERT JUMPDEST DUP2 MLOAD PUSH1 0x1 PUSH1 0x1 PUSH1 0xA0 SHL SUB DUP2 AND DUP2 EQ PUSH2 0x197 JUMPI PUSH1 0x0 DUP1 REVERT JUMPDEST SWAP4 SWAP3 POP POP POP JUMP JUMPDEST PUSH2 0x2A9 DUP1 PUSH2 0x1AD PUSH1 0x0 CODECOPY PUSH1 0x0 RETURN INVALID PUSH1 0x80 PUSH1 0x40 MSTORE CALLVALUE DUP1 ISZERO PUSH2 0x10 JUMPI PUSH1 0x0 DUP1 REVERT JUMPDEST POP PUSH1 0x4 CALLDATASIZE LT PUSH2 0x41 JUMPI PUSH1 0x0 CALLDATALOAD PUSH1 0xE0 SHR DUP1 PUSH4 0x79BA5097 EQ PUSH2 0x46 JUMPI DUP1 PUSH4 0x8DA5CB5B EQ PUSH2 0x50 JUMPI DUP1 PUSH4 0xF2FDE38B EQ PUSH2 0x6F JUMPI JUMPDEST PUSH1 0x0 DUP1 REVERT JUMPDEST PUSH2 0x4E PUSH2 0x82 JUMP JUMPDEST STOP JUMPDEST PUSH1 0x0 SLOAD PUSH1 0x40 DUP1 MLOAD PUSH1 0x1 PUSH1 0x1 PUSH1 0xA0 SHL SUB SWAP1 SWAP3 AND DUP3 MSTORE MLOAD SWAP1 DUP2 SWAP1 SUB PUSH1 0x20 ADD SWAP1 RETURN JUMPDEST PUSH2 0x4E PUSH2 0x7D CALLDATASIZE PUSH1 0x4 PUSH2 0x243 JUMP JUMPDEST PUSH2 0x131 JUMP JUMPDEST PUSH1 0x1 SLOAD PUSH1 0x1 PUSH1 0x1 PUSH1 0xA0 SHL SUB AND CALLER EQ PUSH2 0xDA JUMPI PUSH1 0x40 MLOAD PUSH3 0x461BCD PUSH1 0xE5 SHL DUP2 MSTORE PUSH1 0x20 PUSH1 0x4 DUP3 ADD MSTORE PUSH1 0x16 PUSH1 0x24 DUP3 ADD MSTORE PUSH22 0x26BAB9BA10313290383937B837B9B2B21037BBB732B9 PUSH1 0x51 SHL PUSH1 0x44 DUP3 ADD MSTORE PUSH1 0x64 ADD JUMPDEST PUSH1 0x40 MLOAD DUP1 SWAP2 SUB SWAP1 REVERT JUMPDEST PUSH1 0x0 DUP1 SLOAD CALLER PUSH1 0x1 PUSH1 0x1 PUSH1 0xA0 SHL SUB NOT DUP1 DUP4 AND DUP3 OR DUP5 SSTORE PUSH1 0x1 DUP1 SLOAD SWAP1 SWAP2 AND SWAP1 SSTORE PUSH1 0x40 MLOAD PUSH1 0x1 PUSH1 0x1 PUSH1 0xA0 SHL SUB SWAP1 SWAP3 AND SWAP3 SWAP1 SWAP2 DUP4 SWAP2 PUSH32 0x8BE0079C531659141344CD1FD0A4F28419497F9722A3DAAFE3B4186F6B6457E0 SWAP2 LOG3 POP JUMP JUMPDEST PUSH2 0x139 PUSH2 0x145 JUMP JUMPDEST PUSH2 0x142 DUP2 PUSH2 0x19A JUMP JUMPDEST POP JUMP JUMPDEST PUSH1 0x0 SLOAD PUSH1 0x1 PUSH1 0x1 PUSH1 0xA0 SHL SUB AND CALLER EQ PUSH2 0x198 JUMPI PUSH1 0x40 MLOAD PUSH3 0x461BCD PUSH1 0xE5 SHL DUP2 MSTORE PUSH1 0x20 PUSH1 0x4 DUP3 ADD MSTORE PUSH1 0x16 PUSH1 0x24 DUP3 ADD MSTORE PUSH22 0x27B7363C9031B0B63630B1363290313C9037BBB732B9 PUSH1 0x51 SHL PUSH1 0x44 DUP3 ADD MSTORE PUSH1 0x64 ADD PUSH2 0xD1 JUMP JUMPDEST JUMP JUMPDEST CALLER PUSH1 0x1 PUSH1 0x1 PUSH1 0xA0 SHL SUB DUP3 AND SUB PUSH2 0x1F2 JUMPI PUSH1 0x40 MLOAD PUSH3 0x461BCD PUSH1 0xE5 SHL DUP2 MSTORE PUSH1 0x20 PUSH1 0x4 DUP3 ADD MSTORE PUSH1 0x17 PUSH1 0x24 DUP3 ADD MSTORE PUSH32 0x43616E6E6F74207472616E7366657220746F2073656C66000000000000000000 PUSH1 0x44 DUP3 ADD MSTORE PUSH1 0x64 ADD PUSH2 0xD1 JUMP JUMPDEST PUSH1 0x1 DUP1 SLOAD PUSH1 0x1 PUSH1 0x1 PUSH1 0xA0 SHL SUB NOT AND PUSH1 0x1 PUSH1 0x1 PUSH1 0xA0 SHL SUB DUP4 DUP2 AND SWAP2 DUP3 OR SWAP1 SWAP3 SSTORE PUSH1 0x0 DUP1 SLOAD PUSH1 0x40 MLOAD SWAP3 SWAP4 AND SWAP2 PUSH32 0xED8889F560326EB138920D842192F0EB3DD22B4F139C87A2C57538E05BAE1278 SWAP2 SWAP1 LOG3 POP JUMP JUMPDEST PUSH1 0x0 PUSH1 0x20 DUP3 DUP5 SUB SLT ISZERO PUSH2 0x255 JUMPI PUSH1 0x0 DUP1 REVERT JUMPDEST DUP2 CALLDATALOAD PUSH1 0x1 PUSH1 0x1 PUSH1 0xA0 SHL SUB DUP2 AND DUP2 EQ PUSH2 0x26C JUMPI PUSH1 0x0 DUP1 REVERT JUMPDEST SWAP4 SWAP3 POP POP POP JUMP INVALID LOG2 PUSH5 0x6970667358 0x22 SLT KECCAK256 DUP1 MSTORE 0xD6 0xCF 0xDE 0xF6 POP JUMPDEST LOG4 PUSH12 0x5E2797518612FBC0EE953123 0x27 CHAINID GT SWAP7 0xE CREATE NOT DUP16 GASPRICE PUSH6 0x64736F6C6343 STOP ADDMOD SGT STOP CALLER "
				},
				"gasEstimates": {
					"creation": {
						"codeDepositCost": "136200",
						"executionCost": "infinite",
						"totalCost": "infinite"
					},
					"external": {
						"acceptOwnership()": "52277",
						"owner()": "2292",
						"transferOwnership(address)": "30423"
					}
				},
				"methodIdentifiers": {
					"acceptOwnership()": "79ba5097",
					"owner()": "8da5cb5b",
					"transferOwnership(address)": "f2fde38b"
				}
			},
			"storageLayout": {
				"storage": [
					{
						"astId": 134,
						"contract": "@chainlink/contracts-ccip/src/v0.8/shared/access/ConfirmedOwner.sol:ConfirmedOwner",
						"label": "s_owner",
						"offset": 0,
						"slot": "0",
						"type": "t_address"
					},
					{
						"astId": 136,
						"contract": "@chainlink/contracts-ccip/src/v0.8/shared/access/ConfirmedOwner.sol:ConfirmedOwner",
						"label": "s_pendingOwner",
						"offset": 0,
						"slot": "1",
						"type": "t_address"
					}
				],
				"types": {
					"t_address": {
						"encoding": "inplace",
						"label": "address",
						"numberOfBytes": "20"
					}
				}
			},
			"userdoc": {
				"kind": "user",
				"methods": {
					"acceptOwnership()": {
						"notice": "Allows an ownership transfer to be completed by the recipient."
					},
					"owner()": {
						"notice": "Get the current owner"
					},
					"transferOwnership(address)": {
						"notice": "Allows an owner to begin transferring ownership to a new address, pending."
					}
				},
				"notice": "A contract with helpers for basic contract ownership.",
				"version": 1
			}
		}
	}
}