{
	"Custom-Dex/dex.sol": {
		"Pair": {
			"abi": [
				{
					"inputs": [
						{
							"internalType": "address",
							"name": "_token0Address",
							"type": "address"
						},
						{
							"internalType": "address",
							"name": "_token1Address",
							"type": "address"
						},
						{
							"internalType": "uint256",
							"name": "_token0Amount",
							"type": "uint256"
						},
						{
							"internalType": "uint256",
							"name": "_token1Amount",
							"type": "uint256"
						}
					],
					"name": "addLiquidity",
					"outputs": [
						{
							"internalType": "string",
							"name": "",
							"type": "string"
						},
						{
							"internalType": "uint256",
							"name": "",
							"type": "uint256"
						}
					],
					"stateMutability": "nonpayable",
					"type": "function"
				},
				{
					"inputs": [
						{
							"internalType": "address",
							"name": "_token0Address",
							"type": "address"
						},
						{
							"internalType": "address",
							"name": "_token1Address",
							"type": "address"
						},
						{
							"internalType": "uint256",
							"name": "_token0Amount",
							"type": "uint256"
						},
						{
							"internalType": "uint256",
							"name": "_token1Amount",
							"type": "uint256"
						}
					],
					"name": "createPool",
					"outputs": [],
					"stateMutability": "nonpayable",
					"type": "function"
				},
				{
					"inputs": [
						{
							"internalType": "address",
							"name": "_token0Address",
							"type": "address"
						},
						{
							"internalType": "address",
							"name": "_token1Address",
							"type": "address"
						}
					],
					"name": "getSpotPrice",
					"outputs": [
						{
							"internalType": "uint256",
							"name": "",
							"type": "uint256"
						}
					],
					"stateMutability": "view",
					"type": "function"
				},
				{
					"inputs": [
						{
							"internalType": "address",
							"name": "_token0Address",
							"type": "address"
						},
						{
							"internalType": "address",
							"name": "_token1Address",
							"type": "address"
						}
					],
					"name": "removeLiquidity",
					"outputs": [
						{
							"internalType": "uint256",
							"name": "",
							"type": "uint256"
						}
					],
					"stateMutability": "nonpayable",
					"type": "function"
				},
				{
					"inputs": [
						{
							"internalType": "address",
							"name": "from",
							"type": "address"
						},
						{
							"internalType": "address",
							"name": "to",
							"type": "address"
						},
						{
							"internalType": "uint256",
							"name": "_amount",
							"type": "uint256"
						}
					],
					"name": "swap",
					"outputs": [
						{
							"internalType": "uint256",
							"name": "",
							"type": "uint256"
						}
					],
					"stateMutability": "nonpayable",
					"type": "function"
				},
				{
					"inputs": [
						{
							"internalType": "address",
							"name": "_token0Address",
							"type": "address"
						},
						{
							"internalType": "address",
							"name": "_token1Address",
							"type": "address"
						},
						{
							"internalType": "uint256",
							"name": "_token0Amount",
							"type": "uint256"
						},
						{
							"internalType": "uint256",
							"name": "_token1Amount",
							"type": "uint256"
						}
					],
					"name": "transferToken",
					"outputs": [],
					"stateMutability": "nonpayable",
					"type": "function"
				}
			],
			"devdoc": {
				"kind": "dev",
				"methods": {},
				"version": 1
			},
			"evm": {
				"assembly": "    /* \"Custom-Dex/dex.sol\":144:7516  contract Pair is ReentrancyGuard {... */\n  mstore(0x40, 0x80)\n    /* \"Custom-Dex/dex.sol\":211:224  1000 * 10**18 */\n  0x3635c9adc5dea00000\n    /* \"Custom-Dex/dex.sol\":183:224  uint256 INITIAL_LP_TOKENS = 1000 * 10**18 */\n  0x01\n  sstore\n    /* \"Custom-Dex/dex.sol\":247:258  3 *100 /100 */\n  0x03\n    /* \"Custom-Dex/dex.sol\":230:258  uint256 LP_FEE = 3 *100 /100 */\n  0x02\n  sstore\n    /* \"Custom-Dex/dex.sol\":144:7516  contract Pair is ReentrancyGuard {... */\n  callvalue\n  dup1\n  iszero\n  tag_1\n  jumpi\n  0x00\n  dup1\n  revert\ntag_1:\n  pop\n    /* \"@openzeppelin/contracts/security/ReentrancyGuard.sol\":1716:1717  1 */\n  0x01\n    /* \"@openzeppelin/contracts/security/ReentrancyGuard.sol\":1821:1828  _status */\n  0x00\n    /* \"@openzeppelin/contracts/security/ReentrancyGuard.sol\":1821:1843  _status = _NOT_ENTERED */\n  sstore\n    /* \"Custom-Dex/dex.sol\":144:7516  contract Pair is ReentrancyGuard {... */\n  dataSize(sub_0)\n  dup1\n  dataOffset(sub_0)\n  0x00\n  codecopy\n  0x00\n  return\nstop\n\nsub_0: assembly {\n        /* \"Custom-Dex/dex.sol\":144:7516  contract Pair is ReentrancyGuard {... */\n      mstore(0x40, 0x80)\n      callvalue\n      dup1\n      iszero\n      tag_1\n      jumpi\n      0x00\n      dup1\n      revert\n    tag_1:\n      pop\n      jumpi(tag_2, lt(calldatasize, 0x04))\n      shr(0xe0, calldataload(0x00))\n      dup1\n      0x036ebef9\n      eq\n      tag_3\n      jumpi\n      dup1\n      0x15e84af9\n      eq\n      tag_4\n      jumpi\n      dup1\n      0x884db063\n      eq\n      tag_5\n      jumpi\n      dup1\n      0x9cf38f7c\n      eq\n      tag_6\n      jumpi\n      dup1\n      0xcf6c62ea\n      eq\n      tag_7\n      jumpi\n      dup1\n      0xdf791e50\n      eq\n      tag_8\n      jumpi\n    tag_2:\n      0x00\n      dup1\n      revert\n        /* \"Custom-Dex/dex.sol\":2507:3095  function transferToken( address _token0Address,address _token1Address,uint256 _token0Amount,... */\n    tag_3:\n      tag_9\n      tag_10\n      calldatasize\n      0x04\n      tag_11\n      jump\t// in\n    tag_10:\n      tag_12\n      jump\t// in\n    tag_9:\n      stop\n        /* \"Custom-Dex/dex.sol\":3101:3567  function getSpotPrice(address _token0Address, address _token1Address)... */\n    tag_4:\n      tag_13\n      tag_14\n      calldatasize\n      0x04\n      tag_15\n      jump\t// in\n    tag_14:\n      tag_16\n      jump\t// in\n    tag_13:\n      mload(0x40)\n        /* \"#utility.yul\":1005:1030   */\n      swap1\n      dup2\n      mstore\n        /* \"#utility.yul\":993:995   */\n      0x20\n        /* \"#utility.yul\":978:996   */\n      add\n        /* \"Custom-Dex/dex.sol\":3101:3567  function getSpotPrice(address _token0Address, address _token1Address)... */\n    tag_17:\n      mload(0x40)\n      dup1\n      swap2\n      sub\n      swap1\n      return\n        /* \"Custom-Dex/dex.sol\":3573:4362  function createPool(... */\n    tag_5:\n      tag_9\n      tag_20\n      calldatasize\n      0x04\n      tag_11\n      jump\t// in\n    tag_20:\n      sub(shl(0xa0, 0x01), 0x01)\n        /* \"Custom-Dex/dex.sol\":4160:4189  tokenBalances[_token0Address] */\n      swap4\n      dup5\n      and\n      0x00\n      swap1\n      dup2\n      mstore\n        /* \"Custom-Dex/dex.sol\":4160:4173  tokenBalances */\n      0x04\n        /* \"Custom-Dex/dex.sol\":4160:4189  tokenBalances[_token0Address] */\n      0x20\n      swap1\n      dup2\n      mstore\n      0x40\n      dup1\n      dup4\n      keccak256\n        /* \"Custom-Dex/dex.sol\":4160:4205  tokenBalances[_token0Address] = _token0Amount */\n      swap5\n      swap1\n      swap5\n      sstore\n        /* \"Custom-Dex/dex.sol\":4215:4244  tokenBalances[_token1Address] */\n      swap4\n      swap1\n      swap5\n      and\n      dup5\n      mstore\n      dup2\n      dup5\n      keccak256\n        /* \"Custom-Dex/dex.sol\":4215:4260  tokenBalances[_token1Address] = _token1Amount */\n      sstore\n        /* \"Custom-Dex/dex.sol\":4295:4312  INITIAL_LP_TOKENS */\n      sload(0x01)\n        /* \"Custom-Dex/dex.sol\":4281:4291  msg.sender */\n      caller\n        /* \"Custom-Dex/dex.sol\":4270:4292  lpBalances[msg.sender] */\n      dup5\n      mstore\n        /* \"Custom-Dex/dex.sol\":4270:4280  lpBalances */\n      0x05\n        /* \"Custom-Dex/dex.sol\":4270:4292  lpBalances[msg.sender] */\n      swap1\n      swap3\n      mstore\n      swap1\n      swap2\n      keccak256\n        /* \"Custom-Dex/dex.sol\":4270:4312  lpBalances[msg.sender] = INITIAL_LP_TOKENS */\n      dup2\n      swap1\n      sstore\n        /* \"Custom-Dex/dex.sol\":4322:4335  totalLpTokens */\n      0x03\n        /* \"Custom-Dex/dex.sol\":4322:4355  totalLpTokens = INITIAL_LP_TOKENS */\n      sstore\n        /* \"Custom-Dex/dex.sol\":3573:4362  function createPool(... */\n      jump\n        /* \"Custom-Dex/dex.sol\":5602:6721  function removeLiquidity(address _token0Address, address _token1Address)... */\n    tag_6:\n      tag_13\n      tag_23\n      calldatasize\n      0x04\n      tag_15\n      jump\t// in\n    tag_23:\n      tag_24\n      jump\t// in\n        /* \"Custom-Dex/dex.sol\":4369:5596  function addLiquidity(... */\n    tag_7:\n      tag_26\n      tag_27\n      calldatasize\n      0x04\n      tag_11\n      jump\t// in\n    tag_27:\n      tag_28\n      jump\t// in\n    tag_26:\n      mload(0x40)\n      tag_17\n      swap3\n      swap2\n      swap1\n      tag_30\n      jump\t// in\n        /* \"Custom-Dex/dex.sol\":6727:7514  function swap(... */\n    tag_8:\n      tag_13\n      tag_32\n      calldatasize\n      0x04\n      tag_33\n      jump\t// in\n    tag_32:\n      tag_34\n      jump\t// in\n        /* \"Custom-Dex/dex.sol\":2507:3095  function transferToken( address _token0Address,address _token1Address,uint256 _token0Amount,... */\n    tag_12:\n        /* \"Custom-Dex/dex.sol\":2765:2833  token0Address.transferFrom( msg.sender,address(this), _token0Amount) */\n      mload(0x40)\n      shl(0xe0, 0x23b872dd)\n      dup2\n      mstore\n        /* \"Custom-Dex/dex.sol\":2793:2803  msg.sender */\n      caller\n        /* \"Custom-Dex/dex.sol\":2765:2833  token0Address.transferFrom( msg.sender,address(this), _token0Amount) */\n      0x04\n      dup3\n      add\n        /* \"#utility.yul\":2223:2257   */\n      mstore\n        /* \"Custom-Dex/dex.sol\":2812:2816  this */\n      address\n        /* \"#utility.yul\":2273:2291   */\n      0x24\n      dup3\n      add\n        /* \"#utility.yul\":2266:2309   */\n      mstore\n        /* \"#utility.yul\":2325:2343   */\n      0x44\n      dup2\n      add\n        /* \"#utility.yul\":2318:2352   */\n      dup4\n      swap1\n      mstore\n        /* \"Custom-Dex/dex.sol\":2677:2691  _token0Address */\n      dup5\n      swap1\n        /* \"Custom-Dex/dex.sol\":2730:2744  _token1Address */\n      dup5\n      swap1\n      sub(shl(0xa0, 0x01), 0x01)\n        /* \"Custom-Dex/dex.sol\":2765:2791  token0Address.transferFrom */\n      dup4\n      and\n      swap1\n      0x23b872dd\n      swap1\n        /* \"#utility.yul\":2158:2176   */\n      0x64\n      add\n        /* \"Custom-Dex/dex.sol\":2765:2833  token0Address.transferFrom( msg.sender,address(this), _token0Amount) */\n      0x20\n      mload(0x40)\n      dup1\n      dup4\n      sub\n      dup2\n      0x00\n      dup8\n      gas\n      call\n      iszero\n      dup1\n      iszero\n      tag_40\n      jumpi\n      returndatasize\n      0x00\n      dup1\n      returndatacopy\n      revert(0x00, returndatasize)\n    tag_40:\n      pop\n      pop\n      pop\n      pop\n      mload(0x40)\n      returndatasize\n      not(0x1f)\n      0x1f\n      dup3\n      add\n      and\n      dup3\n      add\n      dup1\n      0x40\n      mstore\n      pop\n      dup2\n      add\n      swap1\n      tag_41\n      swap2\n      swap1\n      tag_42\n      jump\t// in\n    tag_41:\n        /* \"Custom-Dex/dex.sol\":2756:2876  require( token0Address.transferFrom( msg.sender,address(this), _token0Amount),... */\n      tag_43\n      jumpi\n      mload(0x40)\n      shl(0xe5, 0x461bcd)\n      dup2\n      mstore\n        /* \"#utility.yul\":2847:2849   */\n      0x20\n        /* \"Custom-Dex/dex.sol\":2756:2876  require( token0Address.transferFrom( msg.sender,address(this), _token0Amount),... */\n      0x04\n      dup3\n      add\n        /* \"#utility.yul\":2829:2850   */\n      mstore\n        /* \"#utility.yul\":2886:2888   */\n      0x19\n        /* \"#utility.yul\":2866:2884   */\n      0x24\n      dup3\n      add\n        /* \"#utility.yul\":2859:2889   */\n      mstore\n        /* \"#utility.yul\":2925:2952   */\n      0x5472616e73666572206f6620746f6b656e30204661696c656400000000000000\n        /* \"#utility.yul\":2905:2923   */\n      0x44\n      dup3\n      add\n        /* \"#utility.yul\":2898:2953   */\n      mstore\n        /* \"#utility.yul\":2970:2988   */\n      0x64\n      add\n        /* \"Custom-Dex/dex.sol\":2756:2876  require( token0Address.transferFrom( msg.sender,address(this), _token0Amount),... */\n    tag_44:\n      mload(0x40)\n      dup1\n      swap2\n      sub\n      swap1\n      revert\n    tag_43:\n        /* \"Custom-Dex/dex.sol\":2907:3037  token1Address.transferFrom(... */\n      mload(0x40)\n      shl(0xe0, 0x23b872dd)\n      dup2\n      mstore\n        /* \"Custom-Dex/dex.sol\":2951:2961  msg.sender */\n      caller\n        /* \"Custom-Dex/dex.sol\":2907:3037  token1Address.transferFrom(... */\n      0x04\n      dup3\n      add\n        /* \"#utility.yul\":2223:2257   */\n      mstore\n        /* \"Custom-Dex/dex.sol\":2987:2991  this */\n      address\n        /* \"#utility.yul\":2273:2291   */\n      0x24\n      dup3\n      add\n        /* \"#utility.yul\":2266:2309   */\n      mstore\n        /* \"#utility.yul\":2325:2343   */\n      0x44\n      dup2\n      add\n        /* \"#utility.yul\":2318:2352   */\n      dup5\n      swap1\n      mstore\n      sub(shl(0xa0, 0x01), 0x01)\n        /* \"Custom-Dex/dex.sol\":2907:2933  token1Address.transferFrom */\n      dup3\n      and\n      swap1\n      0x23b872dd\n      swap1\n        /* \"#utility.yul\":2158:2176   */\n      0x64\n      add\n        /* \"Custom-Dex/dex.sol\":2907:3037  token1Address.transferFrom(... */\n      0x20\n      mload(0x40)\n      dup1\n      dup4\n      sub\n      dup2\n      0x00\n      dup8\n      gas\n      call\n      iszero\n      dup1\n      iszero\n      tag_48\n      jumpi\n      returndatasize\n      0x00\n      dup1\n      returndatacopy\n      revert(0x00, returndatasize)\n    tag_48:\n      pop\n      pop\n      pop\n      pop\n      mload(0x40)\n      returndatasize\n      not(0x1f)\n      0x1f\n      dup3\n      add\n      and\n      dup3\n      add\n      dup1\n      0x40\n      mstore\n      pop\n      dup2\n      add\n      swap1\n      tag_49\n      swap2\n      swap1\n      tag_42\n      jump\t// in\n    tag_49:\n        /* \"Custom-Dex/dex.sol\":2886:3088  require(... */\n      tag_50\n      jumpi\n      mload(0x40)\n      shl(0xe5, 0x461bcd)\n      dup2\n      mstore\n        /* \"#utility.yul\":3201:3203   */\n      0x20\n        /* \"Custom-Dex/dex.sol\":2886:3088  require(... */\n      0x04\n      dup3\n      add\n        /* \"#utility.yul\":3183:3204   */\n      mstore\n        /* \"#utility.yul\":3240:3242   */\n      0x19\n        /* \"#utility.yul\":3220:3238   */\n      0x24\n      dup3\n      add\n        /* \"#utility.yul\":3213:3243   */\n      mstore\n        /* \"#utility.yul\":3279:3306   */\n      0x5472616e73666572206f6620746f6b656e31204661696c656400000000000000\n        /* \"#utility.yul\":3259:3277   */\n      0x44\n      dup3\n      add\n        /* \"#utility.yul\":3252:3307   */\n      mstore\n        /* \"#utility.yul\":3324:3342   */\n      0x64\n      add\n        /* \"Custom-Dex/dex.sol\":2886:3088  require(... */\n      tag_44\n        /* \"#utility.yul\":2999:3348   */\n      jump\n        /* \"Custom-Dex/dex.sol\":2886:3088  require(... */\n    tag_50:\n        /* \"Custom-Dex/dex.sol\":2638:3095  {... */\n      pop\n      pop\n        /* \"Custom-Dex/dex.sol\":2507:3095  function transferToken( address _token0Address,address _token1Address,uint256 _token0Amount,... */\n      pop\n      pop\n      pop\n      pop\n      jump\t// out\n        /* \"Custom-Dex/dex.sol\":3101:3567  function getSpotPrice(address _token0Address, address _token1Address)... */\n    tag_16:\n      sub(shl(0xa0, 0x01), 0x01)\n        /* \"Custom-Dex/dex.sol\":3332:3361  tokenBalances[_token0Address] */\n      dup3\n      and\n        /* \"Custom-Dex/dex.sol\":3216:3223  uint256 */\n      0x00\n        /* \"Custom-Dex/dex.sol\":3332:3361  tokenBalances[_token0Address] */\n      swap1\n      dup2\n      mstore\n        /* \"Custom-Dex/dex.sol\":3332:3345  tokenBalances */\n      0x04\n        /* \"Custom-Dex/dex.sol\":3332:3361  tokenBalances[_token0Address] */\n      0x20\n      mstore\n      0x40\n      dup2\n      keccak256\n      sload\n        /* \"Custom-Dex/dex.sol\":3332:3365  tokenBalances[_token0Address] > 0 */\n      iszero\n      dup1\n      iszero\n      swap1\n        /* \"Custom-Dex/dex.sol\":3332:3414  tokenBalances[_token0Address] > 0 &&... */\n      tag_54\n      jumpi\n      pop\n      sub(shl(0xa0, 0x01), 0x01)\n        /* \"Custom-Dex/dex.sol\":3381:3410  tokenBalances[_token1Address] */\n      dup3\n      and\n        /* \"Custom-Dex/dex.sol\":3413:3414  0 */\n      0x00\n        /* \"Custom-Dex/dex.sol\":3381:3410  tokenBalances[_token1Address] */\n      swap1\n      dup2\n      mstore\n        /* \"Custom-Dex/dex.sol\":3381:3394  tokenBalances */\n      0x04\n        /* \"Custom-Dex/dex.sol\":3381:3410  tokenBalances[_token1Address] */\n      0x20\n      mstore\n      0x40\n      swap1\n      keccak256\n      sload\n        /* \"Custom-Dex/dex.sol\":3381:3414  tokenBalances[_token1Address] > 0 */\n      iszero\n      iszero\n        /* \"Custom-Dex/dex.sol\":3332:3414  tokenBalances[_token0Address] > 0 &&... */\n    tag_54:\n        /* \"Custom-Dex/dex.sol\":3311:3473  require(... */\n      tag_55\n      jumpi\n      mload(0x40)\n      shl(0xe5, 0x461bcd)\n      dup2\n      mstore\n        /* \"#utility.yul\":3555:3557   */\n      0x20\n        /* \"Custom-Dex/dex.sol\":3311:3473  require(... */\n      0x04\n      dup3\n      add\n        /* \"#utility.yul\":3537:3558   */\n      mstore\n        /* \"#utility.yul\":3594:3596   */\n      0x21\n        /* \"#utility.yul\":3574:3592   */\n      0x24\n      dup3\n      add\n        /* \"#utility.yul\":3567:3597   */\n      mstore\n        /* \"#utility.yul\":3633:3667   */\n      0x20546f6b656e2062616c616e6365206d757374206265206e6f6e202d207a6572\n        /* \"#utility.yul\":3613:3631   */\n      0x44\n      dup3\n      add\n        /* \"#utility.yul\":3606:3668   */\n      mstore\n      shl(0xf8, 0x6f)\n        /* \"#utility.yul\":3684:3702   */\n      0x64\n      dup3\n      add\n        /* \"#utility.yul\":3677:3708   */\n      mstore\n        /* \"#utility.yul\":3725:3744   */\n      0x84\n      add\n        /* \"Custom-Dex/dex.sol\":3311:3473  require(... */\n      tag_44\n        /* \"#utility.yul\":3353:3750   */\n      jump\n        /* \"Custom-Dex/dex.sol\":3311:3473  require(... */\n    tag_55:\n      sub(shl(0xa0, 0x01), 0x01)\n        /* \"Custom-Dex/dex.sol\":3530:3559  tokenBalances[_token1Address] */\n      dup1\n      dup4\n      and\n      0x00\n      swap1\n      dup2\n      mstore\n        /* \"Custom-Dex/dex.sol\":3530:3543  tokenBalances */\n      0x04\n        /* \"Custom-Dex/dex.sol\":3530:3559  tokenBalances[_token1Address] */\n      0x20\n      mstore\n      0x40\n      dup1\n      dup3\n      keccak256\n      sload\n        /* \"Custom-Dex/dex.sol\":3490:3519  tokenBalances[_token0Address] */\n      swap3\n      dup7\n      and\n      dup3\n      mstore\n      swap1\n      keccak256\n      sload\n        /* \"Custom-Dex/dex.sol\":3490:3527  tokenBalances[_token0Address]* 10**18 */\n      tag_58\n      swap1\n        /* \"Custom-Dex/dex.sol\":3521:3527  10**18 */\n      0x0de0b6b3a7640000\n        /* \"Custom-Dex/dex.sol\":3490:3527  tokenBalances[_token0Address]* 10**18 */\n      tag_59\n      jump\t// in\n    tag_58:\n        /* \"Custom-Dex/dex.sol\":3490:3559  tokenBalances[_token0Address]* 10**18 / tokenBalances[_token1Address] */\n      tag_60\n      swap2\n      swap1\n      tag_61\n      jump\t// in\n    tag_60:\n        /* \"Custom-Dex/dex.sol\":3483:3560  return(tokenBalances[_token0Address]* 10**18 / tokenBalances[_token1Address]) */\n      swap1\n      pop\n        /* \"Custom-Dex/dex.sol\":3101:3567  function getSpotPrice(address _token0Address, address _token1Address)... */\n    tag_53:\n      swap3\n      swap2\n      pop\n      pop\n      jump\t// out\n        /* \"Custom-Dex/dex.sol\":5602:6721  function removeLiquidity(address _token0Address, address _token1Address)... */\n    tag_24:\n        /* \"Custom-Dex/dex.sol\":5969:5979  msg.sender */\n      caller\n        /* \"Custom-Dex/dex.sol\":5848:5855  uint256 */\n      0x00\n        /* \"Custom-Dex/dex.sol\":5958:5980  lpBalances[msg.sender] */\n      swap1\n      dup2\n      mstore\n        /* \"Custom-Dex/dex.sol\":5958:5968  lpBalances */\n      0x05\n        /* \"Custom-Dex/dex.sol\":5958:5980  lpBalances[msg.sender] */\n      0x20\n      mstore\n      0x40\n      dup2\n      keccak256\n      sload\n        /* \"Custom-Dex/dex.sol\":5998:6009  balance > 0 */\n      dup1\n        /* \"Custom-Dex/dex.sol\":5990:6050  require(balance > 0,\"No liquidity was provided by the user\") */\n      tag_64\n      jumpi\n      mload(0x40)\n      shl(0xe5, 0x461bcd)\n      dup2\n      mstore\n        /* \"#utility.yul\":4484:4486   */\n      0x20\n        /* \"Custom-Dex/dex.sol\":5990:6050  require(balance > 0,\"No liquidity was provided by the user\") */\n      0x04\n      dup3\n      add\n        /* \"#utility.yul\":4466:4487   */\n      mstore\n        /* \"#utility.yul\":4523:4525   */\n      0x25\n        /* \"#utility.yul\":4503:4521   */\n      0x24\n      dup3\n      add\n        /* \"#utility.yul\":4496:4526   */\n      mstore\n        /* \"#utility.yul\":4562:4596   */\n      0x4e6f206c6971756964697479207761732070726f766964656420627920746865\n        /* \"#utility.yul\":4542:4560   */\n      0x44\n      dup3\n      add\n        /* \"#utility.yul\":4535:4597   */\n      mstore\n      shl(0xd9, 0x103ab9b2b9)\n        /* \"#utility.yul\":4613:4631   */\n      0x64\n      dup3\n      add\n        /* \"#utility.yul\":4606:4641   */\n      mstore\n        /* \"#utility.yul\":4658:4677   */\n      0x84\n      add\n        /* \"Custom-Dex/dex.sol\":5990:6050  require(balance > 0,\"No liquidity was provided by the user\") */\n      tag_44\n        /* \"#utility.yul\":4282:4683   */\n      jump\n        /* \"Custom-Dex/dex.sol\":5990:6050  require(balance > 0,\"No liquidity was provided by the user\") */\n    tag_64:\n        /* \"Custom-Dex/dex.sol\":6125:6138  totalLpTokens */\n      sload(0x03)\n      sub(shl(0xa0, 0x01), 0x01)\n        /* \"Custom-Dex/dex.sol\":6092:6121  tokenBalances[_token0Address] */\n      dup6\n      and\n        /* \"Custom-Dex/dex.sol\":6060:6078  uint _token0Amount */\n      0x00\n        /* \"Custom-Dex/dex.sol\":6092:6121  tokenBalances[_token0Address] */\n      swap1\n      dup2\n      mstore\n        /* \"Custom-Dex/dex.sol\":6092:6105  tokenBalances */\n      0x04\n        /* \"Custom-Dex/dex.sol\":6092:6121  tokenBalances[_token0Address] */\n      0x20\n      mstore\n      0x40\n      dup2\n      keccak256\n      sload\n        /* \"Custom-Dex/dex.sol\":6060:6078  uint _token0Amount */\n      swap1\n      swap2\n        /* \"Custom-Dex/dex.sol\":6125:6138  totalLpTokens */\n      swap1\n        /* \"Custom-Dex/dex.sol\":6082:6121  balance * tokenBalances[_token0Address] */\n      tag_67\n      swap1\n        /* \"Custom-Dex/dex.sol\":6082:6089  balance */\n      dup5\n        /* \"Custom-Dex/dex.sol\":6082:6121  balance * tokenBalances[_token0Address] */\n      tag_59\n      jump\t// in\n    tag_67:\n        /* \"Custom-Dex/dex.sol\":6081:6138  (balance * tokenBalances[_token0Address]) / totalLpTokens */\n      tag_68\n      swap2\n      swap1\n      tag_61\n      jump\t// in\n    tag_68:\n        /* \"Custom-Dex/dex.sol\":6213:6226  totalLpTokens */\n      sload(0x03)\n      sub(shl(0xa0, 0x01), 0x01)\n        /* \"Custom-Dex/dex.sol\":6180:6209  tokenBalances[_token1Address] */\n      dup7\n      and\n        /* \"Custom-Dex/dex.sol\":6148:6166  uint _token1Amount */\n      0x00\n        /* \"Custom-Dex/dex.sol\":6180:6209  tokenBalances[_token1Address] */\n      swap1\n      dup2\n      mstore\n        /* \"Custom-Dex/dex.sol\":6180:6193  tokenBalances */\n      0x04\n        /* \"Custom-Dex/dex.sol\":6180:6209  tokenBalances[_token1Address] */\n      0x20\n      mstore\n      0x40\n      dup2\n      keccak256\n      sload\n        /* \"Custom-Dex/dex.sol\":6060:6138  uint _token0Amount = (balance * tokenBalances[_token0Address]) / totalLpTokens */\n      swap3\n      swap4\n      pop\n        /* \"Custom-Dex/dex.sol\":6148:6166  uint _token1Amount */\n      swap2\n        /* \"Custom-Dex/dex.sol\":6170:6209  balance * tokenBalances[_token1Address] */\n      tag_69\n      swap1\n        /* \"Custom-Dex/dex.sol\":6170:6177  balance */\n      dup6\n        /* \"Custom-Dex/dex.sol\":6170:6209  balance * tokenBalances[_token1Address] */\n      tag_59\n      jump\t// in\n    tag_69:\n        /* \"Custom-Dex/dex.sol\":6169:6226  (balance * tokenBalances[_token1Address]) / totalLpTokens */\n      tag_70\n      swap2\n      swap1\n      tag_61\n      jump\t// in\n    tag_70:\n        /* \"Custom-Dex/dex.sol\":6247:6257  msg.sender */\n      caller\n        /* \"Custom-Dex/dex.sol\":6261:6262  0 */\n      0x00\n        /* \"Custom-Dex/dex.sol\":6236:6258  lpBalances[msg.sender] */\n      swap1\n      dup2\n      mstore\n        /* \"Custom-Dex/dex.sol\":6236:6246  lpBalances */\n      0x05\n        /* \"Custom-Dex/dex.sol\":6236:6258  lpBalances[msg.sender] */\n      0x20\n      swap1\n      dup2\n      mstore\n      0x40\n      dup1\n      dup4\n      keccak256\n        /* \"Custom-Dex/dex.sol\":6236:6262  lpBalances[msg.sender] = 0 */\n      dup4\n      swap1\n      sstore\n      sub(shl(0xa0, 0x01), 0x01)\n        /* \"Custom-Dex/dex.sol\":6272:6301  tokenBalances[_token0Address] */\n      dup11\n      and\n      dup4\n      mstore\n        /* \"Custom-Dex/dex.sol\":6272:6285  tokenBalances */\n      0x04\n        /* \"Custom-Dex/dex.sol\":6272:6301  tokenBalances[_token0Address] */\n      swap1\n      swap2\n      mstore\n      dup2\n      keccak256\n        /* \"Custom-Dex/dex.sol\":6272:6318  tokenBalances[_token0Address] -= _token0Amount */\n      dup1\n      sload\n        /* \"Custom-Dex/dex.sol\":6148:6226  uint _token1Amount = (balance * tokenBalances[_token1Address]) / totalLpTokens */\n      swap3\n      swap4\n      pop\n        /* \"Custom-Dex/dex.sol\":6305:6318  _token0Amount */\n      dup5\n      swap3\n        /* \"Custom-Dex/dex.sol\":6272:6301  tokenBalances[_token0Address] */\n      swap1\n      swap2\n        /* \"Custom-Dex/dex.sol\":6261:6262  0 */\n      swap1\n        /* \"Custom-Dex/dex.sol\":6272:6318  tokenBalances[_token0Address] -= _token0Amount */\n      tag_71\n      swap1\n        /* \"Custom-Dex/dex.sol\":6305:6318  _token0Amount */\n      dup5\n      swap1\n        /* \"Custom-Dex/dex.sol\":6272:6318  tokenBalances[_token0Address] -= _token0Amount */\n      tag_72\n      jump\t// in\n    tag_71:\n      swap1\n      swap2\n      sstore\n      pop\n      pop\n      sub(shl(0xa0, 0x01), 0x01)\n        /* \"Custom-Dex/dex.sol\":6328:6357  tokenBalances[_token1Address] */\n      dup6\n      and\n      0x00\n      swap1\n      dup2\n      mstore\n        /* \"Custom-Dex/dex.sol\":6328:6341  tokenBalances */\n      0x04\n        /* \"Custom-Dex/dex.sol\":6328:6357  tokenBalances[_token1Address] */\n      0x20\n      mstore\n      0x40\n      dup2\n      keccak256\n        /* \"Custom-Dex/dex.sol\":6328:6374  tokenBalances[_token1Address] -= _token1Amount */\n      dup1\n      sload\n        /* \"Custom-Dex/dex.sol\":6361:6374  _token1Amount */\n      dup4\n      swap3\n        /* \"Custom-Dex/dex.sol\":6328:6357  tokenBalances[_token1Address] */\n      swap1\n        /* \"Custom-Dex/dex.sol\":6328:6374  tokenBalances[_token1Address] -= _token1Amount */\n      tag_73\n      swap1\n        /* \"Custom-Dex/dex.sol\":6361:6374  _token1Amount */\n      dup5\n      swap1\n        /* \"Custom-Dex/dex.sol\":6328:6374  tokenBalances[_token1Address] -= _token1Amount */\n      tag_72\n      jump\t// in\n    tag_73:\n      swap3\n      pop\n      pop\n      dup2\n      swap1\n      sstore\n      pop\n        /* \"Custom-Dex/dex.sol\":6401:6408  balance */\n      dup3\n        /* \"Custom-Dex/dex.sol\":6384:6397  totalLpTokens */\n      0x03\n      0x00\n        /* \"Custom-Dex/dex.sol\":6384:6408  totalLpTokens -= balance */\n      dup3\n      dup3\n      sload\n      tag_74\n      swap2\n      swap1\n      tag_72\n      jump\t// in\n    tag_74:\n      swap1\n      swap2\n      sstore\n      pop\n      pop\n        /* \"Custom-Dex/dex.sol\":6534:6583  token0Address.transfer(msg.sender, _token0Amount) */\n      mload(0x40)\n      shl(0xe0, 0xa9059cbb)\n      dup2\n      mstore\n        /* \"Custom-Dex/dex.sol\":6557:6567  msg.sender */\n      caller\n        /* \"Custom-Dex/dex.sol\":6534:6583  token0Address.transfer(msg.sender, _token0Amount) */\n      0x04\n      dup3\n      add\n        /* \"#utility.yul\":4995:5046   */\n      mstore\n        /* \"#utility.yul\":5062:5080   */\n      0x24\n      dup2\n      add\n        /* \"#utility.yul\":5055:5089   */\n      dup4\n      swap1\n      mstore\n        /* \"Custom-Dex/dex.sol\":6447:6461  _token0Address */\n      dup7\n      swap1\n        /* \"Custom-Dex/dex.sol\":6500:6514  _token1Address */\n      dup7\n      swap1\n      sub(shl(0xa0, 0x01), 0x01)\n        /* \"Custom-Dex/dex.sol\":6534:6556  token0Address.transfer */\n      dup4\n      and\n      swap1\n      0xa9059cbb\n      swap1\n        /* \"#utility.yul\":4968:4986   */\n      0x44\n      add\n        /* \"Custom-Dex/dex.sol\":6534:6583  token0Address.transfer(msg.sender, _token0Amount) */\n      0x20\n      mload(0x40)\n      dup1\n      dup4\n      sub\n      dup2\n      0x00\n      dup8\n      gas\n      call\n      iszero\n      dup1\n      iszero\n      tag_78\n      jumpi\n      returndatasize\n      0x00\n      dup1\n      returndatacopy\n      revert(0x00, returndatasize)\n    tag_78:\n      pop\n      pop\n      pop\n      pop\n      mload(0x40)\n      returndatasize\n      not(0x1f)\n      0x1f\n      dup3\n      add\n      and\n      dup3\n      add\n      dup1\n      0x40\n      mstore\n      pop\n      dup2\n      add\n      swap1\n      tag_79\n      swap2\n      swap1\n      tag_42\n      jump\t// in\n    tag_79:\n        /* \"Custom-Dex/dex.sol\":6526:6614  require(token0Address.transfer(msg.sender, _token0Amount), \"Transfer  token0 failed !!\") */\n      tag_80\n      jumpi\n      mload(0x40)\n      shl(0xe5, 0x461bcd)\n      dup2\n      mstore\n        /* \"#utility.yul\":5302:5304   */\n      0x20\n        /* \"Custom-Dex/dex.sol\":6526:6614  require(token0Address.transfer(msg.sender, _token0Amount), \"Transfer  token0 failed !!\") */\n      0x04\n      dup3\n      add\n        /* \"#utility.yul\":5284:5305   */\n      mstore\n        /* \"#utility.yul\":5341:5343   */\n      0x1a\n        /* \"#utility.yul\":5321:5339   */\n      0x24\n      dup3\n      add\n        /* \"#utility.yul\":5314:5344   */\n      mstore\n        /* \"#utility.yul\":5380:5408   */\n      0x5472616e736665722020746f6b656e30206661696c6564202121000000000000\n        /* \"#utility.yul\":5360:5378   */\n      0x44\n      dup3\n      add\n        /* \"#utility.yul\":5353:5409   */\n      mstore\n        /* \"#utility.yul\":5426:5444   */\n      0x64\n      add\n        /* \"Custom-Dex/dex.sol\":6526:6614  require(token0Address.transfer(msg.sender, _token0Amount), \"Transfer  token0 failed !!\") */\n      tag_44\n        /* \"#utility.yul\":5100:5450   */\n      jump\n        /* \"Custom-Dex/dex.sol\":6526:6614  require(token0Address.transfer(msg.sender, _token0Amount), \"Transfer  token0 failed !!\") */\n    tag_80:\n        /* \"Custom-Dex/dex.sol\":6632:6681  token1Address.transfer(msg.sender, _token1Amount) */\n      mload(0x40)\n      shl(0xe0, 0xa9059cbb)\n      dup2\n      mstore\n        /* \"Custom-Dex/dex.sol\":6655:6665  msg.sender */\n      caller\n        /* \"Custom-Dex/dex.sol\":6632:6681  token1Address.transfer(msg.sender, _token1Amount) */\n      0x04\n      dup3\n      add\n        /* \"#utility.yul\":4995:5046   */\n      mstore\n        /* \"#utility.yul\":5062:5080   */\n      0x24\n      dup2\n      add\n        /* \"#utility.yul\":5055:5089   */\n      dup5\n      swap1\n      mstore\n      sub(shl(0xa0, 0x01), 0x01)\n        /* \"Custom-Dex/dex.sol\":6632:6654  token1Address.transfer */\n      dup3\n      and\n      swap1\n      0xa9059cbb\n      swap1\n        /* \"#utility.yul\":4968:4986   */\n      0x44\n      add\n        /* \"Custom-Dex/dex.sol\":6632:6681  token1Address.transfer(msg.sender, _token1Amount) */\n      0x20\n      mload(0x40)\n      dup1\n      dup4\n      sub\n      dup2\n      0x00\n      dup8\n      gas\n      call\n      iszero\n      dup1\n      iszero\n      tag_85\n      jumpi\n      returndatasize\n      0x00\n      dup1\n      returndatacopy\n      revert(0x00, returndatasize)\n    tag_85:\n      pop\n      pop\n      pop\n      pop\n      mload(0x40)\n      returndatasize\n      not(0x1f)\n      0x1f\n      dup3\n      add\n      and\n      dup3\n      add\n      dup1\n      0x40\n      mstore\n      pop\n      dup2\n      add\n      swap1\n      tag_86\n      swap2\n      swap1\n      tag_42\n      jump\t// in\n    tag_86:\n        /* \"Custom-Dex/dex.sol\":6624:6712  require(token1Address.transfer(msg.sender, _token1Amount), \"Transfer  token1 failed !!\") */\n      tag_87\n      jumpi\n      mload(0x40)\n      shl(0xe5, 0x461bcd)\n      dup2\n      mstore\n        /* \"#utility.yul\":5657:5659   */\n      0x20\n        /* \"Custom-Dex/dex.sol\":6624:6712  require(token1Address.transfer(msg.sender, _token1Amount), \"Transfer  token1 failed !!\") */\n      0x04\n      dup3\n      add\n        /* \"#utility.yul\":5639:5660   */\n      mstore\n        /* \"#utility.yul\":5696:5698   */\n      0x1a\n        /* \"#utility.yul\":5676:5694   */\n      0x24\n      dup3\n      add\n        /* \"#utility.yul\":5669:5699   */\n      mstore\n        /* \"#utility.yul\":5735:5763   */\n      0x5472616e736665722020746f6b656e31206661696c6564202121000000000000\n        /* \"#utility.yul\":5715:5733   */\n      0x44\n      dup3\n      add\n        /* \"#utility.yul\":5708:5764   */\n      mstore\n        /* \"#utility.yul\":5781:5799   */\n      0x64\n      add\n        /* \"Custom-Dex/dex.sol\":6624:6712  require(token1Address.transfer(msg.sender, _token1Amount), \"Transfer  token1 failed !!\") */\n      tag_44\n        /* \"#utility.yul\":5455:5805   */\n      jump\n        /* \"Custom-Dex/dex.sol\":6624:6712  require(token1Address.transfer(msg.sender, _token1Amount), \"Transfer  token1 failed !!\") */\n    tag_87:\n        /* \"Custom-Dex/dex.sol\":5861:6721  {... */\n      pop\n      pop\n      pop\n      pop\n      pop\n        /* \"Custom-Dex/dex.sol\":5602:6721  function removeLiquidity(address _token0Address, address _token1Address)... */\n      swap3\n      swap2\n      pop\n      pop\n      jump\t// out\n        /* \"Custom-Dex/dex.sol\":4369:5596  function addLiquidity(... */\n    tag_28:\n        /* \"Custom-Dex/dex.sol\":4871:4884  string memory */\n      0x60\n        /* \"Custom-Dex/dex.sol\":4886:4893  uint256 */\n      0x00\n        /* \"Custom-Dex/dex.sol\":4909:4928  uint256 token0Price */\n      dup1\n        /* \"Custom-Dex/dex.sol\":4931:4975  getSpotPrice(_token0Address, _token1Address) */\n      tag_91\n        /* \"Custom-Dex/dex.sol\":4944:4958  _token0Address */\n      dup8\n        /* \"Custom-Dex/dex.sol\":4960:4974  _token1Address */\n      dup8\n        /* \"Custom-Dex/dex.sol\":4931:4943  getSpotPrice */\n      tag_16\n        /* \"Custom-Dex/dex.sol\":4931:4975  getSpotPrice(_token0Address, _token1Address) */\n      jump\t// in\n    tag_91:\n        /* \"Custom-Dex/dex.sol\":4909:4975  uint256 token0Price = getSpotPrice(_token0Address, _token1Address) */\n      swap1\n      pop\n        /* \"Custom-Dex/dex.sol\":5024:5046  _token1Amount * 10**18 */\n      tag_92\n        /* \"Custom-Dex/dex.sol\":5024:5037  _token1Amount */\n      dup5\n        /* \"Custom-Dex/dex.sol\":5040:5046  10**18 */\n      0x0de0b6b3a7640000\n        /* \"Custom-Dex/dex.sol\":5024:5046  _token1Amount * 10**18 */\n      tag_59\n      jump\t// in\n    tag_92:\n        /* \"Custom-Dex/dex.sol\":4993:5020  token0Price * _token0Amount */\n      tag_93\n        /* \"Custom-Dex/dex.sol\":5007:5020  _token0Amount */\n      dup7\n        /* \"Custom-Dex/dex.sol\":4993:5004  token0Price */\n      dup4\n        /* \"Custom-Dex/dex.sol\":4993:5020  token0Price * _token0Amount */\n      tag_59\n      jump\t// in\n    tag_93:\n        /* \"Custom-Dex/dex.sol\":4993:5046  token0Price * _token0Amount == _token1Amount * 10**18 */\n      eq\n        /* \"Custom-Dex/dex.sol\":4985:5091  require(token0Price * _token0Amount == _token1Amount * 10**18,\" must add liquidity at current spot price\") */\n      tag_94\n      jumpi\n      mload(0x40)\n      shl(0xe5, 0x461bcd)\n      dup2\n      mstore\n        /* \"#utility.yul\":6012:6014   */\n      0x20\n        /* \"Custom-Dex/dex.sol\":4985:5091  require(token0Price * _token0Amount == _token1Amount * 10**18,\" must add liquidity at current spot price\") */\n      0x04\n      dup3\n      add\n        /* \"#utility.yul\":5994:6015   */\n      mstore\n        /* \"#utility.yul\":6051:6053   */\n      0x29\n        /* \"#utility.yul\":6031:6049   */\n      0x24\n      dup3\n      add\n        /* \"#utility.yul\":6024:6054   */\n      mstore\n        /* \"#utility.yul\":6090:6124   */\n      0x206d75737420616464206c69717569646974792061742063757272656e742073\n        /* \"#utility.yul\":6070:6088   */\n      0x44\n      dup3\n      add\n        /* \"#utility.yul\":6063:6125   */\n      mstore\n      shl(0xb8, 0x706f74207072696365)\n        /* \"#utility.yul\":6141:6159   */\n      0x64\n      dup3\n      add\n        /* \"#utility.yul\":6134:6173   */\n      mstore\n        /* \"#utility.yul\":6190:6209   */\n      0x84\n      add\n        /* \"Custom-Dex/dex.sol\":4985:5091  require(token0Price * _token0Amount == _token1Amount * 10**18,\" must add liquidity at current spot price\") */\n      tag_44\n        /* \"#utility.yul\":5810:6215   */\n      jump\n        /* \"Custom-Dex/dex.sol\":4985:5091  require(token0Price * _token0Amount == _token1Amount * 10**18,\" must add liquidity at current spot price\") */\n    tag_94:\n        /* \"Custom-Dex/dex.sol\":5101:5175  transferToken(_token0Address, _token1Address, _token0Amount,_token1Amount) */\n      tag_97\n        /* \"Custom-Dex/dex.sol\":5115:5129  _token0Address */\n      dup8\n        /* \"Custom-Dex/dex.sol\":5131:5145  _token1Address */\n      dup8\n        /* \"Custom-Dex/dex.sol\":5147:5160  _token0Amount */\n      dup8\n        /* \"Custom-Dex/dex.sol\":5161:5174  _token1Amount */\n      dup8\n        /* \"Custom-Dex/dex.sol\":5101:5114  transferToken */\n      tag_12\n        /* \"Custom-Dex/dex.sol\":5101:5175  transferToken(_token0Address, _token1Address, _token0Amount,_token1Amount) */\n      jump\t// in\n    tag_97:\n      sub(shl(0xa0, 0x01), 0x01)\n        /* \"Custom-Dex/dex.sol\":5207:5236  tokenBalances[_token0Address] */\n      dup8\n      and\n        /* \"Custom-Dex/dex.sol\":5185:5204  uint currentBalance */\n      0x00\n        /* \"Custom-Dex/dex.sol\":5207:5236  tokenBalances[_token0Address] */\n      swap1\n      dup2\n      mstore\n        /* \"Custom-Dex/dex.sol\":5207:5220  tokenBalances */\n      0x04\n        /* \"Custom-Dex/dex.sol\":5207:5236  tokenBalances[_token0Address] */\n      0x20\n      mstore\n      0x40\n      dup2\n      keccak256\n      sload\n        /* \"Custom-Dex/dex.sol\":5280:5297  INITIAL_LP_TOKENS */\n      sload(0x01)\n        /* \"Custom-Dex/dex.sol\":5207:5236  tokenBalances[_token0Address] */\n      swap1\n      swap2\n        /* \"Custom-Dex/dex.sol\":5185:5204  uint currentBalance */\n      swap1\n        /* \"Custom-Dex/dex.sol\":5207:5236  tokenBalances[_token0Address] */\n      dup3\n      swap1\n        /* \"Custom-Dex/dex.sol\":5264:5297  _token0Amount * INITIAL_LP_TOKENS */\n      tag_98\n      swap1\n        /* \"Custom-Dex/dex.sol\":5264:5277  _token0Amount */\n      dup10\n        /* \"Custom-Dex/dex.sol\":5264:5297  _token0Amount * INITIAL_LP_TOKENS */\n      tag_59\n      jump\t// in\n    tag_98:\n        /* \"Custom-Dex/dex.sol\":5263:5315  (_token0Amount * INITIAL_LP_TOKENS) / currentBalance */\n      tag_99\n      swap2\n      swap1\n      tag_61\n      jump\t// in\n    tag_99:\n      sub(shl(0xa0, 0x01), 0x01)\n        /* \"Custom-Dex/dex.sol\":5325:5354  tokenBalances[_token0Address] */\n      dup11\n      and\n      0x00\n      swap1\n      dup2\n      mstore\n        /* \"Custom-Dex/dex.sol\":5325:5338  tokenBalances */\n      0x04\n        /* \"Custom-Dex/dex.sol\":5325:5354  tokenBalances[_token0Address] */\n      0x20\n      mstore\n      0x40\n      dup2\n      keccak256\n        /* \"Custom-Dex/dex.sol\":5325:5371  tokenBalances[_token0Address] += _token0Amount */\n      dup1\n      sload\n        /* \"Custom-Dex/dex.sol\":5246:5315  uint newTokens = (_token0Amount * INITIAL_LP_TOKENS) / currentBalance */\n      swap3\n      swap4\n      pop\n        /* \"Custom-Dex/dex.sol\":5358:5371  _token0Amount */\n      dup10\n      swap3\n        /* \"Custom-Dex/dex.sol\":5325:5354  tokenBalances[_token0Address] */\n      swap1\n      swap2\n      swap1\n        /* \"Custom-Dex/dex.sol\":5325:5371  tokenBalances[_token0Address] += _token0Amount */\n      tag_100\n      swap1\n        /* \"Custom-Dex/dex.sol\":5358:5371  _token0Amount */\n      dup5\n      swap1\n        /* \"Custom-Dex/dex.sol\":5325:5371  tokenBalances[_token0Address] += _token0Amount */\n      tag_101\n      jump\t// in\n    tag_100:\n      swap1\n      swap2\n      sstore\n      pop\n      pop\n      sub(shl(0xa0, 0x01), 0x01)\n        /* \"Custom-Dex/dex.sol\":5381:5410  tokenBalances[_token1Address] */\n      dup9\n      and\n      0x00\n      swap1\n      dup2\n      mstore\n        /* \"Custom-Dex/dex.sol\":5381:5394  tokenBalances */\n      0x04\n        /* \"Custom-Dex/dex.sol\":5381:5410  tokenBalances[_token1Address] */\n      0x20\n      mstore\n      0x40\n      dup2\n      keccak256\n        /* \"Custom-Dex/dex.sol\":5381:5427  tokenBalances[_token1Address] += _token1Amount */\n      dup1\n      sload\n        /* \"Custom-Dex/dex.sol\":5414:5427  _token1Amount */\n      dup9\n      swap3\n        /* \"Custom-Dex/dex.sol\":5381:5410  tokenBalances[_token1Address] */\n      swap1\n        /* \"Custom-Dex/dex.sol\":5381:5427  tokenBalances[_token1Address] += _token1Amount */\n      tag_102\n      swap1\n        /* \"Custom-Dex/dex.sol\":5414:5427  _token1Amount */\n      dup5\n      swap1\n        /* \"Custom-Dex/dex.sol\":5381:5427  tokenBalances[_token1Address] += _token1Amount */\n      tag_101\n      jump\t// in\n    tag_102:\n      swap3\n      pop\n      pop\n      dup2\n      swap1\n      sstore\n      pop\n        /* \"Custom-Dex/dex.sol\":5454:5463  newTokens */\n      dup1\n        /* \"Custom-Dex/dex.sol\":5437:5450  totalLpTokens */\n      0x03\n      0x00\n        /* \"Custom-Dex/dex.sol\":5437:5463  totalLpTokens += newTokens */\n      dup3\n      dup3\n      sload\n      tag_103\n      swap2\n      swap1\n      tag_101\n      jump\t// in\n    tag_103:\n      swap1\n      swap2\n      sstore\n      pop\n      pop\n        /* \"Custom-Dex/dex.sol\":5484:5494  msg.sender */\n      caller\n        /* \"Custom-Dex/dex.sol\":5473:5495  lpBalances[msg.sender] */\n      0x00\n      swap1\n      dup2\n      mstore\n        /* \"Custom-Dex/dex.sol\":5473:5483  lpBalances */\n      0x05\n        /* \"Custom-Dex/dex.sol\":5473:5495  lpBalances[msg.sender] */\n      0x20\n      mstore\n      0x40\n      dup2\n      keccak256\n        /* \"Custom-Dex/dex.sol\":5473:5508  lpBalances[msg.sender] += newTokens */\n      dup1\n      sload\n        /* \"Custom-Dex/dex.sol\":5499:5508  newTokens */\n      dup4\n      swap3\n        /* \"Custom-Dex/dex.sol\":5473:5495  lpBalances[msg.sender] */\n      swap1\n        /* \"Custom-Dex/dex.sol\":5473:5508  lpBalances[msg.sender] += newTokens */\n      tag_104\n      swap1\n        /* \"Custom-Dex/dex.sol\":5499:5508  newTokens */\n      dup5\n      swap1\n        /* \"Custom-Dex/dex.sol\":5473:5508  lpBalances[msg.sender] += newTokens */\n      tag_101\n      jump\t// in\n    tag_104:\n      swap1\n      swap2\n      sstore\n      pop\n      pop\n        /* \"Custom-Dex/dex.sol\":5577:5587  msg.sender */\n      caller\n        /* \"Custom-Dex/dex.sol\":5566:5588  lpBalances[msg.sender] */\n      0x00\n      swap1\n      dup2\n      mstore\n        /* \"Custom-Dex/dex.sol\":5566:5576  lpBalances */\n      0x05\n        /* \"Custom-Dex/dex.sol\":5566:5588  lpBalances[msg.sender] */\n      0x20\n      swap1\n      dup2\n      mstore\n      0x40\n      swap2\n      dup3\n      swap1\n      keccak256\n      sload\n        /* \"Custom-Dex/dex.sol\":5518:5589  return(\"Lp token balance w.r.t added liquidity\",lpBalances[msg.sender]) */\n      dup3\n      mload\n      0x60\n      dup2\n      add\n      swap1\n      swap4\n      mstore\n      0x26\n      dup1\n      dup5\n      mstore\n        /* \"Custom-Dex/dex.sol\":5566:5588  lpBalances[msg.sender] */\n      swap1\n      swap3\n        /* \"Custom-Dex/dex.sol\":5518:5589  return(\"Lp token balance w.r.t added liquidity\",lpBalances[msg.sender]) */\n      swap2\n      data_b258cbd7fddccbc685dbfe29662d719d96f9b09e5e29d49e6b7e7a265b02d4ef\n      swap1\n      dup4\n      add\n      codecopy\n      swap11\n      swap1\n      swap10\n      pop\n        /* \"Custom-Dex/dex.sol\":4369:5596  function addLiquidity(... */\n      swap8\n      pop\n      pop\n      pop\n      pop\n      pop\n      pop\n      pop\n      pop\n      jump\t// out\n        /* \"Custom-Dex/dex.sol\":6727:7514  function swap(... */\n    tag_34:\n        /* \"Custom-Dex/dex.sol\":6932:6939  uint256 */\n      0x00\n        /* \"@openzeppelin/contracts/security/ReentrancyGuard.sol\":2261:2282  _nonReentrantBefore() */\n      tag_106\n        /* \"@openzeppelin/contracts/security/ReentrancyGuard.sol\":2261:2280  _nonReentrantBefore */\n      tag_107\n        /* \"@openzeppelin/contracts/security/ReentrancyGuard.sol\":2261:2282  _nonReentrantBefore() */\n      jump\t// in\n    tag_106:\n        /* \"Custom-Dex/dex.sol\":7001:7007  uint r */\n      0x00\n        /* \"Custom-Dex/dex.sol\":7018:7024  LP_FEE */\n      sload(0x02)\n        /* \"Custom-Dex/dex.sol\":7010:7015  10000 */\n      0x2710\n        /* \"Custom-Dex/dex.sol\":7010:7024  10000 - LP_FEE */\n      tag_109\n      swap2\n      swap1\n      tag_72\n      jump\t// in\n    tag_109:\n        /* \"Custom-Dex/dex.sol\":7001:7024  uint r = 10000 - LP_FEE */\n      swap1\n      pop\n        /* \"Custom-Dex/dex.sol\":7034:7047  uint amountIn */\n      0x00\n        /* \"Custom-Dex/dex.sol\":7064:7069  10000 */\n      0x2710\n        /* \"Custom-Dex/dex.sol\":7050:7061  r * _amount */\n      tag_110\n        /* \"Custom-Dex/dex.sol\":7054:7061  _amount */\n      dup6\n        /* \"Custom-Dex/dex.sol\":7001:7024  uint r = 10000 - LP_FEE */\n      dup5\n        /* \"Custom-Dex/dex.sol\":7050:7061  r * _amount */\n      tag_59\n      jump\t// in\n    tag_110:\n        /* \"Custom-Dex/dex.sol\":7050:7069  r * _amount / 10000 */\n      tag_111\n      swap2\n      swap1\n      tag_61\n      jump\t// in\n    tag_111:\n      sub(shl(0xa0, 0x01), 0x01)\n        /* \"Custom-Dex/dex.sol\":7130:7149  tokenBalances[from] */\n      dup1\n      dup9\n      and\n        /* \"Custom-Dex/dex.sol\":7079:7096  uint outputTokens */\n      0x00\n        /* \"Custom-Dex/dex.sol\":7130:7149  tokenBalances[from] */\n      swap1\n      dup2\n      mstore\n        /* \"Custom-Dex/dex.sol\":7130:7143  tokenBalances */\n      0x04\n        /* \"Custom-Dex/dex.sol\":7130:7149  tokenBalances[from] */\n      0x20\n      mstore\n      0x40\n      dup1\n      dup3\n      keccak256\n      sload\n        /* \"Custom-Dex/dex.sol\":7099:7116  tokenBalances[to] */\n      swap3\n      dup10\n      and\n      dup3\n      mstore\n      dup2\n      keccak256\n      sload\n        /* \"Custom-Dex/dex.sol\":7034:7069  uint amountIn = r * _amount / 10000 */\n      swap3\n      swap4\n      pop\n        /* \"Custom-Dex/dex.sol\":7079:7096  uint outputTokens */\n      swap2\n        /* \"Custom-Dex/dex.sol\":7034:7069  uint amountIn = r * _amount / 10000 */\n      dup4\n      swap2\n        /* \"Custom-Dex/dex.sol\":7130:7149  tokenBalances[from] */\n      swap1\n        /* \"Custom-Dex/dex.sol\":7099:7127  tokenBalances[to] * amountIn */\n      tag_112\n      swap1\n        /* \"Custom-Dex/dex.sol\":7034:7069  uint amountIn = r * _amount / 10000 */\n      dup4\n      swap1\n        /* \"Custom-Dex/dex.sol\":7099:7127  tokenBalances[to] * amountIn */\n      tag_59\n      jump\t// in\n    tag_112:\n        /* \"Custom-Dex/dex.sol\":7099:7149  tokenBalances[to] * amountIn / tokenBalances[from] */\n      tag_113\n      swap2\n      swap1\n      tag_61\n      jump\t// in\n    tag_113:\n        /* \"Custom-Dex/dex.sol\":7099:7160  tokenBalances[to] * amountIn / tokenBalances[from] + amountIn */\n      tag_114\n      swap2\n      swap1\n      tag_101\n      jump\t// in\n    tag_114:\n      sub(shl(0xa0, 0x01), 0x01)\n        /* \"Custom-Dex/dex.sol\":7170:7189  tokenBalances[from] */\n      dup9\n      and\n      0x00\n      swap1\n      dup2\n      mstore\n        /* \"Custom-Dex/dex.sol\":7170:7183  tokenBalances */\n      0x04\n        /* \"Custom-Dex/dex.sol\":7170:7189  tokenBalances[from] */\n      0x20\n      mstore\n      0x40\n      dup2\n      keccak256\n        /* \"Custom-Dex/dex.sol\":7170:7200  tokenBalances[from] += _amount */\n      dup1\n      sload\n        /* \"Custom-Dex/dex.sol\":7079:7160  uint outputTokens = tokenBalances[to] * amountIn / tokenBalances[from] + amountIn */\n      swap3\n      swap4\n      pop\n        /* \"Custom-Dex/dex.sol\":7193:7200  _amount */\n      dup8\n      swap3\n        /* \"Custom-Dex/dex.sol\":7170:7189  tokenBalances[from] */\n      swap1\n      swap2\n      swap1\n        /* \"Custom-Dex/dex.sol\":7170:7200  tokenBalances[from] += _amount */\n      tag_115\n      swap1\n        /* \"Custom-Dex/dex.sol\":7193:7200  _amount */\n      dup5\n      swap1\n        /* \"Custom-Dex/dex.sol\":7170:7200  tokenBalances[from] += _amount */\n      tag_101\n      jump\t// in\n    tag_115:\n      swap1\n      swap2\n      sstore\n      pop\n      pop\n      sub(shl(0xa0, 0x01), 0x01)\n        /* \"Custom-Dex/dex.sol\":7210:7227  tokenBalances[to] */\n      dup7\n      and\n      0x00\n      swap1\n      dup2\n      mstore\n        /* \"Custom-Dex/dex.sol\":7210:7223  tokenBalances */\n      0x04\n        /* \"Custom-Dex/dex.sol\":7210:7227  tokenBalances[to] */\n      0x20\n      mstore\n      0x40\n      dup2\n      keccak256\n        /* \"Custom-Dex/dex.sol\":7210:7243  tokenBalances[to] -= outputTokens */\n      dup1\n      sload\n        /* \"Custom-Dex/dex.sol\":7231:7243  outputTokens */\n      dup4\n      swap3\n        /* \"Custom-Dex/dex.sol\":7210:7227  tokenBalances[to] */\n      swap1\n        /* \"Custom-Dex/dex.sol\":7210:7243  tokenBalances[to] -= outputTokens */\n      tag_116\n      swap1\n        /* \"Custom-Dex/dex.sol\":7231:7243  outputTokens */\n      dup5\n      swap1\n        /* \"Custom-Dex/dex.sol\":7210:7243  tokenBalances[to] -= outputTokens */\n      tag_72\n      jump\t// in\n    tag_116:\n      swap1\n      swap2\n      sstore\n      pop\n      pop\n        /* \"Custom-Dex/dex.sol\":7343:7404  contractFrom.transferFrom(msg.sender, address(this), _amount) */\n      mload(0x40)\n      shl(0xe0, 0x23b872dd)\n      dup2\n      mstore\n        /* \"Custom-Dex/dex.sol\":7369:7379  msg.sender */\n      caller\n        /* \"Custom-Dex/dex.sol\":7343:7404  contractFrom.transferFrom(msg.sender, address(this), _amount) */\n      0x04\n      dup3\n      add\n        /* \"#utility.yul\":2223:2257   */\n      mstore\n        /* \"Custom-Dex/dex.sol\":7389:7393  this */\n      address\n        /* \"#utility.yul\":2273:2291   */\n      0x24\n      dup3\n      add\n        /* \"#utility.yul\":2266:2309   */\n      mstore\n        /* \"#utility.yul\":2325:2343   */\n      0x44\n      dup2\n      add\n        /* \"#utility.yul\":2318:2352   */\n      dup7\n      swap1\n      mstore\n        /* \"Custom-Dex/dex.sol\":7281:7285  from */\n      dup8\n      swap1\n        /* \"Custom-Dex/dex.sol\":7321:7323  to */\n      dup8\n      swap1\n      sub(shl(0xa0, 0x01), 0x01)\n        /* \"Custom-Dex/dex.sol\":7343:7368  contractFrom.transferFrom */\n      dup4\n      and\n      swap1\n      0x23b872dd\n      swap1\n        /* \"#utility.yul\":2158:2176   */\n      0x64\n      add\n        /* \"Custom-Dex/dex.sol\":7343:7404  contractFrom.transferFrom(msg.sender, address(this), _amount) */\n      0x20\n      mload(0x40)\n      dup1\n      dup4\n      sub\n      dup2\n      0x00\n      dup8\n      gas\n      call\n      iszero\n      dup1\n      iszero\n      tag_119\n      jumpi\n      returndatasize\n      0x00\n      dup1\n      returndatacopy\n      revert(0x00, returndatasize)\n    tag_119:\n      pop\n      pop\n      pop\n      pop\n      mload(0x40)\n      returndatasize\n      not(0x1f)\n      0x1f\n      dup3\n      add\n      and\n      dup3\n      add\n      dup1\n      0x40\n      mstore\n      pop\n      dup2\n      add\n      swap1\n      tag_120\n      swap2\n      swap1\n      tag_42\n      jump\t// in\n    tag_120:\n        /* \"Custom-Dex/dex.sol\":7335:7424  require(contractFrom.transferFrom(msg.sender, address(this), _amount), \"Transfer Failed\") */\n      tag_121\n      jumpi\n      mload(0x40)\n      shl(0xe5, 0x461bcd)\n      dup2\n      mstore\n        /* \"#utility.yul\":6552:6554   */\n      0x20\n        /* \"Custom-Dex/dex.sol\":7335:7424  require(contractFrom.transferFrom(msg.sender, address(this), _amount), \"Transfer Failed\") */\n      0x04\n      dup3\n      add\n        /* \"#utility.yul\":6534:6555   */\n      mstore\n        /* \"#utility.yul\":6591:6593   */\n      0x0f\n        /* \"#utility.yul\":6571:6589   */\n      0x24\n      dup3\n      add\n        /* \"#utility.yul\":6564:6594   */\n      mstore\n      shl(0x8a, 0x151c985b9cd9995c8811985a5b1959)\n        /* \"#utility.yul\":6610:6628   */\n      0x44\n      dup3\n      add\n        /* \"#utility.yul\":6603:6648   */\n      mstore\n        /* \"#utility.yul\":6665:6683   */\n      0x64\n      add\n        /* \"Custom-Dex/dex.sol\":7335:7424  require(contractFrom.transferFrom(msg.sender, address(this), _amount), \"Transfer Failed\") */\n      tag_44\n        /* \"#utility.yul\":6350:6689   */\n      jump\n        /* \"Custom-Dex/dex.sol\":7335:7424  require(contractFrom.transferFrom(msg.sender, address(this), _amount), \"Transfer Failed\") */\n    tag_121:\n        /* \"Custom-Dex/dex.sol\":7442:7487  contractTo.transfer(msg.sender, outputTokens) */\n      mload(0x40)\n      shl(0xe0, 0xa9059cbb)\n      dup2\n      mstore\n        /* \"Custom-Dex/dex.sol\":7462:7472  msg.sender */\n      caller\n        /* \"Custom-Dex/dex.sol\":7442:7487  contractTo.transfer(msg.sender, outputTokens) */\n      0x04\n      dup3\n      add\n        /* \"#utility.yul\":4995:5046   */\n      mstore\n        /* \"#utility.yul\":5062:5080   */\n      0x24\n      dup2\n      add\n        /* \"#utility.yul\":5055:5089   */\n      dup5\n      swap1\n      mstore\n      sub(shl(0xa0, 0x01), 0x01)\n        /* \"Custom-Dex/dex.sol\":7442:7461  contractTo.transfer */\n      dup3\n      and\n      swap1\n      0xa9059cbb\n      swap1\n        /* \"#utility.yul\":4968:4986   */\n      0x44\n      add\n        /* \"Custom-Dex/dex.sol\":7442:7487  contractTo.transfer(msg.sender, outputTokens) */\n      0x20\n      mload(0x40)\n      dup1\n      dup4\n      sub\n      dup2\n      0x00\n      dup8\n      gas\n      call\n      iszero\n      dup1\n      iszero\n      tag_126\n      jumpi\n      returndatasize\n      0x00\n      dup1\n      returndatacopy\n      revert(0x00, returndatasize)\n    tag_126:\n      pop\n      pop\n      pop\n      pop\n      mload(0x40)\n      returndatasize\n      not(0x1f)\n      0x1f\n      dup3\n      add\n      and\n      dup3\n      add\n      dup1\n      0x40\n      mstore\n      pop\n      dup2\n      add\n      swap1\n      tag_127\n      swap2\n      swap1\n      tag_42\n      jump\t// in\n    tag_127:\n        /* \"Custom-Dex/dex.sol\":7434:7507  require(contractTo.transfer(msg.sender, outputTokens), \"Transfer Failed\") */\n      tag_128\n      jumpi\n      mload(0x40)\n      shl(0xe5, 0x461bcd)\n      dup2\n      mstore\n        /* \"#utility.yul\":6552:6554   */\n      0x20\n        /* \"Custom-Dex/dex.sol\":7434:7507  require(contractTo.transfer(msg.sender, outputTokens), \"Transfer Failed\") */\n      0x04\n      dup3\n      add\n        /* \"#utility.yul\":6534:6555   */\n      mstore\n        /* \"#utility.yul\":6591:6593   */\n      0x0f\n        /* \"#utility.yul\":6571:6589   */\n      0x24\n      dup3\n      add\n        /* \"#utility.yul\":6564:6594   */\n      mstore\n      shl(0x8a, 0x151c985b9cd9995c8811985a5b1959)\n        /* \"#utility.yul\":6610:6628   */\n      0x44\n      dup3\n      add\n        /* \"#utility.yul\":6603:6648   */\n      mstore\n        /* \"#utility.yul\":6665:6683   */\n      0x64\n      add\n        /* \"Custom-Dex/dex.sol\":7434:7507  require(contractTo.transfer(msg.sender, outputTokens), \"Transfer Failed\") */\n      tag_44\n        /* \"#utility.yul\":6350:6689   */\n      jump\n        /* \"Custom-Dex/dex.sol\":7434:7507  require(contractTo.transfer(msg.sender, outputTokens), \"Transfer Failed\") */\n    tag_128:\n        /* \"Custom-Dex/dex.sol\":6941:7514  {... */\n      pop\n      pop\n      pop\n      pop\n      pop\n        /* \"@openzeppelin/contracts/security/ReentrancyGuard.sol\":2303:2323  _nonReentrantAfter() */\n      tag_130\n        /* \"@openzeppelin/contracts/security/ReentrancyGuard.sol\":1716:1717  1 */\n      0x01\n        /* \"@openzeppelin/contracts/security/ReentrancyGuard.sol\":2809:2816  _status */\n      0x00\n        /* \"@openzeppelin/contracts/security/ReentrancyGuard.sol\":2809:2831  _status = _NOT_ENTERED */\n      sstore\n        /* \"@openzeppelin/contracts/security/ReentrancyGuard.sol\":2629:2838  function _nonReentrantAfter() private {... */\n      jump\n        /* \"@openzeppelin/contracts/security/ReentrancyGuard.sol\":2303:2323  _nonReentrantAfter() */\n    tag_130:\n        /* \"Custom-Dex/dex.sol\":6727:7514  function swap(... */\n      swap4\n      swap3\n      pop\n      pop\n      pop\n      jump\t// out\n        /* \"@openzeppelin/contracts/security/ReentrancyGuard.sol\":2336:2623  function _nonReentrantBefore() private {... */\n    tag_107:\n        /* \"@openzeppelin/contracts/security/ReentrancyGuard.sol\":1759:1760  2 */\n      0x02\n        /* \"@openzeppelin/contracts/security/ReentrancyGuard.sol\":2468:2475  _status */\n      sload(0x00)\n        /* \"@openzeppelin/contracts/security/ReentrancyGuard.sol\":2468:2487  _status != _ENTERED */\n      sub\n        /* \"@openzeppelin/contracts/security/ReentrancyGuard.sol\":2460:2523  require(_status != _ENTERED, \"ReentrancyGuard: reentrant call\") */\n      tag_133\n      jumpi\n      mload(0x40)\n      shl(0xe5, 0x461bcd)\n      dup2\n      mstore\n        /* \"#utility.yul\":6896:6898   */\n      0x20\n        /* \"@openzeppelin/contracts/security/ReentrancyGuard.sol\":2460:2523  require(_status != _ENTERED, \"ReentrancyGuard: reentrant call\") */\n      0x04\n      dup3\n      add\n        /* \"#utility.yul\":6878:6899   */\n      mstore\n        /* \"#utility.yul\":6935:6937   */\n      0x1f\n        /* \"#utility.yul\":6915:6933   */\n      0x24\n      dup3\n      add\n        /* \"#utility.yul\":6908:6938   */\n      mstore\n        /* \"#utility.yul\":6974:7007   */\n      0x5265656e7472616e637947756172643a207265656e7472616e742063616c6c00\n        /* \"#utility.yul\":6954:6972   */\n      0x44\n      dup3\n      add\n        /* \"#utility.yul\":6947:7008   */\n      mstore\n        /* \"#utility.yul\":7025:7043   */\n      0x64\n      add\n        /* \"@openzeppelin/contracts/security/ReentrancyGuard.sol\":2460:2523  require(_status != _ENTERED, \"ReentrancyGuard: reentrant call\") */\n      tag_44\n        /* \"#utility.yul\":6694:7049   */\n      jump\n        /* \"@openzeppelin/contracts/security/ReentrancyGuard.sol\":2460:2523  require(_status != _ENTERED, \"ReentrancyGuard: reentrant call\") */\n    tag_133:\n        /* \"@openzeppelin/contracts/security/ReentrancyGuard.sol\":1759:1760  2 */\n      0x02\n        /* \"@openzeppelin/contracts/security/ReentrancyGuard.sol\":2598:2605  _status */\n      0x00\n        /* \"@openzeppelin/contracts/security/ReentrancyGuard.sol\":2598:2616  _status = _ENTERED */\n      sstore\n        /* \"@openzeppelin/contracts/security/ReentrancyGuard.sol\":2336:2623  function _nonReentrantBefore() private {... */\n      jump\t// out\n        /* \"#utility.yul\":14:187   */\n    tag_137:\n        /* \"#utility.yul\":82:102   */\n      dup1\n      calldataload\n      sub(shl(0xa0, 0x01), 0x01)\n        /* \"#utility.yul\":131:162   */\n      dup2\n      and\n        /* \"#utility.yul\":121:163   */\n      dup2\n      eq\n        /* \"#utility.yul\":111:181   */\n      tag_141\n      jumpi\n        /* \"#utility.yul\":177:178   */\n      0x00\n        /* \"#utility.yul\":174:175   */\n      dup1\n        /* \"#utility.yul\":167:179   */\n      revert\n        /* \"#utility.yul\":111:181   */\n    tag_141:\n        /* \"#utility.yul\":14:187   */\n      swap2\n      swap1\n      pop\n      jump\t// out\n        /* \"#utility.yul\":192:589   */\n    tag_11:\n        /* \"#utility.yul\":278:284   */\n      0x00\n        /* \"#utility.yul\":286:292   */\n      dup1\n        /* \"#utility.yul\":294:300   */\n      0x00\n        /* \"#utility.yul\":302:308   */\n      dup1\n        /* \"#utility.yul\":355:358   */\n      0x80\n        /* \"#utility.yul\":343:352   */\n      dup6\n        /* \"#utility.yul\":334:341   */\n      dup8\n        /* \"#utility.yul\":330:353   */\n      sub\n        /* \"#utility.yul\":326:359   */\n      slt\n        /* \"#utility.yul\":323:376   */\n      iszero\n      tag_143\n      jumpi\n        /* \"#utility.yul\":372:373   */\n      0x00\n        /* \"#utility.yul\":369:370   */\n      dup1\n        /* \"#utility.yul\":362:374   */\n      revert\n        /* \"#utility.yul\":323:376   */\n    tag_143:\n        /* \"#utility.yul\":395:424   */\n      tag_144\n        /* \"#utility.yul\":414:423   */\n      dup6\n        /* \"#utility.yul\":395:424   */\n      tag_137\n      jump\t// in\n    tag_144:\n        /* \"#utility.yul\":385:424   */\n      swap4\n      pop\n        /* \"#utility.yul\":443:481   */\n      tag_145\n        /* \"#utility.yul\":477:479   */\n      0x20\n        /* \"#utility.yul\":466:475   */\n      dup7\n        /* \"#utility.yul\":462:480   */\n      add\n        /* \"#utility.yul\":443:481   */\n      tag_137\n      jump\t// in\n    tag_145:\n        /* \"#utility.yul\":192:589   */\n      swap4\n      swap7\n        /* \"#utility.yul\":433:481   */\n      swap4\n      swap6\n      pop\n      pop\n      pop\n      pop\n        /* \"#utility.yul\":528:530   */\n      0x40\n        /* \"#utility.yul\":513:531   */\n      dup3\n      add\n        /* \"#utility.yul\":500:532   */\n      calldataload\n      swap2\n        /* \"#utility.yul\":579:581   */\n      0x60\n        /* \"#utility.yul\":564:582   */\n      add\n        /* \"#utility.yul\":551:583   */\n      calldataload\n      swap1\n        /* \"#utility.yul\":192:589   */\n      jump\t// out\n        /* \"#utility.yul\":594:854   */\n    tag_15:\n        /* \"#utility.yul\":662:668   */\n      0x00\n        /* \"#utility.yul\":670:676   */\n      dup1\n        /* \"#utility.yul\":723:725   */\n      0x40\n        /* \"#utility.yul\":711:720   */\n      dup4\n        /* \"#utility.yul\":702:709   */\n      dup6\n        /* \"#utility.yul\":698:721   */\n      sub\n        /* \"#utility.yul\":694:726   */\n      slt\n        /* \"#utility.yul\":691:743   */\n      iszero\n      tag_147\n      jumpi\n        /* \"#utility.yul\":739:740   */\n      0x00\n        /* \"#utility.yul\":736:737   */\n      dup1\n        /* \"#utility.yul\":729:741   */\n      revert\n        /* \"#utility.yul\":691:743   */\n    tag_147:\n        /* \"#utility.yul\":762:791   */\n      tag_148\n        /* \"#utility.yul\":781:790   */\n      dup4\n        /* \"#utility.yul\":762:791   */\n      tag_137\n      jump\t// in\n    tag_148:\n        /* \"#utility.yul\":752:791   */\n      swap2\n      pop\n        /* \"#utility.yul\":810:848   */\n      tag_149\n        /* \"#utility.yul\":844:846   */\n      0x20\n        /* \"#utility.yul\":833:842   */\n      dup5\n        /* \"#utility.yul\":829:847   */\n      add\n        /* \"#utility.yul\":810:848   */\n      tag_137\n      jump\t// in\n    tag_149:\n        /* \"#utility.yul\":800:848   */\n      swap1\n      pop\n        /* \"#utility.yul\":594:854   */\n      swap3\n      pop\n      swap3\n      swap1\n      pop\n      jump\t// out\n        /* \"#utility.yul\":1041:1645   */\n    tag_30:\n        /* \"#utility.yul\":1218:1220   */\n      0x40\n        /* \"#utility.yul\":1207:1216   */\n      dup2\n        /* \"#utility.yul\":1200:1221   */\n      mstore\n        /* \"#utility.yul\":1181:1185   */\n      0x00\n        /* \"#utility.yul\":1250:1256   */\n      dup4\n        /* \"#utility.yul\":1244:1257   */\n      mload\n        /* \"#utility.yul\":1293:1299   */\n      dup1\n        /* \"#utility.yul\":1288:1290   */\n      0x40\n        /* \"#utility.yul\":1277:1286   */\n      dup5\n        /* \"#utility.yul\":1273:1291   */\n      add\n        /* \"#utility.yul\":1266:1300   */\n      mstore\n        /* \"#utility.yul\":1318:1319   */\n      0x00\n        /* \"#utility.yul\":1328:1472   */\n    tag_152:\n        /* \"#utility.yul\":1342:1348   */\n      dup2\n        /* \"#utility.yul\":1339:1340   */\n      dup2\n        /* \"#utility.yul\":1336:1349   */\n      lt\n        /* \"#utility.yul\":1328:1472   */\n      iszero\n      tag_154\n      jumpi\n        /* \"#utility.yul\":1455:1459   */\n      0x20\n        /* \"#utility.yul\":1439:1453   */\n      dup2\n      dup8\n      add\n        /* \"#utility.yul\":1435:1460   */\n      dup2\n      add\n        /* \"#utility.yul\":1429:1461   */\n      mload\n        /* \"#utility.yul\":1424:1426   */\n      0x60\n        /* \"#utility.yul\":1405:1422   */\n      dup7\n      dup5\n      add\n        /* \"#utility.yul\":1401:1427   */\n      add\n        /* \"#utility.yul\":1394:1462   */\n      mstore\n        /* \"#utility.yul\":1357:1369   */\n      add\n        /* \"#utility.yul\":1328:1472   */\n      jump(tag_152)\n    tag_154:\n        /* \"#utility.yul\":1332:1335   */\n      pop\n        /* \"#utility.yul\":1521:1522   */\n      0x00\n        /* \"#utility.yul\":1516:1518   */\n      0x60\n        /* \"#utility.yul\":1507:1513   */\n      dup3\n        /* \"#utility.yul\":1496:1505   */\n      dup6\n        /* \"#utility.yul\":1492:1514   */\n      add\n        /* \"#utility.yul\":1488:1519   */\n      add\n        /* \"#utility.yul\":1481:1523   */\n      mstore\n        /* \"#utility.yul\":1591:1593   */\n      0x60\n        /* \"#utility.yul\":1584:1586   */\n      0x1f\n        /* \"#utility.yul\":1580:1587   */\n      not\n        /* \"#utility.yul\":1575:1577   */\n      0x1f\n        /* \"#utility.yul\":1567:1573   */\n      dup4\n        /* \"#utility.yul\":1563:1578   */\n      add\n        /* \"#utility.yul\":1559:1588   */\n      and\n        /* \"#utility.yul\":1548:1557   */\n      dup5\n        /* \"#utility.yul\":1544:1589   */\n      add\n        /* \"#utility.yul\":1540:1594   */\n      add\n        /* \"#utility.yul\":1532:1594   */\n      swap2\n      pop\n      pop\n        /* \"#utility.yul\":1632:1638   */\n      dup3\n        /* \"#utility.yul\":1625:1629   */\n      0x20\n        /* \"#utility.yul\":1614:1623   */\n      dup4\n        /* \"#utility.yul\":1610:1630   */\n      add\n        /* \"#utility.yul\":1603:1639   */\n      mstore\n        /* \"#utility.yul\":1041:1645   */\n      swap4\n      swap3\n      pop\n      pop\n      pop\n      jump\t// out\n        /* \"#utility.yul\":1650:1978   */\n    tag_33:\n        /* \"#utility.yul\":1727:1733   */\n      0x00\n        /* \"#utility.yul\":1735:1741   */\n      dup1\n        /* \"#utility.yul\":1743:1749   */\n      0x00\n        /* \"#utility.yul\":1796:1798   */\n      0x60\n        /* \"#utility.yul\":1784:1793   */\n      dup5\n        /* \"#utility.yul\":1775:1782   */\n      dup7\n        /* \"#utility.yul\":1771:1794   */\n      sub\n        /* \"#utility.yul\":1767:1799   */\n      slt\n        /* \"#utility.yul\":1764:1816   */\n      iszero\n      tag_156\n      jumpi\n        /* \"#utility.yul\":1812:1813   */\n      0x00\n        /* \"#utility.yul\":1809:1810   */\n      dup1\n        /* \"#utility.yul\":1802:1814   */\n      revert\n        /* \"#utility.yul\":1764:1816   */\n    tag_156:\n        /* \"#utility.yul\":1835:1864   */\n      tag_157\n        /* \"#utility.yul\":1854:1863   */\n      dup5\n        /* \"#utility.yul\":1835:1864   */\n      tag_137\n      jump\t// in\n    tag_157:\n        /* \"#utility.yul\":1825:1864   */\n      swap3\n      pop\n        /* \"#utility.yul\":1883:1921   */\n      tag_158\n        /* \"#utility.yul\":1917:1919   */\n      0x20\n        /* \"#utility.yul\":1906:1915   */\n      dup6\n        /* \"#utility.yul\":1902:1920   */\n      add\n        /* \"#utility.yul\":1883:1921   */\n      tag_137\n      jump\t// in\n    tag_158:\n        /* \"#utility.yul\":1873:1921   */\n      swap2\n      pop\n        /* \"#utility.yul\":1968:1970   */\n      0x40\n        /* \"#utility.yul\":1957:1966   */\n      dup5\n        /* \"#utility.yul\":1953:1971   */\n      add\n        /* \"#utility.yul\":1940:1972   */\n      calldataload\n        /* \"#utility.yul\":1930:1972   */\n      swap1\n      pop\n        /* \"#utility.yul\":1650:1978   */\n      swap3\n      pop\n      swap3\n      pop\n      swap3\n      jump\t// out\n        /* \"#utility.yul\":2363:2640   */\n    tag_42:\n        /* \"#utility.yul\":2430:2436   */\n      0x00\n        /* \"#utility.yul\":2483:2485   */\n      0x20\n        /* \"#utility.yul\":2471:2480   */\n      dup3\n        /* \"#utility.yul\":2462:2469   */\n      dup5\n        /* \"#utility.yul\":2458:2481   */\n      sub\n        /* \"#utility.yul\":2454:2486   */\n      slt\n        /* \"#utility.yul\":2451:2503   */\n      iszero\n      tag_161\n      jumpi\n        /* \"#utility.yul\":2499:2500   */\n      0x00\n        /* \"#utility.yul\":2496:2497   */\n      dup1\n        /* \"#utility.yul\":2489:2501   */\n      revert\n        /* \"#utility.yul\":2451:2503   */\n    tag_161:\n        /* \"#utility.yul\":2531:2540   */\n      dup2\n        /* \"#utility.yul\":2525:2541   */\n      mload\n        /* \"#utility.yul\":2584:2589   */\n      dup1\n        /* \"#utility.yul\":2577:2590   */\n      iszero\n        /* \"#utility.yul\":2570:2591   */\n      iszero\n        /* \"#utility.yul\":2563:2568   */\n      dup2\n        /* \"#utility.yul\":2560:2592   */\n      eq\n        /* \"#utility.yul\":2550:2610   */\n      tag_130\n      jumpi\n        /* \"#utility.yul\":2606:2607   */\n      0x00\n        /* \"#utility.yul\":2603:2604   */\n      dup1\n        /* \"#utility.yul\":2596:2608   */\n      revert\n        /* \"#utility.yul\":3755:3882   */\n    tag_138:\n        /* \"#utility.yul\":3816:3826   */\n      0x4e487b71\n        /* \"#utility.yul\":3811:3814   */\n      0xe0\n        /* \"#utility.yul\":3807:3827   */\n      shl\n        /* \"#utility.yul\":3804:3805   */\n      0x00\n        /* \"#utility.yul\":3797:3828   */\n      mstore\n        /* \"#utility.yul\":3847:3851   */\n      0x11\n        /* \"#utility.yul\":3844:3845   */\n      0x04\n        /* \"#utility.yul\":3837:3852   */\n      mstore\n        /* \"#utility.yul\":3871:3875   */\n      0x24\n        /* \"#utility.yul\":3868:3869   */\n      0x00\n        /* \"#utility.yul\":3861:3876   */\n      revert\n        /* \"#utility.yul\":3887:4055   */\n    tag_59:\n        /* \"#utility.yul\":3960:3969   */\n      dup1\n      dup3\n      mul\n        /* \"#utility.yul\":3991:4000   */\n      dup2\n      iszero\n        /* \"#utility.yul\":4008:4023   */\n      dup3\n      dup3\n      div\n        /* \"#utility.yul\":4002:4024   */\n      dup5\n      eq\n        /* \"#utility.yul\":3988:4025   */\n      or\n        /* \"#utility.yul\":3978:4049   */\n      tag_53\n      jumpi\n        /* \"#utility.yul\":4029:4047   */\n      tag_53\n      tag_138\n      jump\t// in\n        /* \"#utility.yul\":4060:4277   */\n    tag_61:\n        /* \"#utility.yul\":4100:4101   */\n      0x00\n        /* \"#utility.yul\":4126:4127   */\n      dup3\n        /* \"#utility.yul\":4116:4248   */\n      tag_171\n      jumpi\n        /* \"#utility.yul\":4170:4180   */\n      0x4e487b71\n        /* \"#utility.yul\":4165:4168   */\n      0xe0\n        /* \"#utility.yul\":4161:4181   */\n      shl\n        /* \"#utility.yul\":4158:4159   */\n      0x00\n        /* \"#utility.yul\":4151:4182   */\n      mstore\n        /* \"#utility.yul\":4205:4209   */\n      0x12\n        /* \"#utility.yul\":4202:4203   */\n      0x04\n        /* \"#utility.yul\":4195:4210   */\n      mstore\n        /* \"#utility.yul\":4233:4237   */\n      0x24\n        /* \"#utility.yul\":4230:4231   */\n      0x00\n        /* \"#utility.yul\":4223:4238   */\n      revert\n        /* \"#utility.yul\":4116:4248   */\n    tag_171:\n      pop\n        /* \"#utility.yul\":4262:4271   */\n      div\n      swap1\n        /* \"#utility.yul\":4060:4277   */\n      jump\t// out\n        /* \"#utility.yul\":4688:4816   */\n    tag_72:\n        /* \"#utility.yul\":4755:4764   */\n      dup2\n      dup2\n      sub\n        /* \"#utility.yul\":4776:4787   */\n      dup2\n      dup2\n      gt\n        /* \"#utility.yul\":4773:4810   */\n      iszero\n      tag_53\n      jumpi\n        /* \"#utility.yul\":4790:4808   */\n      tag_53\n      tag_138\n      jump\t// in\n        /* \"#utility.yul\":6220:6345   */\n    tag_101:\n        /* \"#utility.yul\":6285:6294   */\n      dup1\n      dup3\n      add\n        /* \"#utility.yul\":6306:6316   */\n      dup1\n      dup3\n      gt\n        /* \"#utility.yul\":6303:6339   */\n      iszero\n      tag_53\n      jumpi\n        /* \"#utility.yul\":6319:6337   */\n      tag_53\n      tag_138\n      jump\t// in\n    stop\n    data_b258cbd7fddccbc685dbfe29662d719d96f9b09e5e29d49e6b7e7a265b02d4ef 4c7020746f6b656e2062616c616e636520772e722e74206164646564206c6971756964697479\n\n    auxdata: 0xa26469706673582212202883776cc8ee18a54f1051831706e9e29ecebfb2654d3c57fe6c46daa34e2e8364736f6c63430008140033\n}\n",
				"bytecode": {
					"linkReferences": {},
					"object": "6080604052683635c9adc5dea00000600155600360025534801561002257600080fd5b506001600055610cfc806100376000396000f3fe608060405234801561001057600080fd5b50600436106100625760003560e01c8063036ebef91461006757806315e84af91461007c578063884db063146100a25780639cf38f7c146100f0578063cf6c62ea14610103578063df791e5014610124575b600080fd5b61007a610075366004610b03565b610137565b005b61008f61008a366004610b45565b6102ce565b6040519081526020015b60405180910390f35b61007a6100b0366004610b03565b6001600160a01b03938416600090815260046020908152604080832094909455939094168452818420556001543384526005909252909120819055600355565b61008f6100fe366004610b45565b6103aa565b610116610111366004610b03565b61068d565b604051610099929190610b78565b61008f610132366004610bcd565b610831565b6040516323b872dd60e01b815233600482015230602482015260448101839052849084906001600160a01b038316906323b872dd906064016020604051808303816000875af115801561018e573d6000803e3d6000fd5b505050506040513d601f19601f820116820180604052508101906101b29190610c09565b6102035760405162461bcd60e51b815260206004820152601960248201527f5472616e73666572206f6620746f6b656e30204661696c65640000000000000060448201526064015b60405180910390fd5b6040516323b872dd60e01b8152336004820152306024820152604481018490526001600160a01b038216906323b872dd906064016020604051808303816000875af1158015610256573d6000803e3d6000fd5b505050506040513d601f19601f8201168201806040525081019061027a9190610c09565b6102c65760405162461bcd60e51b815260206004820152601960248201527f5472616e73666572206f6620746f6b656e31204661696c65640000000000000060448201526064016101fa565b505050505050565b6001600160a01b0382166000908152600460205260408120541580159061030c57506001600160a01b03821660009081526004602052604090205415155b6103625760405162461bcd60e51b815260206004820152602160248201527f20546f6b656e2062616c616e6365206d757374206265206e6f6e202d207a65726044820152606f60f81b60648201526084016101fa565b6001600160a01b0380831660009081526004602052604080822054928616825290205461039790670de0b6b3a7640000610c41565b6103a19190610c58565b90505b92915050565b33600090815260056020526040812054806104155760405162461bcd60e51b815260206004820152602560248201527f4e6f206c6971756964697479207761732070726f766964656420627920746865604482015264103ab9b2b960d91b60648201526084016101fa565b6003546001600160a01b03851660009081526004602052604081205490919061043e9084610c41565b6104489190610c58565b6003546001600160a01b038616600090815260046020526040812054929350916104729085610c41565b61047c9190610c58565b3360009081526005602090815260408083208390556001600160a01b038a16835260049091528120805492935084929091906104b9908490610c7a565b90915550506001600160a01b038516600090815260046020526040812080548392906104e6908490610c7a565b9250508190555082600360008282546104ff9190610c7a565b909155505060405163a9059cbb60e01b815233600482015260248101839052869086906001600160a01b0383169063a9059cbb906044016020604051808303816000875af1158015610555573d6000803e3d6000fd5b505050506040513d601f19601f820116820180604052508101906105799190610c09565b6105c55760405162461bcd60e51b815260206004820152601a60248201527f5472616e736665722020746f6b656e30206661696c656420212100000000000060448201526064016101fa565b60405163a9059cbb60e01b8152336004820152602481018490526001600160a01b0382169063a9059cbb906044016020604051808303816000875af1158015610612573d6000803e3d6000fd5b505050506040513d601f19601f820116820180604052508101906106369190610c09565b6106825760405162461bcd60e51b815260206004820152601a60248201527f5472616e736665722020746f6b656e31206661696c656420212100000000000060448201526064016101fa565b505050505092915050565b606060008061069c87876102ce565b90506106b084670de0b6b3a7640000610c41565b6106ba8683610c41565b146107195760405162461bcd60e51b815260206004820152602960248201527f206d75737420616464206c69717569646974792061742063757272656e742073604482015268706f7420707269636560b81b60648201526084016101fa565b61072587878787610137565b6001600160a01b03871660009081526004602052604081205460015490919082906107509089610c41565b61075a9190610c58565b6001600160a01b038a16600090815260046020526040812080549293508992909190610787908490610c8d565b90915550506001600160a01b038816600090815260046020526040812080548892906107b4908490610c8d565b9250508190555080600360008282546107cd9190610c8d565b909155505033600090815260056020526040812080548392906107f1908490610c8d565b909155505033600090815260056020908152604091829020548251606081019093526026808452909291610ca1908301399a909950975050505050505050565b600061083b610a8e565b600060025461271061084d9190610c7a565b9050600061271061085e8584610c41565b6108689190610c58565b6001600160a01b038088166000908152600460205260408082205492891682528120549293509183919061089d908390610c41565b6108a79190610c58565b6108b19190610c8d565b6001600160a01b0388166000908152600460205260408120805492935087929091906108de908490610c8d565b90915550506001600160a01b0386166000908152600460205260408120805483929061090b908490610c7a565b90915550506040516323b872dd60e01b815233600482015230602482015260448101869052879087906001600160a01b038316906323b872dd906064016020604051808303816000875af1158015610967573d6000803e3d6000fd5b505050506040513d601f19601f8201168201806040525081019061098b9190610c09565b6109c95760405162461bcd60e51b815260206004820152600f60248201526e151c985b9cd9995c8811985a5b1959608a1b60448201526064016101fa565b60405163a9059cbb60e01b8152336004820152602481018490526001600160a01b0382169063a9059cbb906044016020604051808303816000875af1158015610a16573d6000803e3d6000fd5b505050506040513d601f19601f82011682018060405250810190610a3a9190610c09565b610a785760405162461bcd60e51b815260206004820152600f60248201526e151c985b9cd9995c8811985a5b1959608a1b60448201526064016101fa565b5050505050610a876001600055565b9392505050565b600260005403610ae05760405162461bcd60e51b815260206004820152601f60248201527f5265656e7472616e637947756172643a207265656e7472616e742063616c6c0060448201526064016101fa565b6002600055565b80356001600160a01b0381168114610afe57600080fd5b919050565b60008060008060808587031215610b1957600080fd5b610b2285610ae7565b9350610b3060208601610ae7565b93969395505050506040820135916060013590565b60008060408385031215610b5857600080fd5b610b6183610ae7565b9150610b6f60208401610ae7565b90509250929050565b604081526000835180604084015260005b81811015610ba65760208187018101516060868401015201610b89565b506000606082850101526060601f19601f8301168401019150508260208301529392505050565b600080600060608486031215610be257600080fd5b610beb84610ae7565b9250610bf960208501610ae7565b9150604084013590509250925092565b600060208284031215610c1b57600080fd5b81518015158114610a8757600080fd5b634e487b7160e01b600052601160045260246000fd5b80820281158282048414176103a4576103a4610c2b565b600082610c7557634e487b7160e01b600052601260045260246000fd5b500490565b818103818111156103a4576103a4610c2b565b808201808211156103a4576103a4610c2b56fe4c7020746f6b656e2062616c616e636520772e722e74206164646564206c6971756964697479a26469706673582212202883776cc8ee18a54f1051831706e9e29ecebfb2654d3c57fe6c46daa34e2e8364736f6c63430008140033",
					"opcodes": "PUSH1 0x80 PUSH1 0x40 MSTORE PUSH9 0x3635C9ADC5DEA00000 PUSH1 0x1 SSTORE PUSH1 0x3 PUSH1 0x2 SSTORE CALLVALUE DUP1 ISZERO PUSH2 0x22 JUMPI PUSH1 0x0 DUP1 REVERT JUMPDEST POP PUSH1 0x1 PUSH1 0x0 SSTORE PUSH2 0xCFC DUP1 PUSH2 0x37 PUSH1 0x0 CODECOPY PUSH1 0x0 RETURN INVALID PUSH1 0x80 PUSH1 0x40 MSTORE CALLVALUE DUP1 ISZERO PUSH2 0x10 JUMPI PUSH1 0x0 DUP1 REVERT JUMPDEST POP PUSH1 0x4 CALLDATASIZE LT PUSH2 0x62 JUMPI PUSH1 0x0 CALLDATALOAD PUSH1 0xE0 SHR DUP1 PUSH4 0x36EBEF9 EQ PUSH2 0x67 JUMPI DUP1 PUSH4 0x15E84AF9 EQ PUSH2 0x7C JUMPI DUP1 PUSH4 0x884DB063 EQ PUSH2 0xA2 JUMPI DUP1 PUSH4 0x9CF38F7C EQ PUSH2 0xF0 JUMPI DUP1 PUSH4 0xCF6C62EA EQ PUSH2 0x103 JUMPI DUP1 PUSH4 0xDF791E50 EQ PUSH2 0x124 JUMPI JUMPDEST PUSH1 0x0 DUP1 REVERT JUMPDEST PUSH2 0x7A PUSH2 0x75 CALLDATASIZE PUSH1 0x4 PUSH2 0xB03 JUMP JUMPDEST PUSH2 0x137 JUMP JUMPDEST STOP JUMPDEST PUSH2 0x8F PUSH2 0x8A CALLDATASIZE PUSH1 0x4 PUSH2 0xB45 JUMP JUMPDEST PUSH2 0x2CE JUMP JUMPDEST PUSH1 0x40 MLOAD SWAP1 DUP2 MSTORE PUSH1 0x20 ADD JUMPDEST PUSH1 0x40 MLOAD DUP1 SWAP2 SUB SWAP1 RETURN JUMPDEST PUSH2 0x7A PUSH2 0xB0 CALLDATASIZE PUSH1 0x4 PUSH2 0xB03 JUMP JUMPDEST PUSH1 0x1 PUSH1 0x1 PUSH1 0xA0 SHL SUB SWAP4 DUP5 AND PUSH1 0x0 SWAP1 DUP2 MSTORE PUSH1 0x4 PUSH1 0x20 SWAP1 DUP2 MSTORE PUSH1 0x40 DUP1 DUP4 KECCAK256 SWAP5 SWAP1 SWAP5 SSTORE SWAP4 SWAP1 SWAP5 AND DUP5 MSTORE DUP2 DUP5 KECCAK256 SSTORE PUSH1 0x1 SLOAD CALLER DUP5 MSTORE PUSH1 0x5 SWAP1 SWAP3 MSTORE SWAP1 SWAP2 KECCAK256 DUP2 SWAP1 SSTORE PUSH1 0x3 SSTORE JUMP JUMPDEST PUSH2 0x8F PUSH2 0xFE CALLDATASIZE PUSH1 0x4 PUSH2 0xB45 JUMP JUMPDEST PUSH2 0x3AA JUMP JUMPDEST PUSH2 0x116 PUSH2 0x111 CALLDATASIZE PUSH1 0x4 PUSH2 0xB03 JUMP JUMPDEST PUSH2 0x68D JUMP JUMPDEST PUSH1 0x40 MLOAD PUSH2 0x99 SWAP3 SWAP2 SWAP1 PUSH2 0xB78 JUMP JUMPDEST PUSH2 0x8F PUSH2 0x132 CALLDATASIZE PUSH1 0x4 PUSH2 0xBCD JUMP JUMPDEST PUSH2 0x831 JUMP JUMPDEST PUSH1 0x40 MLOAD PUSH4 0x23B872DD PUSH1 0xE0 SHL DUP2 MSTORE CALLER PUSH1 0x4 DUP3 ADD MSTORE ADDRESS PUSH1 0x24 DUP3 ADD MSTORE PUSH1 0x44 DUP2 ADD DUP4 SWAP1 MSTORE DUP5 SWAP1 DUP5 SWAP1 PUSH1 0x1 PUSH1 0x1 PUSH1 0xA0 SHL SUB DUP4 AND SWAP1 PUSH4 0x23B872DD SWAP1 PUSH1 0x64 ADD PUSH1 0x20 PUSH1 0x40 MLOAD DUP1 DUP4 SUB DUP2 PUSH1 0x0 DUP8 GAS CALL ISZERO DUP1 ISZERO PUSH2 0x18E JUMPI RETURNDATASIZE PUSH1 0x0 DUP1 RETURNDATACOPY RETURNDATASIZE PUSH1 0x0 REVERT JUMPDEST POP POP POP POP PUSH1 0x40 MLOAD RETURNDATASIZE PUSH1 0x1F NOT PUSH1 0x1F DUP3 ADD AND DUP3 ADD DUP1 PUSH1 0x40 MSTORE POP DUP2 ADD SWAP1 PUSH2 0x1B2 SWAP2 SWAP1 PUSH2 0xC09 JUMP JUMPDEST PUSH2 0x203 JUMPI PUSH1 0x40 MLOAD PUSH3 0x461BCD PUSH1 0xE5 SHL DUP2 MSTORE PUSH1 0x20 PUSH1 0x4 DUP3 ADD MSTORE PUSH1 0x19 PUSH1 0x24 DUP3 ADD MSTORE PUSH32 0x5472616E73666572206F6620746F6B656E30204661696C656400000000000000 PUSH1 0x44 DUP3 ADD MSTORE PUSH1 0x64 ADD JUMPDEST PUSH1 0x40 MLOAD DUP1 SWAP2 SUB SWAP1 REVERT JUMPDEST PUSH1 0x40 MLOAD PUSH4 0x23B872DD PUSH1 0xE0 SHL DUP2 MSTORE CALLER PUSH1 0x4 DUP3 ADD MSTORE ADDRESS PUSH1 0x24 DUP3 ADD MSTORE PUSH1 0x44 DUP2 ADD DUP5 SWAP1 MSTORE PUSH1 0x1 PUSH1 0x1 PUSH1 0xA0 SHL SUB DUP3 AND SWAP1 PUSH4 0x23B872DD SWAP1 PUSH1 0x64 ADD PUSH1 0x20 PUSH1 0x40 MLOAD DUP1 DUP4 SUB DUP2 PUSH1 0x0 DUP8 GAS CALL ISZERO DUP1 ISZERO PUSH2 0x256 JUMPI RETURNDATASIZE PUSH1 0x0 DUP1 RETURNDATACOPY RETURNDATASIZE PUSH1 0x0 REVERT JUMPDEST POP POP POP POP PUSH1 0x40 MLOAD RETURNDATASIZE PUSH1 0x1F NOT PUSH1 0x1F DUP3 ADD AND DUP3 ADD DUP1 PUSH1 0x40 MSTORE POP DUP2 ADD SWAP1 PUSH2 0x27A SWAP2 SWAP1 PUSH2 0xC09 JUMP JUMPDEST PUSH2 0x2C6 JUMPI PUSH1 0x40 MLOAD PUSH3 0x461BCD PUSH1 0xE5 SHL DUP2 MSTORE PUSH1 0x20 PUSH1 0x4 DUP3 ADD MSTORE PUSH1 0x19 PUSH1 0x24 DUP3 ADD MSTORE PUSH32 0x5472616E73666572206F6620746F6B656E31204661696C656400000000000000 PUSH1 0x44 DUP3 ADD MSTORE PUSH1 0x64 ADD PUSH2 0x1FA JUMP JUMPDEST POP POP POP POP POP POP JUMP JUMPDEST PUSH1 0x1 PUSH1 0x1 PUSH1 0xA0 SHL SUB DUP3 AND PUSH1 0x0 SWAP1 DUP2 MSTORE PUSH1 0x4 PUSH1 0x20 MSTORE PUSH1 0x40 DUP2 KECCAK256 SLOAD ISZERO DUP1 ISZERO SWAP1 PUSH2 0x30C JUMPI POP PUSH1 0x1 PUSH1 0x1 PUSH1 0xA0 SHL SUB DUP3 AND PUSH1 0x0 SWAP1 DUP2 MSTORE PUSH1 0x4 PUSH1 0x20 MSTORE PUSH1 0x40 SWAP1 KECCAK256 SLOAD ISZERO ISZERO JUMPDEST PUSH2 0x362 JUMPI PUSH1 0x40 MLOAD PUSH3 0x461BCD PUSH1 0xE5 SHL DUP2 MSTORE PUSH1 0x20 PUSH1 0x4 DUP3 ADD MSTORE PUSH1 0x21 PUSH1 0x24 DUP3 ADD MSTORE PUSH32 0x20546F6B656E2062616C616E6365206D757374206265206E6F6E202D207A6572 PUSH1 0x44 DUP3 ADD MSTORE PUSH1 0x6F PUSH1 0xF8 SHL PUSH1 0x64 DUP3 ADD MSTORE PUSH1 0x84 ADD PUSH2 0x1FA JUMP JUMPDEST PUSH1 0x1 PUSH1 0x1 PUSH1 0xA0 SHL SUB DUP1 DUP4 AND PUSH1 0x0 SWAP1 DUP2 MSTORE PUSH1 0x4 PUSH1 0x20 MSTORE PUSH1 0x40 DUP1 DUP3 KECCAK256 SLOAD SWAP3 DUP7 AND DUP3 MSTORE SWAP1 KECCAK256 SLOAD PUSH2 0x397 SWAP1 PUSH8 0xDE0B6B3A7640000 PUSH2 0xC41 JUMP JUMPDEST PUSH2 0x3A1 SWAP2 SWAP1 PUSH2 0xC58 JUMP JUMPDEST SWAP1 POP JUMPDEST SWAP3 SWAP2 POP POP JUMP JUMPDEST CALLER PUSH1 0x0 SWAP1 DUP2 MSTORE PUSH1 0x5 PUSH1 0x20 MSTORE PUSH1 0x40 DUP2 KECCAK256 SLOAD DUP1 PUSH2 0x415 JUMPI PUSH1 0x40 MLOAD PUSH3 0x461BCD PUSH1 0xE5 SHL DUP2 MSTORE PUSH1 0x20 PUSH1 0x4 DUP3 ADD MSTORE PUSH1 0x25 PUSH1 0x24 DUP3 ADD MSTORE PUSH32 0x4E6F206C6971756964697479207761732070726F766964656420627920746865 PUSH1 0x44 DUP3 ADD MSTORE PUSH5 0x103AB9B2B9 PUSH1 0xD9 SHL PUSH1 0x64 DUP3 ADD MSTORE PUSH1 0x84 ADD PUSH2 0x1FA JUMP JUMPDEST PUSH1 0x3 SLOAD PUSH1 0x1 PUSH1 0x1 PUSH1 0xA0 SHL SUB DUP6 AND PUSH1 0x0 SWAP1 DUP2 MSTORE PUSH1 0x4 PUSH1 0x20 MSTORE PUSH1 0x40 DUP2 KECCAK256 SLOAD SWAP1 SWAP2 SWAP1 PUSH2 0x43E SWAP1 DUP5 PUSH2 0xC41 JUMP JUMPDEST PUSH2 0x448 SWAP2 SWAP1 PUSH2 0xC58 JUMP JUMPDEST PUSH1 0x3 SLOAD PUSH1 0x1 PUSH1 0x1 PUSH1 0xA0 SHL SUB DUP7 AND PUSH1 0x0 SWAP1 DUP2 MSTORE PUSH1 0x4 PUSH1 0x20 MSTORE PUSH1 0x40 DUP2 KECCAK256 SLOAD SWAP3 SWAP4 POP SWAP2 PUSH2 0x472 SWAP1 DUP6 PUSH2 0xC41 JUMP JUMPDEST PUSH2 0x47C SWAP2 SWAP1 PUSH2 0xC58 JUMP JUMPDEST CALLER PUSH1 0x0 SWAP1 DUP2 MSTORE PUSH1 0x5 PUSH1 0x20 SWAP1 DUP2 MSTORE PUSH1 0x40 DUP1 DUP4 KECCAK256 DUP4 SWAP1 SSTORE PUSH1 0x1 PUSH1 0x1 PUSH1 0xA0 SHL SUB DUP11 AND DUP4 MSTORE PUSH1 0x4 SWAP1 SWAP2 MSTORE DUP2 KECCAK256 DUP1 SLOAD SWAP3 SWAP4 POP DUP5 SWAP3 SWAP1 SWAP2 SWAP1 PUSH2 0x4B9 SWAP1 DUP5 SWAP1 PUSH2 0xC7A JUMP JUMPDEST SWAP1 SWAP2 SSTORE POP POP PUSH1 0x1 PUSH1 0x1 PUSH1 0xA0 SHL SUB DUP6 AND PUSH1 0x0 SWAP1 DUP2 MSTORE PUSH1 0x4 PUSH1 0x20 MSTORE PUSH1 0x40 DUP2 KECCAK256 DUP1 SLOAD DUP4 SWAP3 SWAP1 PUSH2 0x4E6 SWAP1 DUP5 SWAP1 PUSH2 0xC7A JUMP JUMPDEST SWAP3 POP POP DUP2 SWAP1 SSTORE POP DUP3 PUSH1 0x3 PUSH1 0x0 DUP3 DUP3 SLOAD PUSH2 0x4FF SWAP2 SWAP1 PUSH2 0xC7A JUMP JUMPDEST SWAP1 SWAP2 SSTORE POP POP PUSH1 0x40 MLOAD PUSH4 0xA9059CBB PUSH1 0xE0 SHL DUP2 MSTORE CALLER PUSH1 0x4 DUP3 ADD MSTORE PUSH1 0x24 DUP2 ADD DUP4 SWAP1 MSTORE DUP7 SWAP1 DUP7 SWAP1 PUSH1 0x1 PUSH1 0x1 PUSH1 0xA0 SHL SUB DUP4 AND SWAP1 PUSH4 0xA9059CBB SWAP1 PUSH1 0x44 ADD PUSH1 0x20 PUSH1 0x40 MLOAD DUP1 DUP4 SUB DUP2 PUSH1 0x0 DUP8 GAS CALL ISZERO DUP1 ISZERO PUSH2 0x555 JUMPI RETURNDATASIZE PUSH1 0x0 DUP1 RETURNDATACOPY RETURNDATASIZE PUSH1 0x0 REVERT JUMPDEST POP POP POP POP PUSH1 0x40 MLOAD RETURNDATASIZE PUSH1 0x1F NOT PUSH1 0x1F DUP3 ADD AND DUP3 ADD DUP1 PUSH1 0x40 MSTORE POP DUP2 ADD SWAP1 PUSH2 0x579 SWAP2 SWAP1 PUSH2 0xC09 JUMP JUMPDEST PUSH2 0x5C5 JUMPI PUSH1 0x40 MLOAD PUSH3 0x461BCD PUSH1 0xE5 SHL DUP2 MSTORE PUSH1 0x20 PUSH1 0x4 DUP3 ADD MSTORE PUSH1 0x1A PUSH1 0x24 DUP3 ADD MSTORE PUSH32 0x5472616E736665722020746F6B656E30206661696C6564202121000000000000 PUSH1 0x44 DUP3 ADD MSTORE PUSH1 0x64 ADD PUSH2 0x1FA JUMP JUMPDEST PUSH1 0x40 MLOAD PUSH4 0xA9059CBB PUSH1 0xE0 SHL DUP2 MSTORE CALLER PUSH1 0x4 DUP3 ADD MSTORE PUSH1 0x24 DUP2 ADD DUP5 SWAP1 MSTORE PUSH1 0x1 PUSH1 0x1 PUSH1 0xA0 SHL SUB DUP3 AND SWAP1 PUSH4 0xA9059CBB SWAP1 PUSH1 0x44 ADD PUSH1 0x20 PUSH1 0x40 MLOAD DUP1 DUP4 SUB DUP2 PUSH1 0x0 DUP8 GAS CALL ISZERO DUP1 ISZERO PUSH2 0x612 JUMPI RETURNDATASIZE PUSH1 0x0 DUP1 RETURNDATACOPY RETURNDATASIZE PUSH1 0x0 REVERT JUMPDEST POP POP POP POP PUSH1 0x40 MLOAD RETURNDATASIZE PUSH1 0x1F NOT PUSH1 0x1F DUP3 ADD AND DUP3 ADD DUP1 PUSH1 0x40 MSTORE POP DUP2 ADD SWAP1 PUSH2 0x636 SWAP2 SWAP1 PUSH2 0xC09 JUMP JUMPDEST PUSH2 0x682 JUMPI PUSH1 0x40 MLOAD PUSH3 0x461BCD PUSH1 0xE5 SHL DUP2 MSTORE PUSH1 0x20 PUSH1 0x4 DUP3 ADD MSTORE PUSH1 0x1A PUSH1 0x24 DUP3 ADD MSTORE PUSH32 0x5472616E736665722020746F6B656E31206661696C6564202121000000000000 PUSH1 0x44 DUP3 ADD MSTORE PUSH1 0x64 ADD PUSH2 0x1FA JUMP JUMPDEST POP POP POP POP POP SWAP3 SWAP2 POP POP JUMP JUMPDEST PUSH1 0x60 PUSH1 0x0 DUP1 PUSH2 0x69C DUP8 DUP8 PUSH2 0x2CE JUMP JUMPDEST SWAP1 POP PUSH2 0x6B0 DUP5 PUSH8 0xDE0B6B3A7640000 PUSH2 0xC41 JUMP JUMPDEST PUSH2 0x6BA DUP7 DUP4 PUSH2 0xC41 JUMP JUMPDEST EQ PUSH2 0x719 JUMPI PUSH1 0x40 MLOAD PUSH3 0x461BCD PUSH1 0xE5 SHL DUP2 MSTORE PUSH1 0x20 PUSH1 0x4 DUP3 ADD MSTORE PUSH1 0x29 PUSH1 0x24 DUP3 ADD MSTORE PUSH32 0x206D75737420616464206C69717569646974792061742063757272656E742073 PUSH1 0x44 DUP3 ADD MSTORE PUSH9 0x706F74207072696365 PUSH1 0xB8 SHL PUSH1 0x64 DUP3 ADD MSTORE PUSH1 0x84 ADD PUSH2 0x1FA JUMP JUMPDEST PUSH2 0x725 DUP8 DUP8 DUP8 DUP8 PUSH2 0x137 JUMP JUMPDEST PUSH1 0x1 PUSH1 0x1 PUSH1 0xA0 SHL SUB DUP8 AND PUSH1 0x0 SWAP1 DUP2 MSTORE PUSH1 0x4 PUSH1 0x20 MSTORE PUSH1 0x40 DUP2 KECCAK256 SLOAD PUSH1 0x1 SLOAD SWAP1 SWAP2 SWAP1 DUP3 SWAP1 PUSH2 0x750 SWAP1 DUP10 PUSH2 0xC41 JUMP JUMPDEST PUSH2 0x75A SWAP2 SWAP1 PUSH2 0xC58 JUMP JUMPDEST PUSH1 0x1 PUSH1 0x1 PUSH1 0xA0 SHL SUB DUP11 AND PUSH1 0x0 SWAP1 DUP2 MSTORE PUSH1 0x4 PUSH1 0x20 MSTORE PUSH1 0x40 DUP2 KECCAK256 DUP1 SLOAD SWAP3 SWAP4 POP DUP10 SWAP3 SWAP1 SWAP2 SWAP1 PUSH2 0x787 SWAP1 DUP5 SWAP1 PUSH2 0xC8D JUMP JUMPDEST SWAP1 SWAP2 SSTORE POP POP PUSH1 0x1 PUSH1 0x1 PUSH1 0xA0 SHL SUB DUP9 AND PUSH1 0x0 SWAP1 DUP2 MSTORE PUSH1 0x4 PUSH1 0x20 MSTORE PUSH1 0x40 DUP2 KECCAK256 DUP1 SLOAD DUP9 SWAP3 SWAP1 PUSH2 0x7B4 SWAP1 DUP5 SWAP1 PUSH2 0xC8D JUMP JUMPDEST SWAP3 POP POP DUP2 SWAP1 SSTORE POP DUP1 PUSH1 0x3 PUSH1 0x0 DUP3 DUP3 SLOAD PUSH2 0x7CD SWAP2 SWAP1 PUSH2 0xC8D JUMP JUMPDEST SWAP1 SWAP2 SSTORE POP POP CALLER PUSH1 0x0 SWAP1 DUP2 MSTORE PUSH1 0x5 PUSH1 0x20 MSTORE PUSH1 0x40 DUP2 KECCAK256 DUP1 SLOAD DUP4 SWAP3 SWAP1 PUSH2 0x7F1 SWAP1 DUP5 SWAP1 PUSH2 0xC8D JUMP JUMPDEST SWAP1 SWAP2 SSTORE POP POP CALLER PUSH1 0x0 SWAP1 DUP2 MSTORE PUSH1 0x5 PUSH1 0x20 SWAP1 DUP2 MSTORE PUSH1 0x40 SWAP2 DUP3 SWAP1 KECCAK256 SLOAD DUP3 MLOAD PUSH1 0x60 DUP2 ADD SWAP1 SWAP4 MSTORE PUSH1 0x26 DUP1 DUP5 MSTORE SWAP1 SWAP3 SWAP2 PUSH2 0xCA1 SWAP1 DUP4 ADD CODECOPY SWAP11 SWAP1 SWAP10 POP SWAP8 POP POP POP POP POP POP POP POP JUMP JUMPDEST PUSH1 0x0 PUSH2 0x83B PUSH2 0xA8E JUMP JUMPDEST PUSH1 0x0 PUSH1 0x2 SLOAD PUSH2 0x2710 PUSH2 0x84D SWAP2 SWAP1 PUSH2 0xC7A JUMP JUMPDEST SWAP1 POP PUSH1 0x0 PUSH2 0x2710 PUSH2 0x85E DUP6 DUP5 PUSH2 0xC41 JUMP JUMPDEST PUSH2 0x868 SWAP2 SWAP1 PUSH2 0xC58 JUMP JUMPDEST PUSH1 0x1 PUSH1 0x1 PUSH1 0xA0 SHL SUB DUP1 DUP9 AND PUSH1 0x0 SWAP1 DUP2 MSTORE PUSH1 0x4 PUSH1 0x20 MSTORE PUSH1 0x40 DUP1 DUP3 KECCAK256 SLOAD SWAP3 DUP10 AND DUP3 MSTORE DUP2 KECCAK256 SLOAD SWAP3 SWAP4 POP SWAP2 DUP4 SWAP2 SWAP1 PUSH2 0x89D SWAP1 DUP4 SWAP1 PUSH2 0xC41 JUMP JUMPDEST PUSH2 0x8A7 SWAP2 SWAP1 PUSH2 0xC58 JUMP JUMPDEST PUSH2 0x8B1 SWAP2 SWAP1 PUSH2 0xC8D JUMP JUMPDEST PUSH1 0x1 PUSH1 0x1 PUSH1 0xA0 SHL SUB DUP9 AND PUSH1 0x0 SWAP1 DUP2 MSTORE PUSH1 0x4 PUSH1 0x20 MSTORE PUSH1 0x40 DUP2 KECCAK256 DUP1 SLOAD SWAP3 SWAP4 POP DUP8 SWAP3 SWAP1 SWAP2 SWAP1 PUSH2 0x8DE SWAP1 DUP5 SWAP1 PUSH2 0xC8D JUMP JUMPDEST SWAP1 SWAP2 SSTORE POP POP PUSH1 0x1 PUSH1 0x1 PUSH1 0xA0 SHL SUB DUP7 AND PUSH1 0x0 SWAP1 DUP2 MSTORE PUSH1 0x4 PUSH1 0x20 MSTORE PUSH1 0x40 DUP2 KECCAK256 DUP1 SLOAD DUP4 SWAP3 SWAP1 PUSH2 0x90B SWAP1 DUP5 SWAP1 PUSH2 0xC7A JUMP JUMPDEST SWAP1 SWAP2 SSTORE POP POP PUSH1 0x40 MLOAD PUSH4 0x23B872DD PUSH1 0xE0 SHL DUP2 MSTORE CALLER PUSH1 0x4 DUP3 ADD MSTORE ADDRESS PUSH1 0x24 DUP3 ADD MSTORE PUSH1 0x44 DUP2 ADD DUP7 SWAP1 MSTORE DUP8 SWAP1 DUP8 SWAP1 PUSH1 0x1 PUSH1 0x1 PUSH1 0xA0 SHL SUB DUP4 AND SWAP1 PUSH4 0x23B872DD SWAP1 PUSH1 0x64 ADD PUSH1 0x20 PUSH1 0x40 MLOAD DUP1 DUP4 SUB DUP2 PUSH1 0x0 DUP8 GAS CALL ISZERO DUP1 ISZERO PUSH2 0x967 JUMPI RETURNDATASIZE PUSH1 0x0 DUP1 RETURNDATACOPY RETURNDATASIZE PUSH1 0x0 REVERT JUMPDEST POP POP POP POP PUSH1 0x40 MLOAD RETURNDATASIZE PUSH1 0x1F NOT PUSH1 0x1F DUP3 ADD AND DUP3 ADD DUP1 PUSH1 0x40 MSTORE POP DUP2 ADD SWAP1 PUSH2 0x98B SWAP2 SWAP1 PUSH2 0xC09 JUMP JUMPDEST PUSH2 0x9C9 JUMPI PUSH1 0x40 MLOAD PUSH3 0x461BCD PUSH1 0xE5 SHL DUP2 MSTORE PUSH1 0x20 PUSH1 0x4 DUP3 ADD MSTORE PUSH1 0xF PUSH1 0x24 DUP3 ADD MSTORE PUSH15 0x151C985B9CD9995C8811985A5B1959 PUSH1 0x8A SHL PUSH1 0x44 DUP3 ADD MSTORE PUSH1 0x64 ADD PUSH2 0x1FA JUMP JUMPDEST PUSH1 0x40 MLOAD PUSH4 0xA9059CBB PUSH1 0xE0 SHL DUP2 MSTORE CALLER PUSH1 0x4 DUP3 ADD MSTORE PUSH1 0x24 DUP2 ADD DUP5 SWAP1 MSTORE PUSH1 0x1 PUSH1 0x1 PUSH1 0xA0 SHL SUB DUP3 AND SWAP1 PUSH4 0xA9059CBB SWAP1 PUSH1 0x44 ADD PUSH1 0x20 PUSH1 0x40 MLOAD DUP1 DUP4 SUB DUP2 PUSH1 0x0 DUP8 GAS CALL ISZERO DUP1 ISZERO PUSH2 0xA16 JUMPI RETURNDATASIZE PUSH1 0x0 DUP1 RETURNDATACOPY RETURNDATASIZE PUSH1 0x0 REVERT JUMPDEST POP POP POP POP PUSH1 0x40 MLOAD RETURNDATASIZE PUSH1 0x1F NOT PUSH1 0x1F DUP3 ADD AND DUP3 ADD DUP1 PUSH1 0x40 MSTORE POP DUP2 ADD SWAP1 PUSH2 0xA3A SWAP2 SWAP1 PUSH2 0xC09 JUMP JUMPDEST PUSH2 0xA78 JUMPI PUSH1 0x40 MLOAD PUSH3 0x461BCD PUSH1 0xE5 SHL DUP2 MSTORE PUSH1 0x20 PUSH1 0x4 DUP3 ADD MSTORE PUSH1 0xF PUSH1 0x24 DUP3 ADD MSTORE PUSH15 0x151C985B9CD9995C8811985A5B1959 PUSH1 0x8A SHL PUSH1 0x44 DUP3 ADD MSTORE PUSH1 0x64 ADD PUSH2 0x1FA JUMP JUMPDEST POP POP POP POP POP PUSH2 0xA87 PUSH1 0x1 PUSH1 0x0 SSTORE JUMP JUMPDEST SWAP4 SWAP3 POP POP POP JUMP JUMPDEST PUSH1 0x2 PUSH1 0x0 SLOAD SUB PUSH2 0xAE0 JUMPI PUSH1 0x40 MLOAD PUSH3 0x461BCD PUSH1 0xE5 SHL DUP2 MSTORE PUSH1 0x20 PUSH1 0x4 DUP3 ADD MSTORE PUSH1 0x1F PUSH1 0x24 DUP3 ADD MSTORE PUSH32 0x5265656E7472616E637947756172643A207265656E7472616E742063616C6C00 PUSH1 0x44 DUP3 ADD MSTORE PUSH1 0x64 ADD PUSH2 0x1FA JUMP JUMPDEST PUSH1 0x2 PUSH1 0x0 SSTORE JUMP JUMPDEST DUP1 CALLDATALOAD PUSH1 0x1 PUSH1 0x1 PUSH1 0xA0 SHL SUB DUP2 AND DUP2 EQ PUSH2 0xAFE JUMPI PUSH1 0x0 DUP1 REVERT JUMPDEST SWAP2 SWAP1 POP JUMP JUMPDEST PUSH1 0x0 DUP1 PUSH1 0x0 DUP1 PUSH1 0x80 DUP6 DUP8 SUB SLT ISZERO PUSH2 0xB19 JUMPI PUSH1 0x0 DUP1 REVERT JUMPDEST PUSH2 0xB22 DUP6 PUSH2 0xAE7 JUMP JUMPDEST SWAP4 POP PUSH2 0xB30 PUSH1 0x20 DUP7 ADD PUSH2 0xAE7 JUMP JUMPDEST SWAP4 SWAP7 SWAP4 SWAP6 POP POP POP POP PUSH1 0x40 DUP3 ADD CALLDATALOAD SWAP2 PUSH1 0x60 ADD CALLDATALOAD SWAP1 JUMP JUMPDEST PUSH1 0x0 DUP1 PUSH1 0x40 DUP4 DUP6 SUB SLT ISZERO PUSH2 0xB58 JUMPI PUSH1 0x0 DUP1 REVERT JUMPDEST PUSH2 0xB61 DUP4 PUSH2 0xAE7 JUMP JUMPDEST SWAP2 POP PUSH2 0xB6F PUSH1 0x20 DUP5 ADD PUSH2 0xAE7 JUMP JUMPDEST SWAP1 POP SWAP3 POP SWAP3 SWAP1 POP JUMP JUMPDEST PUSH1 0x40 DUP2 MSTORE PUSH1 0x0 DUP4 MLOAD DUP1 PUSH1 0x40 DUP5 ADD MSTORE PUSH1 0x0 JUMPDEST DUP2 DUP2 LT ISZERO PUSH2 0xBA6 JUMPI PUSH1 0x20 DUP2 DUP8 ADD DUP2 ADD MLOAD PUSH1 0x60 DUP7 DUP5 ADD ADD MSTORE ADD PUSH2 0xB89 JUMP JUMPDEST POP PUSH1 0x0 PUSH1 0x60 DUP3 DUP6 ADD ADD MSTORE PUSH1 0x60 PUSH1 0x1F NOT PUSH1 0x1F DUP4 ADD AND DUP5 ADD ADD SWAP2 POP POP DUP3 PUSH1 0x20 DUP4 ADD MSTORE SWAP4 SWAP3 POP POP POP JUMP JUMPDEST PUSH1 0x0 DUP1 PUSH1 0x0 PUSH1 0x60 DUP5 DUP7 SUB SLT ISZERO PUSH2 0xBE2 JUMPI PUSH1 0x0 DUP1 REVERT JUMPDEST PUSH2 0xBEB DUP5 PUSH2 0xAE7 JUMP JUMPDEST SWAP3 POP PUSH2 0xBF9 PUSH1 0x20 DUP6 ADD PUSH2 0xAE7 JUMP JUMPDEST SWAP2 POP PUSH1 0x40 DUP5 ADD CALLDATALOAD SWAP1 POP SWAP3 POP SWAP3 POP SWAP3 JUMP JUMPDEST PUSH1 0x0 PUSH1 0x20 DUP3 DUP5 SUB SLT ISZERO PUSH2 0xC1B JUMPI PUSH1 0x0 DUP1 REVERT JUMPDEST DUP2 MLOAD DUP1 ISZERO ISZERO DUP2 EQ PUSH2 0xA87 JUMPI PUSH1 0x0 DUP1 REVERT JUMPDEST PUSH4 0x4E487B71 PUSH1 0xE0 SHL PUSH1 0x0 MSTORE PUSH1 0x11 PUSH1 0x4 MSTORE PUSH1 0x24 PUSH1 0x0 REVERT JUMPDEST DUP1 DUP3 MUL DUP2 ISZERO DUP3 DUP3 DIV DUP5 EQ OR PUSH2 0x3A4 JUMPI PUSH2 0x3A4 PUSH2 0xC2B JUMP JUMPDEST PUSH1 0x0 DUP3 PUSH2 0xC75 JUMPI PUSH4 0x4E487B71 PUSH1 0xE0 SHL PUSH1 0x0 MSTORE PUSH1 0x12 PUSH1 0x4 MSTORE PUSH1 0x24 PUSH1 0x0 REVERT JUMPDEST POP DIV SWAP1 JUMP JUMPDEST DUP2 DUP2 SUB DUP2 DUP2 GT ISZERO PUSH2 0x3A4 JUMPI PUSH2 0x3A4 PUSH2 0xC2B JUMP JUMPDEST DUP1 DUP3 ADD DUP1 DUP3 GT ISZERO PUSH2 0x3A4 JUMPI PUSH2 0x3A4 PUSH2 0xC2B JUMP INVALID 0x4C PUSH17 0x20746F6B656E2062616C616E636520772E PUSH19 0x2E74206164646564206C6971756964697479A2 PUSH5 0x6970667358 0x22 SLT KECCAK256 0x28 DUP4 PUSH24 0x6CC8EE18A54F1051831706E9E29ECEBFB2654D3C57FE6C46 0xDA LOG3 0x4E 0x2E DUP4 PUSH5 0x736F6C6343 STOP ADDMOD EQ STOP CALLER "
				},
				"gasEstimates": {
					"creation": {
						"codeDepositCost": "664800",
						"executionCost": "67014",
						"totalCost": "731814"
					},
					"external": {
						"addLiquidity(address,address,uint256,uint256)": "infinite",
						"createPool(address,address,uint256,uint256)": "infinite",
						"getSpotPrice(address,address)": "infinite",
						"removeLiquidity(address,address)": "infinite",
						"swap(address,address,uint256)": "infinite",
						"transferToken(address,address,uint256,uint256)": "infinite"
					}
				},
				"methodIdentifiers": {
					"addLiquidity(address,address,uint256,uint256)": "cf6c62ea",
					"createPool(address,address,uint256,uint256)": "884db063",
					"getSpotPrice(address,address)": "15e84af9",
					"removeLiquidity(address,address)": "9cf38f7c",
					"swap(address,address,uint256)": "df791e50",
					"transferToken(address,address,uint256,uint256)": "036ebef9"
				}
			},
			"storageLayout": {
				"storage": [
					{
						"astId": 10,
						"contract": "Custom-Dex/dex.sol:Pair",
						"label": "_status",
						"offset": 0,
						"slot": "0",
						"type": "t_uint256"
					},
					{
						"astId": 77,
						"contract": "Custom-Dex/dex.sol:Pair",
						"label": "INITIAL_LP_TOKENS",
						"offset": 0,
						"slot": "1",
						"type": "t_uint256"
					},
					{
						"astId": 84,
						"contract": "Custom-Dex/dex.sol:Pair",
						"label": "LP_FEE",
						"offset": 0,
						"slot": "2",
						"type": "t_uint256"
					},
					{
						"astId": 86,
						"contract": "Custom-Dex/dex.sol:Pair",
						"label": "totalLpTokens",
						"offset": 0,
						"slot": "3",
						"type": "t_uint256"
					},
					{
						"astId": 90,
						"contract": "Custom-Dex/dex.sol:Pair",
						"label": "tokenBalances",
						"offset": 0,
						"slot": "4",
						"type": "t_mapping(t_address,t_uint256)"
					},
					{
						"astId": 94,
						"contract": "Custom-Dex/dex.sol:Pair",
						"label": "lpBalances",
						"offset": 0,
						"slot": "5",
						"type": "t_mapping(t_address,t_uint256)"
					}
				],
				"types": {
					"t_address": {
						"encoding": "inplace",
						"label": "address",
						"numberOfBytes": "20"
					},
					"t_mapping(t_address,t_uint256)": {
						"encoding": "mapping",
						"key": "t_address",
						"label": "mapping(address => uint256)",
						"numberOfBytes": "32",
						"value": "t_uint256"
					},
					"t_uint256": {
						"encoding": "inplace",
						"label": "uint256",
						"numberOfBytes": "32"
					}
				}
			},
			"userdoc": {
				"kind": "user",
				"methods": {},
				"version": 1
			}
		}
	}
}