{
	"Custom-Dex/dex.sol": {
		"dex": {
			"abi": [
				{
					"inputs": [
						{
							"internalType": "address",
							"name": "_token1Address",
							"type": "address"
						},
						{
							"internalType": "address",
							"name": "_token2Address",
							"type": "address"
						}
					],
					"stateMutability": "nonpayable",
					"type": "constructor"
				},
				{
					"inputs": [
						{
							"internalType": "address",
							"name": "_token0Address",
							"type": "address"
						},
						{
							"internalType": "address",
							"name": "_token1Address",
							"type": "address"
						},
						{
							"internalType": "uint256",
							"name": "_token0Amount",
							"type": "uint256"
						},
						{
							"internalType": "uint256",
							"name": "_token1Amount",
							"type": "uint256"
						}
					],
					"name": "addLiquidity",
					"outputs": [
						{
							"internalType": "string",
							"name": "",
							"type": "string"
						},
						{
							"internalType": "uint256",
							"name": "",
							"type": "uint256"
						}
					],
					"stateMutability": "nonpayable",
					"type": "function"
				},
				{
					"inputs": [
						{
							"internalType": "address",
							"name": "_token0Address",
							"type": "address"
						},
						{
							"internalType": "address",
							"name": "_token1Address",
							"type": "address"
						},
						{
							"internalType": "uint256",
							"name": "_token0Amount",
							"type": "uint256"
						},
						{
							"internalType": "uint256",
							"name": "_token1Amount",
							"type": "uint256"
						}
					],
					"name": "createPool",
					"outputs": [],
					"stateMutability": "nonpayable",
					"type": "function"
				},
				{
					"inputs": [
						{
							"internalType": "address",
							"name": "_token0Address",
							"type": "address"
						},
						{
							"internalType": "address",
							"name": "_token1Address",
							"type": "address"
						}
					],
					"name": "getSpotPrice",
					"outputs": [
						{
							"internalType": "uint256",
							"name": "",
							"type": "uint256"
						}
					],
					"stateMutability": "view",
					"type": "function"
				},
				{
					"inputs": [
						{
							"internalType": "address",
							"name": "_token0Address",
							"type": "address"
						},
						{
							"internalType": "address",
							"name": "_token1Address",
							"type": "address"
						}
					],
					"name": "removeLiquidity",
					"outputs": [
						{
							"internalType": "uint256",
							"name": "",
							"type": "uint256"
						}
					],
					"stateMutability": "nonpayable",
					"type": "function"
				},
				{
					"inputs": [
						{
							"internalType": "address",
							"name": "from",
							"type": "address"
						},
						{
							"internalType": "address",
							"name": "to",
							"type": "address"
						},
						{
							"internalType": "uint256",
							"name": "_amount",
							"type": "uint256"
						}
					],
					"name": "swap",
					"outputs": [
						{
							"internalType": "string",
							"name": "",
							"type": "string"
						}
					],
					"stateMutability": "nonpayable",
					"type": "function"
				},
				{
					"inputs": [],
					"name": "token0Address",
					"outputs": [
						{
							"internalType": "contract erc20",
							"name": "",
							"type": "address"
						}
					],
					"stateMutability": "view",
					"type": "function"
				},
				{
					"inputs": [],
					"name": "token1Address",
					"outputs": [
						{
							"internalType": "contract erc20",
							"name": "",
							"type": "address"
						}
					],
					"stateMutability": "view",
					"type": "function"
				},
				{
					"inputs": [
						{
							"internalType": "uint256",
							"name": "_token0Amount",
							"type": "uint256"
						},
						{
							"internalType": "uint256",
							"name": "_token1Amount",
							"type": "uint256"
						}
					],
					"name": "transferToken",
					"outputs": [],
					"stateMutability": "nonpayable",
					"type": "function"
				}
			],
			"devdoc": {
				"kind": "dev",
				"methods": {},
				"version": 1
			},
			"evm": {
				"assembly": "    /* \"Custom-Dex/dex.sol\":144:6818  contract dex is ReentrancyGuard {... */\n  mstore(0x40, 0x80)\n    /* \"Custom-Dex/dex.sol\":210:223  1000 * 10**18 */\n  0x3635c9adc5dea00000\n    /* \"Custom-Dex/dex.sol\":182:223  uint256 INITIAL_LP_TOKENS = 1000 * 10**18 */\n  0x01\n  sstore\n    /* \"Custom-Dex/dex.sol\":246:257  3 *100 /100 */\n  0x03\n    /* \"Custom-Dex/dex.sol\":229:257  uint256 LP_FEE = 3 *100 /100 */\n  0x02\n  sstore\n    /* \"Custom-Dex/dex.sol\":2341:2490  constructor(address _token1Address, address _token2Address) {... */\n  callvalue\n  dup1\n  iszero\n  tag_1\n  jumpi\n  0x00\n  dup1\n  revert\ntag_1:\n  pop\n  mload(0x40)\n  sub(codesize, bytecodeSize)\n  dup1\n  bytecodeSize\n  dup4\n  codecopy\n  dup2\n  add\n  0x40\n  dup2\n  swap1\n  mstore\n  tag_2\n  swap2\n  tag_3\n  jump\t// in\ntag_2:\n    /* \"@openzeppelin/contracts/security/ReentrancyGuard.sol\":1716:1717  1 */\n  0x01\n    /* \"@openzeppelin/contracts/security/ReentrancyGuard.sol\":1821:1828  _status */\n  0x00\n    /* \"@openzeppelin/contracts/security/ReentrancyGuard.sol\":1821:1843  _status = _NOT_ENTERED */\n  sstore\n    /* \"Custom-Dex/dex.sol\":2407:2420  token0Address */\n  0x06\n    /* \"Custom-Dex/dex.sol\":2407:2444  token0Address = erc20(_token1Address) */\n  dup1\n  sload\n  sub(shl(0xa0, 0x01), 0x01)\n  swap4\n  dup5\n  and\n  not(sub(shl(0xa0, 0x01), 0x01))\n  swap2\n  dup3\n  and\n  or\n  swap1\n  swap2\n  sstore\n    /* \"Custom-Dex/dex.sol\":2450:2463  token1Address */\n  0x07\n    /* \"Custom-Dex/dex.sol\":2450:2487  token1Address = erc20(_token2Address) */\n  dup1\n  sload\n  swap3\n  swap1\n  swap4\n  and\n  swap2\n  and\n  or\n  swap1\n  sstore\n    /* \"Custom-Dex/dex.sol\":144:6818  contract dex is ReentrancyGuard {... */\n  jump(tag_10)\n    /* \"#utility.yul\":14:191   */\ntag_9:\n    /* \"#utility.yul\":93:106   */\n  dup1\n  mload\n  sub(shl(0xa0, 0x01), 0x01)\n    /* \"#utility.yul\":135:166   */\n  dup2\n  and\n    /* \"#utility.yul\":125:167   */\n  dup2\n  eq\n    /* \"#utility.yul\":115:185   */\n  tag_12\n  jumpi\n    /* \"#utility.yul\":181:182   */\n  0x00\n    /* \"#utility.yul\":178:179   */\n  dup1\n    /* \"#utility.yul\":171:183   */\n  revert\n    /* \"#utility.yul\":115:185   */\ntag_12:\n    /* \"#utility.yul\":14:191   */\n  swap2\n  swap1\n  pop\n  jump\t// out\n    /* \"#utility.yul\":196:489   */\ntag_3:\n    /* \"#utility.yul\":275:281   */\n  0x00\n    /* \"#utility.yul\":283:289   */\n  dup1\n    /* \"#utility.yul\":336:338   */\n  0x40\n    /* \"#utility.yul\":324:333   */\n  dup4\n    /* \"#utility.yul\":315:322   */\n  dup6\n    /* \"#utility.yul\":311:334   */\n  sub\n    /* \"#utility.yul\":307:339   */\n  slt\n    /* \"#utility.yul\":304:356   */\n  iszero\n  tag_14\n  jumpi\n    /* \"#utility.yul\":352:353   */\n  0x00\n    /* \"#utility.yul\":349:350   */\n  dup1\n    /* \"#utility.yul\":342:354   */\n  revert\n    /* \"#utility.yul\":304:356   */\ntag_14:\n    /* \"#utility.yul\":375:415   */\n  tag_15\n    /* \"#utility.yul\":405:414   */\n  dup4\n    /* \"#utility.yul\":375:415   */\n  tag_9\n  jump\t// in\ntag_15:\n    /* \"#utility.yul\":365:415   */\n  swap2\n  pop\n    /* \"#utility.yul\":434:483   */\n  tag_16\n    /* \"#utility.yul\":479:481   */\n  0x20\n    /* \"#utility.yul\":468:477   */\n  dup5\n    /* \"#utility.yul\":464:482   */\n  add\n    /* \"#utility.yul\":434:483   */\n  tag_9\n  jump\t// in\ntag_16:\n    /* \"#utility.yul\":424:483   */\n  swap1\n  pop\n    /* \"#utility.yul\":196:489   */\n  swap3\n  pop\n  swap3\n  swap1\n  pop\n  jump\t// out\ntag_10:\n    /* \"Custom-Dex/dex.sol\":144:6818  contract dex is ReentrancyGuard {... */\n  dataSize(sub_0)\n  dup1\n  dataOffset(sub_0)\n  0x00\n  codecopy\n  0x00\n  return\nstop\n\nsub_0: assembly {\n        /* \"Custom-Dex/dex.sol\":144:6818  contract dex is ReentrancyGuard {... */\n      mstore(0x40, 0x80)\n      callvalue\n      dup1\n      iszero\n      tag_1\n      jumpi\n      0x00\n      dup1\n      revert\n    tag_1:\n      pop\n      jumpi(tag_2, lt(calldatasize, 0x04))\n      shr(0xe0, calldataload(0x00))\n      dup1\n      0x9cf38f7c\n      gt\n      tag_11\n      jumpi\n      dup1\n      0x9cf38f7c\n      eq\n      tag_7\n      jumpi\n      dup1\n      0xcf6c62ea\n      eq\n      tag_8\n      jumpi\n      dup1\n      0xd7cb416f\n      eq\n      tag_9\n      jumpi\n      dup1\n      0xdf791e50\n      eq\n      tag_10\n      jumpi\n      0x00\n      dup1\n      revert\n    tag_11:\n      dup1\n      0x15e84af9\n      eq\n      tag_3\n      jumpi\n      dup1\n      0x2e760746\n      eq\n      tag_4\n      jumpi\n      dup1\n      0x7ff36fbe\n      eq\n      tag_5\n      jumpi\n      dup1\n      0x884db063\n      eq\n      tag_6\n      jumpi\n    tag_2:\n      0x00\n      dup1\n      revert\n        /* \"Custom-Dex/dex.sol\":2844:3238  function getSpotPrice(address _token0Address, address _token1Address)... */\n    tag_3:\n      tag_12\n      tag_13\n      calldatasize\n      0x04\n      tag_14\n      jump\t// in\n    tag_13:\n      tag_15\n      jump\t// in\n    tag_12:\n      mload(0x40)\n        /* \"#utility.yul\":603:628   */\n      swap1\n      dup2\n      mstore\n        /* \"#utility.yul\":591:593   */\n      0x20\n        /* \"#utility.yul\":576:594   */\n      add\n        /* \"Custom-Dex/dex.sol\":2844:3238  function getSpotPrice(address _token0Address, address _token1Address)... */\n    tag_16:\n      mload(0x40)\n      dup1\n      swap2\n      sub\n      swap1\n      return\n        /* \"Custom-Dex/dex.sol\":2497:2838  function transferToken(uint256 _token0Amount, uint256 _token1Amount) public {... */\n    tag_4:\n      tag_18\n      tag_19\n      calldatasize\n      0x04\n      tag_20\n      jump\t// in\n    tag_19:\n      tag_21\n      jump\t// in\n    tag_18:\n      stop\n        /* \"Custom-Dex/dex.sol\":2275:2301  erc20 public token0Address */\n    tag_5:\n      sload(0x06)\n      tag_22\n      swap1\n      sub(shl(0xa0, 0x01), 0x01)\n      and\n      dup2\n      jump\n    tag_22:\n      mload(0x40)\n      sub(shl(0xa0, 0x01), 0x01)\n        /* \"#utility.yul\":1069:1101   */\n      swap1\n      swap2\n      and\n        /* \"#utility.yul\":1051:1102   */\n      dup2\n      mstore\n        /* \"#utility.yul\":1039:1041   */\n      0x20\n        /* \"#utility.yul\":1024:1042   */\n      add\n        /* \"Custom-Dex/dex.sol\":2275:2301  erc20 public token0Address */\n      tag_16\n        /* \"#utility.yul\":892:1108   */\n      jump\n        /* \"Custom-Dex/dex.sol\":3244:3961  function createPool(... */\n    tag_6:\n      tag_18\n      tag_27\n      calldatasize\n      0x04\n      tag_28\n      jump\t// in\n    tag_27:\n      sub(shl(0xa0, 0x01), 0x01)\n        /* \"Custom-Dex/dex.sol\":3759:3788  tokenBalances[_token0Address] */\n      swap4\n      dup5\n      and\n      0x00\n      swap1\n      dup2\n      mstore\n        /* \"Custom-Dex/dex.sol\":3759:3772  tokenBalances */\n      0x04\n        /* \"Custom-Dex/dex.sol\":3759:3788  tokenBalances[_token0Address] */\n      0x20\n      swap1\n      dup2\n      mstore\n      0x40\n      dup1\n      dup4\n      keccak256\n        /* \"Custom-Dex/dex.sol\":3759:3804  tokenBalances[_token0Address] = _token0Amount */\n      swap5\n      swap1\n      swap5\n      sstore\n        /* \"Custom-Dex/dex.sol\":3814:3843  tokenBalances[_token1Address] */\n      swap4\n      swap1\n      swap5\n      and\n      dup5\n      mstore\n      dup2\n      dup5\n      keccak256\n        /* \"Custom-Dex/dex.sol\":3814:3859  tokenBalances[_token1Address] = _token1Amount */\n      sstore\n        /* \"Custom-Dex/dex.sol\":3894:3911  INITIAL_LP_TOKENS */\n      sload(0x01)\n        /* \"Custom-Dex/dex.sol\":3880:3890  msg.sender */\n      caller\n        /* \"Custom-Dex/dex.sol\":3869:3891  lpBalances[msg.sender] */\n      dup5\n      mstore\n        /* \"Custom-Dex/dex.sol\":3869:3879  lpBalances */\n      0x05\n        /* \"Custom-Dex/dex.sol\":3869:3891  lpBalances[msg.sender] */\n      swap1\n      swap3\n      mstore\n      swap1\n      swap2\n      keccak256\n        /* \"Custom-Dex/dex.sol\":3869:3911  lpBalances[msg.sender] = INITIAL_LP_TOKENS */\n      dup2\n      swap1\n      sstore\n        /* \"Custom-Dex/dex.sol\":3921:3934  totalLpTokens */\n      0x03\n        /* \"Custom-Dex/dex.sol\":3921:3954  totalLpTokens = INITIAL_LP_TOKENS */\n      sstore\n        /* \"Custom-Dex/dex.sol\":3244:3961  function createPool(... */\n      jump\n        /* \"Custom-Dex/dex.sol\":5169:6107  function removeLiquidity(address _token0Address, address _token1Address)... */\n    tag_7:\n      tag_12\n      tag_31\n      calldatasize\n      0x04\n      tag_14\n      jump\t// in\n    tag_31:\n      tag_32\n      jump\t// in\n        /* \"Custom-Dex/dex.sol\":3968:5163  function addLiquidity(... */\n    tag_8:\n      tag_34\n      tag_35\n      calldatasize\n      0x04\n      tag_28\n      jump\t// in\n    tag_35:\n      tag_36\n      jump\t// in\n    tag_34:\n      mload(0x40)\n      tag_16\n      swap3\n      swap2\n      swap1\n      tag_38\n      jump\t// in\n        /* \"Custom-Dex/dex.sol\":2307:2333  erc20 public token1Address */\n    tag_9:\n      sload(0x07)\n      tag_22\n      swap1\n      sub(shl(0xa0, 0x01), 0x01)\n      and\n      dup2\n      jump\n        /* \"Custom-Dex/dex.sol\":6113:6816  function swap(... */\n    tag_10:\n      tag_42\n      tag_43\n      calldatasize\n      0x04\n      tag_44\n      jump\t// in\n    tag_43:\n      tag_45\n      jump\t// in\n    tag_42:\n      mload(0x40)\n      tag_16\n      swap2\n      swap1\n      tag_47\n      jump\t// in\n        /* \"Custom-Dex/dex.sol\":2844:3238  function getSpotPrice(address _token0Address, address _token1Address)... */\n    tag_15:\n      sub(shl(0xa0, 0x01), 0x01)\n        /* \"Custom-Dex/dex.sol\":3003:3032  tokenBalances[_token0Address] */\n      dup3\n      and\n        /* \"Custom-Dex/dex.sol\":2959:2966  uint256 */\n      0x00\n        /* \"Custom-Dex/dex.sol\":3003:3032  tokenBalances[_token0Address] */\n      swap1\n      dup2\n      mstore\n        /* \"Custom-Dex/dex.sol\":3003:3016  tokenBalances */\n      0x04\n        /* \"Custom-Dex/dex.sol\":3003:3032  tokenBalances[_token0Address] */\n      0x20\n      mstore\n      0x40\n      dup2\n      keccak256\n      sload\n        /* \"Custom-Dex/dex.sol\":3003:3036  tokenBalances[_token0Address] > 0 */\n      iszero\n      dup1\n      iszero\n      swap1\n        /* \"Custom-Dex/dex.sol\":3003:3085  tokenBalances[_token0Address] > 0 &&... */\n      tag_49\n      jumpi\n      pop\n      sub(shl(0xa0, 0x01), 0x01)\n        /* \"Custom-Dex/dex.sol\":3052:3081  tokenBalances[_token1Address] */\n      dup3\n      and\n        /* \"Custom-Dex/dex.sol\":3084:3085  0 */\n      0x00\n        /* \"Custom-Dex/dex.sol\":3052:3081  tokenBalances[_token1Address] */\n      swap1\n      dup2\n      mstore\n        /* \"Custom-Dex/dex.sol\":3052:3065  tokenBalances */\n      0x04\n        /* \"Custom-Dex/dex.sol\":3052:3081  tokenBalances[_token1Address] */\n      0x20\n      mstore\n      0x40\n      swap1\n      keccak256\n      sload\n        /* \"Custom-Dex/dex.sol\":3052:3085  tokenBalances[_token1Address] > 0 */\n      iszero\n      iszero\n        /* \"Custom-Dex/dex.sol\":3003:3085  tokenBalances[_token0Address] > 0 &&... */\n    tag_49:\n        /* \"Custom-Dex/dex.sol\":2982:3144  require(... */\n      tag_50\n      jumpi\n      mload(0x40)\n      shl(0xe5, 0x461bcd)\n      dup2\n      mstore\n        /* \"#utility.yul\":2999:3001   */\n      0x20\n        /* \"Custom-Dex/dex.sol\":2982:3144  require(... */\n      0x04\n      dup3\n      add\n        /* \"#utility.yul\":2981:3002   */\n      mstore\n        /* \"#utility.yul\":3038:3040   */\n      0x21\n        /* \"#utility.yul\":3018:3036   */\n      0x24\n      dup3\n      add\n        /* \"#utility.yul\":3011:3041   */\n      mstore\n        /* \"#utility.yul\":3077:3111   */\n      0x20546f6b656e2062616c616e6365206d757374206265206e6f6e202d207a6572\n        /* \"#utility.yul\":3057:3075   */\n      0x44\n      dup3\n      add\n        /* \"#utility.yul\":3050:3112   */\n      mstore\n      shl(0xf8, 0x6f)\n        /* \"#utility.yul\":3128:3146   */\n      0x64\n      dup3\n      add\n        /* \"#utility.yul\":3121:3152   */\n      mstore\n        /* \"#utility.yul\":3169:3188   */\n      0x84\n      add\n        /* \"Custom-Dex/dex.sol\":2982:3144  require(... */\n    tag_51:\n      mload(0x40)\n      dup1\n      swap2\n      sub\n      swap1\n      revert\n    tag_50:\n      sub(shl(0xa0, 0x01), 0x01)\n        /* \"Custom-Dex/dex.sol\":3201:3230  tokenBalances[_token1Address] */\n      dup1\n      dup4\n      and\n      0x00\n      swap1\n      dup2\n      mstore\n        /* \"Custom-Dex/dex.sol\":3201:3214  tokenBalances */\n      0x04\n        /* \"Custom-Dex/dex.sol\":3201:3230  tokenBalances[_token1Address] */\n      0x20\n      mstore\n      0x40\n      dup1\n      dup3\n      keccak256\n      sload\n        /* \"Custom-Dex/dex.sol\":3161:3190  tokenBalances[_token0Address] */\n      swap3\n      dup7\n      and\n      dup3\n      mstore\n      swap1\n      keccak256\n      sload\n        /* \"Custom-Dex/dex.sol\":3161:3198  tokenBalances[_token0Address]* 10**18 */\n      tag_53\n      swap1\n        /* \"Custom-Dex/dex.sol\":3192:3198  10**18 */\n      0x0de0b6b3a7640000\n        /* \"Custom-Dex/dex.sol\":3161:3198  tokenBalances[_token0Address]* 10**18 */\n      tag_54\n      jump\t// in\n    tag_53:\n        /* \"Custom-Dex/dex.sol\":3161:3230  tokenBalances[_token0Address]* 10**18 / tokenBalances[_token1Address] */\n      tag_55\n      swap2\n      swap1\n      tag_56\n      jump\t// in\n    tag_55:\n        /* \"Custom-Dex/dex.sol\":3154:3231  return(tokenBalances[_token0Address]* 10**18 / tokenBalances[_token1Address]) */\n      swap1\n      pop\n        /* \"Custom-Dex/dex.sol\":2844:3238  function getSpotPrice(address _token0Address, address _token1Address)... */\n    tag_48:\n      swap3\n      swap2\n      pop\n      pop\n      jump\t// out\n        /* \"Custom-Dex/dex.sol\":2497:2838  function transferToken(uint256 _token0Amount, uint256 _token1Amount) public {... */\n    tag_21:\n        /* \"Custom-Dex/dex.sol\":2593:2606  token0Address */\n      sload(0x06)\n        /* \"Custom-Dex/dex.sol\":2593:2661  token0Address.transferFrom( msg.sender,address(this), _token0Amount) */\n      mload(0x40)\n      shl(0xe0, 0x23b872dd)\n      dup2\n      mstore\n        /* \"Custom-Dex/dex.sol\":2621:2631  msg.sender */\n      caller\n        /* \"Custom-Dex/dex.sol\":2593:2661  token0Address.transferFrom( msg.sender,address(this), _token0Amount) */\n      0x04\n      dup3\n      add\n        /* \"#utility.yul\":3966:4000   */\n      mstore\n        /* \"Custom-Dex/dex.sol\":2640:2644  this */\n      address\n        /* \"#utility.yul\":4016:4034   */\n      0x24\n      dup3\n      add\n        /* \"#utility.yul\":4009:4052   */\n      mstore\n        /* \"#utility.yul\":4068:4086   */\n      0x44\n      dup2\n      add\n        /* \"#utility.yul\":4061:4095   */\n      dup5\n      swap1\n      mstore\n      sub(shl(0xa0, 0x01), 0x01)\n        /* \"Custom-Dex/dex.sol\":2593:2606  token0Address */\n      swap1\n      swap2\n      and\n      swap1\n        /* \"Custom-Dex/dex.sol\":2593:2619  token0Address.transferFrom */\n      0x23b872dd\n      swap1\n        /* \"#utility.yul\":3901:3919   */\n      0x64\n      add\n        /* \"Custom-Dex/dex.sol\":2593:2661  token0Address.transferFrom( msg.sender,address(this), _token0Amount) */\n      0x20\n      mload(0x40)\n      dup1\n      dup4\n      sub\n      dup2\n      0x00\n      dup8\n      gas\n      call\n      iszero\n      dup1\n      iszero\n      tag_61\n      jumpi\n      returndatasize\n      0x00\n      dup1\n      returndatacopy\n      revert(0x00, returndatasize)\n    tag_61:\n      pop\n      pop\n      pop\n      pop\n      mload(0x40)\n      returndatasize\n      not(0x1f)\n      0x1f\n      dup3\n      add\n      and\n      dup3\n      add\n      dup1\n      0x40\n      mstore\n      pop\n      dup2\n      add\n      swap1\n      tag_62\n      swap2\n      swap1\n      tag_63\n      jump\t// in\n    tag_62:\n        /* \"Custom-Dex/dex.sol\":2584:2704  require( token0Address.transferFrom( msg.sender,address(this), _token0Amount),... */\n      tag_64\n      jumpi\n      mload(0x40)\n      shl(0xe5, 0x461bcd)\n      dup2\n      mstore\n        /* \"#utility.yul\":4590:4592   */\n      0x20\n        /* \"Custom-Dex/dex.sol\":2584:2704  require( token0Address.transferFrom( msg.sender,address(this), _token0Amount),... */\n      0x04\n      dup3\n      add\n        /* \"#utility.yul\":4572:4593   */\n      mstore\n        /* \"#utility.yul\":4629:4631   */\n      0x19\n        /* \"#utility.yul\":4609:4627   */\n      0x24\n      dup3\n      add\n        /* \"#utility.yul\":4602:4632   */\n      mstore\n        /* \"#utility.yul\":4668:4695   */\n      0x5472616e73666572206f6620746f6b656e30204661696c656400000000000000\n        /* \"#utility.yul\":4648:4666   */\n      0x44\n      dup3\n      add\n        /* \"#utility.yul\":4641:4696   */\n      mstore\n        /* \"#utility.yul\":4713:4731   */\n      0x64\n      add\n        /* \"Custom-Dex/dex.sol\":2584:2704  require( token0Address.transferFrom( msg.sender,address(this), _token0Amount),... */\n      tag_51\n        /* \"#utility.yul\":4388:4737   */\n      jump\n        /* \"Custom-Dex/dex.sol\":2584:2704  require( token0Address.transferFrom( msg.sender,address(this), _token0Amount),... */\n    tag_64:\n        /* \"Custom-Dex/dex.sol\":2722:2735  token1Address */\n      sload(0x07)\n        /* \"Custom-Dex/dex.sol\":2722:2789  token1Address.transferFrom(msg.sender,address(this),_token1Amount ) */\n      mload(0x40)\n      shl(0xe0, 0x23b872dd)\n      dup2\n      mstore\n        /* \"Custom-Dex/dex.sol\":2749:2759  msg.sender */\n      caller\n        /* \"Custom-Dex/dex.sol\":2722:2789  token1Address.transferFrom(msg.sender,address(this),_token1Amount ) */\n      0x04\n      dup3\n      add\n        /* \"#utility.yul\":3966:4000   */\n      mstore\n        /* \"Custom-Dex/dex.sol\":2768:2772  this */\n      address\n        /* \"#utility.yul\":4016:4034   */\n      0x24\n      dup3\n      add\n        /* \"#utility.yul\":4009:4052   */\n      mstore\n        /* \"#utility.yul\":4068:4086   */\n      0x44\n      dup2\n      add\n        /* \"#utility.yul\":4061:4095   */\n      dup4\n      swap1\n      mstore\n      sub(shl(0xa0, 0x01), 0x01)\n        /* \"Custom-Dex/dex.sol\":2722:2735  token1Address */\n      swap1\n      swap2\n      and\n      swap1\n        /* \"Custom-Dex/dex.sol\":2722:2748  token1Address.transferFrom */\n      0x23b872dd\n      swap1\n        /* \"#utility.yul\":3901:3919   */\n      0x64\n      add\n        /* \"Custom-Dex/dex.sol\":2722:2789  token1Address.transferFrom(msg.sender,address(this),_token1Amount ) */\n      0x20\n      mload(0x40)\n      dup1\n      dup4\n      sub\n      dup2\n      0x00\n      dup8\n      gas\n      call\n      iszero\n      dup1\n      iszero\n      tag_69\n      jumpi\n      returndatasize\n      0x00\n      dup1\n      returndatacopy\n      revert(0x00, returndatasize)\n    tag_69:\n      pop\n      pop\n      pop\n      pop\n      mload(0x40)\n      returndatasize\n      not(0x1f)\n      0x1f\n      dup3\n      add\n      and\n      dup3\n      add\n      dup1\n      0x40\n      mstore\n      pop\n      dup2\n      add\n      swap1\n      tag_70\n      swap2\n      swap1\n      tag_63\n      jump\t// in\n    tag_70:\n        /* \"Custom-Dex/dex.sol\":2714:2831  require(token1Address.transferFrom(msg.sender,address(this),_token1Amount ),... */\n      tag_71\n      jumpi\n      mload(0x40)\n      shl(0xe5, 0x461bcd)\n      dup2\n      mstore\n        /* \"#utility.yul\":4944:4946   */\n      0x20\n        /* \"Custom-Dex/dex.sol\":2714:2831  require(token1Address.transferFrom(msg.sender,address(this),_token1Amount ),... */\n      0x04\n      dup3\n      add\n        /* \"#utility.yul\":4926:4947   */\n      mstore\n        /* \"#utility.yul\":4983:4985   */\n      0x19\n        /* \"#utility.yul\":4963:4981   */\n      0x24\n      dup3\n      add\n        /* \"#utility.yul\":4956:4986   */\n      mstore\n        /* \"#utility.yul\":5022:5049   */\n      0x5472616e73666572206f6620746f6b656e31204661696c656400000000000000\n        /* \"#utility.yul\":5002:5020   */\n      0x44\n      dup3\n      add\n        /* \"#utility.yul\":4995:5050   */\n      mstore\n        /* \"#utility.yul\":5067:5085   */\n      0x64\n      add\n        /* \"Custom-Dex/dex.sol\":2714:2831  require(token1Address.transferFrom(msg.sender,address(this),_token1Amount ),... */\n      tag_51\n        /* \"#utility.yul\":4742:5091   */\n      jump\n        /* \"Custom-Dex/dex.sol\":2714:2831  require(token1Address.transferFrom(msg.sender,address(this),_token1Amount ),... */\n    tag_71:\n        /* \"Custom-Dex/dex.sol\":2497:2838  function transferToken(uint256 _token0Amount, uint256 _token1Amount) public {... */\n      pop\n      pop\n      jump\t// out\n        /* \"Custom-Dex/dex.sol\":5169:6107  function removeLiquidity(address _token0Address, address _token1Address)... */\n    tag_32:\n        /* \"Custom-Dex/dex.sol\":5464:5474  msg.sender */\n      caller\n        /* \"Custom-Dex/dex.sol\":5415:5422  uint256 */\n      0x00\n        /* \"Custom-Dex/dex.sol\":5453:5475  lpBalances[msg.sender] */\n      swap1\n      dup2\n      mstore\n        /* \"Custom-Dex/dex.sol\":5453:5463  lpBalances */\n      0x05\n        /* \"Custom-Dex/dex.sol\":5453:5475  lpBalances[msg.sender] */\n      0x20\n      mstore\n      0x40\n      dup2\n      keccak256\n      sload\n        /* \"Custom-Dex/dex.sol\":5493:5504  balance > 0 */\n      dup1\n        /* \"Custom-Dex/dex.sol\":5485:5545  require(balance > 0,\"No liquidity was provided by the user\") */\n      tag_76\n      jumpi\n      mload(0x40)\n      shl(0xe5, 0x461bcd)\n      dup2\n      mstore\n        /* \"#utility.yul\":5298:5300   */\n      0x20\n        /* \"Custom-Dex/dex.sol\":5485:5545  require(balance > 0,\"No liquidity was provided by the user\") */\n      0x04\n      dup3\n      add\n        /* \"#utility.yul\":5280:5301   */\n      mstore\n        /* \"#utility.yul\":5337:5339   */\n      0x25\n        /* \"#utility.yul\":5317:5335   */\n      0x24\n      dup3\n      add\n        /* \"#utility.yul\":5310:5340   */\n      mstore\n        /* \"#utility.yul\":5376:5410   */\n      0x4e6f206c6971756964697479207761732070726f766964656420627920746865\n        /* \"#utility.yul\":5356:5374   */\n      0x44\n      dup3\n      add\n        /* \"#utility.yul\":5349:5411   */\n      mstore\n      shl(0xd9, 0x103ab9b2b9)\n        /* \"#utility.yul\":5427:5445   */\n      0x64\n      dup3\n      add\n        /* \"#utility.yul\":5420:5455   */\n      mstore\n        /* \"#utility.yul\":5472:5491   */\n      0x84\n      add\n        /* \"Custom-Dex/dex.sol\":5485:5545  require(balance > 0,\"No liquidity was provided by the user\") */\n      tag_51\n        /* \"#utility.yul\":5096:5497   */\n      jump\n        /* \"Custom-Dex/dex.sol\":5485:5545  require(balance > 0,\"No liquidity was provided by the user\") */\n    tag_76:\n        /* \"Custom-Dex/dex.sol\":5620:5633  totalLpTokens */\n      sload(0x03)\n      sub(shl(0xa0, 0x01), 0x01)\n        /* \"Custom-Dex/dex.sol\":5587:5616  tokenBalances[_token0Address] */\n      dup6\n      and\n        /* \"Custom-Dex/dex.sol\":5555:5573  uint _token0Amount */\n      0x00\n        /* \"Custom-Dex/dex.sol\":5587:5616  tokenBalances[_token0Address] */\n      swap1\n      dup2\n      mstore\n        /* \"Custom-Dex/dex.sol\":5587:5600  tokenBalances */\n      0x04\n        /* \"Custom-Dex/dex.sol\":5587:5616  tokenBalances[_token0Address] */\n      0x20\n      mstore\n      0x40\n      dup2\n      keccak256\n      sload\n        /* \"Custom-Dex/dex.sol\":5555:5573  uint _token0Amount */\n      swap1\n      swap2\n        /* \"Custom-Dex/dex.sol\":5620:5633  totalLpTokens */\n      swap1\n        /* \"Custom-Dex/dex.sol\":5577:5616  balance * tokenBalances[_token0Address] */\n      tag_79\n      swap1\n        /* \"Custom-Dex/dex.sol\":5577:5584  balance */\n      dup5\n        /* \"Custom-Dex/dex.sol\":5577:5616  balance * tokenBalances[_token0Address] */\n      tag_54\n      jump\t// in\n    tag_79:\n        /* \"Custom-Dex/dex.sol\":5576:5633  (balance * tokenBalances[_token0Address]) / totalLpTokens */\n      tag_80\n      swap2\n      swap1\n      tag_56\n      jump\t// in\n    tag_80:\n        /* \"Custom-Dex/dex.sol\":5708:5721  totalLpTokens */\n      sload(0x03)\n      sub(shl(0xa0, 0x01), 0x01)\n        /* \"Custom-Dex/dex.sol\":5675:5704  tokenBalances[_token1Address] */\n      dup7\n      and\n        /* \"Custom-Dex/dex.sol\":5643:5661  uint _token1Amount */\n      0x00\n        /* \"Custom-Dex/dex.sol\":5675:5704  tokenBalances[_token1Address] */\n      swap1\n      dup2\n      mstore\n        /* \"Custom-Dex/dex.sol\":5675:5688  tokenBalances */\n      0x04\n        /* \"Custom-Dex/dex.sol\":5675:5704  tokenBalances[_token1Address] */\n      0x20\n      mstore\n      0x40\n      dup2\n      keccak256\n      sload\n        /* \"Custom-Dex/dex.sol\":5555:5633  uint _token0Amount = (balance * tokenBalances[_token0Address]) / totalLpTokens */\n      swap3\n      swap4\n      pop\n        /* \"Custom-Dex/dex.sol\":5643:5661  uint _token1Amount */\n      swap2\n        /* \"Custom-Dex/dex.sol\":5665:5704  balance * tokenBalances[_token1Address] */\n      tag_81\n      swap1\n        /* \"Custom-Dex/dex.sol\":5665:5672  balance */\n      dup6\n        /* \"Custom-Dex/dex.sol\":5665:5704  balance * tokenBalances[_token1Address] */\n      tag_54\n      jump\t// in\n    tag_81:\n        /* \"Custom-Dex/dex.sol\":5664:5721  (balance * tokenBalances[_token1Address]) / totalLpTokens */\n      tag_82\n      swap2\n      swap1\n      tag_56\n      jump\t// in\n    tag_82:\n        /* \"Custom-Dex/dex.sol\":5742:5752  msg.sender */\n      caller\n        /* \"Custom-Dex/dex.sol\":5756:5757  0 */\n      0x00\n        /* \"Custom-Dex/dex.sol\":5731:5753  lpBalances[msg.sender] */\n      swap1\n      dup2\n      mstore\n        /* \"Custom-Dex/dex.sol\":5731:5741  lpBalances */\n      0x05\n        /* \"Custom-Dex/dex.sol\":5731:5753  lpBalances[msg.sender] */\n      0x20\n      swap1\n      dup2\n      mstore\n      0x40\n      dup1\n      dup4\n      keccak256\n        /* \"Custom-Dex/dex.sol\":5731:5757  lpBalances[msg.sender] = 0 */\n      dup4\n      swap1\n      sstore\n      sub(shl(0xa0, 0x01), 0x01)\n        /* \"Custom-Dex/dex.sol\":5767:5796  tokenBalances[_token0Address] */\n      dup11\n      and\n      dup4\n      mstore\n        /* \"Custom-Dex/dex.sol\":5767:5780  tokenBalances */\n      0x04\n        /* \"Custom-Dex/dex.sol\":5767:5796  tokenBalances[_token0Address] */\n      swap1\n      swap2\n      mstore\n      dup2\n      keccak256\n        /* \"Custom-Dex/dex.sol\":5767:5813  tokenBalances[_token0Address] -= _token0Amount */\n      dup1\n      sload\n        /* \"Custom-Dex/dex.sol\":5643:5721  uint _token1Amount = (balance * tokenBalances[_token1Address]) / totalLpTokens */\n      swap3\n      swap4\n      pop\n        /* \"Custom-Dex/dex.sol\":5800:5813  _token0Amount */\n      dup5\n      swap3\n        /* \"Custom-Dex/dex.sol\":5767:5796  tokenBalances[_token0Address] */\n      swap1\n      swap2\n        /* \"Custom-Dex/dex.sol\":5756:5757  0 */\n      swap1\n        /* \"Custom-Dex/dex.sol\":5767:5813  tokenBalances[_token0Address] -= _token0Amount */\n      tag_83\n      swap1\n        /* \"Custom-Dex/dex.sol\":5800:5813  _token0Amount */\n      dup5\n      swap1\n        /* \"Custom-Dex/dex.sol\":5767:5813  tokenBalances[_token0Address] -= _token0Amount */\n      tag_84\n      jump\t// in\n    tag_83:\n      swap1\n      swap2\n      sstore\n      pop\n      pop\n      sub(shl(0xa0, 0x01), 0x01)\n        /* \"Custom-Dex/dex.sol\":5823:5852  tokenBalances[_token1Address] */\n      dup6\n      and\n      0x00\n      swap1\n      dup2\n      mstore\n        /* \"Custom-Dex/dex.sol\":5823:5836  tokenBalances */\n      0x04\n        /* \"Custom-Dex/dex.sol\":5823:5852  tokenBalances[_token1Address] */\n      0x20\n      mstore\n      0x40\n      dup2\n      keccak256\n        /* \"Custom-Dex/dex.sol\":5823:5869  tokenBalances[_token1Address] -= _token1Amount */\n      dup1\n      sload\n        /* \"Custom-Dex/dex.sol\":5856:5869  _token1Amount */\n      dup4\n      swap3\n        /* \"Custom-Dex/dex.sol\":5823:5852  tokenBalances[_token1Address] */\n      swap1\n        /* \"Custom-Dex/dex.sol\":5823:5869  tokenBalances[_token1Address] -= _token1Amount */\n      tag_85\n      swap1\n        /* \"Custom-Dex/dex.sol\":5856:5869  _token1Amount */\n      dup5\n      swap1\n        /* \"Custom-Dex/dex.sol\":5823:5869  tokenBalances[_token1Address] -= _token1Amount */\n      tag_84\n      jump\t// in\n    tag_85:\n      swap3\n      pop\n      pop\n      dup2\n      swap1\n      sstore\n      pop\n        /* \"Custom-Dex/dex.sol\":5896:5903  balance */\n      dup3\n        /* \"Custom-Dex/dex.sol\":5879:5892  totalLpTokens */\n      0x03\n      0x00\n        /* \"Custom-Dex/dex.sol\":5879:5903  totalLpTokens -= balance */\n      dup3\n      dup3\n      sload\n      tag_86\n      swap2\n      swap1\n      tag_84\n      jump\t// in\n    tag_86:\n      swap1\n      swap2\n      sstore\n      pop\n      pop\n        /* \"Custom-Dex/dex.sol\":5922:5935  token0Address */\n      sload(0x06)\n        /* \"Custom-Dex/dex.sol\":5922:5971  token0Address.transfer(msg.sender, _token0Amount) */\n      mload(0x40)\n      shl(0xe0, 0xa9059cbb)\n      dup2\n      mstore\n        /* \"Custom-Dex/dex.sol\":5945:5955  msg.sender */\n      caller\n        /* \"Custom-Dex/dex.sol\":5922:5971  token0Address.transfer(msg.sender, _token0Amount) */\n      0x04\n      dup3\n      add\n        /* \"#utility.yul\":5809:5860   */\n      mstore\n        /* \"#utility.yul\":5876:5894   */\n      0x24\n      dup2\n      add\n        /* \"#utility.yul\":5869:5903   */\n      dup5\n      swap1\n      mstore\n      sub(shl(0xa0, 0x01), 0x01)\n        /* \"Custom-Dex/dex.sol\":5922:5935  token0Address */\n      swap1\n      swap2\n      and\n      swap1\n        /* \"Custom-Dex/dex.sol\":5922:5944  token0Address.transfer */\n      0xa9059cbb\n      swap1\n        /* \"#utility.yul\":5782:5800   */\n      0x44\n      add\n        /* \"Custom-Dex/dex.sol\":5922:5971  token0Address.transfer(msg.sender, _token0Amount) */\n      0x20\n      mload(0x40)\n      dup1\n      dup4\n      sub\n      dup2\n      0x00\n      dup8\n      gas\n      call\n      iszero\n      dup1\n      iszero\n      tag_90\n      jumpi\n      returndatasize\n      0x00\n      dup1\n      returndatacopy\n      revert(0x00, returndatasize)\n    tag_90:\n      pop\n      pop\n      pop\n      pop\n      mload(0x40)\n      returndatasize\n      not(0x1f)\n      0x1f\n      dup3\n      add\n      and\n      dup3\n      add\n      dup1\n      0x40\n      mstore\n      pop\n      dup2\n      add\n      swap1\n      tag_91\n      swap2\n      swap1\n      tag_63\n      jump\t// in\n    tag_91:\n        /* \"Custom-Dex/dex.sol\":5914:6002  require(token0Address.transfer(msg.sender, _token0Amount), \"Transfer  token0 failed !!\") */\n      tag_92\n      jumpi\n      mload(0x40)\n      shl(0xe5, 0x461bcd)\n      dup2\n      mstore\n        /* \"#utility.yul\":6116:6118   */\n      0x20\n        /* \"Custom-Dex/dex.sol\":5914:6002  require(token0Address.transfer(msg.sender, _token0Amount), \"Transfer  token0 failed !!\") */\n      0x04\n      dup3\n      add\n        /* \"#utility.yul\":6098:6119   */\n      mstore\n        /* \"#utility.yul\":6155:6157   */\n      0x1a\n        /* \"#utility.yul\":6135:6153   */\n      0x24\n      dup3\n      add\n        /* \"#utility.yul\":6128:6158   */\n      mstore\n        /* \"#utility.yul\":6194:6222   */\n      0x5472616e736665722020746f6b656e30206661696c6564202121000000000000\n        /* \"#utility.yul\":6174:6192   */\n      0x44\n      dup3\n      add\n        /* \"#utility.yul\":6167:6223   */\n      mstore\n        /* \"#utility.yul\":6240:6258   */\n      0x64\n      add\n        /* \"Custom-Dex/dex.sol\":5914:6002  require(token0Address.transfer(msg.sender, _token0Amount), \"Transfer  token0 failed !!\") */\n      tag_51\n        /* \"#utility.yul\":5914:6264   */\n      jump\n        /* \"Custom-Dex/dex.sol\":5914:6002  require(token0Address.transfer(msg.sender, _token0Amount), \"Transfer  token0 failed !!\") */\n    tag_92:\n        /* \"Custom-Dex/dex.sol\":6020:6033  token1Address */\n      sload(0x07)\n        /* \"Custom-Dex/dex.sol\":6020:6069  token1Address.transfer(msg.sender, _token1Amount) */\n      mload(0x40)\n      shl(0xe0, 0xa9059cbb)\n      dup2\n      mstore\n        /* \"Custom-Dex/dex.sol\":6043:6053  msg.sender */\n      caller\n        /* \"Custom-Dex/dex.sol\":6020:6069  token1Address.transfer(msg.sender, _token1Amount) */\n      0x04\n      dup3\n      add\n        /* \"#utility.yul\":5809:5860   */\n      mstore\n        /* \"#utility.yul\":5876:5894   */\n      0x24\n      dup2\n      add\n        /* \"#utility.yul\":5869:5903   */\n      dup4\n      swap1\n      mstore\n      sub(shl(0xa0, 0x01), 0x01)\n        /* \"Custom-Dex/dex.sol\":6020:6033  token1Address */\n      swap1\n      swap2\n      and\n      swap1\n        /* \"Custom-Dex/dex.sol\":6020:6042  token1Address.transfer */\n      0xa9059cbb\n      swap1\n        /* \"#utility.yul\":5782:5800   */\n      0x44\n      add\n        /* \"Custom-Dex/dex.sol\":6020:6069  token1Address.transfer(msg.sender, _token1Amount) */\n      0x20\n      mload(0x40)\n      dup1\n      dup4\n      sub\n      dup2\n      0x00\n      dup8\n      gas\n      call\n      iszero\n      dup1\n      iszero\n      tag_97\n      jumpi\n      returndatasize\n      0x00\n      dup1\n      returndatacopy\n      revert(0x00, returndatasize)\n    tag_97:\n      pop\n      pop\n      pop\n      pop\n      mload(0x40)\n      returndatasize\n      not(0x1f)\n      0x1f\n      dup3\n      add\n      and\n      dup3\n      add\n      dup1\n      0x40\n      mstore\n      pop\n      dup2\n      add\n      swap1\n      tag_98\n      swap2\n      swap1\n      tag_63\n      jump\t// in\n    tag_98:\n        /* \"Custom-Dex/dex.sol\":6012:6100  require(token1Address.transfer(msg.sender, _token1Amount), \"Transfer  token1 failed !!\") */\n      tag_99\n      jumpi\n      mload(0x40)\n      shl(0xe5, 0x461bcd)\n      dup2\n      mstore\n        /* \"#utility.yul\":6471:6473   */\n      0x20\n        /* \"Custom-Dex/dex.sol\":6012:6100  require(token1Address.transfer(msg.sender, _token1Amount), \"Transfer  token1 failed !!\") */\n      0x04\n      dup3\n      add\n        /* \"#utility.yul\":6453:6474   */\n      mstore\n        /* \"#utility.yul\":6510:6512   */\n      0x1a\n        /* \"#utility.yul\":6490:6508   */\n      0x24\n      dup3\n      add\n        /* \"#utility.yul\":6483:6513   */\n      mstore\n        /* \"#utility.yul\":6549:6577   */\n      0x5472616e736665722020746f6b656e31206661696c6564202121000000000000\n        /* \"#utility.yul\":6529:6547   */\n      0x44\n      dup3\n      add\n        /* \"#utility.yul\":6522:6578   */\n      mstore\n        /* \"#utility.yul\":6595:6613   */\n      0x64\n      add\n        /* \"Custom-Dex/dex.sol\":6012:6100  require(token1Address.transfer(msg.sender, _token1Amount), \"Transfer  token1 failed !!\") */\n      tag_51\n        /* \"#utility.yul\":6269:6619   */\n      jump\n        /* \"Custom-Dex/dex.sol\":6012:6100  require(token1Address.transfer(msg.sender, _token1Amount), \"Transfer  token1 failed !!\") */\n    tag_99:\n        /* \"Custom-Dex/dex.sol\":5428:6107  {... */\n      pop\n      pop\n      pop\n        /* \"Custom-Dex/dex.sol\":5169:6107  function removeLiquidity(address _token0Address, address _token1Address)... */\n      swap3\n      swap2\n      pop\n      pop\n      jump\t// out\n        /* \"Custom-Dex/dex.sol\":3968:5163  function addLiquidity(... */\n    tag_36:\n        /* \"Custom-Dex/dex.sol\":4470:4483  string memory */\n      0x60\n        /* \"Custom-Dex/dex.sol\":4485:4492  uint256 */\n      0x00\n        /* \"Custom-Dex/dex.sol\":4508:4527  uint256 token0Price */\n      dup1\n        /* \"Custom-Dex/dex.sol\":4530:4574  getSpotPrice(_token0Address, _token1Address) */\n      tag_103\n        /* \"Custom-Dex/dex.sol\":4543:4557  _token0Address */\n      dup8\n        /* \"Custom-Dex/dex.sol\":4559:4573  _token1Address */\n      dup8\n        /* \"Custom-Dex/dex.sol\":4530:4542  getSpotPrice */\n      tag_15\n        /* \"Custom-Dex/dex.sol\":4530:4574  getSpotPrice(_token0Address, _token1Address) */\n      jump\t// in\n    tag_103:\n        /* \"Custom-Dex/dex.sol\":4508:4574  uint256 token0Price = getSpotPrice(_token0Address, _token1Address) */\n      swap1\n      pop\n        /* \"Custom-Dex/dex.sol\":4623:4645  _token1Amount * 10**18 */\n      tag_104\n        /* \"Custom-Dex/dex.sol\":4623:4636  _token1Amount */\n      dup5\n        /* \"Custom-Dex/dex.sol\":4639:4645  10**18 */\n      0x0de0b6b3a7640000\n        /* \"Custom-Dex/dex.sol\":4623:4645  _token1Amount * 10**18 */\n      tag_54\n      jump\t// in\n    tag_104:\n        /* \"Custom-Dex/dex.sol\":4592:4619  token0Price * _token0Amount */\n      tag_105\n        /* \"Custom-Dex/dex.sol\":4606:4619  _token0Amount */\n      dup7\n        /* \"Custom-Dex/dex.sol\":4592:4603  token0Price */\n      dup4\n        /* \"Custom-Dex/dex.sol\":4592:4619  token0Price * _token0Amount */\n      tag_54\n      jump\t// in\n    tag_105:\n        /* \"Custom-Dex/dex.sol\":4592:4645  token0Price * _token0Amount == _token1Amount * 10**18 */\n      eq\n        /* \"Custom-Dex/dex.sol\":4584:4690  require(token0Price * _token0Amount == _token1Amount * 10**18,\" must add liquidity at current spot price\") */\n      tag_106\n      jumpi\n      mload(0x40)\n      shl(0xe5, 0x461bcd)\n      dup2\n      mstore\n        /* \"#utility.yul\":6826:6828   */\n      0x20\n        /* \"Custom-Dex/dex.sol\":4584:4690  require(token0Price * _token0Amount == _token1Amount * 10**18,\" must add liquidity at current spot price\") */\n      0x04\n      dup3\n      add\n        /* \"#utility.yul\":6808:6829   */\n      mstore\n        /* \"#utility.yul\":6865:6867   */\n      0x29\n        /* \"#utility.yul\":6845:6863   */\n      0x24\n      dup3\n      add\n        /* \"#utility.yul\":6838:6868   */\n      mstore\n        /* \"#utility.yul\":6904:6938   */\n      0x206d75737420616464206c69717569646974792061742063757272656e742073\n        /* \"#utility.yul\":6884:6902   */\n      0x44\n      dup3\n      add\n        /* \"#utility.yul\":6877:6939   */\n      mstore\n      shl(0xb8, 0x706f74207072696365)\n        /* \"#utility.yul\":6955:6973   */\n      0x64\n      dup3\n      add\n        /* \"#utility.yul\":6948:6987   */\n      mstore\n        /* \"#utility.yul\":7004:7023   */\n      0x84\n      add\n        /* \"Custom-Dex/dex.sol\":4584:4690  require(token0Price * _token0Amount == _token1Amount * 10**18,\" must add liquidity at current spot price\") */\n      tag_51\n        /* \"#utility.yul\":6624:7029   */\n      jump\n        /* \"Custom-Dex/dex.sol\":4584:4690  require(token0Price * _token0Amount == _token1Amount * 10**18,\" must add liquidity at current spot price\") */\n    tag_106:\n        /* \"Custom-Dex/dex.sol\":4700:4742  transferToken(_token0Amount,_token1Amount) */\n      tag_109\n        /* \"Custom-Dex/dex.sol\":4714:4727  _token0Amount */\n      dup6\n        /* \"Custom-Dex/dex.sol\":4728:4741  _token1Amount */\n      dup6\n        /* \"Custom-Dex/dex.sol\":4700:4713  transferToken */\n      tag_21\n        /* \"Custom-Dex/dex.sol\":4700:4742  transferToken(_token0Amount,_token1Amount) */\n      jump\t// in\n    tag_109:\n      sub(shl(0xa0, 0x01), 0x01)\n        /* \"Custom-Dex/dex.sol\":4774:4803  tokenBalances[_token0Address] */\n      dup8\n      and\n        /* \"Custom-Dex/dex.sol\":4752:4771  uint currentBalance */\n      0x00\n        /* \"Custom-Dex/dex.sol\":4774:4803  tokenBalances[_token0Address] */\n      swap1\n      dup2\n      mstore\n        /* \"Custom-Dex/dex.sol\":4774:4787  tokenBalances */\n      0x04\n        /* \"Custom-Dex/dex.sol\":4774:4803  tokenBalances[_token0Address] */\n      0x20\n      mstore\n      0x40\n      dup2\n      keccak256\n      sload\n        /* \"Custom-Dex/dex.sol\":4847:4864  INITIAL_LP_TOKENS */\n      sload(0x01)\n        /* \"Custom-Dex/dex.sol\":4774:4803  tokenBalances[_token0Address] */\n      swap1\n      swap2\n        /* \"Custom-Dex/dex.sol\":4752:4771  uint currentBalance */\n      swap1\n        /* \"Custom-Dex/dex.sol\":4774:4803  tokenBalances[_token0Address] */\n      dup3\n      swap1\n        /* \"Custom-Dex/dex.sol\":4831:4864  _token0Amount * INITIAL_LP_TOKENS */\n      tag_110\n      swap1\n        /* \"Custom-Dex/dex.sol\":4831:4844  _token0Amount */\n      dup10\n        /* \"Custom-Dex/dex.sol\":4831:4864  _token0Amount * INITIAL_LP_TOKENS */\n      tag_54\n      jump\t// in\n    tag_110:\n        /* \"Custom-Dex/dex.sol\":4830:4882  (_token0Amount * INITIAL_LP_TOKENS) / currentBalance */\n      tag_111\n      swap2\n      swap1\n      tag_56\n      jump\t// in\n    tag_111:\n      sub(shl(0xa0, 0x01), 0x01)\n        /* \"Custom-Dex/dex.sol\":4892:4921  tokenBalances[_token0Address] */\n      dup11\n      and\n      0x00\n      swap1\n      dup2\n      mstore\n        /* \"Custom-Dex/dex.sol\":4892:4905  tokenBalances */\n      0x04\n        /* \"Custom-Dex/dex.sol\":4892:4921  tokenBalances[_token0Address] */\n      0x20\n      mstore\n      0x40\n      dup2\n      keccak256\n        /* \"Custom-Dex/dex.sol\":4892:4938  tokenBalances[_token0Address] += _token0Amount */\n      dup1\n      sload\n        /* \"Custom-Dex/dex.sol\":4813:4882  uint newTokens = (_token0Amount * INITIAL_LP_TOKENS) / currentBalance */\n      swap3\n      swap4\n      pop\n        /* \"Custom-Dex/dex.sol\":4925:4938  _token0Amount */\n      dup10\n      swap3\n        /* \"Custom-Dex/dex.sol\":4892:4921  tokenBalances[_token0Address] */\n      swap1\n      swap2\n      swap1\n        /* \"Custom-Dex/dex.sol\":4892:4938  tokenBalances[_token0Address] += _token0Amount */\n      tag_112\n      swap1\n        /* \"Custom-Dex/dex.sol\":4925:4938  _token0Amount */\n      dup5\n      swap1\n        /* \"Custom-Dex/dex.sol\":4892:4938  tokenBalances[_token0Address] += _token0Amount */\n      tag_113\n      jump\t// in\n    tag_112:\n      swap1\n      swap2\n      sstore\n      pop\n      pop\n      sub(shl(0xa0, 0x01), 0x01)\n        /* \"Custom-Dex/dex.sol\":4948:4977  tokenBalances[_token1Address] */\n      dup9\n      and\n      0x00\n      swap1\n      dup2\n      mstore\n        /* \"Custom-Dex/dex.sol\":4948:4961  tokenBalances */\n      0x04\n        /* \"Custom-Dex/dex.sol\":4948:4977  tokenBalances[_token1Address] */\n      0x20\n      mstore\n      0x40\n      dup2\n      keccak256\n        /* \"Custom-Dex/dex.sol\":4948:4994  tokenBalances[_token1Address] += _token1Amount */\n      dup1\n      sload\n        /* \"Custom-Dex/dex.sol\":4981:4994  _token1Amount */\n      dup9\n      swap3\n        /* \"Custom-Dex/dex.sol\":4948:4977  tokenBalances[_token1Address] */\n      swap1\n        /* \"Custom-Dex/dex.sol\":4948:4994  tokenBalances[_token1Address] += _token1Amount */\n      tag_114\n      swap1\n        /* \"Custom-Dex/dex.sol\":4981:4994  _token1Amount */\n      dup5\n      swap1\n        /* \"Custom-Dex/dex.sol\":4948:4994  tokenBalances[_token1Address] += _token1Amount */\n      tag_113\n      jump\t// in\n    tag_114:\n      swap3\n      pop\n      pop\n      dup2\n      swap1\n      sstore\n      pop\n        /* \"Custom-Dex/dex.sol\":5021:5030  newTokens */\n      dup1\n        /* \"Custom-Dex/dex.sol\":5004:5017  totalLpTokens */\n      0x03\n      0x00\n        /* \"Custom-Dex/dex.sol\":5004:5030  totalLpTokens += newTokens */\n      dup3\n      dup3\n      sload\n      tag_115\n      swap2\n      swap1\n      tag_113\n      jump\t// in\n    tag_115:\n      swap1\n      swap2\n      sstore\n      pop\n      pop\n        /* \"Custom-Dex/dex.sol\":5051:5061  msg.sender */\n      caller\n        /* \"Custom-Dex/dex.sol\":5040:5062  lpBalances[msg.sender] */\n      0x00\n      swap1\n      dup2\n      mstore\n        /* \"Custom-Dex/dex.sol\":5040:5050  lpBalances */\n      0x05\n        /* \"Custom-Dex/dex.sol\":5040:5062  lpBalances[msg.sender] */\n      0x20\n      mstore\n      0x40\n      dup2\n      keccak256\n        /* \"Custom-Dex/dex.sol\":5040:5075  lpBalances[msg.sender] += newTokens */\n      dup1\n      sload\n        /* \"Custom-Dex/dex.sol\":5066:5075  newTokens */\n      dup4\n      swap3\n        /* \"Custom-Dex/dex.sol\":5040:5062  lpBalances[msg.sender] */\n      swap1\n        /* \"Custom-Dex/dex.sol\":5040:5075  lpBalances[msg.sender] += newTokens */\n      tag_116\n      swap1\n        /* \"Custom-Dex/dex.sol\":5066:5075  newTokens */\n      dup5\n      swap1\n        /* \"Custom-Dex/dex.sol\":5040:5075  lpBalances[msg.sender] += newTokens */\n      tag_113\n      jump\t// in\n    tag_116:\n      swap1\n      swap2\n      sstore\n      pop\n      pop\n        /* \"Custom-Dex/dex.sol\":5144:5154  msg.sender */\n      caller\n        /* \"Custom-Dex/dex.sol\":5133:5155  lpBalances[msg.sender] */\n      0x00\n      swap1\n      dup2\n      mstore\n        /* \"Custom-Dex/dex.sol\":5133:5143  lpBalances */\n      0x05\n        /* \"Custom-Dex/dex.sol\":5133:5155  lpBalances[msg.sender] */\n      0x20\n      swap1\n      dup2\n      mstore\n      0x40\n      swap2\n      dup3\n      swap1\n      keccak256\n      sload\n        /* \"Custom-Dex/dex.sol\":5085:5156  return(\"Lp token balance w.r.t added liquidity\",lpBalances[msg.sender]) */\n      dup3\n      mload\n      0x60\n      dup2\n      add\n      swap1\n      swap4\n      mstore\n      0x26\n      dup1\n      dup5\n      mstore\n        /* \"Custom-Dex/dex.sol\":5133:5155  lpBalances[msg.sender] */\n      swap1\n      swap3\n        /* \"Custom-Dex/dex.sol\":5085:5156  return(\"Lp token balance w.r.t added liquidity\",lpBalances[msg.sender]) */\n      swap2\n      data_b258cbd7fddccbc685dbfe29662d719d96f9b09e5e29d49e6b7e7a265b02d4ef\n      swap1\n      dup4\n      add\n      codecopy\n      swap11\n      swap1\n      swap10\n      pop\n        /* \"Custom-Dex/dex.sol\":3968:5163  function addLiquidity(... */\n      swap8\n      pop\n      pop\n      pop\n      pop\n      pop\n      pop\n      pop\n      pop\n      jump\t// out\n        /* \"Custom-Dex/dex.sol\":6113:6816  function swap(... */\n    tag_45:\n        /* \"Custom-Dex/dex.sol\":6318:6331  string memory */\n      0x60\n        /* \"@openzeppelin/contracts/security/ReentrancyGuard.sol\":2261:2282  _nonReentrantBefore() */\n      tag_118\n        /* \"@openzeppelin/contracts/security/ReentrancyGuard.sol\":2261:2280  _nonReentrantBefore */\n      tag_119\n        /* \"@openzeppelin/contracts/security/ReentrancyGuard.sol\":2261:2282  _nonReentrantBefore() */\n      jump\t// in\n    tag_118:\n        /* \"Custom-Dex/dex.sol\":6343:6349  uint r */\n      0x00\n        /* \"Custom-Dex/dex.sol\":6360:6366  LP_FEE */\n      sload(0x02)\n        /* \"Custom-Dex/dex.sol\":6352:6357  10000 */\n      0x2710\n        /* \"Custom-Dex/dex.sol\":6352:6366  10000 - LP_FEE */\n      tag_121\n      swap2\n      swap1\n      tag_84\n      jump\t// in\n    tag_121:\n        /* \"Custom-Dex/dex.sol\":6343:6366  uint r = 10000 - LP_FEE */\n      swap1\n      pop\n        /* \"Custom-Dex/dex.sol\":6376:6389  uint amountIn */\n      0x00\n        /* \"Custom-Dex/dex.sol\":6406:6411  10000 */\n      0x2710\n        /* \"Custom-Dex/dex.sol\":6392:6403  r * _amount */\n      tag_122\n        /* \"Custom-Dex/dex.sol\":6396:6403  _amount */\n      dup6\n        /* \"Custom-Dex/dex.sol\":6343:6366  uint r = 10000 - LP_FEE */\n      dup5\n        /* \"Custom-Dex/dex.sol\":6392:6403  r * _amount */\n      tag_54\n      jump\t// in\n    tag_122:\n        /* \"Custom-Dex/dex.sol\":6392:6411  r * _amount / 10000 */\n      tag_123\n      swap2\n      swap1\n      tag_56\n      jump\t// in\n    tag_123:\n      sub(shl(0xa0, 0x01), 0x01)\n        /* \"Custom-Dex/dex.sol\":6472:6491  tokenBalances[from] */\n      dup1\n      dup9\n      and\n        /* \"Custom-Dex/dex.sol\":6421:6438  uint outputTokens */\n      0x00\n        /* \"Custom-Dex/dex.sol\":6472:6491  tokenBalances[from] */\n      swap1\n      dup2\n      mstore\n        /* \"Custom-Dex/dex.sol\":6472:6485  tokenBalances */\n      0x04\n        /* \"Custom-Dex/dex.sol\":6472:6491  tokenBalances[from] */\n      0x20\n      mstore\n      0x40\n      dup1\n      dup3\n      keccak256\n      sload\n        /* \"Custom-Dex/dex.sol\":6441:6458  tokenBalances[to] */\n      swap3\n      dup10\n      and\n      dup3\n      mstore\n      dup2\n      keccak256\n      sload\n        /* \"Custom-Dex/dex.sol\":6376:6411  uint amountIn = r * _amount / 10000 */\n      swap3\n      swap4\n      pop\n        /* \"Custom-Dex/dex.sol\":6421:6438  uint outputTokens */\n      swap2\n        /* \"Custom-Dex/dex.sol\":6376:6411  uint amountIn = r * _amount / 10000 */\n      dup4\n      swap2\n        /* \"Custom-Dex/dex.sol\":6472:6491  tokenBalances[from] */\n      swap1\n        /* \"Custom-Dex/dex.sol\":6441:6469  tokenBalances[to] * amountIn */\n      tag_124\n      swap1\n        /* \"Custom-Dex/dex.sol\":6376:6411  uint amountIn = r * _amount / 10000 */\n      dup4\n      swap1\n        /* \"Custom-Dex/dex.sol\":6441:6469  tokenBalances[to] * amountIn */\n      tag_54\n      jump\t// in\n    tag_124:\n        /* \"Custom-Dex/dex.sol\":6441:6491  tokenBalances[to] * amountIn / tokenBalances[from] */\n      tag_125\n      swap2\n      swap1\n      tag_56\n      jump\t// in\n    tag_125:\n        /* \"Custom-Dex/dex.sol\":6441:6502  tokenBalances[to] * amountIn / tokenBalances[from] + amountIn */\n      tag_126\n      swap2\n      swap1\n      tag_113\n      jump\t// in\n    tag_126:\n      sub(shl(0xa0, 0x01), 0x01)\n        /* \"Custom-Dex/dex.sol\":6512:6531  tokenBalances[from] */\n      dup9\n      and\n      0x00\n      swap1\n      dup2\n      mstore\n        /* \"Custom-Dex/dex.sol\":6512:6525  tokenBalances */\n      0x04\n        /* \"Custom-Dex/dex.sol\":6512:6531  tokenBalances[from] */\n      0x20\n      mstore\n      0x40\n      dup2\n      keccak256\n        /* \"Custom-Dex/dex.sol\":6512:6542  tokenBalances[from] += _amount */\n      dup1\n      sload\n        /* \"Custom-Dex/dex.sol\":6421:6502  uint outputTokens = tokenBalances[to] * amountIn / tokenBalances[from] + amountIn */\n      swap3\n      swap4\n      pop\n        /* \"Custom-Dex/dex.sol\":6535:6542  _amount */\n      dup8\n      swap3\n        /* \"Custom-Dex/dex.sol\":6512:6531  tokenBalances[from] */\n      swap1\n      swap2\n      swap1\n        /* \"Custom-Dex/dex.sol\":6512:6542  tokenBalances[from] += _amount */\n      tag_127\n      swap1\n        /* \"Custom-Dex/dex.sol\":6535:6542  _amount */\n      dup5\n      swap1\n        /* \"Custom-Dex/dex.sol\":6512:6542  tokenBalances[from] += _amount */\n      tag_113\n      jump\t// in\n    tag_127:\n      swap1\n      swap2\n      sstore\n      pop\n      pop\n      sub(shl(0xa0, 0x01), 0x01)\n        /* \"Custom-Dex/dex.sol\":6552:6569  tokenBalances[to] */\n      dup7\n      and\n      0x00\n      swap1\n      dup2\n      mstore\n        /* \"Custom-Dex/dex.sol\":6552:6565  tokenBalances */\n      0x04\n        /* \"Custom-Dex/dex.sol\":6552:6569  tokenBalances[to] */\n      0x20\n      mstore\n      0x40\n      dup2\n      keccak256\n        /* \"Custom-Dex/dex.sol\":6552:6585  tokenBalances[to] -= outputTokens */\n      dup1\n      sload\n        /* \"Custom-Dex/dex.sol\":6573:6585  outputTokens */\n      dup4\n      swap3\n        /* \"Custom-Dex/dex.sol\":6552:6569  tokenBalances[to] */\n      swap1\n        /* \"Custom-Dex/dex.sol\":6552:6585  tokenBalances[to] -= outputTokens */\n      tag_128\n      swap1\n        /* \"Custom-Dex/dex.sol\":6573:6585  outputTokens */\n      dup5\n      swap1\n        /* \"Custom-Dex/dex.sol\":6552:6585  tokenBalances[to] -= outputTokens */\n      tag_84\n      jump\t// in\n    tag_128:\n      swap1\n      swap2\n      sstore\n      pop\n      pop\n        /* \"Custom-Dex/dex.sol\":6603:6616  token0Address */\n      sload(0x06)\n        /* \"Custom-Dex/dex.sol\":6603:6665  token0Address.transferFrom(msg.sender, address(this), _amount) */\n      mload(0x40)\n      shl(0xe0, 0x23b872dd)\n      dup2\n      mstore\n        /* \"Custom-Dex/dex.sol\":6630:6640  msg.sender */\n      caller\n        /* \"Custom-Dex/dex.sol\":6603:6665  token0Address.transferFrom(msg.sender, address(this), _amount) */\n      0x04\n      dup3\n      add\n        /* \"#utility.yul\":3966:4000   */\n      mstore\n        /* \"Custom-Dex/dex.sol\":6650:6654  this */\n      address\n        /* \"#utility.yul\":4016:4034   */\n      0x24\n      dup3\n      add\n        /* \"#utility.yul\":4009:4052   */\n      mstore\n        /* \"#utility.yul\":4068:4086   */\n      0x44\n      dup2\n      add\n        /* \"#utility.yul\":4061:4095   */\n      dup8\n      swap1\n      mstore\n      sub(shl(0xa0, 0x01), 0x01)\n        /* \"Custom-Dex/dex.sol\":6603:6616  token0Address */\n      swap1\n      swap2\n      and\n      swap1\n        /* \"Custom-Dex/dex.sol\":6603:6629  token0Address.transferFrom */\n      0x23b872dd\n      swap1\n        /* \"#utility.yul\":3901:3919   */\n      0x64\n      add\n        /* \"Custom-Dex/dex.sol\":6603:6665  token0Address.transferFrom(msg.sender, address(this), _amount) */\n      0x20\n      mload(0x40)\n      dup1\n      dup4\n      sub\n      dup2\n      0x00\n      dup8\n      gas\n      call\n      iszero\n      dup1\n      iszero\n      tag_131\n      jumpi\n      returndatasize\n      0x00\n      dup1\n      returndatacopy\n      revert(0x00, returndatasize)\n    tag_131:\n      pop\n      pop\n      pop\n      pop\n      mload(0x40)\n      returndatasize\n      not(0x1f)\n      0x1f\n      dup3\n      add\n      and\n      dup3\n      add\n      dup1\n      0x40\n      mstore\n      pop\n      dup2\n      add\n      swap1\n      tag_132\n      swap2\n      swap1\n      tag_63\n      jump\t// in\n    tag_132:\n        /* \"Custom-Dex/dex.sol\":6595:6685  require(token0Address.transferFrom(msg.sender, address(this), _amount), \"Transfer Failed\") */\n      tag_133\n      jumpi\n      mload(0x40)\n      shl(0xe5, 0x461bcd)\n      dup2\n      mstore\n        /* \"#utility.yul\":7366:7368   */\n      0x20\n        /* \"Custom-Dex/dex.sol\":6595:6685  require(token0Address.transferFrom(msg.sender, address(this), _amount), \"Transfer Failed\") */\n      0x04\n      dup3\n      add\n        /* \"#utility.yul\":7348:7369   */\n      mstore\n        /* \"#utility.yul\":7405:7407   */\n      0x0f\n        /* \"#utility.yul\":7385:7403   */\n      0x24\n      dup3\n      add\n        /* \"#utility.yul\":7378:7408   */\n      mstore\n      shl(0x8a, 0x151c985b9cd9995c8811985a5b1959)\n        /* \"#utility.yul\":7424:7442   */\n      0x44\n      dup3\n      add\n        /* \"#utility.yul\":7417:7462   */\n      mstore\n        /* \"#utility.yul\":7479:7497   */\n      0x64\n      add\n        /* \"Custom-Dex/dex.sol\":6595:6685  require(token0Address.transferFrom(msg.sender, address(this), _amount), \"Transfer Failed\") */\n      tag_51\n        /* \"#utility.yul\":7164:7503   */\n      jump\n        /* \"Custom-Dex/dex.sol\":6595:6685  require(token0Address.transferFrom(msg.sender, address(this), _amount), \"Transfer Failed\") */\n    tag_133:\n        /* \"Custom-Dex/dex.sol\":6703:6716  token1Address */\n      sload(0x07)\n        /* \"Custom-Dex/dex.sol\":6703:6751  token1Address.transfer(msg.sender, outputTokens) */\n      mload(0x40)\n      shl(0xe0, 0xa9059cbb)\n      dup2\n      mstore\n        /* \"Custom-Dex/dex.sol\":6726:6736  msg.sender */\n      caller\n        /* \"Custom-Dex/dex.sol\":6703:6751  token1Address.transfer(msg.sender, outputTokens) */\n      0x04\n      dup3\n      add\n        /* \"#utility.yul\":5809:5860   */\n      mstore\n        /* \"#utility.yul\":5876:5894   */\n      0x24\n      dup2\n      add\n        /* \"#utility.yul\":5869:5903   */\n      dup4\n      swap1\n      mstore\n      sub(shl(0xa0, 0x01), 0x01)\n        /* \"Custom-Dex/dex.sol\":6703:6716  token1Address */\n      swap1\n      swap2\n      and\n      swap1\n        /* \"Custom-Dex/dex.sol\":6703:6725  token1Address.transfer */\n      0xa9059cbb\n      swap1\n        /* \"#utility.yul\":5782:5800   */\n      0x44\n      add\n        /* \"Custom-Dex/dex.sol\":6703:6751  token1Address.transfer(msg.sender, outputTokens) */\n      0x20\n      mload(0x40)\n      dup1\n      dup4\n      sub\n      dup2\n      0x00\n      dup8\n      gas\n      call\n      iszero\n      dup1\n      iszero\n      tag_138\n      jumpi\n      returndatasize\n      0x00\n      dup1\n      returndatacopy\n      revert(0x00, returndatasize)\n    tag_138:\n      pop\n      pop\n      pop\n      pop\n      mload(0x40)\n      returndatasize\n      not(0x1f)\n      0x1f\n      dup3\n      add\n      and\n      dup3\n      add\n      dup1\n      0x40\n      mstore\n      pop\n      dup2\n      add\n      swap1\n      tag_139\n      swap2\n      swap1\n      tag_63\n      jump\t// in\n    tag_139:\n        /* \"Custom-Dex/dex.sol\":6695:6771  require(token1Address.transfer(msg.sender, outputTokens), \"Transfer Failed\") */\n      tag_140\n      jumpi\n      mload(0x40)\n      shl(0xe5, 0x461bcd)\n      dup2\n      mstore\n        /* \"#utility.yul\":7366:7368   */\n      0x20\n        /* \"Custom-Dex/dex.sol\":6695:6771  require(token1Address.transfer(msg.sender, outputTokens), \"Transfer Failed\") */\n      0x04\n      dup3\n      add\n        /* \"#utility.yul\":7348:7369   */\n      mstore\n        /* \"#utility.yul\":7405:7407   */\n      0x0f\n        /* \"#utility.yul\":7385:7403   */\n      0x24\n      dup3\n      add\n        /* \"#utility.yul\":7378:7408   */\n      mstore\n      shl(0x8a, 0x151c985b9cd9995c8811985a5b1959)\n        /* \"#utility.yul\":7424:7442   */\n      0x44\n      dup3\n      add\n        /* \"#utility.yul\":7417:7462   */\n      mstore\n        /* \"#utility.yul\":7479:7497   */\n      0x64\n      add\n        /* \"Custom-Dex/dex.sol\":6695:6771  require(token1Address.transfer(msg.sender, outputTokens), \"Transfer Failed\") */\n      tag_51\n        /* \"#utility.yul\":7164:7503   */\n      jump\n        /* \"Custom-Dex/dex.sol\":6695:6771  require(token1Address.transfer(msg.sender, outputTokens), \"Transfer Failed\") */\n    tag_140:\n        /* \"Custom-Dex/dex.sol\":6781:6809  return(\"Swapping Completed\") */\n      mload(0x40)\n      dup1\n      0x40\n      add\n      0x40\n      mstore\n      dup1\n      0x12\n      dup2\n      mstore\n      0x20\n      add\n      shl(0x72, 0x14ddd85c1c1a5b99c810dbdb5c1b195d1959)\n      dup2\n      mstore\n      pop\n      swap4\n      pop\n      pop\n      pop\n      pop\n        /* \"@openzeppelin/contracts/security/ReentrancyGuard.sol\":2303:2323  _nonReentrantAfter() */\n      tag_142\n        /* \"@openzeppelin/contracts/security/ReentrancyGuard.sol\":1716:1717  1 */\n      0x01\n        /* \"@openzeppelin/contracts/security/ReentrancyGuard.sol\":2809:2816  _status */\n      0x00\n        /* \"@openzeppelin/contracts/security/ReentrancyGuard.sol\":2809:2831  _status = _NOT_ENTERED */\n      sstore\n        /* \"@openzeppelin/contracts/security/ReentrancyGuard.sol\":2629:2838  function _nonReentrantAfter() private {... */\n      jump\n        /* \"@openzeppelin/contracts/security/ReentrancyGuard.sol\":2303:2323  _nonReentrantAfter() */\n    tag_142:\n        /* \"Custom-Dex/dex.sol\":6113:6816  function swap(... */\n      swap4\n      swap3\n      pop\n      pop\n      pop\n      jump\t// out\n        /* \"@openzeppelin/contracts/security/ReentrancyGuard.sol\":2336:2623  function _nonReentrantBefore() private {... */\n    tag_119:\n        /* \"@openzeppelin/contracts/security/ReentrancyGuard.sol\":1759:1760  2 */\n      0x02\n        /* \"@openzeppelin/contracts/security/ReentrancyGuard.sol\":2468:2475  _status */\n      sload(0x00)\n        /* \"@openzeppelin/contracts/security/ReentrancyGuard.sol\":2468:2487  _status != _ENTERED */\n      sub\n        /* \"@openzeppelin/contracts/security/ReentrancyGuard.sol\":2460:2523  require(_status != _ENTERED, \"ReentrancyGuard: reentrant call\") */\n      tag_145\n      jumpi\n      mload(0x40)\n      shl(0xe5, 0x461bcd)\n      dup2\n      mstore\n        /* \"#utility.yul\":7710:7712   */\n      0x20\n        /* \"@openzeppelin/contracts/security/ReentrancyGuard.sol\":2460:2523  require(_status != _ENTERED, \"ReentrancyGuard: reentrant call\") */\n      0x04\n      dup3\n      add\n        /* \"#utility.yul\":7692:7713   */\n      mstore\n        /* \"#utility.yul\":7749:7751   */\n      0x1f\n        /* \"#utility.yul\":7729:7747   */\n      0x24\n      dup3\n      add\n        /* \"#utility.yul\":7722:7752   */\n      mstore\n        /* \"#utility.yul\":7788:7821   */\n      0x5265656e7472616e637947756172643a207265656e7472616e742063616c6c00\n        /* \"#utility.yul\":7768:7786   */\n      0x44\n      dup3\n      add\n        /* \"#utility.yul\":7761:7822   */\n      mstore\n        /* \"#utility.yul\":7839:7857   */\n      0x64\n      add\n        /* \"@openzeppelin/contracts/security/ReentrancyGuard.sol\":2460:2523  require(_status != _ENTERED, \"ReentrancyGuard: reentrant call\") */\n      tag_51\n        /* \"#utility.yul\":7508:7863   */\n      jump\n        /* \"@openzeppelin/contracts/security/ReentrancyGuard.sol\":2460:2523  require(_status != _ENTERED, \"ReentrancyGuard: reentrant call\") */\n    tag_145:\n        /* \"@openzeppelin/contracts/security/ReentrancyGuard.sol\":1759:1760  2 */\n      0x02\n        /* \"@openzeppelin/contracts/security/ReentrancyGuard.sol\":2598:2605  _status */\n      0x00\n        /* \"@openzeppelin/contracts/security/ReentrancyGuard.sol\":2598:2616  _status = _ENTERED */\n      sstore\n        /* \"@openzeppelin/contracts/security/ReentrancyGuard.sol\":2336:2623  function _nonReentrantBefore() private {... */\n      jump\t// out\n        /* \"#utility.yul\":14:187   */\n    tag_149:\n        /* \"#utility.yul\":82:102   */\n      dup1\n      calldataload\n      sub(shl(0xa0, 0x01), 0x01)\n        /* \"#utility.yul\":131:162   */\n      dup2\n      and\n        /* \"#utility.yul\":121:163   */\n      dup2\n      eq\n        /* \"#utility.yul\":111:181   */\n      tag_154\n      jumpi\n        /* \"#utility.yul\":177:178   */\n      0x00\n        /* \"#utility.yul\":174:175   */\n      dup1\n        /* \"#utility.yul\":167:179   */\n      revert\n        /* \"#utility.yul\":111:181   */\n    tag_154:\n        /* \"#utility.yul\":14:187   */\n      swap2\n      swap1\n      pop\n      jump\t// out\n        /* \"#utility.yul\":192:452   */\n    tag_14:\n        /* \"#utility.yul\":260:266   */\n      0x00\n        /* \"#utility.yul\":268:274   */\n      dup1\n        /* \"#utility.yul\":321:323   */\n      0x40\n        /* \"#utility.yul\":309:318   */\n      dup4\n        /* \"#utility.yul\":300:307   */\n      dup6\n        /* \"#utility.yul\":296:319   */\n      sub\n        /* \"#utility.yul\":292:324   */\n      slt\n        /* \"#utility.yul\":289:341   */\n      iszero\n      tag_156\n      jumpi\n        /* \"#utility.yul\":337:338   */\n      0x00\n        /* \"#utility.yul\":334:335   */\n      dup1\n        /* \"#utility.yul\":327:339   */\n      revert\n        /* \"#utility.yul\":289:341   */\n    tag_156:\n        /* \"#utility.yul\":360:389   */\n      tag_157\n        /* \"#utility.yul\":379:388   */\n      dup4\n        /* \"#utility.yul\":360:389   */\n      tag_149\n      jump\t// in\n    tag_157:\n        /* \"#utility.yul\":350:389   */\n      swap2\n      pop\n        /* \"#utility.yul\":408:446   */\n      tag_158\n        /* \"#utility.yul\":442:444   */\n      0x20\n        /* \"#utility.yul\":431:440   */\n      dup5\n        /* \"#utility.yul\":427:445   */\n      add\n        /* \"#utility.yul\":408:446   */\n      tag_149\n      jump\t// in\n    tag_158:\n        /* \"#utility.yul\":398:446   */\n      swap1\n      pop\n        /* \"#utility.yul\":192:452   */\n      swap3\n      pop\n      swap3\n      swap1\n      pop\n      jump\t// out\n        /* \"#utility.yul\":639:887   */\n    tag_20:\n        /* \"#utility.yul\":707:713   */\n      0x00\n        /* \"#utility.yul\":715:721   */\n      dup1\n        /* \"#utility.yul\":768:770   */\n      0x40\n        /* \"#utility.yul\":756:765   */\n      dup4\n        /* \"#utility.yul\":747:754   */\n      dup6\n        /* \"#utility.yul\":743:766   */\n      sub\n        /* \"#utility.yul\":739:771   */\n      slt\n        /* \"#utility.yul\":736:788   */\n      iszero\n      tag_161\n      jumpi\n        /* \"#utility.yul\":784:785   */\n      0x00\n        /* \"#utility.yul\":781:782   */\n      dup1\n        /* \"#utility.yul\":774:786   */\n      revert\n        /* \"#utility.yul\":736:788   */\n    tag_161:\n      pop\n      pop\n        /* \"#utility.yul\":807:830   */\n      dup1\n      calldataload\n      swap3\n        /* \"#utility.yul\":877:879   */\n      0x20\n        /* \"#utility.yul\":862:880   */\n      swap1\n      swap2\n      add\n        /* \"#utility.yul\":849:881   */\n      calldataload\n      swap2\n      pop\n        /* \"#utility.yul\":639:887   */\n      jump\t// out\n        /* \"#utility.yul\":1113:1510   */\n    tag_28:\n        /* \"#utility.yul\":1199:1205   */\n      0x00\n        /* \"#utility.yul\":1207:1213   */\n      dup1\n        /* \"#utility.yul\":1215:1221   */\n      0x00\n        /* \"#utility.yul\":1223:1229   */\n      dup1\n        /* \"#utility.yul\":1276:1279   */\n      0x80\n        /* \"#utility.yul\":1264:1273   */\n      dup6\n        /* \"#utility.yul\":1255:1262   */\n      dup8\n        /* \"#utility.yul\":1251:1274   */\n      sub\n        /* \"#utility.yul\":1247:1280   */\n      slt\n        /* \"#utility.yul\":1244:1297   */\n      iszero\n      tag_164\n      jumpi\n        /* \"#utility.yul\":1293:1294   */\n      0x00\n        /* \"#utility.yul\":1290:1291   */\n      dup1\n        /* \"#utility.yul\":1283:1295   */\n      revert\n        /* \"#utility.yul\":1244:1297   */\n    tag_164:\n        /* \"#utility.yul\":1316:1345   */\n      tag_165\n        /* \"#utility.yul\":1335:1344   */\n      dup6\n        /* \"#utility.yul\":1316:1345   */\n      tag_149\n      jump\t// in\n    tag_165:\n        /* \"#utility.yul\":1306:1345   */\n      swap4\n      pop\n        /* \"#utility.yul\":1364:1402   */\n      tag_166\n        /* \"#utility.yul\":1398:1400   */\n      0x20\n        /* \"#utility.yul\":1387:1396   */\n      dup7\n        /* \"#utility.yul\":1383:1401   */\n      add\n        /* \"#utility.yul\":1364:1402   */\n      tag_149\n      jump\t// in\n    tag_166:\n        /* \"#utility.yul\":1113:1510   */\n      swap4\n      swap7\n        /* \"#utility.yul\":1354:1402   */\n      swap4\n      swap6\n      pop\n      pop\n      pop\n      pop\n        /* \"#utility.yul\":1449:1451   */\n      0x40\n        /* \"#utility.yul\":1434:1452   */\n      dup3\n      add\n        /* \"#utility.yul\":1421:1453   */\n      calldataload\n      swap2\n        /* \"#utility.yul\":1500:1502   */\n      0x60\n        /* \"#utility.yul\":1485:1503   */\n      add\n        /* \"#utility.yul\":1472:1504   */\n      calldataload\n      swap1\n        /* \"#utility.yul\":1113:1510   */\n      jump\t// out\n        /* \"#utility.yul\":1515:1938   */\n    tag_150:\n        /* \"#utility.yul\":1557:1560   */\n      0x00\n        /* \"#utility.yul\":1595:1600   */\n      dup2\n        /* \"#utility.yul\":1589:1601   */\n      mload\n        /* \"#utility.yul\":1622:1628   */\n      dup1\n        /* \"#utility.yul\":1617:1620   */\n      dup5\n        /* \"#utility.yul\":1610:1629   */\n      mstore\n        /* \"#utility.yul\":1647:1648   */\n      0x00\n        /* \"#utility.yul\":1657:1819   */\n    tag_168:\n        /* \"#utility.yul\":1671:1677   */\n      dup2\n        /* \"#utility.yul\":1668:1669   */\n      dup2\n        /* \"#utility.yul\":1665:1678   */\n      lt\n        /* \"#utility.yul\":1657:1819   */\n      iszero\n      tag_170\n      jumpi\n        /* \"#utility.yul\":1733:1737   */\n      0x20\n        /* \"#utility.yul\":1789:1802   */\n      dup2\n      dup6\n      add\n        /* \"#utility.yul\":1785:1807   */\n      dup2\n      add\n        /* \"#utility.yul\":1779:1808   */\n      mload\n        /* \"#utility.yul\":1761:1772   */\n      dup7\n      dup4\n      add\n        /* \"#utility.yul\":1757:1777   */\n      dup3\n      add\n        /* \"#utility.yul\":1750:1809   */\n      mstore\n        /* \"#utility.yul\":1686:1698   */\n      add\n        /* \"#utility.yul\":1657:1819   */\n      jump(tag_168)\n    tag_170:\n        /* \"#utility.yul\":1661:1664   */\n      pop\n        /* \"#utility.yul\":1864:1865   */\n      0x00\n        /* \"#utility.yul\":1857:1861   */\n      0x20\n        /* \"#utility.yul\":1848:1854   */\n      dup3\n        /* \"#utility.yul\":1843:1846   */\n      dup7\n        /* \"#utility.yul\":1839:1855   */\n      add\n        /* \"#utility.yul\":1835:1862   */\n      add\n        /* \"#utility.yul\":1828:1866   */\n      mstore\n        /* \"#utility.yul\":1927:1931   */\n      0x20\n        /* \"#utility.yul\":1920:1922   */\n      0x1f\n        /* \"#utility.yul\":1916:1923   */\n      not\n        /* \"#utility.yul\":1911:1913   */\n      0x1f\n        /* \"#utility.yul\":1903:1909   */\n      dup4\n        /* \"#utility.yul\":1899:1914   */\n      add\n        /* \"#utility.yul\":1895:1924   */\n      and\n        /* \"#utility.yul\":1890:1893   */\n      dup6\n        /* \"#utility.yul\":1886:1925   */\n      add\n        /* \"#utility.yul\":1882:1932   */\n      add\n        /* \"#utility.yul\":1875:1932   */\n      swap2\n      pop\n      pop\n        /* \"#utility.yul\":1515:1938   */\n      swap3\n      swap2\n      pop\n      pop\n      jump\t// out\n        /* \"#utility.yul\":1943:2234   */\n    tag_38:\n        /* \"#utility.yul\":2120:2122   */\n      0x40\n        /* \"#utility.yul\":2109:2118   */\n      dup2\n        /* \"#utility.yul\":2102:2123   */\n      mstore\n        /* \"#utility.yul\":2083:2087   */\n      0x00\n        /* \"#utility.yul\":2140:2185   */\n      tag_172\n        /* \"#utility.yul\":2181:2183   */\n      0x40\n        /* \"#utility.yul\":2170:2179   */\n      dup4\n        /* \"#utility.yul\":2166:2184   */\n      add\n        /* \"#utility.yul\":2158:2164   */\n      dup6\n        /* \"#utility.yul\":2140:2185   */\n      tag_150\n      jump\t// in\n    tag_172:\n        /* \"#utility.yul\":2132:2185   */\n      swap1\n      pop\n        /* \"#utility.yul\":2221:2227   */\n      dup3\n        /* \"#utility.yul\":2216:2218   */\n      0x20\n        /* \"#utility.yul\":2205:2214   */\n      dup4\n        /* \"#utility.yul\":2201:2219   */\n      add\n        /* \"#utility.yul\":2194:2228   */\n      mstore\n        /* \"#utility.yul\":1943:2234   */\n      swap4\n      swap3\n      pop\n      pop\n      pop\n      jump\t// out\n        /* \"#utility.yul\":2239:2567   */\n    tag_44:\n        /* \"#utility.yul\":2316:2322   */\n      0x00\n        /* \"#utility.yul\":2324:2330   */\n      dup1\n        /* \"#utility.yul\":2332:2338   */\n      0x00\n        /* \"#utility.yul\":2385:2387   */\n      0x60\n        /* \"#utility.yul\":2373:2382   */\n      dup5\n        /* \"#utility.yul\":2364:2371   */\n      dup7\n        /* \"#utility.yul\":2360:2383   */\n      sub\n        /* \"#utility.yul\":2356:2388   */\n      slt\n        /* \"#utility.yul\":2353:2405   */\n      iszero\n      tag_174\n      jumpi\n        /* \"#utility.yul\":2401:2402   */\n      0x00\n        /* \"#utility.yul\":2398:2399   */\n      dup1\n        /* \"#utility.yul\":2391:2403   */\n      revert\n        /* \"#utility.yul\":2353:2405   */\n    tag_174:\n        /* \"#utility.yul\":2424:2453   */\n      tag_175\n        /* \"#utility.yul\":2443:2452   */\n      dup5\n        /* \"#utility.yul\":2424:2453   */\n      tag_149\n      jump\t// in\n    tag_175:\n        /* \"#utility.yul\":2414:2453   */\n      swap3\n      pop\n        /* \"#utility.yul\":2472:2510   */\n      tag_176\n        /* \"#utility.yul\":2506:2508   */\n      0x20\n        /* \"#utility.yul\":2495:2504   */\n      dup6\n        /* \"#utility.yul\":2491:2509   */\n      add\n        /* \"#utility.yul\":2472:2510   */\n      tag_149\n      jump\t// in\n    tag_176:\n        /* \"#utility.yul\":2462:2510   */\n      swap2\n      pop\n        /* \"#utility.yul\":2557:2559   */\n      0x40\n        /* \"#utility.yul\":2546:2555   */\n      dup5\n        /* \"#utility.yul\":2542:2560   */\n      add\n        /* \"#utility.yul\":2529:2561   */\n      calldataload\n        /* \"#utility.yul\":2519:2561   */\n      swap1\n      pop\n        /* \"#utility.yul\":2239:2567   */\n      swap3\n      pop\n      swap3\n      pop\n      swap3\n      jump\t// out\n        /* \"#utility.yul\":2572:2792   */\n    tag_47:\n        /* \"#utility.yul\":2721:2723   */\n      0x20\n        /* \"#utility.yul\":2710:2719   */\n      dup2\n        /* \"#utility.yul\":2703:2724   */\n      mstore\n        /* \"#utility.yul\":2684:2688   */\n      0x00\n        /* \"#utility.yul\":2741:2786   */\n      tag_55\n        /* \"#utility.yul\":2782:2784   */\n      0x20\n        /* \"#utility.yul\":2771:2780   */\n      dup4\n        /* \"#utility.yul\":2767:2785   */\n      add\n        /* \"#utility.yul\":2759:2765   */\n      dup5\n        /* \"#utility.yul\":2741:2786   */\n      tag_150\n      jump\t// in\n        /* \"#utility.yul\":3199:3326   */\n    tag_151:\n        /* \"#utility.yul\":3260:3270   */\n      0x4e487b71\n        /* \"#utility.yul\":3255:3258   */\n      0xe0\n        /* \"#utility.yul\":3251:3271   */\n      shl\n        /* \"#utility.yul\":3248:3249   */\n      0x00\n        /* \"#utility.yul\":3241:3272   */\n      mstore\n        /* \"#utility.yul\":3291:3295   */\n      0x11\n        /* \"#utility.yul\":3288:3289   */\n      0x04\n        /* \"#utility.yul\":3281:3296   */\n      mstore\n        /* \"#utility.yul\":3315:3319   */\n      0x24\n        /* \"#utility.yul\":3312:3313   */\n      0x00\n        /* \"#utility.yul\":3305:3320   */\n      revert\n        /* \"#utility.yul\":3331:3499   */\n    tag_54:\n        /* \"#utility.yul\":3404:3413   */\n      dup1\n      dup3\n      mul\n        /* \"#utility.yul\":3435:3444   */\n      dup2\n      iszero\n        /* \"#utility.yul\":3452:3467   */\n      dup3\n      dup3\n      div\n        /* \"#utility.yul\":3446:3468   */\n      dup5\n      eq\n        /* \"#utility.yul\":3432:3469   */\n      or\n        /* \"#utility.yul\":3422:3493   */\n      tag_48\n      jumpi\n        /* \"#utility.yul\":3473:3491   */\n      tag_48\n      tag_151\n      jump\t// in\n        /* \"#utility.yul\":3504:3721   */\n    tag_56:\n        /* \"#utility.yul\":3544:3545   */\n      0x00\n        /* \"#utility.yul\":3570:3571   */\n      dup3\n        /* \"#utility.yul\":3560:3692   */\n      tag_185\n      jumpi\n        /* \"#utility.yul\":3614:3624   */\n      0x4e487b71\n        /* \"#utility.yul\":3609:3612   */\n      0xe0\n        /* \"#utility.yul\":3605:3625   */\n      shl\n        /* \"#utility.yul\":3602:3603   */\n      0x00\n        /* \"#utility.yul\":3595:3626   */\n      mstore\n        /* \"#utility.yul\":3649:3653   */\n      0x12\n        /* \"#utility.yul\":3646:3647   */\n      0x04\n        /* \"#utility.yul\":3639:3654   */\n      mstore\n        /* \"#utility.yul\":3677:3681   */\n      0x24\n        /* \"#utility.yul\":3674:3675   */\n      0x00\n        /* \"#utility.yul\":3667:3682   */\n      revert\n        /* \"#utility.yul\":3560:3692   */\n    tag_185:\n      pop\n        /* \"#utility.yul\":3706:3715   */\n      div\n      swap1\n        /* \"#utility.yul\":3504:3721   */\n      jump\t// out\n        /* \"#utility.yul\":4106:4383   */\n    tag_63:\n        /* \"#utility.yul\":4173:4179   */\n      0x00\n        /* \"#utility.yul\":4226:4228   */\n      0x20\n        /* \"#utility.yul\":4214:4223   */\n      dup3\n        /* \"#utility.yul\":4205:4212   */\n      dup5\n        /* \"#utility.yul\":4201:4224   */\n      sub\n        /* \"#utility.yul\":4197:4229   */\n      slt\n        /* \"#utility.yul\":4194:4246   */\n      iszero\n      tag_188\n      jumpi\n        /* \"#utility.yul\":4242:4243   */\n      0x00\n        /* \"#utility.yul\":4239:4240   */\n      dup1\n        /* \"#utility.yul\":4232:4244   */\n      revert\n        /* \"#utility.yul\":4194:4246   */\n    tag_188:\n        /* \"#utility.yul\":4274:4283   */\n      dup2\n        /* \"#utility.yul\":4268:4284   */\n      mload\n        /* \"#utility.yul\":4327:4332   */\n      dup1\n        /* \"#utility.yul\":4320:4333   */\n      iszero\n        /* \"#utility.yul\":4313:4334   */\n      iszero\n        /* \"#utility.yul\":4306:4311   */\n      dup2\n        /* \"#utility.yul\":4303:4335   */\n      eq\n        /* \"#utility.yul\":4293:4353   */\n      tag_142\n      jumpi\n        /* \"#utility.yul\":4349:4350   */\n      0x00\n        /* \"#utility.yul\":4346:4347   */\n      dup1\n        /* \"#utility.yul\":4339:4351   */\n      revert\n        /* \"#utility.yul\":5502:5630   */\n    tag_84:\n        /* \"#utility.yul\":5569:5578   */\n      dup2\n      dup2\n      sub\n        /* \"#utility.yul\":5590:5601   */\n      dup2\n      dup2\n      gt\n        /* \"#utility.yul\":5587:5624   */\n      iszero\n      tag_48\n      jumpi\n        /* \"#utility.yul\":5604:5622   */\n      tag_48\n      tag_151\n      jump\t// in\n        /* \"#utility.yul\":7034:7159   */\n    tag_113:\n        /* \"#utility.yul\":7099:7108   */\n      dup1\n      dup3\n      add\n        /* \"#utility.yul\":7120:7130   */\n      dup1\n      dup3\n      gt\n        /* \"#utility.yul\":7117:7153   */\n      iszero\n      tag_48\n      jumpi\n        /* \"#utility.yul\":7133:7151   */\n      tag_48\n      tag_151\n      jump\t// in\n    stop\n    data_b258cbd7fddccbc685dbfe29662d719d96f9b09e5e29d49e6b7e7a265b02d4ef 4c7020746f6b656e2062616c616e636520772e722e74206164646564206c6971756964697479\n\n    auxdata: 0xa2646970667358221220dac87011e71bed28fcf6026a0dc755d312de734bcf823b344d3922822d8b9c4b64736f6c63430008140033\n}\n",
				"bytecode": {
					"linkReferences": {},
					"object": "6080604052683635c9adc5dea00000600155600360025534801561002257600080fd5b50604051610eb9380380610eb983398101604081905261004191610093565b6001600055600680546001600160a01b039384166001600160a01b031991821617909155600780549290931691161790556100c6565b80516001600160a01b038116811461008e57600080fd5b919050565b600080604083850312156100a657600080fd5b6100af83610077565b91506100bd60208401610077565b90509250929050565b610de4806100d56000396000f3fe608060405234801561001057600080fd5b50600436106100885760003560e01c80639cf38f7c1161005b5780639cf38f7c14610141578063cf6c62ea14610154578063d7cb416f14610175578063df791e501461018857600080fd5b806315e84af91461008d5780632e760746146100b35780637ff36fbe146100c8578063884db063146100f3575b600080fd5b6100a061009b366004610ba3565b6101a8565b6040519081526020015b60405180910390f35b6100c66100c1366004610bd6565b610289565b005b6006546100db906001600160a01b031681565b6040516001600160a01b0390911681526020016100aa565b6100c6610101366004610bf8565b6001600160a01b03938416600090815260046020908152604080832094909455939094168452818420556001543384526005909252909120819055600355565b6100a061014f366004610ba3565b61041b565b610167610162366004610bf8565b610700565b6040516100aa929190610c80565b6007546100db906001600160a01b031681565b61019b610196366004610ca2565b6108a2565b6040516100aa9190610cde565b6001600160a01b038216600090815260046020526040812054158015906101e657506001600160a01b03821660009081526004602052604090205415155b6102415760405162461bcd60e51b815260206004820152602160248201527f20546f6b656e2062616c616e6365206d757374206265206e6f6e202d207a65726044820152606f60f81b60648201526084015b60405180910390fd5b6001600160a01b0380831660009081526004602052604080822054928616825290205461027690670de0b6b3a7640000610d07565b6102809190610d1e565b90505b92915050565b6006546040516323b872dd60e01b8152336004820152306024820152604481018490526001600160a01b03909116906323b872dd906064016020604051808303816000875af11580156102e0573d6000803e3d6000fd5b505050506040513d601f19601f820116820180604052508101906103049190610d40565b6103505760405162461bcd60e51b815260206004820152601960248201527f5472616e73666572206f6620746f6b656e30204661696c6564000000000000006044820152606401610238565b6007546040516323b872dd60e01b8152336004820152306024820152604481018390526001600160a01b03909116906323b872dd906064016020604051808303816000875af11580156103a7573d6000803e3d6000fd5b505050506040513d601f19601f820116820180604052508101906103cb9190610d40565b6104175760405162461bcd60e51b815260206004820152601960248201527f5472616e73666572206f6620746f6b656e31204661696c6564000000000000006044820152606401610238565b5050565b33600090815260056020526040812054806104865760405162461bcd60e51b815260206004820152602560248201527f4e6f206c6971756964697479207761732070726f766964656420627920746865604482015264103ab9b2b960d91b6064820152608401610238565b6003546001600160a01b0385166000908152600460205260408120549091906104af9084610d07565b6104b99190610d1e565b6003546001600160a01b038616600090815260046020526040812054929350916104e39085610d07565b6104ed9190610d1e565b3360009081526005602090815260408083208390556001600160a01b038a168352600490915281208054929350849290919061052a908490610d62565b90915550506001600160a01b03851660009081526004602052604081208054839290610557908490610d62565b9250508190555082600360008282546105709190610d62565b909155505060065460405163a9059cbb60e01b8152336004820152602481018490526001600160a01b039091169063a9059cbb906044016020604051808303816000875af11580156105c6573d6000803e3d6000fd5b505050506040513d601f19601f820116820180604052508101906105ea9190610d40565b6106365760405162461bcd60e51b815260206004820152601a60248201527f5472616e736665722020746f6b656e30206661696c65642021210000000000006044820152606401610238565b60075460405163a9059cbb60e01b8152336004820152602481018390526001600160a01b039091169063a9059cbb906044016020604051808303816000875af1158015610687573d6000803e3d6000fd5b505050506040513d601f19601f820116820180604052508101906106ab9190610d40565b6106f75760405162461bcd60e51b815260206004820152601a60248201527f5472616e736665722020746f6b656e31206661696c65642021210000000000006044820152606401610238565b50505092915050565b606060008061070f87876101a8565b905061072384670de0b6b3a7640000610d07565b61072d8683610d07565b1461078c5760405162461bcd60e51b815260206004820152602960248201527f206d75737420616464206c69717569646974792061742063757272656e742073604482015268706f7420707269636560b81b6064820152608401610238565b6107968585610289565b6001600160a01b03871660009081526004602052604081205460015490919082906107c19089610d07565b6107cb9190610d1e565b6001600160a01b038a166000908152600460205260408120805492935089929091906107f8908490610d75565b90915550506001600160a01b03881660009081526004602052604081208054889290610825908490610d75565b92505081905550806003600082825461083e9190610d75565b90915550503360009081526005602052604081208054839290610862908490610d75565b909155505033600090815260056020908152604091829020548251606081019093526026808452909291610d89908301399a909950975050505050505050565b60606108ac610b2e565b60006002546127106108be9190610d62565b905060006127106108cf8584610d07565b6108d99190610d1e565b6001600160a01b038088166000908152600460205260408082205492891682528120549293509183919061090e908390610d07565b6109189190610d1e565b6109229190610d75565b6001600160a01b03881660009081526004602052604081208054929350879290919061094f908490610d75565b90915550506001600160a01b0386166000908152600460205260408120805483929061097c908490610d62565b90915550506006546040516323b872dd60e01b8152336004820152306024820152604481018790526001600160a01b03909116906323b872dd906064016020604051808303816000875af11580156109d8573d6000803e3d6000fd5b505050506040513d601f19601f820116820180604052508101906109fc9190610d40565b610a3a5760405162461bcd60e51b815260206004820152600f60248201526e151c985b9cd9995c8811985a5b1959608a1b6044820152606401610238565b60075460405163a9059cbb60e01b8152336004820152602481018390526001600160a01b039091169063a9059cbb906044016020604051808303816000875af1158015610a8b573d6000803e3d6000fd5b505050506040513d601f19601f82011682018060405250810190610aaf9190610d40565b610aed5760405162461bcd60e51b815260206004820152600f60248201526e151c985b9cd9995c8811985a5b1959608a1b6044820152606401610238565b6040518060400160405280601281526020017114ddd85c1c1a5b99c810dbdb5c1b195d195960721b8152509350505050610b276001600055565b9392505050565b600260005403610b805760405162461bcd60e51b815260206004820152601f60248201527f5265656e7472616e637947756172643a207265656e7472616e742063616c6c006044820152606401610238565b6002600055565b80356001600160a01b0381168114610b9e57600080fd5b919050565b60008060408385031215610bb657600080fd5b610bbf83610b87565b9150610bcd60208401610b87565b90509250929050565b60008060408385031215610be957600080fd5b50508035926020909101359150565b60008060008060808587031215610c0e57600080fd5b610c1785610b87565b9350610c2560208601610b87565b93969395505050506040820135916060013590565b6000815180845260005b81811015610c6057602081850181015186830182015201610c44565b506000602082860101526020601f19601f83011685010191505092915050565b604081526000610c936040830185610c3a565b90508260208301529392505050565b600080600060608486031215610cb757600080fd5b610cc084610b87565b9250610cce60208501610b87565b9150604084013590509250925092565b6020815260006102806020830184610c3a565b634e487b7160e01b600052601160045260246000fd5b808202811582820484141761028357610283610cf1565b600082610d3b57634e487b7160e01b600052601260045260246000fd5b500490565b600060208284031215610d5257600080fd5b81518015158114610b2757600080fd5b8181038181111561028357610283610cf1565b8082018082111561028357610283610cf156fe4c7020746f6b656e2062616c616e636520772e722e74206164646564206c6971756964697479a2646970667358221220dac87011e71bed28fcf6026a0dc755d312de734bcf823b344d3922822d8b9c4b64736f6c63430008140033",
					"opcodes": "PUSH1 0x80 PUSH1 0x40 MSTORE PUSH9 0x3635C9ADC5DEA00000 PUSH1 0x1 SSTORE PUSH1 0x3 PUSH1 0x2 SSTORE CALLVALUE DUP1 ISZERO PUSH2 0x22 JUMPI PUSH1 0x0 DUP1 REVERT JUMPDEST POP PUSH1 0x40 MLOAD PUSH2 0xEB9 CODESIZE SUB DUP1 PUSH2 0xEB9 DUP4 CODECOPY DUP2 ADD PUSH1 0x40 DUP2 SWAP1 MSTORE PUSH2 0x41 SWAP2 PUSH2 0x93 JUMP JUMPDEST PUSH1 0x1 PUSH1 0x0 SSTORE PUSH1 0x6 DUP1 SLOAD PUSH1 0x1 PUSH1 0x1 PUSH1 0xA0 SHL SUB SWAP4 DUP5 AND PUSH1 0x1 PUSH1 0x1 PUSH1 0xA0 SHL SUB NOT SWAP2 DUP3 AND OR SWAP1 SWAP2 SSTORE PUSH1 0x7 DUP1 SLOAD SWAP3 SWAP1 SWAP4 AND SWAP2 AND OR SWAP1 SSTORE PUSH2 0xC6 JUMP JUMPDEST DUP1 MLOAD PUSH1 0x1 PUSH1 0x1 PUSH1 0xA0 SHL SUB DUP2 AND DUP2 EQ PUSH2 0x8E JUMPI PUSH1 0x0 DUP1 REVERT JUMPDEST SWAP2 SWAP1 POP JUMP JUMPDEST PUSH1 0x0 DUP1 PUSH1 0x40 DUP4 DUP6 SUB SLT ISZERO PUSH2 0xA6 JUMPI PUSH1 0x0 DUP1 REVERT JUMPDEST PUSH2 0xAF DUP4 PUSH2 0x77 JUMP JUMPDEST SWAP2 POP PUSH2 0xBD PUSH1 0x20 DUP5 ADD PUSH2 0x77 JUMP JUMPDEST SWAP1 POP SWAP3 POP SWAP3 SWAP1 POP JUMP JUMPDEST PUSH2 0xDE4 DUP1 PUSH2 0xD5 PUSH1 0x0 CODECOPY PUSH1 0x0 RETURN INVALID PUSH1 0x80 PUSH1 0x40 MSTORE CALLVALUE DUP1 ISZERO PUSH2 0x10 JUMPI PUSH1 0x0 DUP1 REVERT JUMPDEST POP PUSH1 0x4 CALLDATASIZE LT PUSH2 0x88 JUMPI PUSH1 0x0 CALLDATALOAD PUSH1 0xE0 SHR DUP1 PUSH4 0x9CF38F7C GT PUSH2 0x5B JUMPI DUP1 PUSH4 0x9CF38F7C EQ PUSH2 0x141 JUMPI DUP1 PUSH4 0xCF6C62EA EQ PUSH2 0x154 JUMPI DUP1 PUSH4 0xD7CB416F EQ PUSH2 0x175 JUMPI DUP1 PUSH4 0xDF791E50 EQ PUSH2 0x188 JUMPI PUSH1 0x0 DUP1 REVERT JUMPDEST DUP1 PUSH4 0x15E84AF9 EQ PUSH2 0x8D JUMPI DUP1 PUSH4 0x2E760746 EQ PUSH2 0xB3 JUMPI DUP1 PUSH4 0x7FF36FBE EQ PUSH2 0xC8 JUMPI DUP1 PUSH4 0x884DB063 EQ PUSH2 0xF3 JUMPI JUMPDEST PUSH1 0x0 DUP1 REVERT JUMPDEST PUSH2 0xA0 PUSH2 0x9B CALLDATASIZE PUSH1 0x4 PUSH2 0xBA3 JUMP JUMPDEST PUSH2 0x1A8 JUMP JUMPDEST PUSH1 0x40 MLOAD SWAP1 DUP2 MSTORE PUSH1 0x20 ADD JUMPDEST PUSH1 0x40 MLOAD DUP1 SWAP2 SUB SWAP1 RETURN JUMPDEST PUSH2 0xC6 PUSH2 0xC1 CALLDATASIZE PUSH1 0x4 PUSH2 0xBD6 JUMP JUMPDEST PUSH2 0x289 JUMP JUMPDEST STOP JUMPDEST PUSH1 0x6 SLOAD PUSH2 0xDB SWAP1 PUSH1 0x1 PUSH1 0x1 PUSH1 0xA0 SHL SUB AND DUP2 JUMP JUMPDEST PUSH1 0x40 MLOAD PUSH1 0x1 PUSH1 0x1 PUSH1 0xA0 SHL SUB SWAP1 SWAP2 AND DUP2 MSTORE PUSH1 0x20 ADD PUSH2 0xAA JUMP JUMPDEST PUSH2 0xC6 PUSH2 0x101 CALLDATASIZE PUSH1 0x4 PUSH2 0xBF8 JUMP JUMPDEST PUSH1 0x1 PUSH1 0x1 PUSH1 0xA0 SHL SUB SWAP4 DUP5 AND PUSH1 0x0 SWAP1 DUP2 MSTORE PUSH1 0x4 PUSH1 0x20 SWAP1 DUP2 MSTORE PUSH1 0x40 DUP1 DUP4 KECCAK256 SWAP5 SWAP1 SWAP5 SSTORE SWAP4 SWAP1 SWAP5 AND DUP5 MSTORE DUP2 DUP5 KECCAK256 SSTORE PUSH1 0x1 SLOAD CALLER DUP5 MSTORE PUSH1 0x5 SWAP1 SWAP3 MSTORE SWAP1 SWAP2 KECCAK256 DUP2 SWAP1 SSTORE PUSH1 0x3 SSTORE JUMP JUMPDEST PUSH2 0xA0 PUSH2 0x14F CALLDATASIZE PUSH1 0x4 PUSH2 0xBA3 JUMP JUMPDEST PUSH2 0x41B JUMP JUMPDEST PUSH2 0x167 PUSH2 0x162 CALLDATASIZE PUSH1 0x4 PUSH2 0xBF8 JUMP JUMPDEST PUSH2 0x700 JUMP JUMPDEST PUSH1 0x40 MLOAD PUSH2 0xAA SWAP3 SWAP2 SWAP1 PUSH2 0xC80 JUMP JUMPDEST PUSH1 0x7 SLOAD PUSH2 0xDB SWAP1 PUSH1 0x1 PUSH1 0x1 PUSH1 0xA0 SHL SUB AND DUP2 JUMP JUMPDEST PUSH2 0x19B PUSH2 0x196 CALLDATASIZE PUSH1 0x4 PUSH2 0xCA2 JUMP JUMPDEST PUSH2 0x8A2 JUMP JUMPDEST PUSH1 0x40 MLOAD PUSH2 0xAA SWAP2 SWAP1 PUSH2 0xCDE JUMP JUMPDEST PUSH1 0x1 PUSH1 0x1 PUSH1 0xA0 SHL SUB DUP3 AND PUSH1 0x0 SWAP1 DUP2 MSTORE PUSH1 0x4 PUSH1 0x20 MSTORE PUSH1 0x40 DUP2 KECCAK256 SLOAD ISZERO DUP1 ISZERO SWAP1 PUSH2 0x1E6 JUMPI POP PUSH1 0x1 PUSH1 0x1 PUSH1 0xA0 SHL SUB DUP3 AND PUSH1 0x0 SWAP1 DUP2 MSTORE PUSH1 0x4 PUSH1 0x20 MSTORE PUSH1 0x40 SWAP1 KECCAK256 SLOAD ISZERO ISZERO JUMPDEST PUSH2 0x241 JUMPI PUSH1 0x40 MLOAD PUSH3 0x461BCD PUSH1 0xE5 SHL DUP2 MSTORE PUSH1 0x20 PUSH1 0x4 DUP3 ADD MSTORE PUSH1 0x21 PUSH1 0x24 DUP3 ADD MSTORE PUSH32 0x20546F6B656E2062616C616E6365206D757374206265206E6F6E202D207A6572 PUSH1 0x44 DUP3 ADD MSTORE PUSH1 0x6F PUSH1 0xF8 SHL PUSH1 0x64 DUP3 ADD MSTORE PUSH1 0x84 ADD JUMPDEST PUSH1 0x40 MLOAD DUP1 SWAP2 SUB SWAP1 REVERT JUMPDEST PUSH1 0x1 PUSH1 0x1 PUSH1 0xA0 SHL SUB DUP1 DUP4 AND PUSH1 0x0 SWAP1 DUP2 MSTORE PUSH1 0x4 PUSH1 0x20 MSTORE PUSH1 0x40 DUP1 DUP3 KECCAK256 SLOAD SWAP3 DUP7 AND DUP3 MSTORE SWAP1 KECCAK256 SLOAD PUSH2 0x276 SWAP1 PUSH8 0xDE0B6B3A7640000 PUSH2 0xD07 JUMP JUMPDEST PUSH2 0x280 SWAP2 SWAP1 PUSH2 0xD1E JUMP JUMPDEST SWAP1 POP JUMPDEST SWAP3 SWAP2 POP POP JUMP JUMPDEST PUSH1 0x6 SLOAD PUSH1 0x40 MLOAD PUSH4 0x23B872DD PUSH1 0xE0 SHL DUP2 MSTORE CALLER PUSH1 0x4 DUP3 ADD MSTORE ADDRESS PUSH1 0x24 DUP3 ADD MSTORE PUSH1 0x44 DUP2 ADD DUP5 SWAP1 MSTORE PUSH1 0x1 PUSH1 0x1 PUSH1 0xA0 SHL SUB SWAP1 SWAP2 AND SWAP1 PUSH4 0x23B872DD SWAP1 PUSH1 0x64 ADD PUSH1 0x20 PUSH1 0x40 MLOAD DUP1 DUP4 SUB DUP2 PUSH1 0x0 DUP8 GAS CALL ISZERO DUP1 ISZERO PUSH2 0x2E0 JUMPI RETURNDATASIZE PUSH1 0x0 DUP1 RETURNDATACOPY RETURNDATASIZE PUSH1 0x0 REVERT JUMPDEST POP POP POP POP PUSH1 0x40 MLOAD RETURNDATASIZE PUSH1 0x1F NOT PUSH1 0x1F DUP3 ADD AND DUP3 ADD DUP1 PUSH1 0x40 MSTORE POP DUP2 ADD SWAP1 PUSH2 0x304 SWAP2 SWAP1 PUSH2 0xD40 JUMP JUMPDEST PUSH2 0x350 JUMPI PUSH1 0x40 MLOAD PUSH3 0x461BCD PUSH1 0xE5 SHL DUP2 MSTORE PUSH1 0x20 PUSH1 0x4 DUP3 ADD MSTORE PUSH1 0x19 PUSH1 0x24 DUP3 ADD MSTORE PUSH32 0x5472616E73666572206F6620746F6B656E30204661696C656400000000000000 PUSH1 0x44 DUP3 ADD MSTORE PUSH1 0x64 ADD PUSH2 0x238 JUMP JUMPDEST PUSH1 0x7 SLOAD PUSH1 0x40 MLOAD PUSH4 0x23B872DD PUSH1 0xE0 SHL DUP2 MSTORE CALLER PUSH1 0x4 DUP3 ADD MSTORE ADDRESS PUSH1 0x24 DUP3 ADD MSTORE PUSH1 0x44 DUP2 ADD DUP4 SWAP1 MSTORE PUSH1 0x1 PUSH1 0x1 PUSH1 0xA0 SHL SUB SWAP1 SWAP2 AND SWAP1 PUSH4 0x23B872DD SWAP1 PUSH1 0x64 ADD PUSH1 0x20 PUSH1 0x40 MLOAD DUP1 DUP4 SUB DUP2 PUSH1 0x0 DUP8 GAS CALL ISZERO DUP1 ISZERO PUSH2 0x3A7 JUMPI RETURNDATASIZE PUSH1 0x0 DUP1 RETURNDATACOPY RETURNDATASIZE PUSH1 0x0 REVERT JUMPDEST POP POP POP POP PUSH1 0x40 MLOAD RETURNDATASIZE PUSH1 0x1F NOT PUSH1 0x1F DUP3 ADD AND DUP3 ADD DUP1 PUSH1 0x40 MSTORE POP DUP2 ADD SWAP1 PUSH2 0x3CB SWAP2 SWAP1 PUSH2 0xD40 JUMP JUMPDEST PUSH2 0x417 JUMPI PUSH1 0x40 MLOAD PUSH3 0x461BCD PUSH1 0xE5 SHL DUP2 MSTORE PUSH1 0x20 PUSH1 0x4 DUP3 ADD MSTORE PUSH1 0x19 PUSH1 0x24 DUP3 ADD MSTORE PUSH32 0x5472616E73666572206F6620746F6B656E31204661696C656400000000000000 PUSH1 0x44 DUP3 ADD MSTORE PUSH1 0x64 ADD PUSH2 0x238 JUMP JUMPDEST POP POP JUMP JUMPDEST CALLER PUSH1 0x0 SWAP1 DUP2 MSTORE PUSH1 0x5 PUSH1 0x20 MSTORE PUSH1 0x40 DUP2 KECCAK256 SLOAD DUP1 PUSH2 0x486 JUMPI PUSH1 0x40 MLOAD PUSH3 0x461BCD PUSH1 0xE5 SHL DUP2 MSTORE PUSH1 0x20 PUSH1 0x4 DUP3 ADD MSTORE PUSH1 0x25 PUSH1 0x24 DUP3 ADD MSTORE PUSH32 0x4E6F206C6971756964697479207761732070726F766964656420627920746865 PUSH1 0x44 DUP3 ADD MSTORE PUSH5 0x103AB9B2B9 PUSH1 0xD9 SHL PUSH1 0x64 DUP3 ADD MSTORE PUSH1 0x84 ADD PUSH2 0x238 JUMP JUMPDEST PUSH1 0x3 SLOAD PUSH1 0x1 PUSH1 0x1 PUSH1 0xA0 SHL SUB DUP6 AND PUSH1 0x0 SWAP1 DUP2 MSTORE PUSH1 0x4 PUSH1 0x20 MSTORE PUSH1 0x40 DUP2 KECCAK256 SLOAD SWAP1 SWAP2 SWAP1 PUSH2 0x4AF SWAP1 DUP5 PUSH2 0xD07 JUMP JUMPDEST PUSH2 0x4B9 SWAP2 SWAP1 PUSH2 0xD1E JUMP JUMPDEST PUSH1 0x3 SLOAD PUSH1 0x1 PUSH1 0x1 PUSH1 0xA0 SHL SUB DUP7 AND PUSH1 0x0 SWAP1 DUP2 MSTORE PUSH1 0x4 PUSH1 0x20 MSTORE PUSH1 0x40 DUP2 KECCAK256 SLOAD SWAP3 SWAP4 POP SWAP2 PUSH2 0x4E3 SWAP1 DUP6 PUSH2 0xD07 JUMP JUMPDEST PUSH2 0x4ED SWAP2 SWAP1 PUSH2 0xD1E JUMP JUMPDEST CALLER PUSH1 0x0 SWAP1 DUP2 MSTORE PUSH1 0x5 PUSH1 0x20 SWAP1 DUP2 MSTORE PUSH1 0x40 DUP1 DUP4 KECCAK256 DUP4 SWAP1 SSTORE PUSH1 0x1 PUSH1 0x1 PUSH1 0xA0 SHL SUB DUP11 AND DUP4 MSTORE PUSH1 0x4 SWAP1 SWAP2 MSTORE DUP2 KECCAK256 DUP1 SLOAD SWAP3 SWAP4 POP DUP5 SWAP3 SWAP1 SWAP2 SWAP1 PUSH2 0x52A SWAP1 DUP5 SWAP1 PUSH2 0xD62 JUMP JUMPDEST SWAP1 SWAP2 SSTORE POP POP PUSH1 0x1 PUSH1 0x1 PUSH1 0xA0 SHL SUB DUP6 AND PUSH1 0x0 SWAP1 DUP2 MSTORE PUSH1 0x4 PUSH1 0x20 MSTORE PUSH1 0x40 DUP2 KECCAK256 DUP1 SLOAD DUP4 SWAP3 SWAP1 PUSH2 0x557 SWAP1 DUP5 SWAP1 PUSH2 0xD62 JUMP JUMPDEST SWAP3 POP POP DUP2 SWAP1 SSTORE POP DUP3 PUSH1 0x3 PUSH1 0x0 DUP3 DUP3 SLOAD PUSH2 0x570 SWAP2 SWAP1 PUSH2 0xD62 JUMP JUMPDEST SWAP1 SWAP2 SSTORE POP POP PUSH1 0x6 SLOAD PUSH1 0x40 MLOAD PUSH4 0xA9059CBB PUSH1 0xE0 SHL DUP2 MSTORE CALLER PUSH1 0x4 DUP3 ADD MSTORE PUSH1 0x24 DUP2 ADD DUP5 SWAP1 MSTORE PUSH1 0x1 PUSH1 0x1 PUSH1 0xA0 SHL SUB SWAP1 SWAP2 AND SWAP1 PUSH4 0xA9059CBB SWAP1 PUSH1 0x44 ADD PUSH1 0x20 PUSH1 0x40 MLOAD DUP1 DUP4 SUB DUP2 PUSH1 0x0 DUP8 GAS CALL ISZERO DUP1 ISZERO PUSH2 0x5C6 JUMPI RETURNDATASIZE PUSH1 0x0 DUP1 RETURNDATACOPY RETURNDATASIZE PUSH1 0x0 REVERT JUMPDEST POP POP POP POP PUSH1 0x40 MLOAD RETURNDATASIZE PUSH1 0x1F NOT PUSH1 0x1F DUP3 ADD AND DUP3 ADD DUP1 PUSH1 0x40 MSTORE POP DUP2 ADD SWAP1 PUSH2 0x5EA SWAP2 SWAP1 PUSH2 0xD40 JUMP JUMPDEST PUSH2 0x636 JUMPI PUSH1 0x40 MLOAD PUSH3 0x461BCD PUSH1 0xE5 SHL DUP2 MSTORE PUSH1 0x20 PUSH1 0x4 DUP3 ADD MSTORE PUSH1 0x1A PUSH1 0x24 DUP3 ADD MSTORE PUSH32 0x5472616E736665722020746F6B656E30206661696C6564202121000000000000 PUSH1 0x44 DUP3 ADD MSTORE PUSH1 0x64 ADD PUSH2 0x238 JUMP JUMPDEST PUSH1 0x7 SLOAD PUSH1 0x40 MLOAD PUSH4 0xA9059CBB PUSH1 0xE0 SHL DUP2 MSTORE CALLER PUSH1 0x4 DUP3 ADD MSTORE PUSH1 0x24 DUP2 ADD DUP4 SWAP1 MSTORE PUSH1 0x1 PUSH1 0x1 PUSH1 0xA0 SHL SUB SWAP1 SWAP2 AND SWAP1 PUSH4 0xA9059CBB SWAP1 PUSH1 0x44 ADD PUSH1 0x20 PUSH1 0x40 MLOAD DUP1 DUP4 SUB DUP2 PUSH1 0x0 DUP8 GAS CALL ISZERO DUP1 ISZERO PUSH2 0x687 JUMPI RETURNDATASIZE PUSH1 0x0 DUP1 RETURNDATACOPY RETURNDATASIZE PUSH1 0x0 REVERT JUMPDEST POP POP POP POP PUSH1 0x40 MLOAD RETURNDATASIZE PUSH1 0x1F NOT PUSH1 0x1F DUP3 ADD AND DUP3 ADD DUP1 PUSH1 0x40 MSTORE POP DUP2 ADD SWAP1 PUSH2 0x6AB SWAP2 SWAP1 PUSH2 0xD40 JUMP JUMPDEST PUSH2 0x6F7 JUMPI PUSH1 0x40 MLOAD PUSH3 0x461BCD PUSH1 0xE5 SHL DUP2 MSTORE PUSH1 0x20 PUSH1 0x4 DUP3 ADD MSTORE PUSH1 0x1A PUSH1 0x24 DUP3 ADD MSTORE PUSH32 0x5472616E736665722020746F6B656E31206661696C6564202121000000000000 PUSH1 0x44 DUP3 ADD MSTORE PUSH1 0x64 ADD PUSH2 0x238 JUMP JUMPDEST POP POP POP SWAP3 SWAP2 POP POP JUMP JUMPDEST PUSH1 0x60 PUSH1 0x0 DUP1 PUSH2 0x70F DUP8 DUP8 PUSH2 0x1A8 JUMP JUMPDEST SWAP1 POP PUSH2 0x723 DUP5 PUSH8 0xDE0B6B3A7640000 PUSH2 0xD07 JUMP JUMPDEST PUSH2 0x72D DUP7 DUP4 PUSH2 0xD07 JUMP JUMPDEST EQ PUSH2 0x78C JUMPI PUSH1 0x40 MLOAD PUSH3 0x461BCD PUSH1 0xE5 SHL DUP2 MSTORE PUSH1 0x20 PUSH1 0x4 DUP3 ADD MSTORE PUSH1 0x29 PUSH1 0x24 DUP3 ADD MSTORE PUSH32 0x206D75737420616464206C69717569646974792061742063757272656E742073 PUSH1 0x44 DUP3 ADD MSTORE PUSH9 0x706F74207072696365 PUSH1 0xB8 SHL PUSH1 0x64 DUP3 ADD MSTORE PUSH1 0x84 ADD PUSH2 0x238 JUMP JUMPDEST PUSH2 0x796 DUP6 DUP6 PUSH2 0x289 JUMP JUMPDEST PUSH1 0x1 PUSH1 0x1 PUSH1 0xA0 SHL SUB DUP8 AND PUSH1 0x0 SWAP1 DUP2 MSTORE PUSH1 0x4 PUSH1 0x20 MSTORE PUSH1 0x40 DUP2 KECCAK256 SLOAD PUSH1 0x1 SLOAD SWAP1 SWAP2 SWAP1 DUP3 SWAP1 PUSH2 0x7C1 SWAP1 DUP10 PUSH2 0xD07 JUMP JUMPDEST PUSH2 0x7CB SWAP2 SWAP1 PUSH2 0xD1E JUMP JUMPDEST PUSH1 0x1 PUSH1 0x1 PUSH1 0xA0 SHL SUB DUP11 AND PUSH1 0x0 SWAP1 DUP2 MSTORE PUSH1 0x4 PUSH1 0x20 MSTORE PUSH1 0x40 DUP2 KECCAK256 DUP1 SLOAD SWAP3 SWAP4 POP DUP10 SWAP3 SWAP1 SWAP2 SWAP1 PUSH2 0x7F8 SWAP1 DUP5 SWAP1 PUSH2 0xD75 JUMP JUMPDEST SWAP1 SWAP2 SSTORE POP POP PUSH1 0x1 PUSH1 0x1 PUSH1 0xA0 SHL SUB DUP9 AND PUSH1 0x0 SWAP1 DUP2 MSTORE PUSH1 0x4 PUSH1 0x20 MSTORE PUSH1 0x40 DUP2 KECCAK256 DUP1 SLOAD DUP9 SWAP3 SWAP1 PUSH2 0x825 SWAP1 DUP5 SWAP1 PUSH2 0xD75 JUMP JUMPDEST SWAP3 POP POP DUP2 SWAP1 SSTORE POP DUP1 PUSH1 0x3 PUSH1 0x0 DUP3 DUP3 SLOAD PUSH2 0x83E SWAP2 SWAP1 PUSH2 0xD75 JUMP JUMPDEST SWAP1 SWAP2 SSTORE POP POP CALLER PUSH1 0x0 SWAP1 DUP2 MSTORE PUSH1 0x5 PUSH1 0x20 MSTORE PUSH1 0x40 DUP2 KECCAK256 DUP1 SLOAD DUP4 SWAP3 SWAP1 PUSH2 0x862 SWAP1 DUP5 SWAP1 PUSH2 0xD75 JUMP JUMPDEST SWAP1 SWAP2 SSTORE POP POP CALLER PUSH1 0x0 SWAP1 DUP2 MSTORE PUSH1 0x5 PUSH1 0x20 SWAP1 DUP2 MSTORE PUSH1 0x40 SWAP2 DUP3 SWAP1 KECCAK256 SLOAD DUP3 MLOAD PUSH1 0x60 DUP2 ADD SWAP1 SWAP4 MSTORE PUSH1 0x26 DUP1 DUP5 MSTORE SWAP1 SWAP3 SWAP2 PUSH2 0xD89 SWAP1 DUP4 ADD CODECOPY SWAP11 SWAP1 SWAP10 POP SWAP8 POP POP POP POP POP POP POP POP JUMP JUMPDEST PUSH1 0x60 PUSH2 0x8AC PUSH2 0xB2E JUMP JUMPDEST PUSH1 0x0 PUSH1 0x2 SLOAD PUSH2 0x2710 PUSH2 0x8BE SWAP2 SWAP1 PUSH2 0xD62 JUMP JUMPDEST SWAP1 POP PUSH1 0x0 PUSH2 0x2710 PUSH2 0x8CF DUP6 DUP5 PUSH2 0xD07 JUMP JUMPDEST PUSH2 0x8D9 SWAP2 SWAP1 PUSH2 0xD1E JUMP JUMPDEST PUSH1 0x1 PUSH1 0x1 PUSH1 0xA0 SHL SUB DUP1 DUP9 AND PUSH1 0x0 SWAP1 DUP2 MSTORE PUSH1 0x4 PUSH1 0x20 MSTORE PUSH1 0x40 DUP1 DUP3 KECCAK256 SLOAD SWAP3 DUP10 AND DUP3 MSTORE DUP2 KECCAK256 SLOAD SWAP3 SWAP4 POP SWAP2 DUP4 SWAP2 SWAP1 PUSH2 0x90E SWAP1 DUP4 SWAP1 PUSH2 0xD07 JUMP JUMPDEST PUSH2 0x918 SWAP2 SWAP1 PUSH2 0xD1E JUMP JUMPDEST PUSH2 0x922 SWAP2 SWAP1 PUSH2 0xD75 JUMP JUMPDEST PUSH1 0x1 PUSH1 0x1 PUSH1 0xA0 SHL SUB DUP9 AND PUSH1 0x0 SWAP1 DUP2 MSTORE PUSH1 0x4 PUSH1 0x20 MSTORE PUSH1 0x40 DUP2 KECCAK256 DUP1 SLOAD SWAP3 SWAP4 POP DUP8 SWAP3 SWAP1 SWAP2 SWAP1 PUSH2 0x94F SWAP1 DUP5 SWAP1 PUSH2 0xD75 JUMP JUMPDEST SWAP1 SWAP2 SSTORE POP POP PUSH1 0x1 PUSH1 0x1 PUSH1 0xA0 SHL SUB DUP7 AND PUSH1 0x0 SWAP1 DUP2 MSTORE PUSH1 0x4 PUSH1 0x20 MSTORE PUSH1 0x40 DUP2 KECCAK256 DUP1 SLOAD DUP4 SWAP3 SWAP1 PUSH2 0x97C SWAP1 DUP5 SWAP1 PUSH2 0xD62 JUMP JUMPDEST SWAP1 SWAP2 SSTORE POP POP PUSH1 0x6 SLOAD PUSH1 0x40 MLOAD PUSH4 0x23B872DD PUSH1 0xE0 SHL DUP2 MSTORE CALLER PUSH1 0x4 DUP3 ADD MSTORE ADDRESS PUSH1 0x24 DUP3 ADD MSTORE PUSH1 0x44 DUP2 ADD DUP8 SWAP1 MSTORE PUSH1 0x1 PUSH1 0x1 PUSH1 0xA0 SHL SUB SWAP1 SWAP2 AND SWAP1 PUSH4 0x23B872DD SWAP1 PUSH1 0x64 ADD PUSH1 0x20 PUSH1 0x40 MLOAD DUP1 DUP4 SUB DUP2 PUSH1 0x0 DUP8 GAS CALL ISZERO DUP1 ISZERO PUSH2 0x9D8 JUMPI RETURNDATASIZE PUSH1 0x0 DUP1 RETURNDATACOPY RETURNDATASIZE PUSH1 0x0 REVERT JUMPDEST POP POP POP POP PUSH1 0x40 MLOAD RETURNDATASIZE PUSH1 0x1F NOT PUSH1 0x1F DUP3 ADD AND DUP3 ADD DUP1 PUSH1 0x40 MSTORE POP DUP2 ADD SWAP1 PUSH2 0x9FC SWAP2 SWAP1 PUSH2 0xD40 JUMP JUMPDEST PUSH2 0xA3A JUMPI PUSH1 0x40 MLOAD PUSH3 0x461BCD PUSH1 0xE5 SHL DUP2 MSTORE PUSH1 0x20 PUSH1 0x4 DUP3 ADD MSTORE PUSH1 0xF PUSH1 0x24 DUP3 ADD MSTORE PUSH15 0x151C985B9CD9995C8811985A5B1959 PUSH1 0x8A SHL PUSH1 0x44 DUP3 ADD MSTORE PUSH1 0x64 ADD PUSH2 0x238 JUMP JUMPDEST PUSH1 0x7 SLOAD PUSH1 0x40 MLOAD PUSH4 0xA9059CBB PUSH1 0xE0 SHL DUP2 MSTORE CALLER PUSH1 0x4 DUP3 ADD MSTORE PUSH1 0x24 DUP2 ADD DUP4 SWAP1 MSTORE PUSH1 0x1 PUSH1 0x1 PUSH1 0xA0 SHL SUB SWAP1 SWAP2 AND SWAP1 PUSH4 0xA9059CBB SWAP1 PUSH1 0x44 ADD PUSH1 0x20 PUSH1 0x40 MLOAD DUP1 DUP4 SUB DUP2 PUSH1 0x0 DUP8 GAS CALL ISZERO DUP1 ISZERO PUSH2 0xA8B JUMPI RETURNDATASIZE PUSH1 0x0 DUP1 RETURNDATACOPY RETURNDATASIZE PUSH1 0x0 REVERT JUMPDEST POP POP POP POP PUSH1 0x40 MLOAD RETURNDATASIZE PUSH1 0x1F NOT PUSH1 0x1F DUP3 ADD AND DUP3 ADD DUP1 PUSH1 0x40 MSTORE POP DUP2 ADD SWAP1 PUSH2 0xAAF SWAP2 SWAP1 PUSH2 0xD40 JUMP JUMPDEST PUSH2 0xAED JUMPI PUSH1 0x40 MLOAD PUSH3 0x461BCD PUSH1 0xE5 SHL DUP2 MSTORE PUSH1 0x20 PUSH1 0x4 DUP3 ADD MSTORE PUSH1 0xF PUSH1 0x24 DUP3 ADD MSTORE PUSH15 0x151C985B9CD9995C8811985A5B1959 PUSH1 0x8A SHL PUSH1 0x44 DUP3 ADD MSTORE PUSH1 0x64 ADD PUSH2 0x238 JUMP JUMPDEST PUSH1 0x40 MLOAD DUP1 PUSH1 0x40 ADD PUSH1 0x40 MSTORE DUP1 PUSH1 0x12 DUP2 MSTORE PUSH1 0x20 ADD PUSH18 0x14DDD85C1C1A5B99C810DBDB5C1B195D1959 PUSH1 0x72 SHL DUP2 MSTORE POP SWAP4 POP POP POP POP PUSH2 0xB27 PUSH1 0x1 PUSH1 0x0 SSTORE JUMP JUMPDEST SWAP4 SWAP3 POP POP POP JUMP JUMPDEST PUSH1 0x2 PUSH1 0x0 SLOAD SUB PUSH2 0xB80 JUMPI PUSH1 0x40 MLOAD PUSH3 0x461BCD PUSH1 0xE5 SHL DUP2 MSTORE PUSH1 0x20 PUSH1 0x4 DUP3 ADD MSTORE PUSH1 0x1F PUSH1 0x24 DUP3 ADD MSTORE PUSH32 0x5265656E7472616E637947756172643A207265656E7472616E742063616C6C00 PUSH1 0x44 DUP3 ADD MSTORE PUSH1 0x64 ADD PUSH2 0x238 JUMP JUMPDEST PUSH1 0x2 PUSH1 0x0 SSTORE JUMP JUMPDEST DUP1 CALLDATALOAD PUSH1 0x1 PUSH1 0x1 PUSH1 0xA0 SHL SUB DUP2 AND DUP2 EQ PUSH2 0xB9E JUMPI PUSH1 0x0 DUP1 REVERT JUMPDEST SWAP2 SWAP1 POP JUMP JUMPDEST PUSH1 0x0 DUP1 PUSH1 0x40 DUP4 DUP6 SUB SLT ISZERO PUSH2 0xBB6 JUMPI PUSH1 0x0 DUP1 REVERT JUMPDEST PUSH2 0xBBF DUP4 PUSH2 0xB87 JUMP JUMPDEST SWAP2 POP PUSH2 0xBCD PUSH1 0x20 DUP5 ADD PUSH2 0xB87 JUMP JUMPDEST SWAP1 POP SWAP3 POP SWAP3 SWAP1 POP JUMP JUMPDEST PUSH1 0x0 DUP1 PUSH1 0x40 DUP4 DUP6 SUB SLT ISZERO PUSH2 0xBE9 JUMPI PUSH1 0x0 DUP1 REVERT JUMPDEST POP POP DUP1 CALLDATALOAD SWAP3 PUSH1 0x20 SWAP1 SWAP2 ADD CALLDATALOAD SWAP2 POP JUMP JUMPDEST PUSH1 0x0 DUP1 PUSH1 0x0 DUP1 PUSH1 0x80 DUP6 DUP8 SUB SLT ISZERO PUSH2 0xC0E JUMPI PUSH1 0x0 DUP1 REVERT JUMPDEST PUSH2 0xC17 DUP6 PUSH2 0xB87 JUMP JUMPDEST SWAP4 POP PUSH2 0xC25 PUSH1 0x20 DUP7 ADD PUSH2 0xB87 JUMP JUMPDEST SWAP4 SWAP7 SWAP4 SWAP6 POP POP POP POP PUSH1 0x40 DUP3 ADD CALLDATALOAD SWAP2 PUSH1 0x60 ADD CALLDATALOAD SWAP1 JUMP JUMPDEST PUSH1 0x0 DUP2 MLOAD DUP1 DUP5 MSTORE PUSH1 0x0 JUMPDEST DUP2 DUP2 LT ISZERO PUSH2 0xC60 JUMPI PUSH1 0x20 DUP2 DUP6 ADD DUP2 ADD MLOAD DUP7 DUP4 ADD DUP3 ADD MSTORE ADD PUSH2 0xC44 JUMP JUMPDEST POP PUSH1 0x0 PUSH1 0x20 DUP3 DUP7 ADD ADD MSTORE PUSH1 0x20 PUSH1 0x1F NOT PUSH1 0x1F DUP4 ADD AND DUP6 ADD ADD SWAP2 POP POP SWAP3 SWAP2 POP POP JUMP JUMPDEST PUSH1 0x40 DUP2 MSTORE PUSH1 0x0 PUSH2 0xC93 PUSH1 0x40 DUP4 ADD DUP6 PUSH2 0xC3A JUMP JUMPDEST SWAP1 POP DUP3 PUSH1 0x20 DUP4 ADD MSTORE SWAP4 SWAP3 POP POP POP JUMP JUMPDEST PUSH1 0x0 DUP1 PUSH1 0x0 PUSH1 0x60 DUP5 DUP7 SUB SLT ISZERO PUSH2 0xCB7 JUMPI PUSH1 0x0 DUP1 REVERT JUMPDEST PUSH2 0xCC0 DUP5 PUSH2 0xB87 JUMP JUMPDEST SWAP3 POP PUSH2 0xCCE PUSH1 0x20 DUP6 ADD PUSH2 0xB87 JUMP JUMPDEST SWAP2 POP PUSH1 0x40 DUP5 ADD CALLDATALOAD SWAP1 POP SWAP3 POP SWAP3 POP SWAP3 JUMP JUMPDEST PUSH1 0x20 DUP2 MSTORE PUSH1 0x0 PUSH2 0x280 PUSH1 0x20 DUP4 ADD DUP5 PUSH2 0xC3A JUMP JUMPDEST PUSH4 0x4E487B71 PUSH1 0xE0 SHL PUSH1 0x0 MSTORE PUSH1 0x11 PUSH1 0x4 MSTORE PUSH1 0x24 PUSH1 0x0 REVERT JUMPDEST DUP1 DUP3 MUL DUP2 ISZERO DUP3 DUP3 DIV DUP5 EQ OR PUSH2 0x283 JUMPI PUSH2 0x283 PUSH2 0xCF1 JUMP JUMPDEST PUSH1 0x0 DUP3 PUSH2 0xD3B JUMPI PUSH4 0x4E487B71 PUSH1 0xE0 SHL PUSH1 0x0 MSTORE PUSH1 0x12 PUSH1 0x4 MSTORE PUSH1 0x24 PUSH1 0x0 REVERT JUMPDEST POP DIV SWAP1 JUMP JUMPDEST PUSH1 0x0 PUSH1 0x20 DUP3 DUP5 SUB SLT ISZERO PUSH2 0xD52 JUMPI PUSH1 0x0 DUP1 REVERT JUMPDEST DUP2 MLOAD DUP1 ISZERO ISZERO DUP2 EQ PUSH2 0xB27 JUMPI PUSH1 0x0 DUP1 REVERT JUMPDEST DUP2 DUP2 SUB DUP2 DUP2 GT ISZERO PUSH2 0x283 JUMPI PUSH2 0x283 PUSH2 0xCF1 JUMP JUMPDEST DUP1 DUP3 ADD DUP1 DUP3 GT ISZERO PUSH2 0x283 JUMPI PUSH2 0x283 PUSH2 0xCF1 JUMP INVALID 0x4C PUSH17 0x20746F6B656E2062616C616E636520772E PUSH19 0x2E74206164646564206C6971756964697479A2 PUSH5 0x6970667358 0x22 SLT KECCAK256 0xDA 0xC8 PUSH17 0x11E71BED28FCF6026A0DC755D312DE734B 0xCF DUP3 EXTCODESIZE CALLVALUE 0x4D CODECOPY 0x22 DUP3 0x2D DUP12 SWAP13 0x4B PUSH5 0x736F6C6343 STOP ADDMOD EQ STOP CALLER "
				},
				"gasEstimates": {
					"creation": {
						"codeDepositCost": "711200",
						"executionCost": "infinite",
						"totalCost": "infinite"
					},
					"external": {
						"addLiquidity(address,address,uint256,uint256)": "infinite",
						"createPool(address,address,uint256,uint256)": "infinite",
						"getSpotPrice(address,address)": "infinite",
						"removeLiquidity(address,address)": "infinite",
						"swap(address,address,uint256)": "infinite",
						"token0Address()": "2382",
						"token1Address()": "2381",
						"transferToken(uint256,uint256)": "infinite"
					}
				},
				"methodIdentifiers": {
					"addLiquidity(address,address,uint256,uint256)": "cf6c62ea",
					"createPool(address,address,uint256,uint256)": "884db063",
					"getSpotPrice(address,address)": "15e84af9",
					"removeLiquidity(address,address)": "9cf38f7c",
					"swap(address,address,uint256)": "df791e50",
					"token0Address()": "7ff36fbe",
					"token1Address()": "d7cb416f",
					"transferToken(uint256,uint256)": "2e760746"
				}
			},
			"storageLayout": {
				"storage": [
					{
						"astId": 10,
						"contract": "Custom-Dex/dex.sol:dex",
						"label": "_status",
						"offset": 0,
						"slot": "0",
						"type": "t_uint256"
					},
					{
						"astId": 77,
						"contract": "Custom-Dex/dex.sol:dex",
						"label": "INITIAL_LP_TOKENS",
						"offset": 0,
						"slot": "1",
						"type": "t_uint256"
					},
					{
						"astId": 84,
						"contract": "Custom-Dex/dex.sol:dex",
						"label": "LP_FEE",
						"offset": 0,
						"slot": "2",
						"type": "t_uint256"
					},
					{
						"astId": 86,
						"contract": "Custom-Dex/dex.sol:dex",
						"label": "totalLpTokens",
						"offset": 0,
						"slot": "3",
						"type": "t_uint256"
					},
					{
						"astId": 90,
						"contract": "Custom-Dex/dex.sol:dex",
						"label": "tokenBalances",
						"offset": 0,
						"slot": "4",
						"type": "t_mapping(t_address,t_uint256)"
					},
					{
						"astId": 94,
						"contract": "Custom-Dex/dex.sol:dex",
						"label": "lpBalances",
						"offset": 0,
						"slot": "5",
						"type": "t_mapping(t_address,t_uint256)"
					},
					{
						"astId": 97,
						"contract": "Custom-Dex/dex.sol:dex",
						"label": "token0Address",
						"offset": 0,
						"slot": "6",
						"type": "t_contract(erc20)813"
					},
					{
						"astId": 100,
						"contract": "Custom-Dex/dex.sol:dex",
						"label": "token1Address",
						"offset": 0,
						"slot": "7",
						"type": "t_contract(erc20)813"
					}
				],
				"types": {
					"t_address": {
						"encoding": "inplace",
						"label": "address",
						"numberOfBytes": "20"
					},
					"t_contract(erc20)813": {
						"encoding": "inplace",
						"label": "contract erc20",
						"numberOfBytes": "20"
					},
					"t_mapping(t_address,t_uint256)": {
						"encoding": "mapping",
						"key": "t_address",
						"label": "mapping(address => uint256)",
						"numberOfBytes": "32",
						"value": "t_uint256"
					},
					"t_uint256": {
						"encoding": "inplace",
						"label": "uint256",
						"numberOfBytes": "32"
					}
				}
			},
			"userdoc": {
				"kind": "user",
				"methods": {},
				"version": 1
			}
		}
	}
}