{
	"CreateWallet/user.sol": {
		"user": {
			"abi": [
				{
					"inputs": [
						{
							"internalType": "address",
							"name": "_owner",
							"type": "address"
						}
					],
					"stateMutability": "nonpayable",
					"type": "constructor"
				},
				{
					"inputs": [
						{
							"internalType": "address",
							"name": "_target",
							"type": "address"
						},
						{
							"internalType": "bytes",
							"name": "_data",
							"type": "bytes"
						}
					],
					"name": "delegate",
					"outputs": [
						{
							"internalType": "bytes",
							"name": "",
							"type": "bytes"
						}
					],
					"stateMutability": "nonpayable",
					"type": "function"
				},
				{
					"inputs": [],
					"name": "deposit",
					"outputs": [],
					"stateMutability": "payable",
					"type": "function"
				},
				{
					"inputs": [],
					"name": "destruct",
					"outputs": [],
					"stateMutability": "nonpayable",
					"type": "function"
				},
				{
					"inputs": [],
					"name": "getBalance",
					"outputs": [
						{
							"internalType": "uint256",
							"name": "",
							"type": "uint256"
						}
					],
					"stateMutability": "view",
					"type": "function"
				},
				{
					"inputs": [
						{
							"internalType": "address payable",
							"name": "_to",
							"type": "address"
						},
						{
							"internalType": "uint256",
							"name": "_amount",
							"type": "uint256"
						}
					],
					"name": "withdraw",
					"outputs": [],
					"stateMutability": "nonpayable",
					"type": "function"
				}
			],
			"devdoc": {
				"kind": "dev",
				"methods": {},
				"version": 1
			},
			"evm": {
				"assembly": "    /* \"CreateWallet/user.sol\":58:1121  contract user {... */\n  mstore(0x40, 0x80)\n    /* \"CreateWallet/user.sol\":98:157  constructor(address _owner) {... */\n  callvalue\n  dup1\n  iszero\n  tag_1\n  jumpi\n  0x00\n  dup1\n  revert\ntag_1:\n  pop\n  mload(0x40)\n  sub(codesize, bytecodeSize)\n  dup1\n  bytecodeSize\n  dup4\n  codecopy\n  dup2\n  add\n  0x40\n  dup2\n  swap1\n  mstore\n  tag_2\n  swap2\n  tag_3\n  jump\t// in\ntag_2:\n    /* \"CreateWallet/user.sol\":136:141  owner */\n  0x00\n    /* \"CreateWallet/user.sol\":136:150  owner = _owner */\n  dup1\n  sload\n  not(sub(shl(0xa0, 0x01), 0x01))\n  and\n  sub(shl(0xa0, 0x01), 0x01)\n  swap3\n  swap1\n  swap3\n  and\n  swap2\n  swap1\n  swap2\n  or\n  swap1\n  sstore\n    /* \"CreateWallet/user.sol\":58:1121  contract user {... */\n  jump(tag_7)\n    /* \"#utility.yul\":14:304   */\ntag_3:\n    /* \"#utility.yul\":84:90   */\n  0x00\n    /* \"#utility.yul\":137:139   */\n  0x20\n    /* \"#utility.yul\":125:134   */\n  dup3\n    /* \"#utility.yul\":116:123   */\n  dup5\n    /* \"#utility.yul\":112:135   */\n  sub\n    /* \"#utility.yul\":108:140   */\n  slt\n    /* \"#utility.yul\":105:157   */\n  iszero\n  tag_9\n  jumpi\n    /* \"#utility.yul\":153:154   */\n  0x00\n    /* \"#utility.yul\":150:151   */\n  dup1\n    /* \"#utility.yul\":143:155   */\n  revert\n    /* \"#utility.yul\":105:157   */\ntag_9:\n    /* \"#utility.yul\":179:195   */\n  dup2\n  mload\n  sub(shl(0xa0, 0x01), 0x01)\n    /* \"#utility.yul\":224:255   */\n  dup2\n  and\n    /* \"#utility.yul\":214:256   */\n  dup2\n  eq\n    /* \"#utility.yul\":204:274   */\n  tag_10\n  jumpi\n    /* \"#utility.yul\":270:271   */\n  0x00\n    /* \"#utility.yul\":267:268   */\n  dup1\n    /* \"#utility.yul\":260:272   */\n  revert\n    /* \"#utility.yul\":204:274   */\ntag_10:\n    /* \"#utility.yul\":293:298   */\n  swap4\n    /* \"#utility.yul\":14:304   */\n  swap3\n  pop\n  pop\n  pop\n  jump\t// out\ntag_7:\n    /* \"CreateWallet/user.sol\":58:1121  contract user {... */\n  dataSize(sub_0)\n  dup1\n  dataOffset(sub_0)\n  0x00\n  codecopy\n  0x00\n  return\nstop\n\nsub_0: assembly {\n        /* \"CreateWallet/user.sol\":58:1121  contract user {... */\n      mstore(0x40, 0x80)\n      jumpi(tag_1, lt(calldatasize, 0x04))\n      shr(0xe0, calldataload(0x00))\n      dup1\n      0x12065fe0\n      eq\n      tag_2\n      jumpi\n      dup1\n      0x2b68b9c6\n      eq\n      tag_3\n      jumpi\n      dup1\n      0xd0e30db0\n      eq\n      tag_13\n      jumpi\n      dup1\n      0xd6d2b6ba\n      eq\n      tag_5\n      jumpi\n      dup1\n      0xf3fef3a3\n      eq\n      tag_6\n      jumpi\n    tag_1:\n      0x00\n      dup1\n      revert\n        /* \"CreateWallet/user.sol\":470:621  function getBalance() external view returns (uint256) {... */\n    tag_2:\n      callvalue\n      dup1\n      iszero\n      tag_7\n      jumpi\n      0x00\n      dup1\n      revert\n    tag_7:\n      pop\n      tag_8\n      tag_9\n      jump\t// in\n    tag_8:\n      mload(0x40)\n        /* \"#utility.yul\":160:185   */\n      swap1\n      dup2\n      mstore\n        /* \"#utility.yul\":148:150   */\n      0x20\n        /* \"#utility.yul\":133:151   */\n      add\n        /* \"CreateWallet/user.sol\":470:621  function getBalance() external view returns (uint256) {... */\n    tag_10:\n      mload(0x40)\n      dup1\n      swap2\n      sub\n      swap1\n      return\n        /* \"CreateWallet/user.sol\":987:1119  function destruct() external {... */\n    tag_3:\n      callvalue\n      dup1\n      iszero\n      tag_12\n      jumpi\n      0x00\n      dup1\n      revert\n    tag_12:\n      pop\n      tag_13\n      tag_14\n      jump\t// in\n    tag_13:\n      stop\n        /* \"CreateWallet/user.sol\":670:932  function delegate(address _target, bytes memory _data)... */\n    tag_5:\n      callvalue\n      dup1\n      iszero\n      tag_17\n      jumpi\n      0x00\n      dup1\n      revert\n    tag_17:\n      pop\n      tag_18\n      tag_19\n      calldatasize\n      0x04\n      tag_20\n      jump\t// in\n    tag_19:\n      tag_21\n      jump\t// in\n    tag_18:\n      mload(0x40)\n      tag_10\n      swap2\n      swap1\n      tag_23\n      jump\t// in\n        /* \"CreateWallet/user.sol\":256:411  function withdraw(address payable _to, uint256 _amount) external {... */\n    tag_6:\n      callvalue\n      dup1\n      iszero\n      tag_24\n      jumpi\n      0x00\n      dup1\n      revert\n    tag_24:\n      pop\n      tag_13\n      tag_26\n      calldatasize\n      0x04\n      tag_27\n      jump\t// in\n    tag_26:\n      tag_28\n      jump\t// in\n        /* \"CreateWallet/user.sol\":470:621  function getBalance() external view returns (uint256) {... */\n    tag_9:\n        /* \"CreateWallet/user.sol\":515:522  uint256 */\n      0x00\n        /* \"CreateWallet/user.sol\":556:561  owner */\n      dup1\n      sload\n      sub(shl(0xa0, 0x01), 0x01)\n      and\n        /* \"CreateWallet/user.sol\":542:552  msg.sender */\n      caller\n        /* \"CreateWallet/user.sol\":542:561  msg.sender == owner */\n      eq\n        /* \"CreateWallet/user.sol\":534:576  require(msg.sender == owner, \"only owner\") */\n      tag_30\n      jumpi\n      mload(0x40)\n      shl(0xe5, 0x461bcd)\n      dup2\n      mstore\n      0x04\n      add\n      tag_31\n      swap1\n      tag_32\n      jump\t// in\n    tag_31:\n      mload(0x40)\n      dup1\n      swap2\n      sub\n      swap1\n      revert\n    tag_30:\n      pop\n        /* \"CreateWallet/user.sol\":593:614  address(this).balance */\n      selfbalance\n      swap1\n        /* \"CreateWallet/user.sol\":470:621  function getBalance() external view returns (uint256) {... */\n      jump\t// out\n        /* \"CreateWallet/user.sol\":987:1119  function destruct() external {... */\n    tag_14:\n        /* \"CreateWallet/user.sol\":1049:1054  owner */\n      and(sub(shl(0xa0, 0x01), 0x01), sload(0x00))\n        /* \"CreateWallet/user.sol\":1035:1045  msg.sender */\n      caller\n        /* \"CreateWallet/user.sol\":1035:1054  msg.sender == owner */\n      eq\n        /* \"CreateWallet/user.sol\":1027:1069  require(msg.sender == owner, \"only owner\") */\n      tag_34\n      jumpi\n      mload(0x40)\n      shl(0xe5, 0x461bcd)\n      dup2\n      mstore\n      0x04\n      add\n      tag_31\n      swap1\n      tag_32\n      jump\t// in\n    tag_34:\n        /* \"CreateWallet/user.sol\":1100:1110  msg.sender */\n      caller\n        /* \"CreateWallet/user.sol\":1079:1112  selfdestruct(payable(msg.sender)) */\n      selfdestruct\n        /* \"CreateWallet/user.sol\":670:932  function delegate(address _target, bytes memory _data)... */\n    tag_21:\n        /* \"CreateWallet/user.sol\":759:771  bytes memory */\n      0x60\n        /* \"CreateWallet/user.sol\":788:800  bool success */\n      0x00\n        /* \"CreateWallet/user.sol\":802:821  bytes memory result */\n      dup1\n        /* \"CreateWallet/user.sol\":825:832  _target */\n      dup5\n      sub(shl(0xa0, 0x01), 0x01)\n        /* \"CreateWallet/user.sol\":825:845  _target.delegatecall */\n      and\n        /* \"CreateWallet/user.sol\":846:851  _data */\n      dup5\n        /* \"CreateWallet/user.sol\":825:852  _target.delegatecall(_data) */\n      mload(0x40)\n      tag_38\n      swap2\n      swap1\n      tag_39\n      jump\t// in\n    tag_38:\n      0x00\n      mload(0x40)\n      dup1\n      dup4\n      sub\n      dup2\n      dup6\n      gas\n      delegatecall\n      swap2\n      pop\n      pop\n      returndatasize\n      dup1\n      0x00\n      dup2\n      eq\n      tag_42\n      jumpi\n      mload(0x40)\n      swap2\n      pop\n      and(add(returndatasize, 0x3f), not(0x1f))\n      dup3\n      add\n      0x40\n      mstore\n      returndatasize\n      dup3\n      mstore\n      returndatasize\n      0x00\n      0x20\n      dup5\n      add\n      returndatacopy\n      jump(tag_41)\n    tag_42:\n      0x60\n      swap2\n      pop\n    tag_41:\n      pop\n        /* \"CreateWallet/user.sol\":787:852  (bool success, bytes memory result) = _target.delegatecall(_data) */\n      swap2\n      pop\n      swap2\n      pop\n        /* \"CreateWallet/user.sol\":870:877  success */\n      dup2\n        /* \"CreateWallet/user.sol\":862:902  require(success, \"Delegate call failed\") */\n      tag_43\n      jumpi\n      mload(0x40)\n      shl(0xe5, 0x461bcd)\n      dup2\n      mstore\n        /* \"#utility.yul\":3340:3342   */\n      0x20\n        /* \"CreateWallet/user.sol\":862:902  require(success, \"Delegate call failed\") */\n      0x04\n      dup3\n      add\n        /* \"#utility.yul\":3322:3343   */\n      mstore\n        /* \"#utility.yul\":3379:3381   */\n      0x14\n        /* \"#utility.yul\":3359:3377   */\n      0x24\n      dup3\n      add\n        /* \"#utility.yul\":3352:3382   */\n      mstore\n      shl(0x62, 0x11195b1959d85d194818d85b1b0819985a5b1959)\n        /* \"#utility.yul\":3398:3416   */\n      0x44\n      dup3\n      add\n        /* \"#utility.yul\":3391:3441   */\n      mstore\n        /* \"#utility.yul\":3458:3476   */\n      0x64\n      add\n        /* \"CreateWallet/user.sol\":862:902  require(success, \"Delegate call failed\") */\n      tag_31\n        /* \"#utility.yul\":3138:3482   */\n      jump\n        /* \"CreateWallet/user.sol\":862:902  require(success, \"Delegate call failed\") */\n    tag_43:\n        /* \"CreateWallet/user.sol\":919:925  result */\n      swap5\n        /* \"CreateWallet/user.sol\":670:932  function delegate(address _target, bytes memory _data)... */\n      swap4\n      pop\n      pop\n      pop\n      pop\n      jump\t// out\n        /* \"CreateWallet/user.sol\":256:411  function withdraw(address payable _to, uint256 _amount) external {... */\n    tag_28:\n        /* \"CreateWallet/user.sol\":353:358  owner */\n      and(sub(shl(0xa0, 0x01), 0x01), sload(0x00))\n        /* \"CreateWallet/user.sol\":339:349  msg.sender */\n      caller\n        /* \"CreateWallet/user.sol\":339:358  msg.sender == owner */\n      eq\n        /* \"CreateWallet/user.sol\":331:373  require(msg.sender == owner, \"only owner\") */\n      tag_47\n      jumpi\n      mload(0x40)\n      shl(0xe5, 0x461bcd)\n      dup2\n      mstore\n      0x04\n      add\n      tag_31\n      swap1\n      tag_32\n      jump\t// in\n    tag_47:\n        /* \"CreateWallet/user.sol\":383:404  _to.transfer(_amount) */\n      mload(0x40)\n      sub(shl(0xa0, 0x01), 0x01)\n        /* \"CreateWallet/user.sol\":383:395  _to.transfer */\n      dup4\n      and\n      swap1\n        /* \"CreateWallet/user.sol\":383:404  _to.transfer(_amount) */\n      dup3\n      iszero\n      0x08fc\n      mul\n      swap1\n        /* \"CreateWallet/user.sol\":396:403  _amount */\n      dup4\n      swap1\n        /* \"CreateWallet/user.sol\":383:404  _to.transfer(_amount) */\n      0x00\n      dup2\n      dup2\n      dup2\n        /* \"CreateWallet/user.sol\":396:403  _amount */\n      dup6\n        /* \"CreateWallet/user.sol\":383:395  _to.transfer */\n      dup9\n        /* \"CreateWallet/user.sol\":383:404  _to.transfer(_amount) */\n      dup9\n      call\n      swap4\n      pop\n      pop\n      pop\n      pop\n      iszero\n      dup1\n      iszero\n      tag_50\n      jumpi\n      returndatasize\n      0x00\n      dup1\n      returndatacopy\n      revert(0x00, returndatasize)\n    tag_50:\n      pop\n        /* \"CreateWallet/user.sol\":256:411  function withdraw(address payable _to, uint256 _amount) external {... */\n      pop\n      pop\n      jump\t// out\n        /* \"#utility.yul\":196:327   */\n    tag_51:\n      sub(shl(0xa0, 0x01), 0x01)\n        /* \"#utility.yul\":271:302   */\n      dup2\n      and\n        /* \"#utility.yul\":261:303   */\n      dup2\n      eq\n        /* \"#utility.yul\":251:321   */\n      tag_57\n      jumpi\n        /* \"#utility.yul\":317:318   */\n      0x00\n        /* \"#utility.yul\":314:315   */\n      dup1\n        /* \"#utility.yul\":307:319   */\n      revert\n        /* \"#utility.yul\":251:321   */\n    tag_57:\n        /* \"#utility.yul\":196:327   */\n      pop\n      jump\t// out\n        /* \"#utility.yul\":332:459   */\n    tag_52:\n        /* \"#utility.yul\":393:403   */\n      0x4e487b71\n        /* \"#utility.yul\":388:391   */\n      0xe0\n        /* \"#utility.yul\":384:404   */\n      shl\n        /* \"#utility.yul\":381:382   */\n      0x00\n        /* \"#utility.yul\":374:405   */\n      mstore\n        /* \"#utility.yul\":424:428   */\n      0x41\n        /* \"#utility.yul\":421:422   */\n      0x04\n        /* \"#utility.yul\":414:429   */\n      mstore\n        /* \"#utility.yul\":448:452   */\n      0x24\n        /* \"#utility.yul\":445:446   */\n      0x00\n        /* \"#utility.yul\":438:453   */\n      revert\n        /* \"#utility.yul\":464:1520   */\n    tag_20:\n        /* \"#utility.yul\":541:547   */\n      0x00\n        /* \"#utility.yul\":549:555   */\n      dup1\n        /* \"#utility.yul\":602:604   */\n      0x40\n        /* \"#utility.yul\":590:599   */\n      dup4\n        /* \"#utility.yul\":581:588   */\n      dup6\n        /* \"#utility.yul\":577:600   */\n      sub\n        /* \"#utility.yul\":573:605   */\n      slt\n        /* \"#utility.yul\":570:622   */\n      iszero\n      tag_60\n      jumpi\n        /* \"#utility.yul\":618:619   */\n      0x00\n        /* \"#utility.yul\":615:616   */\n      dup1\n        /* \"#utility.yul\":608:620   */\n      revert\n        /* \"#utility.yul\":570:622   */\n    tag_60:\n        /* \"#utility.yul\":657:666   */\n      dup3\n        /* \"#utility.yul\":644:667   */\n      calldataload\n        /* \"#utility.yul\":676:707   */\n      tag_61\n        /* \"#utility.yul\":701:706   */\n      dup2\n        /* \"#utility.yul\":676:707   */\n      tag_51\n      jump\t// in\n    tag_61:\n        /* \"#utility.yul\":726:731   */\n      swap2\n      pop\n        /* \"#utility.yul\":782:784   */\n      0x20\n        /* \"#utility.yul\":767:785   */\n      dup4\n      add\n        /* \"#utility.yul\":754:786   */\n      calldataload\n        /* \"#utility.yul\":805:823   */\n      0xffffffffffffffff\n        /* \"#utility.yul\":835:849   */\n      dup1\n      dup3\n      gt\n        /* \"#utility.yul\":832:866   */\n      iszero\n      tag_62\n      jumpi\n        /* \"#utility.yul\":862:863   */\n      0x00\n        /* \"#utility.yul\":859:860   */\n      dup1\n        /* \"#utility.yul\":852:864   */\n      revert\n        /* \"#utility.yul\":832:866   */\n    tag_62:\n        /* \"#utility.yul\":900:906   */\n      dup2\n        /* \"#utility.yul\":889:898   */\n      dup6\n        /* \"#utility.yul\":885:907   */\n      add\n        /* \"#utility.yul\":875:907   */\n      swap2\n      pop\n        /* \"#utility.yul\":945:952   */\n      dup6\n        /* \"#utility.yul\":938:942   */\n      0x1f\n        /* \"#utility.yul\":934:936   */\n      dup4\n        /* \"#utility.yul\":930:943   */\n      add\n        /* \"#utility.yul\":926:953   */\n      slt\n        /* \"#utility.yul\":916:971   */\n      tag_63\n      jumpi\n        /* \"#utility.yul\":967:968   */\n      0x00\n        /* \"#utility.yul\":964:965   */\n      dup1\n        /* \"#utility.yul\":957:969   */\n      revert\n        /* \"#utility.yul\":916:971   */\n    tag_63:\n        /* \"#utility.yul\":1003:1005   */\n      dup2\n        /* \"#utility.yul\":990:1006   */\n      calldataload\n        /* \"#utility.yul\":1025:1027   */\n      dup2\n        /* \"#utility.yul\":1021:1023   */\n      dup2\n        /* \"#utility.yul\":1018:1028   */\n      gt\n        /* \"#utility.yul\":1015:1051   */\n      iszero\n      tag_65\n      jumpi\n        /* \"#utility.yul\":1031:1049   */\n      tag_65\n      tag_52\n      jump\t// in\n    tag_65:\n        /* \"#utility.yul\":1106:1108   */\n      0x40\n        /* \"#utility.yul\":1100:1109   */\n      mload\n        /* \"#utility.yul\":1074:1076   */\n      0x1f\n        /* \"#utility.yul\":1160:1173   */\n      dup3\n      add\n      not(0x1f)\n        /* \"#utility.yul\":1156:1178   */\n      swap1\n      dup2\n      and\n        /* \"#utility.yul\":1180:1182   */\n      0x3f\n        /* \"#utility.yul\":1152:1183   */\n      add\n        /* \"#utility.yul\":1148:1188   */\n      and\n        /* \"#utility.yul\":1136:1189   */\n      dup2\n      add\n      swap1\n        /* \"#utility.yul\":1204:1222   */\n      dup4\n      dup3\n      gt\n        /* \"#utility.yul\":1224:1246   */\n      dup2\n      dup4\n      lt\n        /* \"#utility.yul\":1201:1247   */\n      or\n        /* \"#utility.yul\":1198:1270   */\n      iszero\n      tag_67\n      jumpi\n        /* \"#utility.yul\":1250:1268   */\n      tag_67\n      tag_52\n      jump\t// in\n    tag_67:\n        /* \"#utility.yul\":1290:1300   */\n      dup2\n        /* \"#utility.yul\":1286:1288   */\n      0x40\n        /* \"#utility.yul\":1279:1301   */\n      mstore\n        /* \"#utility.yul\":1325:1327   */\n      dup3\n        /* \"#utility.yul\":1317:1323   */\n      dup2\n        /* \"#utility.yul\":1310:1328   */\n      mstore\n        /* \"#utility.yul\":1365:1372   */\n      dup9\n        /* \"#utility.yul\":1360:1362   */\n      0x20\n        /* \"#utility.yul\":1355:1357   */\n      dup5\n        /* \"#utility.yul\":1351:1353   */\n      dup8\n        /* \"#utility.yul\":1347:1358   */\n      add\n        /* \"#utility.yul\":1343:1363   */\n      add\n        /* \"#utility.yul\":1340:1373   */\n      gt\n        /* \"#utility.yul\":1337:1390   */\n      iszero\n      tag_68\n      jumpi\n        /* \"#utility.yul\":1386:1387   */\n      0x00\n        /* \"#utility.yul\":1383:1384   */\n      dup1\n        /* \"#utility.yul\":1376:1388   */\n      revert\n        /* \"#utility.yul\":1337:1390   */\n    tag_68:\n        /* \"#utility.yul\":1442:1444   */\n      dup3\n        /* \"#utility.yul\":1437:1439   */\n      0x20\n        /* \"#utility.yul\":1433:1435   */\n      dup7\n        /* \"#utility.yul\":1429:1440   */\n      add\n        /* \"#utility.yul\":1424:1426   */\n      0x20\n        /* \"#utility.yul\":1416:1422   */\n      dup4\n        /* \"#utility.yul\":1412:1427   */\n      add\n        /* \"#utility.yul\":1399:1445   */\n      calldatacopy\n        /* \"#utility.yul\":1487:1488   */\n      0x00\n        /* \"#utility.yul\":1482:1484   */\n      0x20\n        /* \"#utility.yul\":1477:1479   */\n      dup5\n        /* \"#utility.yul\":1469:1475   */\n      dup4\n        /* \"#utility.yul\":1465:1480   */\n      add\n        /* \"#utility.yul\":1461:1485   */\n      add\n        /* \"#utility.yul\":1454:1489   */\n      mstore\n        /* \"#utility.yul\":1508:1514   */\n      dup1\n        /* \"#utility.yul\":1498:1514   */\n      swap6\n      pop\n      pop\n      pop\n      pop\n      pop\n      pop\n        /* \"#utility.yul\":464:1520   */\n      swap3\n      pop\n      swap3\n      swap1\n      pop\n      jump\t// out\n        /* \"#utility.yul\":1525:1775   */\n    tag_53:\n        /* \"#utility.yul\":1610:1611   */\n      0x00\n        /* \"#utility.yul\":1620:1733   */\n    tag_70:\n        /* \"#utility.yul\":1634:1640   */\n      dup4\n        /* \"#utility.yul\":1631:1632   */\n      dup2\n        /* \"#utility.yul\":1628:1641   */\n      lt\n        /* \"#utility.yul\":1620:1733   */\n      iszero\n      tag_72\n      jumpi\n        /* \"#utility.yul\":1710:1721   */\n      dup2\n      dup2\n      add\n        /* \"#utility.yul\":1704:1722   */\n      mload\n        /* \"#utility.yul\":1691:1702   */\n      dup4\n      dup3\n      add\n        /* \"#utility.yul\":1684:1723   */\n      mstore\n        /* \"#utility.yul\":1656:1658   */\n      0x20\n        /* \"#utility.yul\":1649:1659   */\n      add\n        /* \"#utility.yul\":1620:1733   */\n      jump(tag_70)\n    tag_72:\n      pop\n      pop\n        /* \"#utility.yul\":1767:1768   */\n      0x00\n        /* \"#utility.yul\":1749:1765   */\n      swap2\n      add\n        /* \"#utility.yul\":1742:1769   */\n      mstore\n        /* \"#utility.yul\":1525:1775   */\n      jump\t// out\n        /* \"#utility.yul\":1780:2174   */\n    tag_23:\n        /* \"#utility.yul\":1927:1929   */\n      0x20\n        /* \"#utility.yul\":1916:1925   */\n      dup2\n        /* \"#utility.yul\":1909:1930   */\n      mstore\n        /* \"#utility.yul\":1890:1894   */\n      0x00\n        /* \"#utility.yul\":1959:1965   */\n      dup3\n        /* \"#utility.yul\":1953:1966   */\n      mload\n        /* \"#utility.yul\":2002:2008   */\n      dup1\n        /* \"#utility.yul\":1997:1999   */\n      0x20\n        /* \"#utility.yul\":1986:1995   */\n      dup5\n        /* \"#utility.yul\":1982:2000   */\n      add\n        /* \"#utility.yul\":1975:2009   */\n      mstore\n        /* \"#utility.yul\":2018:2097   */\n      tag_74\n        /* \"#utility.yul\":2090:2096   */\n      dup2\n        /* \"#utility.yul\":2085:2087   */\n      0x40\n        /* \"#utility.yul\":2074:2083   */\n      dup6\n        /* \"#utility.yul\":2070:2088   */\n      add\n        /* \"#utility.yul\":2065:2067   */\n      0x20\n        /* \"#utility.yul\":2057:2063   */\n      dup8\n        /* \"#utility.yul\":2053:2068   */\n      add\n        /* \"#utility.yul\":2018:2097   */\n      tag_53\n      jump\t// in\n    tag_74:\n        /* \"#utility.yul\":2158:2160   */\n      0x1f\n        /* \"#utility.yul\":2137:2152   */\n      add\n      not(0x1f)\n        /* \"#utility.yul\":2133:2162   */\n      and\n        /* \"#utility.yul\":2118:2163   */\n      swap2\n      swap1\n      swap2\n      add\n        /* \"#utility.yul\":2165:2167   */\n      0x40\n        /* \"#utility.yul\":2114:2168   */\n      add\n      swap3\n        /* \"#utility.yul\":1780:2174   */\n      swap2\n      pop\n      pop\n      jump\t// out\n        /* \"#utility.yul\":2179:2502   */\n    tag_27:\n        /* \"#utility.yul\":2255:2261   */\n      0x00\n        /* \"#utility.yul\":2263:2269   */\n      dup1\n        /* \"#utility.yul\":2316:2318   */\n      0x40\n        /* \"#utility.yul\":2304:2313   */\n      dup4\n        /* \"#utility.yul\":2295:2302   */\n      dup6\n        /* \"#utility.yul\":2291:2314   */\n      sub\n        /* \"#utility.yul\":2287:2319   */\n      slt\n        /* \"#utility.yul\":2284:2336   */\n      iszero\n      tag_76\n      jumpi\n        /* \"#utility.yul\":2332:2333   */\n      0x00\n        /* \"#utility.yul\":2329:2330   */\n      dup1\n        /* \"#utility.yul\":2322:2334   */\n      revert\n        /* \"#utility.yul\":2284:2336   */\n    tag_76:\n        /* \"#utility.yul\":2371:2380   */\n      dup3\n        /* \"#utility.yul\":2358:2381   */\n      calldataload\n        /* \"#utility.yul\":2390:2421   */\n      tag_77\n        /* \"#utility.yul\":2415:2420   */\n      dup2\n        /* \"#utility.yul\":2390:2421   */\n      tag_51\n      jump\t// in\n    tag_77:\n        /* \"#utility.yul\":2440:2445   */\n      swap5\n        /* \"#utility.yul\":2492:2494   */\n      0x20\n        /* \"#utility.yul\":2477:2495   */\n      swap4\n      swap1\n      swap4\n      add\n        /* \"#utility.yul\":2464:2496   */\n      calldataload\n      swap4\n      pop\n      pop\n      pop\n        /* \"#utility.yul\":2179:2502   */\n      jump\t// out\n        /* \"#utility.yul\":2507:2841   */\n    tag_32:\n        /* \"#utility.yul\":2709:2711   */\n      0x20\n        /* \"#utility.yul\":2691:2712   */\n      dup1\n      dup3\n      mstore\n        /* \"#utility.yul\":2748:2750   */\n      0x0a\n        /* \"#utility.yul\":2728:2746   */\n      swap1\n      dup3\n      add\n        /* \"#utility.yul\":2721:2751   */\n      mstore\n      shl(0xb1, 0x37b7363c9037bbb732b9)\n        /* \"#utility.yul\":2782:2784   */\n      0x40\n        /* \"#utility.yul\":2767:2785   */\n      dup3\n      add\n        /* \"#utility.yul\":2760:2800   */\n      mstore\n        /* \"#utility.yul\":2832:2834   */\n      0x60\n        /* \"#utility.yul\":2817:2835   */\n      add\n      swap1\n        /* \"#utility.yul\":2507:2841   */\n      jump\t// out\n        /* \"#utility.yul\":2846:3133   */\n    tag_39:\n        /* \"#utility.yul\":2975:2978   */\n      0x00\n        /* \"#utility.yul\":3013:3019   */\n      dup3\n        /* \"#utility.yul\":3007:3020   */\n      mload\n        /* \"#utility.yul\":3029:3095   */\n      tag_80\n        /* \"#utility.yul\":3088:3094   */\n      dup2\n        /* \"#utility.yul\":3083:3086   */\n      dup5\n        /* \"#utility.yul\":3076:3080   */\n      0x20\n        /* \"#utility.yul\":3068:3074   */\n      dup8\n        /* \"#utility.yul\":3064:3081   */\n      add\n        /* \"#utility.yul\":3029:3095   */\n      tag_53\n      jump\t// in\n    tag_80:\n        /* \"#utility.yul\":3111:3127   */\n      swap2\n      swap1\n      swap2\n      add\n      swap3\n        /* \"#utility.yul\":2846:3133   */\n      swap2\n      pop\n      pop\n      jump\t// out\n\n    auxdata: 0xa2646970667358221220ad7c2d023bbda45f2f9558d95af26a08a6816578c3dabfeed1be14d8d74bf32064736f6c63430008140033\n}\n",
				"bytecode": {
					"linkReferences": {},
					"object": "608060405234801561001057600080fd5b506040516104d23803806104d283398101604081905261002f91610054565b600080546001600160a01b0319166001600160a01b0392909216919091179055610084565b60006020828403121561006657600080fd5b81516001600160a01b038116811461007d57600080fd5b9392505050565b61043f806100936000396000f3fe60806040526004361061004a5760003560e01c806312065fe01461004f5780632b68b9c614610077578063d0e30db01461008c578063d6d2b6ba1461008e578063f3fef3a3146100bb575b600080fd5b34801561005b57600080fd5b506100646100db565b6040519081526020015b60405180910390f35b34801561008357600080fd5b5061008c610114565b005b34801561009a57600080fd5b506100ae6100a9366004610282565b610141565b60405161006e919061036a565b3480156100c757600080fd5b5061008c6100d636600461039d565b6101ef565b600080546001600160a01b0316331461010f5760405162461bcd60e51b8152600401610106906103c9565b60405180910390fd5b504790565b6000546001600160a01b0316331461013e5760405162461bcd60e51b8152600401610106906103c9565b33ff5b6060600080846001600160a01b03168460405161015e91906103ed565b600060405180830381855af49150503d8060008114610199576040519150601f19603f3d011682016040523d82523d6000602084013e61019e565b606091505b5091509150816101e75760405162461bcd60e51b815260206004820152601460248201527311195b1959d85d194818d85b1b0819985a5b195960621b6044820152606401610106565b949350505050565b6000546001600160a01b031633146102195760405162461bcd60e51b8152600401610106906103c9565b6040516001600160a01b0383169082156108fc029083906000818181858888f1935050505015801561024f573d6000803e3d6000fd5b505050565b6001600160a01b038116811461026957600080fd5b50565b634e487b7160e01b600052604160045260246000fd5b6000806040838503121561029557600080fd5b82356102a081610254565b9150602083013567ffffffffffffffff808211156102bd57600080fd5b818501915085601f8301126102d157600080fd5b8135818111156102e3576102e361026c565b604051601f8201601f19908116603f0116810190838211818310171561030b5761030b61026c565b8160405282815288602084870101111561032457600080fd5b8260208601602083013760006020848301015280955050505050509250929050565b60005b83811015610361578181015183820152602001610349565b50506000910152565b6020815260008251806020840152610389816040850160208701610346565b601f01601f19169190910160400192915050565b600080604083850312156103b057600080fd5b82356103bb81610254565b946020939093013593505050565b6020808252600a908201526937b7363c9037bbb732b960b11b604082015260600190565b600082516103ff818460208701610346565b919091019291505056fea2646970667358221220ad7c2d023bbda45f2f9558d95af26a08a6816578c3dabfeed1be14d8d74bf32064736f6c63430008140033",
					"opcodes": "PUSH1 0x80 PUSH1 0x40 MSTORE CALLVALUE DUP1 ISZERO PUSH2 0x10 JUMPI PUSH1 0x0 DUP1 REVERT JUMPDEST POP PUSH1 0x40 MLOAD PUSH2 0x4D2 CODESIZE SUB DUP1 PUSH2 0x4D2 DUP4 CODECOPY DUP2 ADD PUSH1 0x40 DUP2 SWAP1 MSTORE PUSH2 0x2F SWAP2 PUSH2 0x54 JUMP JUMPDEST PUSH1 0x0 DUP1 SLOAD PUSH1 0x1 PUSH1 0x1 PUSH1 0xA0 SHL SUB NOT AND PUSH1 0x1 PUSH1 0x1 PUSH1 0xA0 SHL SUB SWAP3 SWAP1 SWAP3 AND SWAP2 SWAP1 SWAP2 OR SWAP1 SSTORE PUSH2 0x84 JUMP JUMPDEST PUSH1 0x0 PUSH1 0x20 DUP3 DUP5 SUB SLT ISZERO PUSH2 0x66 JUMPI PUSH1 0x0 DUP1 REVERT JUMPDEST DUP2 MLOAD PUSH1 0x1 PUSH1 0x1 PUSH1 0xA0 SHL SUB DUP2 AND DUP2 EQ PUSH2 0x7D JUMPI PUSH1 0x0 DUP1 REVERT JUMPDEST SWAP4 SWAP3 POP POP POP JUMP JUMPDEST PUSH2 0x43F DUP1 PUSH2 0x93 PUSH1 0x0 CODECOPY PUSH1 0x0 RETURN INVALID PUSH1 0x80 PUSH1 0x40 MSTORE PUSH1 0x4 CALLDATASIZE LT PUSH2 0x4A JUMPI PUSH1 0x0 CALLDATALOAD PUSH1 0xE0 SHR DUP1 PUSH4 0x12065FE0 EQ PUSH2 0x4F JUMPI DUP1 PUSH4 0x2B68B9C6 EQ PUSH2 0x77 JUMPI DUP1 PUSH4 0xD0E30DB0 EQ PUSH2 0x8C JUMPI DUP1 PUSH4 0xD6D2B6BA EQ PUSH2 0x8E JUMPI DUP1 PUSH4 0xF3FEF3A3 EQ PUSH2 0xBB JUMPI JUMPDEST PUSH1 0x0 DUP1 REVERT JUMPDEST CALLVALUE DUP1 ISZERO PUSH2 0x5B JUMPI PUSH1 0x0 DUP1 REVERT JUMPDEST POP PUSH2 0x64 PUSH2 0xDB JUMP JUMPDEST PUSH1 0x40 MLOAD SWAP1 DUP2 MSTORE PUSH1 0x20 ADD JUMPDEST PUSH1 0x40 MLOAD DUP1 SWAP2 SUB SWAP1 RETURN JUMPDEST CALLVALUE DUP1 ISZERO PUSH2 0x83 JUMPI PUSH1 0x0 DUP1 REVERT JUMPDEST POP PUSH2 0x8C PUSH2 0x114 JUMP JUMPDEST STOP JUMPDEST CALLVALUE DUP1 ISZERO PUSH2 0x9A JUMPI PUSH1 0x0 DUP1 REVERT JUMPDEST POP PUSH2 0xAE PUSH2 0xA9 CALLDATASIZE PUSH1 0x4 PUSH2 0x282 JUMP JUMPDEST PUSH2 0x141 JUMP JUMPDEST PUSH1 0x40 MLOAD PUSH2 0x6E SWAP2 SWAP1 PUSH2 0x36A JUMP JUMPDEST CALLVALUE DUP1 ISZERO PUSH2 0xC7 JUMPI PUSH1 0x0 DUP1 REVERT JUMPDEST POP PUSH2 0x8C PUSH2 0xD6 CALLDATASIZE PUSH1 0x4 PUSH2 0x39D JUMP JUMPDEST PUSH2 0x1EF JUMP JUMPDEST PUSH1 0x0 DUP1 SLOAD PUSH1 0x1 PUSH1 0x1 PUSH1 0xA0 SHL SUB AND CALLER EQ PUSH2 0x10F JUMPI PUSH1 0x40 MLOAD PUSH3 0x461BCD PUSH1 0xE5 SHL DUP2 MSTORE PUSH1 0x4 ADD PUSH2 0x106 SWAP1 PUSH2 0x3C9 JUMP JUMPDEST PUSH1 0x40 MLOAD DUP1 SWAP2 SUB SWAP1 REVERT JUMPDEST POP SELFBALANCE SWAP1 JUMP JUMPDEST PUSH1 0x0 SLOAD PUSH1 0x1 PUSH1 0x1 PUSH1 0xA0 SHL SUB AND CALLER EQ PUSH2 0x13E JUMPI PUSH1 0x40 MLOAD PUSH3 0x461BCD PUSH1 0xE5 SHL DUP2 MSTORE PUSH1 0x4 ADD PUSH2 0x106 SWAP1 PUSH2 0x3C9 JUMP JUMPDEST CALLER SELFDESTRUCT JUMPDEST PUSH1 0x60 PUSH1 0x0 DUP1 DUP5 PUSH1 0x1 PUSH1 0x1 PUSH1 0xA0 SHL SUB AND DUP5 PUSH1 0x40 MLOAD PUSH2 0x15E SWAP2 SWAP1 PUSH2 0x3ED JUMP JUMPDEST PUSH1 0x0 PUSH1 0x40 MLOAD DUP1 DUP4 SUB DUP2 DUP6 GAS DELEGATECALL SWAP2 POP POP RETURNDATASIZE DUP1 PUSH1 0x0 DUP2 EQ PUSH2 0x199 JUMPI PUSH1 0x40 MLOAD SWAP2 POP PUSH1 0x1F NOT PUSH1 0x3F RETURNDATASIZE ADD AND DUP3 ADD PUSH1 0x40 MSTORE RETURNDATASIZE DUP3 MSTORE RETURNDATASIZE PUSH1 0x0 PUSH1 0x20 DUP5 ADD RETURNDATACOPY PUSH2 0x19E JUMP JUMPDEST PUSH1 0x60 SWAP2 POP JUMPDEST POP SWAP2 POP SWAP2 POP DUP2 PUSH2 0x1E7 JUMPI PUSH1 0x40 MLOAD PUSH3 0x461BCD PUSH1 0xE5 SHL DUP2 MSTORE PUSH1 0x20 PUSH1 0x4 DUP3 ADD MSTORE PUSH1 0x14 PUSH1 0x24 DUP3 ADD MSTORE PUSH20 0x11195B1959D85D194818D85B1B0819985A5B1959 PUSH1 0x62 SHL PUSH1 0x44 DUP3 ADD MSTORE PUSH1 0x64 ADD PUSH2 0x106 JUMP JUMPDEST SWAP5 SWAP4 POP POP POP POP JUMP JUMPDEST PUSH1 0x0 SLOAD PUSH1 0x1 PUSH1 0x1 PUSH1 0xA0 SHL SUB AND CALLER EQ PUSH2 0x219 JUMPI PUSH1 0x40 MLOAD PUSH3 0x461BCD PUSH1 0xE5 SHL DUP2 MSTORE PUSH1 0x4 ADD PUSH2 0x106 SWAP1 PUSH2 0x3C9 JUMP JUMPDEST PUSH1 0x40 MLOAD PUSH1 0x1 PUSH1 0x1 PUSH1 0xA0 SHL SUB DUP4 AND SWAP1 DUP3 ISZERO PUSH2 0x8FC MUL SWAP1 DUP4 SWAP1 PUSH1 0x0 DUP2 DUP2 DUP2 DUP6 DUP9 DUP9 CALL SWAP4 POP POP POP POP ISZERO DUP1 ISZERO PUSH2 0x24F JUMPI RETURNDATASIZE PUSH1 0x0 DUP1 RETURNDATACOPY RETURNDATASIZE PUSH1 0x0 REVERT JUMPDEST POP POP POP JUMP JUMPDEST PUSH1 0x1 PUSH1 0x1 PUSH1 0xA0 SHL SUB DUP2 AND DUP2 EQ PUSH2 0x269 JUMPI PUSH1 0x0 DUP1 REVERT JUMPDEST POP JUMP JUMPDEST PUSH4 0x4E487B71 PUSH1 0xE0 SHL PUSH1 0x0 MSTORE PUSH1 0x41 PUSH1 0x4 MSTORE PUSH1 0x24 PUSH1 0x0 REVERT JUMPDEST PUSH1 0x0 DUP1 PUSH1 0x40 DUP4 DUP6 SUB SLT ISZERO PUSH2 0x295 JUMPI PUSH1 0x0 DUP1 REVERT JUMPDEST DUP3 CALLDATALOAD PUSH2 0x2A0 DUP2 PUSH2 0x254 JUMP JUMPDEST SWAP2 POP PUSH1 0x20 DUP4 ADD CALLDATALOAD PUSH8 0xFFFFFFFFFFFFFFFF DUP1 DUP3 GT ISZERO PUSH2 0x2BD JUMPI PUSH1 0x0 DUP1 REVERT JUMPDEST DUP2 DUP6 ADD SWAP2 POP DUP6 PUSH1 0x1F DUP4 ADD SLT PUSH2 0x2D1 JUMPI PUSH1 0x0 DUP1 REVERT JUMPDEST DUP2 CALLDATALOAD DUP2 DUP2 GT ISZERO PUSH2 0x2E3 JUMPI PUSH2 0x2E3 PUSH2 0x26C JUMP JUMPDEST PUSH1 0x40 MLOAD PUSH1 0x1F DUP3 ADD PUSH1 0x1F NOT SWAP1 DUP2 AND PUSH1 0x3F ADD AND DUP2 ADD SWAP1 DUP4 DUP3 GT DUP2 DUP4 LT OR ISZERO PUSH2 0x30B JUMPI PUSH2 0x30B PUSH2 0x26C JUMP JUMPDEST DUP2 PUSH1 0x40 MSTORE DUP3 DUP2 MSTORE DUP9 PUSH1 0x20 DUP5 DUP8 ADD ADD GT ISZERO PUSH2 0x324 JUMPI PUSH1 0x0 DUP1 REVERT JUMPDEST DUP3 PUSH1 0x20 DUP7 ADD PUSH1 0x20 DUP4 ADD CALLDATACOPY PUSH1 0x0 PUSH1 0x20 DUP5 DUP4 ADD ADD MSTORE DUP1 SWAP6 POP POP POP POP POP POP SWAP3 POP SWAP3 SWAP1 POP JUMP JUMPDEST PUSH1 0x0 JUMPDEST DUP4 DUP2 LT ISZERO PUSH2 0x361 JUMPI DUP2 DUP2 ADD MLOAD DUP4 DUP3 ADD MSTORE PUSH1 0x20 ADD PUSH2 0x349 JUMP JUMPDEST POP POP PUSH1 0x0 SWAP2 ADD MSTORE JUMP JUMPDEST PUSH1 0x20 DUP2 MSTORE PUSH1 0x0 DUP3 MLOAD DUP1 PUSH1 0x20 DUP5 ADD MSTORE PUSH2 0x389 DUP2 PUSH1 0x40 DUP6 ADD PUSH1 0x20 DUP8 ADD PUSH2 0x346 JUMP JUMPDEST PUSH1 0x1F ADD PUSH1 0x1F NOT AND SWAP2 SWAP1 SWAP2 ADD PUSH1 0x40 ADD SWAP3 SWAP2 POP POP JUMP JUMPDEST PUSH1 0x0 DUP1 PUSH1 0x40 DUP4 DUP6 SUB SLT ISZERO PUSH2 0x3B0 JUMPI PUSH1 0x0 DUP1 REVERT JUMPDEST DUP3 CALLDATALOAD PUSH2 0x3BB DUP2 PUSH2 0x254 JUMP JUMPDEST SWAP5 PUSH1 0x20 SWAP4 SWAP1 SWAP4 ADD CALLDATALOAD SWAP4 POP POP POP JUMP JUMPDEST PUSH1 0x20 DUP1 DUP3 MSTORE PUSH1 0xA SWAP1 DUP3 ADD MSTORE PUSH10 0x37B7363C9037BBB732B9 PUSH1 0xB1 SHL PUSH1 0x40 DUP3 ADD MSTORE PUSH1 0x60 ADD SWAP1 JUMP JUMPDEST PUSH1 0x0 DUP3 MLOAD PUSH2 0x3FF DUP2 DUP5 PUSH1 0x20 DUP8 ADD PUSH2 0x346 JUMP JUMPDEST SWAP2 SWAP1 SWAP2 ADD SWAP3 SWAP2 POP POP JUMP INVALID LOG2 PUSH5 0x6970667358 0x22 SLT KECCAK256 0xAD PUSH29 0x2D023BBDA45F2F9558D95AF26A08A6816578C3DABFEED1BE14D8D74BF3 KECCAK256 PUSH5 0x736F6C6343 STOP ADDMOD EQ STOP CALLER "
				},
				"gasEstimates": {
					"creation": {
						"codeDepositCost": "217400",
						"executionCost": "infinite",
						"totalCost": "infinite"
					},
					"external": {
						"delegate(address,bytes)": "infinite",
						"deposit()": "118",
						"destruct()": "29877",
						"getBalance()": "2399",
						"withdraw(address,uint256)": "infinite"
					}
				},
				"methodIdentifiers": {
					"delegate(address,bytes)": "d6d2b6ba",
					"deposit()": "d0e30db0",
					"destruct()": "2b68b9c6",
					"getBalance()": "12065fe0",
					"withdraw(address,uint256)": "f3fef3a3"
				}
			},
			"storageLayout": {
				"storage": [
					{
						"astId": 3,
						"contract": "CreateWallet/user.sol:user",
						"label": "owner",
						"offset": 0,
						"slot": "0",
						"type": "t_address"
					}
				],
				"types": {
					"t_address": {
						"encoding": "inplace",
						"label": "address",
						"numberOfBytes": "20"
					}
				}
			},
			"userdoc": {
				"kind": "user",
				"methods": {},
				"version": 1
			}
		}
	}
}