{
	"data": {
		"bytecode": {
			"linkReferences": {},
			"object": "608060405234801561001057600080fd5b50610296806100206000396000f3fe608060405234801561001057600080fd5b506004361061004c5760003560e01c8063035f962d146100515780639cf38f7c14610076578063cf6c62ea1461008c578063df791e50146100a4575b600080fd5b61006461005f3660046101af565b6100bb565b60405190815260200160405180910390f35b6100646100843660046101f1565b600092915050565b61006461009a3660046101af565b6000949350505050565b6100646100b2366004610224565b60009392505050565b60008484806001600160a01b0316826001600160a01b0316036101255760405162461bcd60e51b815260206004820152601a60248201527f416464726573732063616e277420626520646966666572656e7400000000000060448201526064015b60405180910390fd5b6001600160a01b0382161580159061014557506001600160a01b03811615155b6101895760405162461bcd60e51b81526020600482015260156024820152741059191c995cdcc81b5d5cdd081899481d985b1a59605a1b604482015260640161011c565b5050949350505050565b80356001600160a01b03811681146101aa57600080fd5b919050565b600080600080608085870312156101c557600080fd5b6101ce85610193565b93506101dc60208601610193565b93969395505050506040820135916060013590565b6000806040838503121561020457600080fd5b61020d83610193565b915061021b60208401610193565b90509250929050565b60008060006060848603121561023957600080fd5b61024284610193565b925061025060208501610193565b915060408401359050925092509256fea26469706673582212207e1b0c25652abb8695bdf85f5974d5b7066a47f9969082e1a3b3577de1d2777764736f6c63430008140033",
			"opcodes": "PUSH1 0x80 PUSH1 0x40 MSTORE CALLVALUE DUP1 ISZERO PUSH2 0x10 JUMPI PUSH1 0x0 DUP1 REVERT JUMPDEST POP PUSH2 0x296 DUP1 PUSH2 0x20 PUSH1 0x0 CODECOPY PUSH1 0x0 RETURN INVALID PUSH1 0x80 PUSH1 0x40 MSTORE CALLVALUE DUP1 ISZERO PUSH2 0x10 JUMPI PUSH1 0x0 DUP1 REVERT JUMPDEST POP PUSH1 0x4 CALLDATASIZE LT PUSH2 0x4C JUMPI PUSH1 0x0 CALLDATALOAD PUSH1 0xE0 SHR DUP1 PUSH4 0x35F962D EQ PUSH2 0x51 JUMPI DUP1 PUSH4 0x9CF38F7C EQ PUSH2 0x76 JUMPI DUP1 PUSH4 0xCF6C62EA EQ PUSH2 0x8C JUMPI DUP1 PUSH4 0xDF791E50 EQ PUSH2 0xA4 JUMPI JUMPDEST PUSH1 0x0 DUP1 REVERT JUMPDEST PUSH2 0x64 PUSH2 0x5F CALLDATASIZE PUSH1 0x4 PUSH2 0x1AF JUMP JUMPDEST PUSH2 0xBB JUMP JUMPDEST PUSH1 0x40 MLOAD SWAP1 DUP2 MSTORE PUSH1 0x20 ADD PUSH1 0x40 MLOAD DUP1 SWAP2 SUB SWAP1 RETURN JUMPDEST PUSH2 0x64 PUSH2 0x84 CALLDATASIZE PUSH1 0x4 PUSH2 0x1F1 JUMP JUMPDEST PUSH1 0x0 SWAP3 SWAP2 POP POP JUMP JUMPDEST PUSH2 0x64 PUSH2 0x9A CALLDATASIZE PUSH1 0x4 PUSH2 0x1AF JUMP JUMPDEST PUSH1 0x0 SWAP5 SWAP4 POP POP POP POP JUMP JUMPDEST PUSH2 0x64 PUSH2 0xB2 CALLDATASIZE PUSH1 0x4 PUSH2 0x224 JUMP JUMPDEST PUSH1 0x0 SWAP4 SWAP3 POP POP POP JUMP JUMPDEST PUSH1 0x0 DUP5 DUP5 DUP1 PUSH1 0x1 PUSH1 0x1 PUSH1 0xA0 SHL SUB AND DUP3 PUSH1 0x1 PUSH1 0x1 PUSH1 0xA0 SHL SUB AND SUB PUSH2 0x125 JUMPI PUSH1 0x40 MLOAD PUSH3 0x461BCD PUSH1 0xE5 SHL DUP2 MSTORE PUSH1 0x20 PUSH1 0x4 DUP3 ADD MSTORE PUSH1 0x1A PUSH1 0x24 DUP3 ADD MSTORE PUSH32 0x416464726573732063616E277420626520646966666572656E74000000000000 PUSH1 0x44 DUP3 ADD MSTORE PUSH1 0x64 ADD JUMPDEST PUSH1 0x40 MLOAD DUP1 SWAP2 SUB SWAP1 REVERT JUMPDEST PUSH1 0x1 PUSH1 0x1 PUSH1 0xA0 SHL SUB DUP3 AND ISZERO DUP1 ISZERO SWAP1 PUSH2 0x145 JUMPI POP PUSH1 0x1 PUSH1 0x1 PUSH1 0xA0 SHL SUB DUP2 AND ISZERO ISZERO JUMPDEST PUSH2 0x189 JUMPI PUSH1 0x40 MLOAD PUSH3 0x461BCD PUSH1 0xE5 SHL DUP2 MSTORE PUSH1 0x20 PUSH1 0x4 DUP3 ADD MSTORE PUSH1 0x15 PUSH1 0x24 DUP3 ADD MSTORE PUSH21 0x1059191C995CDCC81B5D5CDD081899481D985B1A59 PUSH1 0x5A SHL PUSH1 0x44 DUP3 ADD MSTORE PUSH1 0x64 ADD PUSH2 0x11C JUMP JUMPDEST POP POP SWAP5 SWAP4 POP POP POP POP JUMP JUMPDEST DUP1 CALLDATALOAD PUSH1 0x1 PUSH1 0x1 PUSH1 0xA0 SHL SUB DUP2 AND DUP2 EQ PUSH2 0x1AA JUMPI PUSH1 0x0 DUP1 REVERT JUMPDEST SWAP2 SWAP1 POP JUMP JUMPDEST PUSH1 0x0 DUP1 PUSH1 0x0 DUP1 PUSH1 0x80 DUP6 DUP8 SUB SLT ISZERO PUSH2 0x1C5 JUMPI PUSH1 0x0 DUP1 REVERT JUMPDEST PUSH2 0x1CE DUP6 PUSH2 0x193 JUMP JUMPDEST SWAP4 POP PUSH2 0x1DC PUSH1 0x20 DUP7 ADD PUSH2 0x193 JUMP JUMPDEST SWAP4 SWAP7 SWAP4 SWAP6 POP POP POP POP PUSH1 0x40 DUP3 ADD CALLDATALOAD SWAP2 PUSH1 0x60 ADD CALLDATALOAD SWAP1 JUMP JUMPDEST PUSH1 0x0 DUP1 PUSH1 0x40 DUP4 DUP6 SUB SLT ISZERO PUSH2 0x204 JUMPI PUSH1 0x0 DUP1 REVERT JUMPDEST PUSH2 0x20D DUP4 PUSH2 0x193 JUMP JUMPDEST SWAP2 POP PUSH2 0x21B PUSH1 0x20 DUP5 ADD PUSH2 0x193 JUMP JUMPDEST SWAP1 POP SWAP3 POP SWAP3 SWAP1 POP JUMP JUMPDEST PUSH1 0x0 DUP1 PUSH1 0x0 PUSH1 0x60 DUP5 DUP7 SUB SLT ISZERO PUSH2 0x239 JUMPI PUSH1 0x0 DUP1 REVERT JUMPDEST PUSH2 0x242 DUP5 PUSH2 0x193 JUMP JUMPDEST SWAP3 POP PUSH2 0x250 PUSH1 0x20 DUP6 ADD PUSH2 0x193 JUMP JUMPDEST SWAP2 POP PUSH1 0x40 DUP5 ADD CALLDATALOAD SWAP1 POP SWAP3 POP SWAP3 POP SWAP3 JUMP INVALID LOG2 PUSH5 0x6970667358 0x22 SLT KECCAK256 PUSH31 0x1B0C25652ABB8695BDF85F5974D5B7066A47F9969082E1A3B3577DE1D27777 PUSH5 0x736F6C6343 STOP ADDMOD EQ STOP CALLER "
		},
		"gasEstimates": {
			"creation": {
				"codeDepositCost": "132400",
				"executionCost": "177",
				"totalCost": "132577"
			},
			"external": {
				"addLiquidity(address,address,uint256,uint256)": "infinite",
				"createPair(address,address,uint256,uint256)": "infinite",
				"removeLiquidity(address,address)": "infinite",
				"swap(address,address,uint256)": "infinite"
			}
		},
		"methodIdentifiers": {
			"addLiquidity(address,address,uint256,uint256)": "cf6c62ea",
			"createPair(address,address,uint256,uint256)": "035f962d",
			"removeLiquidity(address,address)": "9cf38f7c",
			"swap(address,address,uint256)": "df791e50"
		}
	},
	"abi": [
		{
			"inputs": [
				{
					"internalType": "address",
					"name": "_token0Address",
					"type": "address"
				},
				{
					"internalType": "address",
					"name": "token1Address",
					"type": "address"
				},
				{
					"internalType": "uint256",
					"name": "_token0Amount",
					"type": "uint256"
				},
				{
					"internalType": "uint256",
					"name": "_token1Amount",
					"type": "uint256"
				}
			],
			"name": "addLiquidity",
			"outputs": [
				{
					"internalType": "uint256",
					"name": "",
					"type": "uint256"
				}
			],
			"stateMutability": "nonpayable",
			"type": "function"
		},
		{
			"inputs": [
				{
					"internalType": "address",
					"name": "_token0Address",
					"type": "address"
				},
				{
					"internalType": "address",
					"name": "_token1Address",
					"type": "address"
				},
				{
					"internalType": "uint256",
					"name": "_token0Amount",
					"type": "uint256"
				},
				{
					"internalType": "uint256",
					"name": "_token1Amount",
					"type": "uint256"
				}
			],
			"name": "createPair",
			"outputs": [
				{
					"internalType": "uint256",
					"name": "",
					"type": "uint256"
				}
			],
			"stateMutability": "nonpayable",
			"type": "function"
		},
		{
			"inputs": [
				{
					"internalType": "address",
					"name": "_token0Address",
					"type": "address"
				},
				{
					"internalType": "address",
					"name": "token1Address",
					"type": "address"
				}
			],
			"name": "removeLiquidity",
			"outputs": [
				{
					"internalType": "uint256",
					"name": "",
					"type": "uint256"
				}
			],
			"stateMutability": "nonpayable",
			"type": "function"
		},
		{
			"inputs": [
				{
					"internalType": "address",
					"name": "from",
					"type": "address"
				},
				{
					"internalType": "address",
					"name": "to",
					"type": "address"
				},
				{
					"internalType": "uint256",
					"name": "amount",
					"type": "uint256"
				}
			],
			"name": "swap",
			"outputs": [
				{
					"internalType": "uint256",
					"name": "",
					"type": "uint256"
				}
			],
			"stateMutability": "nonpayable",
			"type": "function"
		}
	]
}